{
	"contracts/StakingGovernance.sol": {
		"StakingGovernance": {
			"abi": [
				{
					"inputs": [
						{
							"internalType": "address",
							"name": "_stakingContract",
							"type": "address"
						},
						{
							"internalType": "address",
							"name": "_governanceContract",
							"type": "address"
						}
					],
					"stateMutability": "nonpayable",
					"type": "constructor"
				},
				{
					"anonymous": false,
					"inputs": [
						{
							"indexed": true,
							"internalType": "address",
							"name": "creator",
							"type": "address"
						},
						{
							"indexed": false,
							"internalType": "uint256",
							"name": "proposalId",
							"type": "uint256"
						},
						{
							"indexed": false,
							"internalType": "uint256",
							"name": "stakedAmount",
							"type": "uint256"
						}
					],
					"name": "ProposalCreatedBy",
					"type": "event"
				},
				{
					"anonymous": false,
					"inputs": [
						{
							"indexed": true,
							"internalType": "address",
							"name": "voter",
							"type": "address"
						},
						{
							"indexed": false,
							"internalType": "uint256",
							"name": "proposalId",
							"type": "uint256"
						},
						{
							"indexed": false,
							"internalType": "bool",
							"name": "support",
							"type": "bool"
						},
						{
							"indexed": false,
							"internalType": "uint256",
							"name": "stakedAmount",
							"type": "uint256"
						}
					],
					"name": "VoteCast",
					"type": "event"
				},
				{
					"inputs": [
						{
							"internalType": "address",
							"name": "user",
							"type": "address"
						}
					],
					"name": "checkEligibility",
					"outputs": [
						{
							"internalType": "bool",
							"name": "eligible",
							"type": "bool"
						},
						{
							"internalType": "uint256",
							"name": "stakedAmount",
							"type": "uint256"
						}
					],
					"stateMutability": "view",
					"type": "function"
				},
				{
					"inputs": [
						{
							"internalType": "string",
							"name": "description",
							"type": "string"
						}
					],
					"name": "createProposalAsStaker",
					"outputs": [
						{
							"internalType": "uint256",
							"name": "",
							"type": "uint256"
						}
					],
					"stateMutability": "nonpayable",
					"type": "function"
				},
				{
					"inputs": [
						{
							"internalType": "uint256",
							"name": "proposalId",
							"type": "uint256"
						}
					],
					"name": "getProposalInfo",
					"outputs": [
						{
							"internalType": "uint256",
							"name": "id",
							"type": "uint256"
						},
						{
							"internalType": "address",
							"name": "proposer",
							"type": "address"
						},
						{
							"internalType": "string",
							"name": "description",
							"type": "string"
						},
						{
							"internalType": "uint256",
							"name": "yesVotes",
							"type": "uint256"
						},
						{
							"internalType": "uint256",
							"name": "noVotes",
							"type": "uint256"
						},
						{
							"internalType": "uint256",
							"name": "deadline",
							"type": "uint256"
						},
						{
							"internalType": "bool",
							"name": "executed",
							"type": "bool"
						},
						{
							"internalType": "bool",
							"name": "passed",
							"type": "bool"
						}
					],
					"stateMutability": "view",
					"type": "function"
				},
				{
					"inputs": [],
					"name": "governanceContract",
					"outputs": [
						{
							"internalType": "contract IGovernance",
							"name": "",
							"type": "address"
						}
					],
					"stateMutability": "view",
					"type": "function"
				},
				{
					"inputs": [],
					"name": "minimumStakeToVote",
					"outputs": [
						{
							"internalType": "uint256",
							"name": "",
							"type": "uint256"
						}
					],
					"stateMutability": "view",
					"type": "function"
				},
				{
					"inputs": [],
					"name": "owner",
					"outputs": [
						{
							"internalType": "address",
							"name": "",
							"type": "address"
						}
					],
					"stateMutability": "view",
					"type": "function"
				},
				{
					"inputs": [],
					"name": "stakingContract",
					"outputs": [
						{
							"internalType": "contract IStaking",
							"name": "",
							"type": "address"
						}
					],
					"stateMutability": "view",
					"type": "function"
				},
				{
					"inputs": [
						{
							"internalType": "uint256",
							"name": "proposalId",
							"type": "uint256"
						},
						{
							"internalType": "bool",
							"name": "support",
							"type": "bool"
						}
					],
					"name": "voteAsStaker",
					"outputs": [],
					"stateMutability": "nonpayable",
					"type": "function"
				}
			],
			"devdoc": {
				"kind": "dev",
				"methods": {},
				"version": 1
			},
			"evm": {
				"assembly": "    /* \"contracts/StakingGovernance.sol\":998:3422  contract StakingGovernance {... */\n  mstore(0x40, 0x80)\n    /* \"contracts/StakingGovernance.sol\":1179:1190  0.001 ether */\n  0x038d7ea4c68000\n    /* \"contracts/StakingGovernance.sol\":1143:1190  uint256 public minimumStakeToVote = 0.001 ether */\n  0x03\n  sstore\n    /* \"contracts/StakingGovernance.sol\":1429:1652  constructor(address _stakingContract, address _governanceContract) {... */\n  callvalue\n  dup1\n  iszero\n  tag_1\n  jumpi\n  revert(0x00, 0x00)\ntag_1:\n  pop\n  mload(0x40)\n  sub(codesize, bytecodeSize)\n  dup1\n  bytecodeSize\n  dup4\n  codecopy\n  dup2\n  dup2\n  add\n  0x40\n  mstore\n  dup2\n  add\n  swap1\n  tag_2\n  swap2\n  swap1\n  tag_3\n  jump\t// in\ntag_2:\n    /* \"contracts/StakingGovernance.sol\":1515:1525  msg.sender */\n  caller\n    /* \"contracts/StakingGovernance.sol\":1507:1512  owner */\n  0x00\n  0x00\n    /* \"contracts/StakingGovernance.sol\":1507:1525  owner = msg.sender */\n  0x0100\n  exp\n  dup2\n  sload\n  dup2\n  0xffffffffffffffffffffffffffffffffffffffff\n  mul\n  not\n  and\n  swap1\n  dup4\n  0xffffffffffffffffffffffffffffffffffffffff\n  and\n  mul\n  or\n  swap1\n  sstore\n  pop\n    /* \"contracts/StakingGovernance.sol\":1563:1579  _stakingContract */\n  dup2\n    /* \"contracts/StakingGovernance.sol\":1536:1551  stakingContract */\n  0x01\n  0x00\n    /* \"contracts/StakingGovernance.sol\":1536:1580  stakingContract = IStaking(_stakingContract) */\n  0x0100\n  exp\n  dup2\n  sload\n  dup2\n  0xffffffffffffffffffffffffffffffffffffffff\n  mul\n  not\n  and\n  swap1\n  dup4\n  0xffffffffffffffffffffffffffffffffffffffff\n  and\n  mul\n  or\n  swap1\n  sstore\n  pop\n    /* \"contracts/StakingGovernance.sol\":1624:1643  _governanceContract */\n  dup1\n    /* \"contracts/StakingGovernance.sol\":1591:1609  governanceContract */\n  0x02\n  0x00\n    /* \"contracts/StakingGovernance.sol\":1591:1644  governanceContract = IGovernance(_governanceContract) */\n  0x0100\n  exp\n  dup2\n  sload\n  dup2\n  0xffffffffffffffffffffffffffffffffffffffff\n  mul\n  not\n  and\n  swap1\n  dup4\n  0xffffffffffffffffffffffffffffffffffffffff\n  and\n  mul\n  or\n  swap1\n  sstore\n  pop\n    /* \"contracts/StakingGovernance.sol\":1429:1652  constructor(address _stakingContract, address _governanceContract) {... */\n  pop\n  pop\n    /* \"contracts/StakingGovernance.sol\":998:3422  contract StakingGovernance {... */\n  jump(tag_6)\n    /* \"#utility.yul\":88:205   */\ntag_8:\n    /* \"#utility.yul\":197:198   */\n  0x00\n    /* \"#utility.yul\":194:195   */\n  0x00\n    /* \"#utility.yul\":187:199   */\n  revert\n    /* \"#utility.yul\":334:460   */\ntag_10:\n    /* \"#utility.yul\":371:378   */\n  0x00\n    /* \"#utility.yul\":411:453   */\n  0xffffffffffffffffffffffffffffffffffffffff\n    /* \"#utility.yul\":404:409   */\n  dup3\n    /* \"#utility.yul\":400:454   */\n  and\n    /* \"#utility.yul\":389:454   */\n  swap1\n  pop\n    /* \"#utility.yul\":334:460   */\n  swap2\n  swap1\n  pop\n  jump\t// out\n    /* \"#utility.yul\":466:562   */\ntag_11:\n    /* \"#utility.yul\":503:510   */\n  0x00\n    /* \"#utility.yul\":532:556   */\n  tag_20\n    /* \"#utility.yul\":550:555   */\n  dup3\n    /* \"#utility.yul\":532:556   */\n  tag_10\n  jump\t// in\ntag_20:\n    /* \"#utility.yul\":521:556   */\n  swap1\n  pop\n    /* \"#utility.yul\":466:562   */\n  swap2\n  swap1\n  pop\n  jump\t// out\n    /* \"#utility.yul\":568:690   */\ntag_12:\n    /* \"#utility.yul\":641:665   */\n  tag_22\n    /* \"#utility.yul\":659:664   */\n  dup2\n    /* \"#utility.yul\":641:665   */\n  tag_11\n  jump\t// in\ntag_22:\n    /* \"#utility.yul\":634:639   */\n  dup2\n    /* \"#utility.yul\":631:666   */\n  eq\n    /* \"#utility.yul\":621:684   */\n  tag_23\n  jumpi\n    /* \"#utility.yul\":680:681   */\n  0x00\n    /* \"#utility.yul\":677:678   */\n  0x00\n    /* \"#utility.yul\":670:682   */\n  revert\n    /* \"#utility.yul\":621:684   */\ntag_23:\n    /* \"#utility.yul\":568:690   */\n  pop\n  jump\t// out\n    /* \"#utility.yul\":696:839   */\ntag_13:\n    /* \"#utility.yul\":753:758   */\n  0x00\n    /* \"#utility.yul\":784:790   */\n  dup2\n    /* \"#utility.yul\":778:791   */\n  mload\n    /* \"#utility.yul\":769:791   */\n  swap1\n  pop\n    /* \"#utility.yul\":800:833   */\n  tag_25\n    /* \"#utility.yul\":827:832   */\n  dup2\n    /* \"#utility.yul\":800:833   */\n  tag_12\n  jump\t// in\ntag_25:\n    /* \"#utility.yul\":696:839   */\n  swap3\n  swap2\n  pop\n  pop\n  jump\t// out\n    /* \"#utility.yul\":845:1352   */\ntag_3:\n    /* \"#utility.yul\":924:930   */\n  0x00\n    /* \"#utility.yul\":932:938   */\n  0x00\n    /* \"#utility.yul\":981:983   */\n  0x40\n    /* \"#utility.yul\":969:978   */\n  dup4\n    /* \"#utility.yul\":960:967   */\n  dup6\n    /* \"#utility.yul\":956:979   */\n  sub\n    /* \"#utility.yul\":952:984   */\n  slt\n    /* \"#utility.yul\":949:1068   */\n  iszero\n  tag_27\n  jumpi\n    /* \"#utility.yul\":987:1066   */\n  tag_28\n  tag_8\n  jump\t// in\ntag_28:\n    /* \"#utility.yul\":949:1068   */\ntag_27:\n    /* \"#utility.yul\":1107:1108   */\n  0x00\n    /* \"#utility.yul\":1132:1196   */\n  tag_29\n    /* \"#utility.yul\":1188:1195   */\n  dup6\n    /* \"#utility.yul\":1179:1185   */\n  dup3\n    /* \"#utility.yul\":1168:1177   */\n  dup7\n    /* \"#utility.yul\":1164:1186   */\n  add\n    /* \"#utility.yul\":1132:1196   */\n  tag_13\n  jump\t// in\ntag_29:\n    /* \"#utility.yul\":1122:1196   */\n  swap3\n  pop\n    /* \"#utility.yul\":1078:1206   */\n  pop\n    /* \"#utility.yul\":1245:1247   */\n  0x20\n    /* \"#utility.yul\":1271:1335   */\n  tag_30\n    /* \"#utility.yul\":1327:1334   */\n  dup6\n    /* \"#utility.yul\":1318:1324   */\n  dup3\n    /* \"#utility.yul\":1307:1316   */\n  dup7\n    /* \"#utility.yul\":1303:1325   */\n  add\n    /* \"#utility.yul\":1271:1335   */\n  tag_13\n  jump\t// in\ntag_30:\n    /* \"#utility.yul\":1261:1335   */\n  swap2\n  pop\n    /* \"#utility.yul\":1216:1345   */\n  pop\n    /* \"#utility.yul\":845:1352   */\n  swap3\n  pop\n  swap3\n  swap1\n  pop\n  jump\t// out\n    /* \"contracts/StakingGovernance.sol\":998:3422  contract StakingGovernance {... */\ntag_6:\n  dataSize(sub_0)\n  dup1\n  dataOffset(sub_0)\n  0x00\n  codecopy\n  0x00\n  return\nstop\n\nsub_0: assembly {\n        /* \"contracts/StakingGovernance.sol\":998:3422  contract StakingGovernance {... */\n      mstore(0x40, 0x80)\n      callvalue\n      dup1\n      iszero\n      tag_1\n      jumpi\n      revert(0x00, 0x00)\n    tag_1:\n      pop\n      jumpi(tag_2, lt(calldatasize, 0x04))\n      shr(0xe0, calldataload(0x00))\n      dup1\n      0x8da5cb5b\n      gt\n      tag_11\n      jumpi\n      dup1\n      0x8da5cb5b\n      eq\n      tag_7\n      jumpi\n      dup1\n      0xb172b222\n      eq\n      tag_8\n      jumpi\n      dup1\n      0xbc903cb8\n      eq\n      tag_9\n      jumpi\n      dup1\n      0xee99205c\n      eq\n      tag_10\n      jumpi\n      jump(tag_2)\n    tag_11:\n      dup1\n      0x4608bf6b\n      eq\n      tag_3\n      jumpi\n      dup1\n      0x69a9005b\n      eq\n      tag_4\n      jumpi\n      dup1\n      0x7723bafb\n      eq\n      tag_5\n      jumpi\n      dup1\n      0x7e4d22d0\n      eq\n      tag_6\n      jumpi\n    tag_2:\n      revert(0x00, 0x00)\n        /* \"contracts/StakingGovernance.sol\":1143:1190  uint256 public minimumStakeToVote = 0.001 ether */\n    tag_3:\n      tag_12\n      tag_13\n      jump\t// in\n    tag_12:\n      mload(0x40)\n      tag_14\n      swap2\n      swap1\n      tag_15\n      jump\t// in\n    tag_14:\n      mload(0x40)\n      dup1\n      swap2\n      sub\n      swap1\n      return\n        /* \"contracts/StakingGovernance.sol\":1988:2339  function createProposalAsStaker(string memory description) public onlyStaker returns (uint256) {... */\n    tag_4:\n      tag_16\n      0x04\n      dup1\n      calldatasize\n      sub\n      dup2\n      add\n      swap1\n      tag_17\n      swap2\n      swap1\n      tag_18\n      jump\t// in\n    tag_17:\n      tag_19\n      jump\t// in\n    tag_16:\n      mload(0x40)\n      tag_20\n      swap2\n      swap1\n      tag_15\n      jump\t// in\n    tag_20:\n      mload(0x40)\n      dup1\n      swap2\n      sub\n      swap1\n      return\n        /* \"contracts/StakingGovernance.sol\":3139:3419  function checkEligibility(address user) public view returns (... */\n    tag_5:\n      tag_21\n      0x04\n      dup1\n      calldatasize\n      sub\n      dup2\n      add\n      swap1\n      tag_22\n      swap2\n      swap1\n      tag_23\n      jump\t// in\n    tag_22:\n      tag_24\n      jump\t// in\n    tag_21:\n      mload(0x40)\n      tag_25\n      swap3\n      swap2\n      swap1\n      tag_26\n      jump\t// in\n    tag_25:\n      mload(0x40)\n      dup1\n      swap2\n      sub\n      swap1\n      return\n        /* \"contracts/StakingGovernance.sol\":2392:2668  function voteAsStaker(uint256 proposalId, bool support) public onlyStaker{... */\n    tag_6:\n      tag_27\n      0x04\n      dup1\n      calldatasize\n      sub\n      dup2\n      add\n      swap1\n      tag_28\n      swap2\n      swap1\n      tag_29\n      jump\t// in\n    tag_28:\n      tag_30\n      jump\t// in\n    tag_27:\n      stop\n        /* \"contracts/StakingGovernance.sol\":1032:1052  address public owner */\n    tag_7:\n      tag_31\n      tag_32\n      jump\t// in\n    tag_31:\n      mload(0x40)\n      tag_33\n      swap2\n      swap1\n      tag_34\n      jump\t// in\n    tag_33:\n      mload(0x40)\n      dup1\n      swap2\n      sub\n      swap1\n      return\n        /* \"contracts/StakingGovernance.sol\":1097:1134  IGovernance public governanceContract */\n    tag_8:\n      tag_35\n      tag_36\n      jump\t// in\n    tag_35:\n      mload(0x40)\n      tag_37\n      swap2\n      swap1\n      tag_38\n      jump\t// in\n    tag_37:\n      mload(0x40)\n      dup1\n      swap2\n      sub\n      swap1\n      return\n        /* \"contracts/StakingGovernance.sol\":2736:3087  function getProposalInfo(uint256 proposalId) public view returns (... */\n    tag_9:\n      tag_39\n      0x04\n      dup1\n      calldatasize\n      sub\n      dup2\n      add\n      swap1\n      tag_40\n      swap2\n      swap1\n      tag_41\n      jump\t// in\n    tag_40:\n      tag_42\n      jump\t// in\n    tag_39:\n      mload(0x40)\n      tag_43\n      swap9\n      swap8\n      swap7\n      swap6\n      swap5\n      swap4\n      swap3\n      swap2\n      swap1\n      tag_44\n      jump\t// in\n    tag_43:\n      mload(0x40)\n      dup1\n      swap2\n      sub\n      swap1\n      return\n        /* \"contracts/StakingGovernance.sol\":1059:1090  IStaking public stakingContract */\n    tag_10:\n      tag_45\n      tag_46\n      jump\t// in\n    tag_45:\n      mload(0x40)\n      tag_47\n      swap2\n      swap1\n      tag_48\n      jump\t// in\n    tag_47:\n      mload(0x40)\n      dup1\n      swap2\n      sub\n      swap1\n      return\n        /* \"contracts/StakingGovernance.sol\":1143:1190  uint256 public minimumStakeToVote = 0.001 ether */\n    tag_13:\n      sload(0x03)\n      dup2\n      jump\t// out\n        /* \"contracts/StakingGovernance.sol\":1988:2339  function createProposalAsStaker(string memory description) public onlyStaker returns (uint256) {... */\n    tag_19:\n        /* \"contracts/StakingGovernance.sol\":2074:2081  uint256 */\n      0x00\n        /* \"contracts/StakingGovernance.sol\":1751:1765  uint256 amount */\n      0x00\n        /* \"contracts/StakingGovernance.sol\":1772:1787  stakingContract */\n      0x01\n      0x00\n      swap1\n      sload\n      swap1\n      0x0100\n      exp\n      swap1\n      div\n      0xffffffffffffffffffffffffffffffffffffffff\n      and\n        /* \"contracts/StakingGovernance.sol\":1772:1800  stakingContract.getStakeInfo */\n      0xffffffffffffffffffffffffffffffffffffffff\n      and\n      0xc3453153\n        /* \"contracts/StakingGovernance.sol\":1801:1811  msg.sender */\n      caller\n        /* \"contracts/StakingGovernance.sol\":1772:1812  stakingContract.getStakeInfo(msg.sender) */\n      mload(0x40)\n      dup3\n      0xffffffff\n      and\n      0xe0\n      shl\n      dup2\n      mstore\n      0x04\n      add\n      tag_50\n      swap2\n      swap1\n      tag_34\n      jump\t// in\n    tag_50:\n      0x80\n      mload(0x40)\n      dup1\n      dup4\n      sub\n      dup2\n      dup7\n      gas\n      staticcall\n      iszero\n      dup1\n      iszero\n      tag_52\n      jumpi\n      returndatacopy(0x00, 0x00, returndatasize)\n      revert(0x00, returndatasize)\n    tag_52:\n      pop\n      pop\n      pop\n      pop\n      mload(0x40)\n      returndatasize\n      not(0x1f)\n      0x1f\n      dup3\n      add\n      and\n      dup3\n      add\n      dup1\n      0x40\n      mstore\n      pop\n      dup2\n      add\n      swap1\n      tag_53\n      swap2\n      swap1\n      tag_54\n      jump\t// in\n    tag_53:\n        /* \"contracts/StakingGovernance.sol\":1750:1812  (uint256 amount,,,) = stakingContract.getStakeInfo(msg.sender) */\n      pop\n      pop\n      pop\n      swap1\n      pop\n        /* \"contracts/StakingGovernance.sol\":1841:1859  minimumStakeToVote */\n      sload(0x03)\n        /* \"contracts/StakingGovernance.sol\":1831:1837  amount */\n      dup2\n        /* \"contracts/StakingGovernance.sol\":1831:1859  amount >= minimumStakeToVote */\n      lt\n      iszero\n        /* \"contracts/StakingGovernance.sol\":1823:1906  require(amount >= minimumStakeToVote, \"Harus stake dulu untuk bisa berpartisipasi\") */\n      tag_55\n      jumpi\n      mload(0x40)\n      0x08c379a000000000000000000000000000000000000000000000000000000000\n      dup2\n      mstore\n      0x04\n      add\n      tag_56\n      swap1\n      tag_57\n      jump\t// in\n    tag_56:\n      mload(0x40)\n      dup1\n      swap2\n      sub\n      swap1\n      revert\n    tag_55:\n        /* \"contracts/StakingGovernance.sol\":2095:2109  uint256 amount */\n      0x00\n        /* \"contracts/StakingGovernance.sol\":2116:2131  stakingContract */\n      0x01\n      0x00\n      swap1\n      sload\n      swap1\n      0x0100\n      exp\n      swap1\n      div\n      0xffffffffffffffffffffffffffffffffffffffff\n      and\n        /* \"contracts/StakingGovernance.sol\":2116:2144  stakingContract.getStakeInfo */\n      0xffffffffffffffffffffffffffffffffffffffff\n      and\n      0xc3453153\n        /* \"contracts/StakingGovernance.sol\":2145:2155  msg.sender */\n      caller\n        /* \"contracts/StakingGovernance.sol\":2116:2156  stakingContract.getStakeInfo(msg.sender) */\n      mload(0x40)\n      dup3\n      0xffffffff\n      and\n      0xe0\n      shl\n      dup2\n      mstore\n      0x04\n      add\n      tag_59\n      swap2\n      swap1\n      tag_34\n      jump\t// in\n    tag_59:\n      0x80\n      mload(0x40)\n      dup1\n      dup4\n      sub\n      dup2\n      dup7\n      gas\n      staticcall\n      iszero\n      dup1\n      iszero\n      tag_61\n      jumpi\n      returndatacopy(0x00, 0x00, returndatasize)\n      revert(0x00, returndatasize)\n    tag_61:\n      pop\n      pop\n      pop\n      pop\n      mload(0x40)\n      returndatasize\n      not(0x1f)\n      0x1f\n      dup3\n      add\n      and\n      dup3\n      add\n      dup1\n      0x40\n      mstore\n      pop\n      dup2\n      add\n      swap1\n      tag_62\n      swap2\n      swap1\n      tag_54\n      jump\t// in\n    tag_62:\n        /* \"contracts/StakingGovernance.sol\":2094:2156  (uint256 amount,,,) = stakingContract.getStakeInfo(msg.sender) */\n      pop\n      pop\n      pop\n      swap1\n      pop\n        /* \"contracts/StakingGovernance.sol\":2169:2187  uint256 proposalId */\n      0x00\n        /* \"contracts/StakingGovernance.sol\":2190:2208  governanceContract */\n      0x02\n      0x00\n      swap1\n      sload\n      swap1\n      0x0100\n      exp\n      swap1\n      div\n      0xffffffffffffffffffffffffffffffffffffffff\n      and\n        /* \"contracts/StakingGovernance.sol\":2190:2223  governanceContract.createProposal */\n      0xffffffffffffffffffffffffffffffffffffffff\n      and\n      0x49c2a1a6\n        /* \"contracts/StakingGovernance.sol\":2224:2235  description */\n      dup7\n        /* \"contracts/StakingGovernance.sol\":2190:2236  governanceContract.createProposal(description) */\n      mload(0x40)\n      dup3\n      0xffffffff\n      and\n      0xe0\n      shl\n      dup2\n      mstore\n      0x04\n      add\n      tag_63\n      swap2\n      swap1\n      tag_64\n      jump\t// in\n    tag_63:\n      0x20\n      mload(0x40)\n      dup1\n      dup4\n      sub\n      dup2\n      0x00\n      dup8\n      gas\n      call\n      iszero\n      dup1\n      iszero\n      tag_66\n      jumpi\n      returndatacopy(0x00, 0x00, returndatasize)\n      revert(0x00, returndatasize)\n    tag_66:\n      pop\n      pop\n      pop\n      pop\n      mload(0x40)\n      returndatasize\n      not(0x1f)\n      0x1f\n      dup3\n      add\n      and\n      dup3\n      add\n      dup1\n      0x40\n      mstore\n      pop\n      dup2\n      add\n      swap1\n      tag_67\n      swap2\n      swap1\n      tag_68\n      jump\t// in\n    tag_67:\n        /* \"contracts/StakingGovernance.sol\":2169:2236  uint256 proposalId = governanceContract.createProposal(description) */\n      swap1\n      pop\n        /* \"contracts/StakingGovernance.sol\":2272:2282  msg.sender */\n      caller\n        /* \"contracts/StakingGovernance.sol\":2254:2303  ProposalCreatedBy(msg.sender, proposalId, amount) */\n      0xffffffffffffffffffffffffffffffffffffffff\n      and\n      0xfde49285fa3871f76119233050db2f657db5071cfe29fb1805ea017d787fb811\n        /* \"contracts/StakingGovernance.sol\":2284:2294  proposalId */\n      dup3\n        /* \"contracts/StakingGovernance.sol\":2296:2302  amount */\n      dup5\n        /* \"contracts/StakingGovernance.sol\":2254:2303  ProposalCreatedBy(msg.sender, proposalId, amount) */\n      mload(0x40)\n      tag_69\n      swap3\n      swap2\n      swap1\n      tag_70\n      jump\t// in\n    tag_69:\n      mload(0x40)\n      dup1\n      swap2\n      sub\n      swap1\n      log2\n        /* \"contracts/StakingGovernance.sol\":2321:2331  proposalId */\n      dup1\n        /* \"contracts/StakingGovernance.sol\":2314:2331  return proposalId */\n      swap4\n      pop\n      pop\n      pop\n        /* \"contracts/StakingGovernance.sol\":1739:1926  {... */\n      pop\n        /* \"contracts/StakingGovernance.sol\":1988:2339  function createProposalAsStaker(string memory description) public onlyStaker returns (uint256) {... */\n      swap2\n      swap1\n      pop\n      jump\t// out\n        /* \"contracts/StakingGovernance.sol\":3139:3419  function checkEligibility(address user) public view returns (... */\n    tag_24:\n        /* \"contracts/StakingGovernance.sol\":3210:3223  bool eligible */\n      0x00\n        /* \"contracts/StakingGovernance.sol\":3234:3254  uint256 stakedAmount */\n      0x00\n        /* \"contracts/StakingGovernance.sol\":3274:3288  uint256 amount */\n      0x00\n        /* \"contracts/StakingGovernance.sol\":3295:3310  stakingContract */\n      0x01\n      0x00\n      swap1\n      sload\n      swap1\n      0x0100\n      exp\n      swap1\n      div\n      0xffffffffffffffffffffffffffffffffffffffff\n      and\n        /* \"contracts/StakingGovernance.sol\":3295:3323  stakingContract.getStakeInfo */\n      0xffffffffffffffffffffffffffffffffffffffff\n      and\n      0xc3453153\n        /* \"contracts/StakingGovernance.sol\":3324:3328  user */\n      dup6\n        /* \"contracts/StakingGovernance.sol\":3295:3329  stakingContract.getStakeInfo(user) */\n      mload(0x40)\n      dup3\n      0xffffffff\n      and\n      0xe0\n      shl\n      dup2\n      mstore\n      0x04\n      add\n      tag_72\n      swap2\n      swap1\n      tag_34\n      jump\t// in\n    tag_72:\n      0x80\n      mload(0x40)\n      dup1\n      dup4\n      sub\n      dup2\n      dup7\n      gas\n      staticcall\n      iszero\n      dup1\n      iszero\n      tag_74\n      jumpi\n      returndatacopy(0x00, 0x00, returndatasize)\n      revert(0x00, returndatasize)\n    tag_74:\n      pop\n      pop\n      pop\n      pop\n      mload(0x40)\n      returndatasize\n      not(0x1f)\n      0x1f\n      dup3\n      add\n      and\n      dup3\n      add\n      dup1\n      0x40\n      mstore\n      pop\n      dup2\n      add\n      swap1\n      tag_75\n      swap2\n      swap1\n      tag_54\n      jump\t// in\n    tag_75:\n        /* \"contracts/StakingGovernance.sol\":3273:3329  (uint256 amount,,,) = stakingContract.getStakeInfo(user) */\n      pop\n      pop\n      pop\n      swap1\n      pop\n        /* \"contracts/StakingGovernance.sol\":3361:3379  minimumStakeToVote */\n      sload(0x03)\n        /* \"contracts/StakingGovernance.sol\":3351:3357  amount */\n      dup2\n        /* \"contracts/StakingGovernance.sol\":3351:3379  amount >= minimumStakeToVote */\n      lt\n      iszero\n        /* \"contracts/StakingGovernance.sol\":3340:3379  eligible = amount >= minimumStakeToVote */\n      swap3\n      pop\n        /* \"contracts/StakingGovernance.sol\":3405:3411  amount */\n      dup1\n        /* \"contracts/StakingGovernance.sol\":3390:3411  stakedAmount = amount */\n      swap2\n      pop\n        /* \"contracts/StakingGovernance.sol\":3262:3419  {... */\n      pop\n        /* \"contracts/StakingGovernance.sol\":3139:3419  function checkEligibility(address user) public view returns (... */\n      swap2\n      pop\n      swap2\n      jump\t// out\n        /* \"contracts/StakingGovernance.sol\":2392:2668  function voteAsStaker(uint256 proposalId, bool support) public onlyStaker{... */\n    tag_30:\n        /* \"contracts/StakingGovernance.sol\":1751:1765  uint256 amount */\n      0x00\n        /* \"contracts/StakingGovernance.sol\":1772:1787  stakingContract */\n      0x01\n      0x00\n      swap1\n      sload\n      swap1\n      0x0100\n      exp\n      swap1\n      div\n      0xffffffffffffffffffffffffffffffffffffffff\n      and\n        /* \"contracts/StakingGovernance.sol\":1772:1800  stakingContract.getStakeInfo */\n      0xffffffffffffffffffffffffffffffffffffffff\n      and\n      0xc3453153\n        /* \"contracts/StakingGovernance.sol\":1801:1811  msg.sender */\n      caller\n        /* \"contracts/StakingGovernance.sol\":1772:1812  stakingContract.getStakeInfo(msg.sender) */\n      mload(0x40)\n      dup3\n      0xffffffff\n      and\n      0xe0\n      shl\n      dup2\n      mstore\n      0x04\n      add\n      tag_77\n      swap2\n      swap1\n      tag_34\n      jump\t// in\n    tag_77:\n      0x80\n      mload(0x40)\n      dup1\n      dup4\n      sub\n      dup2\n      dup7\n      gas\n      staticcall\n      iszero\n      dup1\n      iszero\n      tag_79\n      jumpi\n      returndatacopy(0x00, 0x00, returndatasize)\n      revert(0x00, returndatasize)\n    tag_79:\n      pop\n      pop\n      pop\n      pop\n      mload(0x40)\n      returndatasize\n      not(0x1f)\n      0x1f\n      dup3\n      add\n      and\n      dup3\n      add\n      dup1\n      0x40\n      mstore\n      pop\n      dup2\n      add\n      swap1\n      tag_80\n      swap2\n      swap1\n      tag_54\n      jump\t// in\n    tag_80:\n        /* \"contracts/StakingGovernance.sol\":1750:1812  (uint256 amount,,,) = stakingContract.getStakeInfo(msg.sender) */\n      pop\n      pop\n      pop\n      swap1\n      pop\n        /* \"contracts/StakingGovernance.sol\":1841:1859  minimumStakeToVote */\n      sload(0x03)\n        /* \"contracts/StakingGovernance.sol\":1831:1837  amount */\n      dup2\n        /* \"contracts/StakingGovernance.sol\":1831:1859  amount >= minimumStakeToVote */\n      lt\n      iszero\n        /* \"contracts/StakingGovernance.sol\":1823:1906  require(amount >= minimumStakeToVote, \"Harus stake dulu untuk bisa berpartisipasi\") */\n      tag_81\n      jumpi\n      mload(0x40)\n      0x08c379a000000000000000000000000000000000000000000000000000000000\n      dup2\n      mstore\n      0x04\n      add\n      tag_82\n      swap1\n      tag_57\n      jump\t// in\n    tag_82:\n      mload(0x40)\n      dup1\n      swap2\n      sub\n      swap1\n      revert\n    tag_81:\n        /* \"contracts/StakingGovernance.sol\":2477:2491  uint256 amount */\n      0x00\n        /* \"contracts/StakingGovernance.sol\":2498:2513  stakingContract */\n      0x01\n      0x00\n      swap1\n      sload\n      swap1\n      0x0100\n      exp\n      swap1\n      div\n      0xffffffffffffffffffffffffffffffffffffffff\n      and\n        /* \"contracts/StakingGovernance.sol\":2498:2526  stakingContract.getStakeInfo */\n      0xffffffffffffffffffffffffffffffffffffffff\n      and\n      0xc3453153\n        /* \"contracts/StakingGovernance.sol\":2527:2537  msg.sender */\n      caller\n        /* \"contracts/StakingGovernance.sol\":2498:2538  stakingContract.getStakeInfo(msg.sender) */\n      mload(0x40)\n      dup3\n      0xffffffff\n      and\n      0xe0\n      shl\n      dup2\n      mstore\n      0x04\n      add\n      tag_84\n      swap2\n      swap1\n      tag_34\n      jump\t// in\n    tag_84:\n      0x80\n      mload(0x40)\n      dup1\n      dup4\n      sub\n      dup2\n      dup7\n      gas\n      staticcall\n      iszero\n      dup1\n      iszero\n      tag_86\n      jumpi\n      returndatacopy(0x00, 0x00, returndatasize)\n      revert(0x00, returndatasize)\n    tag_86:\n      pop\n      pop\n      pop\n      pop\n      mload(0x40)\n      returndatasize\n      not(0x1f)\n      0x1f\n      dup3\n      add\n      and\n      dup3\n      add\n      dup1\n      0x40\n      mstore\n      pop\n      dup2\n      add\n      swap1\n      tag_87\n      swap2\n      swap1\n      tag_54\n      jump\t// in\n    tag_87:\n        /* \"contracts/StakingGovernance.sol\":2476:2538  (uint256 amount,,,) = stakingContract.getStakeInfo(msg.sender) */\n      pop\n      pop\n      pop\n      swap1\n      pop\n        /* \"contracts/StakingGovernance.sol\":2551:2569  governanceContract */\n      0x02\n      0x00\n      swap1\n      sload\n      swap1\n      0x0100\n      exp\n      swap1\n      div\n      0xffffffffffffffffffffffffffffffffffffffff\n      and\n        /* \"contracts/StakingGovernance.sol\":2551:2574  governanceContract.vote */\n      0xffffffffffffffffffffffffffffffffffffffff\n      and\n      0xc9d27afe\n        /* \"contracts/StakingGovernance.sol\":2575:2585  proposalId */\n      dup6\n        /* \"contracts/StakingGovernance.sol\":2587:2594  support */\n      dup6\n        /* \"contracts/StakingGovernance.sol\":2551:2595  governanceContract.vote(proposalId, support) */\n      mload(0x40)\n      dup4\n      0xffffffff\n      and\n      0xe0\n      shl\n      dup2\n      mstore\n      0x04\n      add\n      tag_88\n      swap3\n      swap2\n      swap1\n      tag_89\n      jump\t// in\n    tag_88:\n      0x00\n      mload(0x40)\n      dup1\n      dup4\n      sub\n      dup2\n      0x00\n      dup8\n      dup1\n      extcodesize\n      iszero\n      dup1\n      iszero\n      tag_90\n      jumpi\n      revert(0x00, 0x00)\n    tag_90:\n      pop\n      gas\n      call\n      iszero\n      dup1\n      iszero\n      tag_92\n      jumpi\n      returndatacopy(0x00, 0x00, returndatasize)\n      revert(0x00, returndatasize)\n    tag_92:\n      pop\n      pop\n      pop\n      pop\n        /* \"contracts/StakingGovernance.sol\":2620:2630  msg.sender */\n      caller\n        /* \"contracts/StakingGovernance.sol\":2611:2660  VoteCast(msg.sender, proposalId, support, amount) */\n      0xffffffffffffffffffffffffffffffffffffffff\n      and\n      0x877856338e13f63d0c36822ff0ef736b80934cd90574a3a5bc9262c39d217c46\n        /* \"contracts/StakingGovernance.sol\":2632:2642  proposalId */\n      dup6\n        /* \"contracts/StakingGovernance.sol\":2644:2651  support */\n      dup6\n        /* \"contracts/StakingGovernance.sol\":2653:2659  amount */\n      dup5\n        /* \"contracts/StakingGovernance.sol\":2611:2660  VoteCast(msg.sender, proposalId, support, amount) */\n      mload(0x40)\n      tag_93\n      swap4\n      swap3\n      swap2\n      swap1\n      tag_94\n      jump\t// in\n    tag_93:\n      mload(0x40)\n      dup1\n      swap2\n      sub\n      swap1\n      log2\n        /* \"contracts/StakingGovernance.sol\":2465:2668  {... */\n      pop\n        /* \"contracts/StakingGovernance.sol\":1739:1926  {... */\n      pop\n        /* \"contracts/StakingGovernance.sol\":2392:2668  function voteAsStaker(uint256 proposalId, bool support) public onlyStaker{... */\n      pop\n      pop\n      jump\t// out\n        /* \"contracts/StakingGovernance.sol\":1032:1052  address public owner */\n    tag_32:\n      0x00\n      0x00\n      swap1\n      sload\n      swap1\n      0x0100\n      exp\n      swap1\n      div\n      0xffffffffffffffffffffffffffffffffffffffff\n      and\n      dup2\n      jump\t// out\n        /* \"contracts/StakingGovernance.sol\":1097:1134  IGovernance public governanceContract */\n    tag_36:\n      0x02\n      0x00\n      swap1\n      sload\n      swap1\n      0x0100\n      exp\n      swap1\n      div\n      0xffffffffffffffffffffffffffffffffffffffff\n      and\n      dup2\n      jump\t// out\n        /* \"contracts/StakingGovernance.sol\":2736:3087  function getProposalInfo(uint256 proposalId) public view returns (... */\n    tag_42:\n        /* \"contracts/StakingGovernance.sol\":2812:2822  uint256 id */\n      0x00\n        /* \"contracts/StakingGovernance.sol\":2833:2849  address proposer */\n      0x00\n        /* \"contracts/StakingGovernance.sol\":2860:2885  string memory description */\n      0x60\n        /* \"contracts/StakingGovernance.sol\":2896:2912  uint256 yesVotes */\n      0x00\n        /* \"contracts/StakingGovernance.sol\":2923:2938  uint256 noVotes */\n      0x00\n        /* \"contracts/StakingGovernance.sol\":2949:2965  uint256 deadline */\n      0x00\n        /* \"contracts/StakingGovernance.sol\":2976:2989  bool executed */\n      0x00\n        /* \"contracts/StakingGovernance.sol\":3000:3011  bool passed */\n      0x00\n        /* \"contracts/StakingGovernance.sol\":3037:3055  governanceContract */\n      0x02\n      0x00\n      swap1\n      sload\n      swap1\n      0x0100\n      exp\n      swap1\n      div\n      0xffffffffffffffffffffffffffffffffffffffff\n      and\n        /* \"contracts/StakingGovernance.sol\":3037:3067  governanceContract.getProposal */\n      0xffffffffffffffffffffffffffffffffffffffff\n      and\n      0xc7f758a8\n        /* \"contracts/StakingGovernance.sol\":3068:3078  proposalId */\n      dup11\n        /* \"contracts/StakingGovernance.sol\":3037:3079  governanceContract.getProposal(proposalId) */\n      mload(0x40)\n      dup3\n      0xffffffff\n      and\n      0xe0\n      shl\n      dup2\n      mstore\n      0x04\n      add\n      tag_96\n      swap2\n      swap1\n      tag_15\n      jump\t// in\n    tag_96:\n      0x00\n      mload(0x40)\n      dup1\n      dup4\n      sub\n      dup2\n      dup7\n      gas\n      staticcall\n      iszero\n      dup1\n      iszero\n      tag_98\n      jumpi\n      returndatacopy(0x00, 0x00, returndatasize)\n      revert(0x00, returndatasize)\n    tag_98:\n      pop\n      pop\n      pop\n      pop\n      mload(0x40)\n      returndatasize\n      0x00\n      dup3\n      returndatacopy\n      returndatasize\n      not(0x1f)\n      0x1f\n      dup3\n      add\n      and\n      dup3\n      add\n      dup1\n      0x40\n      mstore\n      pop\n      dup2\n      add\n      swap1\n      tag_99\n      swap2\n      swap1\n      tag_100\n      jump\t// in\n    tag_99:\n        /* \"contracts/StakingGovernance.sol\":3030:3079  return governanceContract.getProposal(proposalId) */\n      swap8\n      pop\n      swap8\n      pop\n      swap8\n      pop\n      swap8\n      pop\n      swap8\n      pop\n      swap8\n      pop\n      swap8\n      pop\n      swap8\n      pop\n        /* \"contracts/StakingGovernance.sol\":2736:3087  function getProposalInfo(uint256 proposalId) public view returns (... */\n      swap2\n      swap4\n      swap6\n      swap8\n      pop\n      swap2\n      swap4\n      swap6\n      swap8\n      jump\t// out\n        /* \"contracts/StakingGovernance.sol\":1059:1090  IStaking public stakingContract */\n    tag_46:\n      0x01\n      0x00\n      swap1\n      sload\n      swap1\n      0x0100\n      exp\n      swap1\n      div\n      0xffffffffffffffffffffffffffffffffffffffff\n      and\n      dup2\n      jump\t// out\n        /* \"#utility.yul\":7:84   */\n    tag_101:\n        /* \"#utility.yul\":44:51   */\n      0x00\n        /* \"#utility.yul\":73:78   */\n      dup2\n        /* \"#utility.yul\":62:78   */\n      swap1\n      pop\n        /* \"#utility.yul\":7:84   */\n      swap2\n      swap1\n      pop\n      jump\t// out\n        /* \"#utility.yul\":90:208   */\n    tag_102:\n        /* \"#utility.yul\":177:201   */\n      tag_148\n        /* \"#utility.yul\":195:200   */\n      dup2\n        /* \"#utility.yul\":177:201   */\n      tag_101\n      jump\t// in\n    tag_148:\n        /* \"#utility.yul\":172:175   */\n      dup3\n        /* \"#utility.yul\":165:202   */\n      mstore\n        /* \"#utility.yul\":90:208   */\n      pop\n      pop\n      jump\t// out\n        /* \"#utility.yul\":214:436   */\n    tag_15:\n        /* \"#utility.yul\":307:311   */\n      0x00\n        /* \"#utility.yul\":345:347   */\n      0x20\n        /* \"#utility.yul\":334:343   */\n      dup3\n        /* \"#utility.yul\":330:348   */\n      add\n        /* \"#utility.yul\":322:348   */\n      swap1\n      pop\n        /* \"#utility.yul\":358:429   */\n      tag_150\n        /* \"#utility.yul\":426:427   */\n      0x00\n        /* \"#utility.yul\":415:424   */\n      dup4\n        /* \"#utility.yul\":411:428   */\n      add\n        /* \"#utility.yul\":402:408   */\n      dup5\n        /* \"#utility.yul\":358:429   */\n      tag_102\n      jump\t// in\n    tag_150:\n        /* \"#utility.yul\":214:436   */\n      swap3\n      swap2\n      pop\n      pop\n      jump\t// out\n        /* \"#utility.yul\":442:517   */\n    tag_103:\n        /* \"#utility.yul\":475:481   */\n      0x00\n        /* \"#utility.yul\":508:510   */\n      0x40\n        /* \"#utility.yul\":502:511   */\n      mload\n        /* \"#utility.yul\":492:511   */\n      swap1\n      pop\n        /* \"#utility.yul\":442:517   */\n      swap1\n      jump\t// out\n        /* \"#utility.yul\":523:640   */\n    tag_104:\n        /* \"#utility.yul\":632:633   */\n      0x00\n        /* \"#utility.yul\":629:630   */\n      0x00\n        /* \"#utility.yul\":622:634   */\n      revert\n        /* \"#utility.yul\":646:763   */\n    tag_105:\n        /* \"#utility.yul\":755:756   */\n      0x00\n        /* \"#utility.yul\":752:753   */\n      0x00\n        /* \"#utility.yul\":745:757   */\n      revert\n        /* \"#utility.yul\":769:886   */\n    tag_106:\n        /* \"#utility.yul\":878:879   */\n      0x00\n        /* \"#utility.yul\":875:876   */\n      0x00\n        /* \"#utility.yul\":868:880   */\n      revert\n        /* \"#utility.yul\":892:1009   */\n    tag_107:\n        /* \"#utility.yul\":1001:1002   */\n      0x00\n        /* \"#utility.yul\":998:999   */\n      0x00\n        /* \"#utility.yul\":991:1003   */\n      revert\n        /* \"#utility.yul\":1015:1117   */\n    tag_108:\n        /* \"#utility.yul\":1056:1062   */\n      0x00\n        /* \"#utility.yul\":1107:1109   */\n      0x1f\n        /* \"#utility.yul\":1103:1110   */\n      not\n        /* \"#utility.yul\":1098:1100   */\n      0x1f\n        /* \"#utility.yul\":1091:1096   */\n      dup4\n        /* \"#utility.yul\":1087:1101   */\n      add\n        /* \"#utility.yul\":1083:1111   */\n      and\n        /* \"#utility.yul\":1073:1111   */\n      swap1\n      pop\n        /* \"#utility.yul\":1015:1117   */\n      swap2\n      swap1\n      pop\n      jump\t// out\n        /* \"#utility.yul\":1123:1303   */\n    tag_109:\n        /* \"#utility.yul\":1171:1248   */\n      0x4e487b7100000000000000000000000000000000000000000000000000000000\n        /* \"#utility.yul\":1168:1169   */\n      0x00\n        /* \"#utility.yul\":1161:1249   */\n      mstore\n        /* \"#utility.yul\":1268:1272   */\n      0x41\n        /* \"#utility.yul\":1265:1266   */\n      0x04\n        /* \"#utility.yul\":1258:1273   */\n      mstore\n        /* \"#utility.yul\":1292:1296   */\n      0x24\n        /* \"#utility.yul\":1289:1290   */\n      0x00\n        /* \"#utility.yul\":1282:1297   */\n      revert\n        /* \"#utility.yul\":1309:1590   */\n    tag_110:\n        /* \"#utility.yul\":1392:1419   */\n      tag_159\n        /* \"#utility.yul\":1414:1418   */\n      dup3\n        /* \"#utility.yul\":1392:1419   */\n      tag_108\n      jump\t// in\n    tag_159:\n        /* \"#utility.yul\":1384:1390   */\n      dup2\n        /* \"#utility.yul\":1380:1420   */\n      add\n        /* \"#utility.yul\":1522:1528   */\n      dup2\n        /* \"#utility.yul\":1510:1520   */\n      dup2\n        /* \"#utility.yul\":1507:1529   */\n      lt\n        /* \"#utility.yul\":1486:1504   */\n      0xffffffffffffffff\n        /* \"#utility.yul\":1474:1484   */\n      dup3\n        /* \"#utility.yul\":1471:1505   */\n      gt\n        /* \"#utility.yul\":1468:1530   */\n      or\n        /* \"#utility.yul\":1465:1553   */\n      iszero\n      tag_160\n      jumpi\n        /* \"#utility.yul\":1533:1551   */\n      tag_161\n      tag_109\n      jump\t// in\n    tag_161:\n        /* \"#utility.yul\":1465:1553   */\n    tag_160:\n        /* \"#utility.yul\":1573:1583   */\n      dup1\n        /* \"#utility.yul\":1569:1571   */\n      0x40\n        /* \"#utility.yul\":1562:1584   */\n      mstore\n        /* \"#utility.yul\":1352:1590   */\n      pop\n        /* \"#utility.yul\":1309:1590   */\n      pop\n      pop\n      jump\t// out\n        /* \"#utility.yul\":1596:1725   */\n    tag_111:\n        /* \"#utility.yul\":1630:1636   */\n      0x00\n        /* \"#utility.yul\":1657:1677   */\n      tag_163\n      tag_103\n      jump\t// in\n    tag_163:\n        /* \"#utility.yul\":1647:1677   */\n      swap1\n      pop\n        /* \"#utility.yul\":1686:1719   */\n      tag_164\n        /* \"#utility.yul\":1714:1718   */\n      dup3\n        /* \"#utility.yul\":1706:1712   */\n      dup3\n        /* \"#utility.yul\":1686:1719   */\n      tag_110\n      jump\t// in\n    tag_164:\n        /* \"#utility.yul\":1596:1725   */\n      swap2\n      swap1\n      pop\n      jump\t// out\n        /* \"#utility.yul\":1731:2039   */\n    tag_112:\n        /* \"#utility.yul\":1793:1797   */\n      0x00\n        /* \"#utility.yul\":1883:1901   */\n      0xffffffffffffffff\n        /* \"#utility.yul\":1875:1881   */\n      dup3\n        /* \"#utility.yul\":1872:1902   */\n      gt\n        /* \"#utility.yul\":1869:1925   */\n      iszero\n      tag_166\n      jumpi\n        /* \"#utility.yul\":1905:1923   */\n      tag_167\n      tag_109\n      jump\t// in\n    tag_167:\n        /* \"#utility.yul\":1869:1925   */\n    tag_166:\n        /* \"#utility.yul\":1943:1972   */\n      tag_168\n        /* \"#utility.yul\":1965:1971   */\n      dup3\n        /* \"#utility.yul\":1943:1972   */\n      tag_108\n      jump\t// in\n    tag_168:\n        /* \"#utility.yul\":1935:1972   */\n      swap1\n      pop\n        /* \"#utility.yul\":2027:2031   */\n      0x20\n        /* \"#utility.yul\":2021:2025   */\n      dup2\n        /* \"#utility.yul\":2017:2032   */\n      add\n        /* \"#utility.yul\":2009:2032   */\n      swap1\n      pop\n        /* \"#utility.yul\":1731:2039   */\n      swap2\n      swap1\n      pop\n      jump\t// out\n        /* \"#utility.yul\":2045:2193   */\n    tag_113:\n        /* \"#utility.yul\":2143:2149   */\n      dup3\n        /* \"#utility.yul\":2138:2141   */\n      dup2\n        /* \"#utility.yul\":2133:2136   */\n      dup4\n        /* \"#utility.yul\":2120:2150   */\n      calldatacopy\n        /* \"#utility.yul\":2184:2185   */\n      0x00\n        /* \"#utility.yul\":2175:2181   */\n      dup4\n        /* \"#utility.yul\":2170:2173   */\n      dup4\n        /* \"#utility.yul\":2166:2182   */\n      add\n        /* \"#utility.yul\":2159:2186   */\n      mstore\n        /* \"#utility.yul\":2045:2193   */\n      pop\n      pop\n      pop\n      jump\t// out\n        /* \"#utility.yul\":2199:2624   */\n    tag_114:\n        /* \"#utility.yul\":2277:2282   */\n      0x00\n        /* \"#utility.yul\":2302:2368   */\n      tag_171\n        /* \"#utility.yul\":2318:2367   */\n      tag_172\n        /* \"#utility.yul\":2360:2366   */\n      dup5\n        /* \"#utility.yul\":2318:2367   */\n      tag_112\n      jump\t// in\n    tag_172:\n        /* \"#utility.yul\":2302:2368   */\n      tag_111\n      jump\t// in\n    tag_171:\n        /* \"#utility.yul\":2293:2368   */\n      swap1\n      pop\n        /* \"#utility.yul\":2391:2397   */\n      dup3\n        /* \"#utility.yul\":2384:2389   */\n      dup2\n        /* \"#utility.yul\":2377:2398   */\n      mstore\n        /* \"#utility.yul\":2429:2433   */\n      0x20\n        /* \"#utility.yul\":2422:2427   */\n      dup2\n        /* \"#utility.yul\":2418:2434   */\n      add\n        /* \"#utility.yul\":2467:2470   */\n      dup5\n        /* \"#utility.yul\":2458:2464   */\n      dup5\n        /* \"#utility.yul\":2453:2456   */\n      dup5\n        /* \"#utility.yul\":2449:2465   */\n      add\n        /* \"#utility.yul\":2446:2471   */\n      gt\n        /* \"#utility.yul\":2443:2555   */\n      iszero\n      tag_173\n      jumpi\n        /* \"#utility.yul\":2474:2553   */\n      tag_174\n      tag_107\n      jump\t// in\n    tag_174:\n        /* \"#utility.yul\":2443:2555   */\n    tag_173:\n        /* \"#utility.yul\":2564:2618   */\n      tag_175\n        /* \"#utility.yul\":2611:2617   */\n      dup5\n        /* \"#utility.yul\":2606:2609   */\n      dup3\n        /* \"#utility.yul\":2601:2604   */\n      dup6\n        /* \"#utility.yul\":2564:2618   */\n      tag_113\n      jump\t// in\n    tag_175:\n        /* \"#utility.yul\":2283:2624   */\n      pop\n        /* \"#utility.yul\":2199:2624   */\n      swap4\n      swap3\n      pop\n      pop\n      pop\n      jump\t// out\n        /* \"#utility.yul\":2644:2984   */\n    tag_115:\n        /* \"#utility.yul\":2700:2705   */\n      0x00\n        /* \"#utility.yul\":2749:2752   */\n      dup3\n        /* \"#utility.yul\":2742:2746   */\n      0x1f\n        /* \"#utility.yul\":2734:2740   */\n      dup4\n        /* \"#utility.yul\":2730:2747   */\n      add\n        /* \"#utility.yul\":2726:2753   */\n      slt\n        /* \"#utility.yul\":2716:2838   */\n      tag_177\n      jumpi\n        /* \"#utility.yul\":2757:2836   */\n      tag_178\n      tag_106\n      jump\t// in\n    tag_178:\n        /* \"#utility.yul\":2716:2838   */\n    tag_177:\n        /* \"#utility.yul\":2874:2880   */\n      dup2\n        /* \"#utility.yul\":2861:2881   */\n      calldataload\n        /* \"#utility.yul\":2899:2978   */\n      tag_179\n        /* \"#utility.yul\":2974:2977   */\n      dup5\n        /* \"#utility.yul\":2966:2972   */\n      dup3\n        /* \"#utility.yul\":2959:2963   */\n      0x20\n        /* \"#utility.yul\":2951:2957   */\n      dup7\n        /* \"#utility.yul\":2947:2964   */\n      add\n        /* \"#utility.yul\":2899:2978   */\n      tag_114\n      jump\t// in\n    tag_179:\n        /* \"#utility.yul\":2890:2978   */\n      swap2\n      pop\n        /* \"#utility.yul\":2706:2984   */\n      pop\n        /* \"#utility.yul\":2644:2984   */\n      swap3\n      swap2\n      pop\n      pop\n      jump\t// out\n        /* \"#utility.yul\":2990:3499   */\n    tag_18:\n        /* \"#utility.yul\":3059:3065   */\n      0x00\n        /* \"#utility.yul\":3108:3110   */\n      0x20\n        /* \"#utility.yul\":3096:3105   */\n      dup3\n        /* \"#utility.yul\":3087:3094   */\n      dup5\n        /* \"#utility.yul\":3083:3106   */\n      sub\n        /* \"#utility.yul\":3079:3111   */\n      slt\n        /* \"#utility.yul\":3076:3195   */\n      iszero\n      tag_181\n      jumpi\n        /* \"#utility.yul\":3114:3193   */\n      tag_182\n      tag_104\n      jump\t// in\n    tag_182:\n        /* \"#utility.yul\":3076:3195   */\n    tag_181:\n        /* \"#utility.yul\":3262:3263   */\n      0x00\n        /* \"#utility.yul\":3251:3260   */\n      dup3\n        /* \"#utility.yul\":3247:3264   */\n      add\n        /* \"#utility.yul\":3234:3265   */\n      calldataload\n        /* \"#utility.yul\":3292:3310   */\n      0xffffffffffffffff\n        /* \"#utility.yul\":3284:3290   */\n      dup2\n        /* \"#utility.yul\":3281:3311   */\n      gt\n        /* \"#utility.yul\":3278:3395   */\n      iszero\n      tag_183\n      jumpi\n        /* \"#utility.yul\":3314:3393   */\n      tag_184\n      tag_105\n      jump\t// in\n    tag_184:\n        /* \"#utility.yul\":3278:3395   */\n    tag_183:\n        /* \"#utility.yul\":3419:3482   */\n      tag_185\n        /* \"#utility.yul\":3474:3481   */\n      dup5\n        /* \"#utility.yul\":3465:3471   */\n      dup3\n        /* \"#utility.yul\":3454:3463   */\n      dup6\n        /* \"#utility.yul\":3450:3472   */\n      add\n        /* \"#utility.yul\":3419:3482   */\n      tag_115\n      jump\t// in\n    tag_185:\n        /* \"#utility.yul\":3409:3482   */\n      swap2\n      pop\n        /* \"#utility.yul\":3205:3492   */\n      pop\n        /* \"#utility.yul\":2990:3499   */\n      swap3\n      swap2\n      pop\n      pop\n      jump\t// out\n        /* \"#utility.yul\":3505:3631   */\n    tag_116:\n        /* \"#utility.yul\":3542:3549   */\n      0x00\n        /* \"#utility.yul\":3582:3624   */\n      0xffffffffffffffffffffffffffffffffffffffff\n        /* \"#utility.yul\":3575:3580   */\n      dup3\n        /* \"#utility.yul\":3571:3625   */\n      and\n        /* \"#utility.yul\":3560:3625   */\n      swap1\n      pop\n        /* \"#utility.yul\":3505:3631   */\n      swap2\n      swap1\n      pop\n      jump\t// out\n        /* \"#utility.yul\":3637:3733   */\n    tag_117:\n        /* \"#utility.yul\":3674:3681   */\n      0x00\n        /* \"#utility.yul\":3703:3727   */\n      tag_188\n        /* \"#utility.yul\":3721:3726   */\n      dup3\n        /* \"#utility.yul\":3703:3727   */\n      tag_116\n      jump\t// in\n    tag_188:\n        /* \"#utility.yul\":3692:3727   */\n      swap1\n      pop\n        /* \"#utility.yul\":3637:3733   */\n      swap2\n      swap1\n      pop\n      jump\t// out\n        /* \"#utility.yul\":3739:3861   */\n    tag_118:\n        /* \"#utility.yul\":3812:3836   */\n      tag_190\n        /* \"#utility.yul\":3830:3835   */\n      dup2\n        /* \"#utility.yul\":3812:3836   */\n      tag_117\n      jump\t// in\n    tag_190:\n        /* \"#utility.yul\":3805:3810   */\n      dup2\n        /* \"#utility.yul\":3802:3837   */\n      eq\n        /* \"#utility.yul\":3792:3855   */\n      tag_191\n      jumpi\n        /* \"#utility.yul\":3851:3852   */\n      0x00\n        /* \"#utility.yul\":3848:3849   */\n      0x00\n        /* \"#utility.yul\":3841:3853   */\n      revert\n        /* \"#utility.yul\":3792:3855   */\n    tag_191:\n        /* \"#utility.yul\":3739:3861   */\n      pop\n      jump\t// out\n        /* \"#utility.yul\":3867:4006   */\n    tag_119:\n        /* \"#utility.yul\":3913:3918   */\n      0x00\n        /* \"#utility.yul\":3951:3957   */\n      dup2\n        /* \"#utility.yul\":3938:3958   */\n      calldataload\n        /* \"#utility.yul\":3929:3958   */\n      swap1\n      pop\n        /* \"#utility.yul\":3967:4000   */\n      tag_193\n        /* \"#utility.yul\":3994:3999   */\n      dup2\n        /* \"#utility.yul\":3967:4000   */\n      tag_118\n      jump\t// in\n    tag_193:\n        /* \"#utility.yul\":3867:4006   */\n      swap3\n      swap2\n      pop\n      pop\n      jump\t// out\n        /* \"#utility.yul\":4012:4341   */\n    tag_23:\n        /* \"#utility.yul\":4071:4077   */\n      0x00\n        /* \"#utility.yul\":4120:4122   */\n      0x20\n        /* \"#utility.yul\":4108:4117   */\n      dup3\n        /* \"#utility.yul\":4099:4106   */\n      dup5\n        /* \"#utility.yul\":4095:4118   */\n      sub\n        /* \"#utility.yul\":4091:4123   */\n      slt\n        /* \"#utility.yul\":4088:4207   */\n      iszero\n      tag_195\n      jumpi\n        /* \"#utility.yul\":4126:4205   */\n      tag_196\n      tag_104\n      jump\t// in\n    tag_196:\n        /* \"#utility.yul\":4088:4207   */\n    tag_195:\n        /* \"#utility.yul\":4246:4247   */\n      0x00\n        /* \"#utility.yul\":4271:4324   */\n      tag_197\n        /* \"#utility.yul\":4316:4323   */\n      dup5\n        /* \"#utility.yul\":4307:4313   */\n      dup3\n        /* \"#utility.yul\":4296:4305   */\n      dup6\n        /* \"#utility.yul\":4292:4314   */\n      add\n        /* \"#utility.yul\":4271:4324   */\n      tag_119\n      jump\t// in\n    tag_197:\n        /* \"#utility.yul\":4261:4324   */\n      swap2\n      pop\n        /* \"#utility.yul\":4217:4334   */\n      pop\n        /* \"#utility.yul\":4012:4341   */\n      swap3\n      swap2\n      pop\n      pop\n      jump\t// out\n        /* \"#utility.yul\":4347:4437   */\n    tag_120:\n        /* \"#utility.yul\":4381:4388   */\n      0x00\n        /* \"#utility.yul\":4424:4429   */\n      dup2\n        /* \"#utility.yul\":4417:4430   */\n      iszero\n        /* \"#utility.yul\":4410:4431   */\n      iszero\n        /* \"#utility.yul\":4399:4431   */\n      swap1\n      pop\n        /* \"#utility.yul\":4347:4437   */\n      swap2\n      swap1\n      pop\n      jump\t// out\n        /* \"#utility.yul\":4443:4552   */\n    tag_121:\n        /* \"#utility.yul\":4524:4545   */\n      tag_200\n        /* \"#utility.yul\":4539:4544   */\n      dup2\n        /* \"#utility.yul\":4524:4545   */\n      tag_120\n      jump\t// in\n    tag_200:\n        /* \"#utility.yul\":4519:4522   */\n      dup3\n        /* \"#utility.yul\":4512:4546   */\n      mstore\n        /* \"#utility.yul\":4443:4552   */\n      pop\n      pop\n      jump\t// out\n        /* \"#utility.yul\":4558:4878   */\n    tag_26:\n        /* \"#utility.yul\":4673:4677   */\n      0x00\n        /* \"#utility.yul\":4711:4713   */\n      0x40\n        /* \"#utility.yul\":4700:4709   */\n      dup3\n        /* \"#utility.yul\":4696:4714   */\n      add\n        /* \"#utility.yul\":4688:4714   */\n      swap1\n      pop\n        /* \"#utility.yul\":4724:4789   */\n      tag_202\n        /* \"#utility.yul\":4786:4787   */\n      0x00\n        /* \"#utility.yul\":4775:4784   */\n      dup4\n        /* \"#utility.yul\":4771:4788   */\n      add\n        /* \"#utility.yul\":4762:4768   */\n      dup6\n        /* \"#utility.yul\":4724:4789   */\n      tag_121\n      jump\t// in\n    tag_202:\n        /* \"#utility.yul\":4799:4871   */\n      tag_203\n        /* \"#utility.yul\":4867:4869   */\n      0x20\n        /* \"#utility.yul\":4856:4865   */\n      dup4\n        /* \"#utility.yul\":4852:4870   */\n      add\n        /* \"#utility.yul\":4843:4849   */\n      dup5\n        /* \"#utility.yul\":4799:4871   */\n      tag_102\n      jump\t// in\n    tag_203:\n        /* \"#utility.yul\":4558:4878   */\n      swap4\n      swap3\n      pop\n      pop\n      pop\n      jump\t// out\n        /* \"#utility.yul\":4884:5006   */\n    tag_122:\n        /* \"#utility.yul\":4957:4981   */\n      tag_205\n        /* \"#utility.yul\":4975:4980   */\n      dup2\n        /* \"#utility.yul\":4957:4981   */\n      tag_101\n      jump\t// in\n    tag_205:\n        /* \"#utility.yul\":4950:4955   */\n      dup2\n        /* \"#utility.yul\":4947:4982   */\n      eq\n        /* \"#utility.yul\":4937:5000   */\n      tag_206\n      jumpi\n        /* \"#utility.yul\":4996:4997   */\n      0x00\n        /* \"#utility.yul\":4993:4994   */\n      0x00\n        /* \"#utility.yul\":4986:4998   */\n      revert\n        /* \"#utility.yul\":4937:5000   */\n    tag_206:\n        /* \"#utility.yul\":4884:5006   */\n      pop\n      jump\t// out\n        /* \"#utility.yul\":5012:5151   */\n    tag_123:\n        /* \"#utility.yul\":5058:5063   */\n      0x00\n        /* \"#utility.yul\":5096:5102   */\n      dup2\n        /* \"#utility.yul\":5083:5103   */\n      calldataload\n        /* \"#utility.yul\":5074:5103   */\n      swap1\n      pop\n        /* \"#utility.yul\":5112:5145   */\n      tag_208\n        /* \"#utility.yul\":5139:5144   */\n      dup2\n        /* \"#utility.yul\":5112:5145   */\n      tag_122\n      jump\t// in\n    tag_208:\n        /* \"#utility.yul\":5012:5151   */\n      swap3\n      swap2\n      pop\n      pop\n      jump\t// out\n        /* \"#utility.yul\":5157:5273   */\n    tag_124:\n        /* \"#utility.yul\":5227:5248   */\n      tag_210\n        /* \"#utility.yul\":5242:5247   */\n      dup2\n        /* \"#utility.yul\":5227:5248   */\n      tag_120\n      jump\t// in\n    tag_210:\n        /* \"#utility.yul\":5220:5225   */\n      dup2\n        /* \"#utility.yul\":5217:5249   */\n      eq\n        /* \"#utility.yul\":5207:5267   */\n      tag_211\n      jumpi\n        /* \"#utility.yul\":5263:5264   */\n      0x00\n        /* \"#utility.yul\":5260:5261   */\n      0x00\n        /* \"#utility.yul\":5253:5265   */\n      revert\n        /* \"#utility.yul\":5207:5267   */\n    tag_211:\n        /* \"#utility.yul\":5157:5273   */\n      pop\n      jump\t// out\n        /* \"#utility.yul\":5279:5412   */\n    tag_125:\n        /* \"#utility.yul\":5322:5327   */\n      0x00\n        /* \"#utility.yul\":5360:5366   */\n      dup2\n        /* \"#utility.yul\":5347:5367   */\n      calldataload\n        /* \"#utility.yul\":5338:5367   */\n      swap1\n      pop\n        /* \"#utility.yul\":5376:5406   */\n      tag_213\n        /* \"#utility.yul\":5400:5405   */\n      dup2\n        /* \"#utility.yul\":5376:5406   */\n      tag_124\n      jump\t// in\n    tag_213:\n        /* \"#utility.yul\":5279:5412   */\n      swap3\n      swap2\n      pop\n      pop\n      jump\t// out\n        /* \"#utility.yul\":5418:5886   */\n    tag_29:\n        /* \"#utility.yul\":5483:5489   */\n      0x00\n        /* \"#utility.yul\":5491:5497   */\n      0x00\n        /* \"#utility.yul\":5540:5542   */\n      0x40\n        /* \"#utility.yul\":5528:5537   */\n      dup4\n        /* \"#utility.yul\":5519:5526   */\n      dup6\n        /* \"#utility.yul\":5515:5538   */\n      sub\n        /* \"#utility.yul\":5511:5543   */\n      slt\n        /* \"#utility.yul\":5508:5627   */\n      iszero\n      tag_215\n      jumpi\n        /* \"#utility.yul\":5546:5625   */\n      tag_216\n      tag_104\n      jump\t// in\n    tag_216:\n        /* \"#utility.yul\":5508:5627   */\n    tag_215:\n        /* \"#utility.yul\":5666:5667   */\n      0x00\n        /* \"#utility.yul\":5691:5744   */\n      tag_217\n        /* \"#utility.yul\":5736:5743   */\n      dup6\n        /* \"#utility.yul\":5727:5733   */\n      dup3\n        /* \"#utility.yul\":5716:5725   */\n      dup7\n        /* \"#utility.yul\":5712:5734   */\n      add\n        /* \"#utility.yul\":5691:5744   */\n      tag_123\n      jump\t// in\n    tag_217:\n        /* \"#utility.yul\":5681:5744   */\n      swap3\n      pop\n        /* \"#utility.yul\":5637:5754   */\n      pop\n        /* \"#utility.yul\":5793:5795   */\n      0x20\n        /* \"#utility.yul\":5819:5869   */\n      tag_218\n        /* \"#utility.yul\":5861:5868   */\n      dup6\n        /* \"#utility.yul\":5852:5858   */\n      dup3\n        /* \"#utility.yul\":5841:5850   */\n      dup7\n        /* \"#utility.yul\":5837:5859   */\n      add\n        /* \"#utility.yul\":5819:5869   */\n      tag_125\n      jump\t// in\n    tag_218:\n        /* \"#utility.yul\":5809:5869   */\n      swap2\n      pop\n        /* \"#utility.yul\":5764:5879   */\n      pop\n        /* \"#utility.yul\":5418:5886   */\n      swap3\n      pop\n      swap3\n      swap1\n      pop\n      jump\t// out\n        /* \"#utility.yul\":5892:6010   */\n    tag_126:\n        /* \"#utility.yul\":5979:6003   */\n      tag_220\n        /* \"#utility.yul\":5997:6002   */\n      dup2\n        /* \"#utility.yul\":5979:6003   */\n      tag_117\n      jump\t// in\n    tag_220:\n        /* \"#utility.yul\":5974:5977   */\n      dup3\n        /* \"#utility.yul\":5967:6004   */\n      mstore\n        /* \"#utility.yul\":5892:6010   */\n      pop\n      pop\n      jump\t// out\n        /* \"#utility.yul\":6016:6238   */\n    tag_34:\n        /* \"#utility.yul\":6109:6113   */\n      0x00\n        /* \"#utility.yul\":6147:6149   */\n      0x20\n        /* \"#utility.yul\":6136:6145   */\n      dup3\n        /* \"#utility.yul\":6132:6150   */\n      add\n        /* \"#utility.yul\":6124:6150   */\n      swap1\n      pop\n        /* \"#utility.yul\":6160:6231   */\n      tag_222\n        /* \"#utility.yul\":6228:6229   */\n      0x00\n        /* \"#utility.yul\":6217:6226   */\n      dup4\n        /* \"#utility.yul\":6213:6230   */\n      add\n        /* \"#utility.yul\":6204:6210   */\n      dup5\n        /* \"#utility.yul\":6160:6231   */\n      tag_126\n      jump\t// in\n    tag_222:\n        /* \"#utility.yul\":6016:6238   */\n      swap3\n      swap2\n      pop\n      pop\n      jump\t// out\n        /* \"#utility.yul\":6244:6304   */\n    tag_127:\n        /* \"#utility.yul\":6272:6275   */\n      0x00\n        /* \"#utility.yul\":6293:6298   */\n      dup2\n        /* \"#utility.yul\":6286:6298   */\n      swap1\n      pop\n        /* \"#utility.yul\":6244:6304   */\n      swap2\n      swap1\n      pop\n      jump\t// out\n        /* \"#utility.yul\":6310:6452   */\n    tag_128:\n        /* \"#utility.yul\":6360:6369   */\n      0x00\n        /* \"#utility.yul\":6393:6446   */\n      tag_225\n        /* \"#utility.yul\":6411:6445   */\n      tag_226\n        /* \"#utility.yul\":6420:6444   */\n      tag_227\n        /* \"#utility.yul\":6438:6443   */\n      dup5\n        /* \"#utility.yul\":6420:6444   */\n      tag_116\n      jump\t// in\n    tag_227:\n        /* \"#utility.yul\":6411:6445   */\n      tag_127\n      jump\t// in\n    tag_226:\n        /* \"#utility.yul\":6393:6446   */\n      tag_116\n      jump\t// in\n    tag_225:\n        /* \"#utility.yul\":6380:6446   */\n      swap1\n      pop\n        /* \"#utility.yul\":6310:6452   */\n      swap2\n      swap1\n      pop\n      jump\t// out\n        /* \"#utility.yul\":6458:6584   */\n    tag_129:\n        /* \"#utility.yul\":6508:6517   */\n      0x00\n        /* \"#utility.yul\":6541:6578   */\n      tag_229\n        /* \"#utility.yul\":6572:6577   */\n      dup3\n        /* \"#utility.yul\":6541:6578   */\n      tag_128\n      jump\t// in\n    tag_229:\n        /* \"#utility.yul\":6528:6578   */\n      swap1\n      pop\n        /* \"#utility.yul\":6458:6584   */\n      swap2\n      swap1\n      pop\n      jump\t// out\n        /* \"#utility.yul\":6590:6734   */\n    tag_130:\n        /* \"#utility.yul\":6658:6667   */\n      0x00\n        /* \"#utility.yul\":6691:6728   */\n      tag_231\n        /* \"#utility.yul\":6722:6727   */\n      dup3\n        /* \"#utility.yul\":6691:6728   */\n      tag_129\n      jump\t// in\n    tag_231:\n        /* \"#utility.yul\":6678:6728   */\n      swap1\n      pop\n        /* \"#utility.yul\":6590:6734   */\n      swap2\n      swap1\n      pop\n      jump\t// out\n        /* \"#utility.yul\":6740:6907   */\n    tag_131:\n        /* \"#utility.yul\":6845:6900   */\n      tag_233\n        /* \"#utility.yul\":6894:6899   */\n      dup2\n        /* \"#utility.yul\":6845:6900   */\n      tag_130\n      jump\t// in\n    tag_233:\n        /* \"#utility.yul\":6840:6843   */\n      dup3\n        /* \"#utility.yul\":6833:6901   */\n      mstore\n        /* \"#utility.yul\":6740:6907   */\n      pop\n      pop\n      jump\t// out\n        /* \"#utility.yul\":6913:7171   */\n    tag_38:\n        /* \"#utility.yul\":7024:7028   */\n      0x00\n        /* \"#utility.yul\":7062:7064   */\n      0x20\n        /* \"#utility.yul\":7051:7060   */\n      dup3\n        /* \"#utility.yul\":7047:7065   */\n      add\n        /* \"#utility.yul\":7039:7065   */\n      swap1\n      pop\n        /* \"#utility.yul\":7075:7164   */\n      tag_235\n        /* \"#utility.yul\":7161:7162   */\n      0x00\n        /* \"#utility.yul\":7150:7159   */\n      dup4\n        /* \"#utility.yul\":7146:7163   */\n      add\n        /* \"#utility.yul\":7137:7143   */\n      dup5\n        /* \"#utility.yul\":7075:7164   */\n      tag_131\n      jump\t// in\n    tag_235:\n        /* \"#utility.yul\":6913:7171   */\n      swap3\n      swap2\n      pop\n      pop\n      jump\t// out\n        /* \"#utility.yul\":7177:7506   */\n    tag_41:\n        /* \"#utility.yul\":7236:7242   */\n      0x00\n        /* \"#utility.yul\":7285:7287   */\n      0x20\n        /* \"#utility.yul\":7273:7282   */\n      dup3\n        /* \"#utility.yul\":7264:7271   */\n      dup5\n        /* \"#utility.yul\":7260:7283   */\n      sub\n        /* \"#utility.yul\":7256:7288   */\n      slt\n        /* \"#utility.yul\":7253:7372   */\n      iszero\n      tag_237\n      jumpi\n        /* \"#utility.yul\":7291:7370   */\n      tag_238\n      tag_104\n      jump\t// in\n    tag_238:\n        /* \"#utility.yul\":7253:7372   */\n    tag_237:\n        /* \"#utility.yul\":7411:7412   */\n      0x00\n        /* \"#utility.yul\":7436:7489   */\n      tag_239\n        /* \"#utility.yul\":7481:7488   */\n      dup5\n        /* \"#utility.yul\":7472:7478   */\n      dup3\n        /* \"#utility.yul\":7461:7470   */\n      dup6\n        /* \"#utility.yul\":7457:7479   */\n      add\n        /* \"#utility.yul\":7436:7489   */\n      tag_123\n      jump\t// in\n    tag_239:\n        /* \"#utility.yul\":7426:7489   */\n      swap2\n      pop\n        /* \"#utility.yul\":7382:7499   */\n      pop\n        /* \"#utility.yul\":7177:7506   */\n      swap3\n      swap2\n      pop\n      pop\n      jump\t// out\n        /* \"#utility.yul\":7512:7611   */\n    tag_132:\n        /* \"#utility.yul\":7564:7570   */\n      0x00\n        /* \"#utility.yul\":7598:7603   */\n      dup2\n        /* \"#utility.yul\":7592:7604   */\n      mload\n        /* \"#utility.yul\":7582:7604   */\n      swap1\n      pop\n        /* \"#utility.yul\":7512:7611   */\n      swap2\n      swap1\n      pop\n      jump\t// out\n        /* \"#utility.yul\":7617:7786   */\n    tag_133:\n        /* \"#utility.yul\":7701:7712   */\n      0x00\n        /* \"#utility.yul\":7735:7741   */\n      dup3\n        /* \"#utility.yul\":7730:7733   */\n      dup3\n        /* \"#utility.yul\":7723:7742   */\n      mstore\n        /* \"#utility.yul\":7775:7779   */\n      0x20\n        /* \"#utility.yul\":7770:7773   */\n      dup3\n        /* \"#utility.yul\":7766:7780   */\n      add\n        /* \"#utility.yul\":7751:7780   */\n      swap1\n      pop\n        /* \"#utility.yul\":7617:7786   */\n      swap3\n      swap2\n      pop\n      pop\n      jump\t// out\n        /* \"#utility.yul\":7792:7931   */\n    tag_134:\n        /* \"#utility.yul\":7881:7887   */\n      dup3\n        /* \"#utility.yul\":7876:7879   */\n      dup2\n        /* \"#utility.yul\":7871:7874   */\n      dup4\n        /* \"#utility.yul\":7865:7888   */\n      mcopy\n        /* \"#utility.yul\":7922:7923   */\n      0x00\n        /* \"#utility.yul\":7913:7919   */\n      dup4\n        /* \"#utility.yul\":7908:7911   */\n      dup4\n        /* \"#utility.yul\":7904:7920   */\n      add\n        /* \"#utility.yul\":7897:7924   */\n      mstore\n        /* \"#utility.yul\":7792:7931   */\n      pop\n      pop\n      pop\n      jump\t// out\n        /* \"#utility.yul\":7937:8314   */\n    tag_135:\n        /* \"#utility.yul\":8025:8028   */\n      0x00\n        /* \"#utility.yul\":8053:8092   */\n      tag_244\n        /* \"#utility.yul\":8086:8091   */\n      dup3\n        /* \"#utility.yul\":8053:8092   */\n      tag_132\n      jump\t// in\n    tag_244:\n        /* \"#utility.yul\":8108:8179   */\n      tag_245\n        /* \"#utility.yul\":8172:8178   */\n      dup2\n        /* \"#utility.yul\":8167:8170   */\n      dup6\n        /* \"#utility.yul\":8108:8179   */\n      tag_133\n      jump\t// in\n    tag_245:\n        /* \"#utility.yul\":8101:8179   */\n      swap4\n      pop\n        /* \"#utility.yul\":8188:8253   */\n      tag_246\n        /* \"#utility.yul\":8246:8252   */\n      dup2\n        /* \"#utility.yul\":8241:8244   */\n      dup6\n        /* \"#utility.yul\":8234:8238   */\n      0x20\n        /* \"#utility.yul\":8227:8232   */\n      dup7\n        /* \"#utility.yul\":8223:8239   */\n      add\n        /* \"#utility.yul\":8188:8253   */\n      tag_134\n      jump\t// in\n    tag_246:\n        /* \"#utility.yul\":8278:8307   */\n      tag_247\n        /* \"#utility.yul\":8300:8306   */\n      dup2\n        /* \"#utility.yul\":8278:8307   */\n      tag_108\n      jump\t// in\n    tag_247:\n        /* \"#utility.yul\":8273:8276   */\n      dup5\n        /* \"#utility.yul\":8269:8308   */\n      add\n        /* \"#utility.yul\":8262:8308   */\n      swap2\n      pop\n        /* \"#utility.yul\":8029:8314   */\n      pop\n        /* \"#utility.yul\":7937:8314   */\n      swap3\n      swap2\n      pop\n      pop\n      jump\t// out\n        /* \"#utility.yul\":8320:9384   */\n    tag_44:\n        /* \"#utility.yul\":8617:8621   */\n      0x00\n        /* \"#utility.yul\":8655:8658   */\n      0x0100\n        /* \"#utility.yul\":8644:8653   */\n      dup3\n        /* \"#utility.yul\":8640:8659   */\n      add\n        /* \"#utility.yul\":8632:8659   */\n      swap1\n      pop\n        /* \"#utility.yul\":8669:8740   */\n      tag_249\n        /* \"#utility.yul\":8737:8738   */\n      0x00\n        /* \"#utility.yul\":8726:8735   */\n      dup4\n        /* \"#utility.yul\":8722:8739   */\n      add\n        /* \"#utility.yul\":8713:8719   */\n      dup12\n        /* \"#utility.yul\":8669:8740   */\n      tag_102\n      jump\t// in\n    tag_249:\n        /* \"#utility.yul\":8750:8822   */\n      tag_250\n        /* \"#utility.yul\":8818:8820   */\n      0x20\n        /* \"#utility.yul\":8807:8816   */\n      dup4\n        /* \"#utility.yul\":8803:8821   */\n      add\n        /* \"#utility.yul\":8794:8800   */\n      dup11\n        /* \"#utility.yul\":8750:8822   */\n      tag_126\n      jump\t// in\n    tag_250:\n        /* \"#utility.yul\":8869:8878   */\n      dup2\n        /* \"#utility.yul\":8863:8867   */\n      dup2\n        /* \"#utility.yul\":8859:8879   */\n      sub\n        /* \"#utility.yul\":8854:8856   */\n      0x40\n        /* \"#utility.yul\":8843:8852   */\n      dup4\n        /* \"#utility.yul\":8839:8857   */\n      add\n        /* \"#utility.yul\":8832:8880   */\n      mstore\n        /* \"#utility.yul\":8897:8975   */\n      tag_251\n        /* \"#utility.yul\":8970:8974   */\n      dup2\n        /* \"#utility.yul\":8961:8967   */\n      dup10\n        /* \"#utility.yul\":8897:8975   */\n      tag_135\n      jump\t// in\n    tag_251:\n        /* \"#utility.yul\":8889:8975   */\n      swap1\n      pop\n        /* \"#utility.yul\":8985:9057   */\n      tag_252\n        /* \"#utility.yul\":9053:9055   */\n      0x60\n        /* \"#utility.yul\":9042:9051   */\n      dup4\n        /* \"#utility.yul\":9038:9056   */\n      add\n        /* \"#utility.yul\":9029:9035   */\n      dup9\n        /* \"#utility.yul\":8985:9057   */\n      tag_102\n      jump\t// in\n    tag_252:\n        /* \"#utility.yul\":9067:9140   */\n      tag_253\n        /* \"#utility.yul\":9135:9138   */\n      0x80\n        /* \"#utility.yul\":9124:9133   */\n      dup4\n        /* \"#utility.yul\":9120:9139   */\n      add\n        /* \"#utility.yul\":9111:9117   */\n      dup8\n        /* \"#utility.yul\":9067:9140   */\n      tag_102\n      jump\t// in\n    tag_253:\n        /* \"#utility.yul\":9150:9223   */\n      tag_254\n        /* \"#utility.yul\":9218:9221   */\n      0xa0\n        /* \"#utility.yul\":9207:9216   */\n      dup4\n        /* \"#utility.yul\":9203:9222   */\n      add\n        /* \"#utility.yul\":9194:9200   */\n      dup7\n        /* \"#utility.yul\":9150:9223   */\n      tag_102\n      jump\t// in\n    tag_254:\n        /* \"#utility.yul\":9233:9300   */\n      tag_255\n        /* \"#utility.yul\":9295:9298   */\n      0xc0\n        /* \"#utility.yul\":9284:9293   */\n      dup4\n        /* \"#utility.yul\":9280:9299   */\n      add\n        /* \"#utility.yul\":9271:9277   */\n      dup6\n        /* \"#utility.yul\":9233:9300   */\n      tag_121\n      jump\t// in\n    tag_255:\n        /* \"#utility.yul\":9310:9377   */\n      tag_256\n        /* \"#utility.yul\":9372:9375   */\n      0xe0\n        /* \"#utility.yul\":9361:9370   */\n      dup4\n        /* \"#utility.yul\":9357:9376   */\n      add\n        /* \"#utility.yul\":9348:9354   */\n      dup5\n        /* \"#utility.yul\":9310:9377   */\n      tag_121\n      jump\t// in\n    tag_256:\n        /* \"#utility.yul\":8320:9384   */\n      swap10\n      swap9\n      pop\n      pop\n      pop\n      pop\n      pop\n      pop\n      pop\n      pop\n      pop\n      jump\t// out\n        /* \"#utility.yul\":9390:9531   */\n    tag_136:\n        /* \"#utility.yul\":9455:9464   */\n      0x00\n        /* \"#utility.yul\":9488:9525   */\n      tag_258\n        /* \"#utility.yul\":9519:9524   */\n      dup3\n        /* \"#utility.yul\":9488:9525   */\n      tag_129\n      jump\t// in\n    tag_258:\n        /* \"#utility.yul\":9475:9525   */\n      swap1\n      pop\n        /* \"#utility.yul\":9390:9531   */\n      swap2\n      swap1\n      pop\n      jump\t// out\n        /* \"#utility.yul\":9537:9698   */\n    tag_137:\n        /* \"#utility.yul\":9639:9691   */\n      tag_260\n        /* \"#utility.yul\":9685:9690   */\n      dup2\n        /* \"#utility.yul\":9639:9691   */\n      tag_136\n      jump\t// in\n    tag_260:\n        /* \"#utility.yul\":9634:9637   */\n      dup3\n        /* \"#utility.yul\":9627:9692   */\n      mstore\n        /* \"#utility.yul\":9537:9698   */\n      pop\n      pop\n      jump\t// out\n        /* \"#utility.yul\":9704:9956   */\n    tag_48:\n        /* \"#utility.yul\":9812:9816   */\n      0x00\n        /* \"#utility.yul\":9850:9852   */\n      0x20\n        /* \"#utility.yul\":9839:9848   */\n      dup3\n        /* \"#utility.yul\":9835:9853   */\n      add\n        /* \"#utility.yul\":9827:9853   */\n      swap1\n      pop\n        /* \"#utility.yul\":9863:9949   */\n      tag_262\n        /* \"#utility.yul\":9946:9947   */\n      0x00\n        /* \"#utility.yul\":9935:9944   */\n      dup4\n        /* \"#utility.yul\":9931:9948   */\n      add\n        /* \"#utility.yul\":9922:9928   */\n      dup5\n        /* \"#utility.yul\":9863:9949   */\n      tag_137\n      jump\t// in\n    tag_262:\n        /* \"#utility.yul\":9704:9956   */\n      swap3\n      swap2\n      pop\n      pop\n      jump\t// out\n        /* \"#utility.yul\":9962:10105   */\n    tag_138:\n        /* \"#utility.yul\":10019:10024   */\n      0x00\n        /* \"#utility.yul\":10050:10056   */\n      dup2\n        /* \"#utility.yul\":10044:10057   */\n      mload\n        /* \"#utility.yul\":10035:10057   */\n      swap1\n      pop\n        /* \"#utility.yul\":10066:10099   */\n      tag_264\n        /* \"#utility.yul\":10093:10098   */\n      dup2\n        /* \"#utility.yul\":10066:10099   */\n      tag_122\n      jump\t// in\n    tag_264:\n        /* \"#utility.yul\":9962:10105   */\n      swap3\n      swap2\n      pop\n      pop\n      jump\t// out\n        /* \"#utility.yul\":10111:10931   */\n    tag_54:\n        /* \"#utility.yul\":10208:10214   */\n      0x00\n        /* \"#utility.yul\":10216:10222   */\n      0x00\n        /* \"#utility.yul\":10224:10230   */\n      0x00\n        /* \"#utility.yul\":10232:10238   */\n      0x00\n        /* \"#utility.yul\":10281:10284   */\n      0x80\n        /* \"#utility.yul\":10269:10278   */\n      dup6\n        /* \"#utility.yul\":10260:10267   */\n      dup8\n        /* \"#utility.yul\":10256:10279   */\n      sub\n        /* \"#utility.yul\":10252:10285   */\n      slt\n        /* \"#utility.yul\":10249:10369   */\n      iszero\n      tag_266\n      jumpi\n        /* \"#utility.yul\":10288:10367   */\n      tag_267\n      tag_104\n      jump\t// in\n    tag_267:\n        /* \"#utility.yul\":10249:10369   */\n    tag_266:\n        /* \"#utility.yul\":10408:10409   */\n      0x00\n        /* \"#utility.yul\":10433:10497   */\n      tag_268\n        /* \"#utility.yul\":10489:10496   */\n      dup8\n        /* \"#utility.yul\":10480:10486   */\n      dup3\n        /* \"#utility.yul\":10469:10478   */\n      dup9\n        /* \"#utility.yul\":10465:10487   */\n      add\n        /* \"#utility.yul\":10433:10497   */\n      tag_138\n      jump\t// in\n    tag_268:\n        /* \"#utility.yul\":10423:10497   */\n      swap5\n      pop\n        /* \"#utility.yul\":10379:10507   */\n      pop\n        /* \"#utility.yul\":10546:10548   */\n      0x20\n        /* \"#utility.yul\":10572:10636   */\n      tag_269\n        /* \"#utility.yul\":10628:10635   */\n      dup8\n        /* \"#utility.yul\":10619:10625   */\n      dup3\n        /* \"#utility.yul\":10608:10617   */\n      dup9\n        /* \"#utility.yul\":10604:10626   */\n      add\n        /* \"#utility.yul\":10572:10636   */\n      tag_138\n      jump\t// in\n    tag_269:\n        /* \"#utility.yul\":10562:10636   */\n      swap4\n      pop\n        /* \"#utility.yul\":10517:10646   */\n      pop\n        /* \"#utility.yul\":10685:10687   */\n      0x40\n        /* \"#utility.yul\":10711:10775   */\n      tag_270\n        /* \"#utility.yul\":10767:10774   */\n      dup8\n        /* \"#utility.yul\":10758:10764   */\n      dup3\n        /* \"#utility.yul\":10747:10756   */\n      dup9\n        /* \"#utility.yul\":10743:10765   */\n      add\n        /* \"#utility.yul\":10711:10775   */\n      tag_138\n      jump\t// in\n    tag_270:\n        /* \"#utility.yul\":10701:10775   */\n      swap3\n      pop\n        /* \"#utility.yul\":10656:10785   */\n      pop\n        /* \"#utility.yul\":10824:10826   */\n      0x60\n        /* \"#utility.yul\":10850:10914   */\n      tag_271\n        /* \"#utility.yul\":10906:10913   */\n      dup8\n        /* \"#utility.yul\":10897:10903   */\n      dup3\n        /* \"#utility.yul\":10886:10895   */\n      dup9\n        /* \"#utility.yul\":10882:10904   */\n      add\n        /* \"#utility.yul\":10850:10914   */\n      tag_138\n      jump\t// in\n    tag_271:\n        /* \"#utility.yul\":10840:10914   */\n      swap2\n      pop\n        /* \"#utility.yul\":10795:10924   */\n      pop\n        /* \"#utility.yul\":10111:10931   */\n      swap3\n      swap6\n      swap2\n      swap5\n      pop\n      swap3\n      pop\n      jump\t// out\n        /* \"#utility.yul\":10937:11166   */\n    tag_139:\n        /* \"#utility.yul\":11077:11111   */\n      0x4861727573207374616b652064756c7520756e74756b20626973612062657270\n        /* \"#utility.yul\":11073:11074   */\n      0x00\n        /* \"#utility.yul\":11065:11071   */\n      dup3\n        /* \"#utility.yul\":11061:11075   */\n      add\n        /* \"#utility.yul\":11054:11112   */\n      mstore\n        /* \"#utility.yul\":11146:11158   */\n      0x6172746973697061736900000000000000000000000000000000000000000000\n        /* \"#utility.yul\":11141:11143   */\n      0x20\n        /* \"#utility.yul\":11133:11139   */\n      dup3\n        /* \"#utility.yul\":11129:11144   */\n      add\n        /* \"#utility.yul\":11122:11159   */\n      mstore\n        /* \"#utility.yul\":10937:11166   */\n      pop\n      jump\t// out\n        /* \"#utility.yul\":11172:11538   */\n    tag_140:\n        /* \"#utility.yul\":11314:11317   */\n      0x00\n        /* \"#utility.yul\":11335:11402   */\n      tag_274\n        /* \"#utility.yul\":11399:11401   */\n      0x2a\n        /* \"#utility.yul\":11394:11397   */\n      dup4\n        /* \"#utility.yul\":11335:11402   */\n      tag_133\n      jump\t// in\n    tag_274:\n        /* \"#utility.yul\":11328:11402   */\n      swap2\n      pop\n        /* \"#utility.yul\":11411:11504   */\n      tag_275\n        /* \"#utility.yul\":11500:11503   */\n      dup3\n        /* \"#utility.yul\":11411:11504   */\n      tag_139\n      jump\t// in\n    tag_275:\n        /* \"#utility.yul\":11529:11531   */\n      0x40\n        /* \"#utility.yul\":11524:11527   */\n      dup3\n        /* \"#utility.yul\":11520:11532   */\n      add\n        /* \"#utility.yul\":11513:11532   */\n      swap1\n      pop\n        /* \"#utility.yul\":11172:11538   */\n      swap2\n      swap1\n      pop\n      jump\t// out\n        /* \"#utility.yul\":11544:11963   */\n    tag_57:\n        /* \"#utility.yul\":11710:11714   */\n      0x00\n        /* \"#utility.yul\":11748:11750   */\n      0x20\n        /* \"#utility.yul\":11737:11746   */\n      dup3\n        /* \"#utility.yul\":11733:11751   */\n      add\n        /* \"#utility.yul\":11725:11751   */\n      swap1\n      pop\n        /* \"#utility.yul\":11797:11806   */\n      dup2\n        /* \"#utility.yul\":11791:11795   */\n      dup2\n        /* \"#utility.yul\":11787:11807   */\n      sub\n        /* \"#utility.yul\":11783:11784   */\n      0x00\n        /* \"#utility.yul\":11772:11781   */\n      dup4\n        /* \"#utility.yul\":11768:11785   */\n      add\n        /* \"#utility.yul\":11761:11808   */\n      mstore\n        /* \"#utility.yul\":11825:11956   */\n      tag_277\n        /* \"#utility.yul\":11951:11955   */\n      dup2\n        /* \"#utility.yul\":11825:11956   */\n      tag_140\n      jump\t// in\n    tag_277:\n        /* \"#utility.yul\":11817:11956   */\n      swap1\n      pop\n        /* \"#utility.yul\":11544:11963   */\n      swap2\n      swap1\n      pop\n      jump\t// out\n        /* \"#utility.yul\":11969:12282   */\n    tag_64:\n        /* \"#utility.yul\":12082:12086   */\n      0x00\n        /* \"#utility.yul\":12120:12122   */\n      0x20\n        /* \"#utility.yul\":12109:12118   */\n      dup3\n        /* \"#utility.yul\":12105:12123   */\n      add\n        /* \"#utility.yul\":12097:12123   */\n      swap1\n      pop\n        /* \"#utility.yul\":12169:12178   */\n      dup2\n        /* \"#utility.yul\":12163:12167   */\n      dup2\n        /* \"#utility.yul\":12159:12179   */\n      sub\n        /* \"#utility.yul\":12155:12156   */\n      0x00\n        /* \"#utility.yul\":12144:12153   */\n      dup4\n        /* \"#utility.yul\":12140:12157   */\n      add\n        /* \"#utility.yul\":12133:12180   */\n      mstore\n        /* \"#utility.yul\":12197:12275   */\n      tag_279\n        /* \"#utility.yul\":12270:12274   */\n      dup2\n        /* \"#utility.yul\":12261:12267   */\n      dup5\n        /* \"#utility.yul\":12197:12275   */\n      tag_135\n      jump\t// in\n    tag_279:\n        /* \"#utility.yul\":12189:12275   */\n      swap1\n      pop\n        /* \"#utility.yul\":11969:12282   */\n      swap3\n      swap2\n      pop\n      pop\n      jump\t// out\n        /* \"#utility.yul\":12288:12639   */\n    tag_68:\n        /* \"#utility.yul\":12358:12364   */\n      0x00\n        /* \"#utility.yul\":12407:12409   */\n      0x20\n        /* \"#utility.yul\":12395:12404   */\n      dup3\n        /* \"#utility.yul\":12386:12393   */\n      dup5\n        /* \"#utility.yul\":12382:12405   */\n      sub\n        /* \"#utility.yul\":12378:12410   */\n      slt\n        /* \"#utility.yul\":12375:12494   */\n      iszero\n      tag_281\n      jumpi\n        /* \"#utility.yul\":12413:12492   */\n      tag_282\n      tag_104\n      jump\t// in\n    tag_282:\n        /* \"#utility.yul\":12375:12494   */\n    tag_281:\n        /* \"#utility.yul\":12533:12534   */\n      0x00\n        /* \"#utility.yul\":12558:12622   */\n      tag_283\n        /* \"#utility.yul\":12614:12621   */\n      dup5\n        /* \"#utility.yul\":12605:12611   */\n      dup3\n        /* \"#utility.yul\":12594:12603   */\n      dup6\n        /* \"#utility.yul\":12590:12612   */\n      add\n        /* \"#utility.yul\":12558:12622   */\n      tag_138\n      jump\t// in\n    tag_283:\n        /* \"#utility.yul\":12548:12622   */\n      swap2\n      pop\n        /* \"#utility.yul\":12504:12632   */\n      pop\n        /* \"#utility.yul\":12288:12639   */\n      swap3\n      swap2\n      pop\n      pop\n      jump\t// out\n        /* \"#utility.yul\":12645:12977   */\n    tag_70:\n        /* \"#utility.yul\":12766:12770   */\n      0x00\n        /* \"#utility.yul\":12804:12806   */\n      0x40\n        /* \"#utility.yul\":12793:12802   */\n      dup3\n        /* \"#utility.yul\":12789:12807   */\n      add\n        /* \"#utility.yul\":12781:12807   */\n      swap1\n      pop\n        /* \"#utility.yul\":12817:12888   */\n      tag_285\n        /* \"#utility.yul\":12885:12886   */\n      0x00\n        /* \"#utility.yul\":12874:12883   */\n      dup4\n        /* \"#utility.yul\":12870:12887   */\n      add\n        /* \"#utility.yul\":12861:12867   */\n      dup6\n        /* \"#utility.yul\":12817:12888   */\n      tag_102\n      jump\t// in\n    tag_285:\n        /* \"#utility.yul\":12898:12970   */\n      tag_286\n        /* \"#utility.yul\":12966:12968   */\n      0x20\n        /* \"#utility.yul\":12955:12964   */\n      dup4\n        /* \"#utility.yul\":12951:12969   */\n      add\n        /* \"#utility.yul\":12942:12948   */\n      dup5\n        /* \"#utility.yul\":12898:12970   */\n      tag_102\n      jump\t// in\n    tag_286:\n        /* \"#utility.yul\":12645:12977   */\n      swap4\n      swap3\n      pop\n      pop\n      pop\n      jump\t// out\n        /* \"#utility.yul\":12983:13303   */\n    tag_89:\n        /* \"#utility.yul\":13098:13102   */\n      0x00\n        /* \"#utility.yul\":13136:13138   */\n      0x40\n        /* \"#utility.yul\":13125:13134   */\n      dup3\n        /* \"#utility.yul\":13121:13139   */\n      add\n        /* \"#utility.yul\":13113:13139   */\n      swap1\n      pop\n        /* \"#utility.yul\":13149:13220   */\n      tag_288\n        /* \"#utility.yul\":13217:13218   */\n      0x00\n        /* \"#utility.yul\":13206:13215   */\n      dup4\n        /* \"#utility.yul\":13202:13219   */\n      add\n        /* \"#utility.yul\":13193:13199   */\n      dup6\n        /* \"#utility.yul\":13149:13220   */\n      tag_102\n      jump\t// in\n    tag_288:\n        /* \"#utility.yul\":13230:13296   */\n      tag_289\n        /* \"#utility.yul\":13292:13294   */\n      0x20\n        /* \"#utility.yul\":13281:13290   */\n      dup4\n        /* \"#utility.yul\":13277:13295   */\n      add\n        /* \"#utility.yul\":13268:13274   */\n      dup5\n        /* \"#utility.yul\":13230:13296   */\n      tag_121\n      jump\t// in\n    tag_289:\n        /* \"#utility.yul\":12983:13303   */\n      swap4\n      swap3\n      pop\n      pop\n      pop\n      jump\t// out\n        /* \"#utility.yul\":13309:13739   */\n    tag_94:\n        /* \"#utility.yul\":13452:13456   */\n      0x00\n        /* \"#utility.yul\":13490:13492   */\n      0x60\n        /* \"#utility.yul\":13479:13488   */\n      dup3\n        /* \"#utility.yul\":13475:13493   */\n      add\n        /* \"#utility.yul\":13467:13493   */\n      swap1\n      pop\n        /* \"#utility.yul\":13503:13574   */\n      tag_291\n        /* \"#utility.yul\":13571:13572   */\n      0x00\n        /* \"#utility.yul\":13560:13569   */\n      dup4\n        /* \"#utility.yul\":13556:13573   */\n      add\n        /* \"#utility.yul\":13547:13553   */\n      dup7\n        /* \"#utility.yul\":13503:13574   */\n      tag_102\n      jump\t// in\n    tag_291:\n        /* \"#utility.yul\":13584:13650   */\n      tag_292\n        /* \"#utility.yul\":13646:13648   */\n      0x20\n        /* \"#utility.yul\":13635:13644   */\n      dup4\n        /* \"#utility.yul\":13631:13649   */\n      add\n        /* \"#utility.yul\":13622:13628   */\n      dup6\n        /* \"#utility.yul\":13584:13650   */\n      tag_121\n      jump\t// in\n    tag_292:\n        /* \"#utility.yul\":13660:13732   */\n      tag_293\n        /* \"#utility.yul\":13728:13730   */\n      0x40\n        /* \"#utility.yul\":13717:13726   */\n      dup4\n        /* \"#utility.yul\":13713:13731   */\n      add\n        /* \"#utility.yul\":13704:13710   */\n      dup5\n        /* \"#utility.yul\":13660:13732   */\n      tag_102\n      jump\t// in\n    tag_293:\n        /* \"#utility.yul\":13309:13739   */\n      swap5\n      swap4\n      pop\n      pop\n      pop\n      pop\n      jump\t// out\n        /* \"#utility.yul\":13745:13888   */\n    tag_141:\n        /* \"#utility.yul\":13802:13807   */\n      0x00\n        /* \"#utility.yul\":13833:13839   */\n      dup2\n        /* \"#utility.yul\":13827:13840   */\n      mload\n        /* \"#utility.yul\":13818:13840   */\n      swap1\n      pop\n        /* \"#utility.yul\":13849:13882   */\n      tag_295\n        /* \"#utility.yul\":13876:13881   */\n      dup2\n        /* \"#utility.yul\":13849:13882   */\n      tag_118\n      jump\t// in\n    tag_295:\n        /* \"#utility.yul\":13745:13888   */\n      swap3\n      swap2\n      pop\n      pop\n      jump\t// out\n        /* \"#utility.yul\":13894:14328   */\n    tag_142:\n        /* \"#utility.yul\":13983:13988   */\n      0x00\n        /* \"#utility.yul\":14008:14074   */\n      tag_297\n        /* \"#utility.yul\":14024:14073   */\n      tag_298\n        /* \"#utility.yul\":14066:14072   */\n      dup5\n        /* \"#utility.yul\":14024:14073   */\n      tag_112\n      jump\t// in\n    tag_298:\n        /* \"#utility.yul\":14008:14074   */\n      tag_111\n      jump\t// in\n    tag_297:\n        /* \"#utility.yul\":13999:14074   */\n      swap1\n      pop\n        /* \"#utility.yul\":14097:14103   */\n      dup3\n        /* \"#utility.yul\":14090:14095   */\n      dup2\n        /* \"#utility.yul\":14083:14104   */\n      mstore\n        /* \"#utility.yul\":14135:14139   */\n      0x20\n        /* \"#utility.yul\":14128:14133   */\n      dup2\n        /* \"#utility.yul\":14124:14140   */\n      add\n        /* \"#utility.yul\":14173:14176   */\n      dup5\n        /* \"#utility.yul\":14164:14170   */\n      dup5\n        /* \"#utility.yul\":14159:14162   */\n      dup5\n        /* \"#utility.yul\":14155:14171   */\n      add\n        /* \"#utility.yul\":14152:14177   */\n      gt\n        /* \"#utility.yul\":14149:14261   */\n      iszero\n      tag_299\n      jumpi\n        /* \"#utility.yul\":14180:14259   */\n      tag_300\n      tag_107\n      jump\t// in\n    tag_300:\n        /* \"#utility.yul\":14149:14261   */\n    tag_299:\n        /* \"#utility.yul\":14270:14322   */\n      tag_301\n        /* \"#utility.yul\":14315:14321   */\n      dup5\n        /* \"#utility.yul\":14310:14313   */\n      dup3\n        /* \"#utility.yul\":14305:14308   */\n      dup6\n        /* \"#utility.yul\":14270:14322   */\n      tag_134\n      jump\t// in\n    tag_301:\n        /* \"#utility.yul\":13989:14328   */\n      pop\n        /* \"#utility.yul\":13894:14328   */\n      swap4\n      swap3\n      pop\n      pop\n      pop\n      jump\t// out\n        /* \"#utility.yul\":14348:14703   */\n    tag_143:\n        /* \"#utility.yul\":14415:14420   */\n      0x00\n        /* \"#utility.yul\":14464:14467   */\n      dup3\n        /* \"#utility.yul\":14457:14461   */\n      0x1f\n        /* \"#utility.yul\":14449:14455   */\n      dup4\n        /* \"#utility.yul\":14445:14462   */\n      add\n        /* \"#utility.yul\":14441:14468   */\n      slt\n        /* \"#utility.yul\":14431:14553   */\n      tag_303\n      jumpi\n        /* \"#utility.yul\":14472:14551   */\n      tag_304\n      tag_106\n      jump\t// in\n    tag_304:\n        /* \"#utility.yul\":14431:14553   */\n    tag_303:\n        /* \"#utility.yul\":14582:14588   */\n      dup2\n        /* \"#utility.yul\":14576:14589   */\n      mload\n        /* \"#utility.yul\":14607:14697   */\n      tag_305\n        /* \"#utility.yul\":14693:14696   */\n      dup5\n        /* \"#utility.yul\":14685:14691   */\n      dup3\n        /* \"#utility.yul\":14678:14682   */\n      0x20\n        /* \"#utility.yul\":14670:14676   */\n      dup7\n        /* \"#utility.yul\":14666:14683   */\n      add\n        /* \"#utility.yul\":14607:14697   */\n      tag_142\n      jump\t// in\n    tag_305:\n        /* \"#utility.yul\":14598:14697   */\n      swap2\n      pop\n        /* \"#utility.yul\":14421:14703   */\n      pop\n        /* \"#utility.yul\":14348:14703   */\n      swap3\n      swap2\n      pop\n      pop\n      jump\t// out\n        /* \"#utility.yul\":14709:14846   */\n    tag_144:\n        /* \"#utility.yul\":14763:14768   */\n      0x00\n        /* \"#utility.yul\":14794:14800   */\n      dup2\n        /* \"#utility.yul\":14788:14801   */\n      mload\n        /* \"#utility.yul\":14779:14801   */\n      swap1\n      pop\n        /* \"#utility.yul\":14810:14840   */\n      tag_307\n        /* \"#utility.yul\":14834:14839   */\n      dup2\n        /* \"#utility.yul\":14810:14840   */\n      tag_124\n      jump\t// in\n    tag_307:\n        /* \"#utility.yul\":14709:14846   */\n      swap3\n      swap2\n      pop\n      pop\n      jump\t// out\n        /* \"#utility.yul\":14852:16461   */\n    tag_100:\n        /* \"#utility.yul\":14989:14995   */\n      0x00\n        /* \"#utility.yul\":14997:15003   */\n      0x00\n        /* \"#utility.yul\":15005:15011   */\n      0x00\n        /* \"#utility.yul\":15013:15019   */\n      0x00\n        /* \"#utility.yul\":15021:15027   */\n      0x00\n        /* \"#utility.yul\":15029:15035   */\n      0x00\n        /* \"#utility.yul\":15037:15043   */\n      0x00\n        /* \"#utility.yul\":15045:15051   */\n      0x00\n        /* \"#utility.yul\":15094:15097   */\n      0x0100\n        /* \"#utility.yul\":15082:15091   */\n      dup10\n        /* \"#utility.yul\":15073:15080   */\n      dup12\n        /* \"#utility.yul\":15069:15092   */\n      sub\n        /* \"#utility.yul\":15065:15098   */\n      slt\n        /* \"#utility.yul\":15062:15182   */\n      iszero\n      tag_309\n      jumpi\n        /* \"#utility.yul\":15101:15180   */\n      tag_310\n      tag_104\n      jump\t// in\n    tag_310:\n        /* \"#utility.yul\":15062:15182   */\n    tag_309:\n        /* \"#utility.yul\":15221:15222   */\n      0x00\n        /* \"#utility.yul\":15246:15310   */\n      tag_311\n        /* \"#utility.yul\":15302:15309   */\n      dup12\n        /* \"#utility.yul\":15293:15299   */\n      dup3\n        /* \"#utility.yul\":15282:15291   */\n      dup13\n        /* \"#utility.yul\":15278:15300   */\n      add\n        /* \"#utility.yul\":15246:15310   */\n      tag_138\n      jump\t// in\n    tag_311:\n        /* \"#utility.yul\":15236:15310   */\n      swap9\n      pop\n        /* \"#utility.yul\":15192:15320   */\n      pop\n        /* \"#utility.yul\":15359:15361   */\n      0x20\n        /* \"#utility.yul\":15385:15449   */\n      tag_312\n        /* \"#utility.yul\":15441:15448   */\n      dup12\n        /* \"#utility.yul\":15432:15438   */\n      dup3\n        /* \"#utility.yul\":15421:15430   */\n      dup13\n        /* \"#utility.yul\":15417:15439   */\n      add\n        /* \"#utility.yul\":15385:15449   */\n      tag_141\n      jump\t// in\n    tag_312:\n        /* \"#utility.yul\":15375:15449   */\n      swap8\n      pop\n        /* \"#utility.yul\":15330:15459   */\n      pop\n        /* \"#utility.yul\":15519:15521   */\n      0x40\n        /* \"#utility.yul\":15508:15517   */\n      dup10\n        /* \"#utility.yul\":15504:15522   */\n      add\n        /* \"#utility.yul\":15498:15523   */\n      mload\n        /* \"#utility.yul\":15550:15568   */\n      0xffffffffffffffff\n        /* \"#utility.yul\":15542:15548   */\n      dup2\n        /* \"#utility.yul\":15539:15569   */\n      gt\n        /* \"#utility.yul\":15536:15653   */\n      iszero\n      tag_313\n      jumpi\n        /* \"#utility.yul\":15572:15651   */\n      tag_314\n      tag_105\n      jump\t// in\n    tag_314:\n        /* \"#utility.yul\":15536:15653   */\n    tag_313:\n        /* \"#utility.yul\":15677:15751   */\n      tag_315\n        /* \"#utility.yul\":15743:15750   */\n      dup12\n        /* \"#utility.yul\":15734:15740   */\n      dup3\n        /* \"#utility.yul\":15723:15732   */\n      dup13\n        /* \"#utility.yul\":15719:15741   */\n      add\n        /* \"#utility.yul\":15677:15751   */\n      tag_143\n      jump\t// in\n    tag_315:\n        /* \"#utility.yul\":15667:15751   */\n      swap7\n      pop\n        /* \"#utility.yul\":15469:15761   */\n      pop\n        /* \"#utility.yul\":15800:15802   */\n      0x60\n        /* \"#utility.yul\":15826:15890   */\n      tag_316\n        /* \"#utility.yul\":15882:15889   */\n      dup12\n        /* \"#utility.yul\":15873:15879   */\n      dup3\n        /* \"#utility.yul\":15862:15871   */\n      dup13\n        /* \"#utility.yul\":15858:15880   */\n      add\n        /* \"#utility.yul\":15826:15890   */\n      tag_138\n      jump\t// in\n    tag_316:\n        /* \"#utility.yul\":15816:15890   */\n      swap6\n      pop\n        /* \"#utility.yul\":15771:15900   */\n      pop\n        /* \"#utility.yul\":15939:15942   */\n      0x80\n        /* \"#utility.yul\":15966:16030   */\n      tag_317\n        /* \"#utility.yul\":16022:16029   */\n      dup12\n        /* \"#utility.yul\":16013:16019   */\n      dup3\n        /* \"#utility.yul\":16002:16011   */\n      dup13\n        /* \"#utility.yul\":15998:16020   */\n      add\n        /* \"#utility.yul\":15966:16030   */\n      tag_138\n      jump\t// in\n    tag_317:\n        /* \"#utility.yul\":15956:16030   */\n      swap5\n      pop\n        /* \"#utility.yul\":15910:16040   */\n      pop\n        /* \"#utility.yul\":16079:16082   */\n      0xa0\n        /* \"#utility.yul\":16106:16170   */\n      tag_318\n        /* \"#utility.yul\":16162:16169   */\n      dup12\n        /* \"#utility.yul\":16153:16159   */\n      dup3\n        /* \"#utility.yul\":16142:16151   */\n      dup13\n        /* \"#utility.yul\":16138:16160   */\n      add\n        /* \"#utility.yul\":16106:16170   */\n      tag_138\n      jump\t// in\n    tag_318:\n        /* \"#utility.yul\":16096:16170   */\n      swap4\n      pop\n        /* \"#utility.yul\":16050:16180   */\n      pop\n        /* \"#utility.yul\":16219:16222   */\n      0xc0\n        /* \"#utility.yul\":16246:16307   */\n      tag_319\n        /* \"#utility.yul\":16299:16306   */\n      dup12\n        /* \"#utility.yul\":16290:16296   */\n      dup3\n        /* \"#utility.yul\":16279:16288   */\n      dup13\n        /* \"#utility.yul\":16275:16297   */\n      add\n        /* \"#utility.yul\":16246:16307   */\n      tag_144\n      jump\t// in\n    tag_319:\n        /* \"#utility.yul\":16236:16307   */\n      swap3\n      pop\n        /* \"#utility.yul\":16190:16317   */\n      pop\n        /* \"#utility.yul\":16356:16359   */\n      0xe0\n        /* \"#utility.yul\":16383:16444   */\n      tag_320\n        /* \"#utility.yul\":16436:16443   */\n      dup12\n        /* \"#utility.yul\":16427:16433   */\n      dup3\n        /* \"#utility.yul\":16416:16425   */\n      dup13\n        /* \"#utility.yul\":16412:16434   */\n      add\n        /* \"#utility.yul\":16383:16444   */\n      tag_144\n      jump\t// in\n    tag_320:\n        /* \"#utility.yul\":16373:16444   */\n      swap2\n      pop\n        /* \"#utility.yul\":16327:16454   */\n      pop\n        /* \"#utility.yul\":14852:16461   */\n      swap3\n      swap6\n      swap9\n      pop\n      swap3\n      swap6\n      swap9\n      swap1\n      swap4\n      swap7\n      pop\n      jump\t// out\n\n    auxdata: 0xa26469706673582212202fa27fb710a7e2b53d27060e49bba8ff47cd09c1d742b0fdbffb33619b5673f364736f6c63430008220033\n}\n",
				"bytecode": {
					"linkReferences": {},
					"object": "608060405266038d7ea4c6800060035534801561001a575f5ffd5b50604051611294380380611294833981810160405281019061003c9190610160565b335f5f6101000a81548173ffffffffffffffffffffffffffffffffffffffff021916908373ffffffffffffffffffffffffffffffffffffffff1602179055508160015f6101000a81548173ffffffffffffffffffffffffffffffffffffffff021916908373ffffffffffffffffffffffffffffffffffffffff1602179055508060025f6101000a81548173ffffffffffffffffffffffffffffffffffffffff021916908373ffffffffffffffffffffffffffffffffffffffff160217905550505061019e565b5f5ffd5b5f73ffffffffffffffffffffffffffffffffffffffff82169050919050565b5f61012f82610106565b9050919050565b61013f81610125565b8114610149575f5ffd5b50565b5f8151905061015a81610136565b92915050565b5f5f6040838503121561017657610175610102565b5b5f6101838582860161014c565b92505060206101948582860161014c565b9150509250929050565b6110e9806101ab5f395ff3fe608060405234801561000f575f5ffd5b5060043610610086575f3560e01c80638da5cb5b116100595780638da5cb5b14610125578063b172b22214610143578063bc903cb814610161578063ee99205c1461019857610086565b80634608bf6b1461008a57806369a9005b146100a85780637723bafb146100d85780637e4d22d014610109575b5f5ffd5b6100926101b6565b60405161009f9190610894565b60405180910390f35b6100c260048036038101906100bd91906109fa565b6101bc565b6040516100cf9190610894565b60405180910390f35b6100f260048036038101906100ed9190610a9b565b610438565b604051610100929190610ae0565b60405180910390f35b610123600480360381019061011e9190610b5b565b6104ea565b005b61012d61074e565b60405161013a9190610ba8565b60405180910390f35b61014b610772565b6040516101589190610c1c565b60405180910390f35b61017b60048036038101906101769190610c35565b610797565b60405161018f989796959493929190610cc0565b60405180910390f35b6101a0610857565b6040516101ad9190610d63565b60405180910390f35b60035481565b5f5f60015f9054906101000a900473ffffffffffffffffffffffffffffffffffffffff1673ffffffffffffffffffffffffffffffffffffffff1663c3453153336040518263ffffffff1660e01b81526004016102189190610ba8565b608060405180830381865afa158015610233573d5f5f3e3d5ffd5b505050506040513d601f19601f820116820180604052508101906102579190610d90565b50505090506003548110156102a1576040517f08c379a000000000000000000000000000000000000000000000000000000000815260040161029890610e64565b60405180910390fd5b5f60015f9054906101000a900473ffffffffffffffffffffffffffffffffffffffff1673ffffffffffffffffffffffffffffffffffffffff1663c3453153336040518263ffffffff1660e01b81526004016102fc9190610ba8565b608060405180830381865afa158015610317573d5f5f3e3d5ffd5b505050506040513d601f19601f8201168201806040525081019061033b9190610d90565b50505090505f60025f9054906101000a900473ffffffffffffffffffffffffffffffffffffffff1673ffffffffffffffffffffffffffffffffffffffff166349c2a1a6866040518263ffffffff1660e01b815260040161039b9190610e82565b6020604051808303815f875af11580156103b7573d5f5f3e3d5ffd5b505050506040513d601f19601f820116820180604052508101906103db9190610ea2565b90503373ffffffffffffffffffffffffffffffffffffffff167ffde49285fa3871f76119233050db2f657db5071cfe29fb1805ea017d787fb8118284604051610425929190610ecd565b60405180910390a2809350505050919050565b5f5f5f60015f9054906101000a900473ffffffffffffffffffffffffffffffffffffffff1673ffffffffffffffffffffffffffffffffffffffff1663c3453153856040518263ffffffff1660e01b81526004016104959190610ba8565b608060405180830381865afa1580156104b0573d5f5f3e3d5ffd5b505050506040513d601f19601f820116820180604052508101906104d49190610d90565b5050509050600354811015925080915050915091565b5f60015f9054906101000a900473ffffffffffffffffffffffffffffffffffffffff1673ffffffffffffffffffffffffffffffffffffffff1663c3453153336040518263ffffffff1660e01b81526004016105459190610ba8565b608060405180830381865afa158015610560573d5f5f3e3d5ffd5b505050506040513d601f19601f820116820180604052508101906105849190610d90565b50505090506003548110156105ce576040517f08c379a00000000000000000000000000000000000000000000000000000000081526004016105c590610e64565b60405180910390fd5b5f60015f9054906101000a900473ffffffffffffffffffffffffffffffffffffffff1673ffffffffffffffffffffffffffffffffffffffff1663c3453153336040518263ffffffff1660e01b81526004016106299190610ba8565b608060405180830381865afa158015610644573d5f5f3e3d5ffd5b505050506040513d601f19601f820116820180604052508101906106689190610d90565b505050905060025f9054906101000a900473ffffffffffffffffffffffffffffffffffffffff1673ffffffffffffffffffffffffffffffffffffffff1663c9d27afe85856040518363ffffffff1660e01b81526004016106c9929190610ef4565b5f604051808303815f87803b1580156106e0575f5ffd5b505af11580156106f2573d5f5f3e3d5ffd5b505050503373ffffffffffffffffffffffffffffffffffffffff167f877856338e13f63d0c36822ff0ef736b80934cd90574a3a5bc9262c39d217c4685858460405161074093929190610f1b565b60405180910390a250505050565b5f5f9054906101000a900473ffffffffffffffffffffffffffffffffffffffff1681565b60025f9054906101000a900473ffffffffffffffffffffffffffffffffffffffff1681565b5f5f60605f5f5f5f5f60025f9054906101000a900473ffffffffffffffffffffffffffffffffffffffff1673ffffffffffffffffffffffffffffffffffffffff1663c7f758a88a6040518263ffffffff1660e01b81526004016107fa9190610894565b5f60405180830381865afa158015610814573d5f5f3e3d5ffd5b505050506040513d5f823e3d601f19601f8201168201806040525081019061083c9190610fe6565b97509750975097509750975097509750919395975091939597565b60015f9054906101000a900473ffffffffffffffffffffffffffffffffffffffff1681565b5f819050919050565b61088e8161087c565b82525050565b5f6020820190506108a75f830184610885565b92915050565b5f604051905090565b5f5ffd5b5f5ffd5b5f5ffd5b5f5ffd5b5f601f19601f8301169050919050565b7f4e487b71000000000000000000000000000000000000000000000000000000005f52604160045260245ffd5b61090c826108c6565b810181811067ffffffffffffffff8211171561092b5761092a6108d6565b5b80604052505050565b5f61093d6108ad565b90506109498282610903565b919050565b5f67ffffffffffffffff821115610968576109676108d6565b5b610971826108c6565b9050602081019050919050565b828183375f83830152505050565b5f61099e6109998461094e565b610934565b9050828152602081018484840111156109ba576109b96108c2565b5b6109c584828561097e565b509392505050565b5f82601f8301126109e1576109e06108be565b5b81356109f184826020860161098c565b91505092915050565b5f60208284031215610a0f57610a0e6108b6565b5b5f82013567ffffffffffffffff811115610a2c57610a2b6108ba565b5b610a38848285016109cd565b91505092915050565b5f73ffffffffffffffffffffffffffffffffffffffff82169050919050565b5f610a6a82610a41565b9050919050565b610a7a81610a60565b8114610a84575f5ffd5b50565b5f81359050610a9581610a71565b92915050565b5f60208284031215610ab057610aaf6108b6565b5b5f610abd84828501610a87565b91505092915050565b5f8115159050919050565b610ada81610ac6565b82525050565b5f604082019050610af35f830185610ad1565b610b006020830184610885565b9392505050565b610b108161087c565b8114610b1a575f5ffd5b50565b5f81359050610b2b81610b07565b92915050565b610b3a81610ac6565b8114610b44575f5ffd5b50565b5f81359050610b5581610b31565b92915050565b5f5f60408385031215610b7157610b706108b6565b5b5f610b7e85828601610b1d565b9250506020610b8f85828601610b47565b9150509250929050565b610ba281610a60565b82525050565b5f602082019050610bbb5f830184610b99565b92915050565b5f819050919050565b5f610be4610bdf610bda84610a41565b610bc1565b610a41565b9050919050565b5f610bf582610bca565b9050919050565b5f610c0682610beb565b9050919050565b610c1681610bfc565b82525050565b5f602082019050610c2f5f830184610c0d565b92915050565b5f60208284031215610c4a57610c496108b6565b5b5f610c5784828501610b1d565b91505092915050565b5f81519050919050565b5f82825260208201905092915050565b8281835e5f83830152505050565b5f610c9282610c60565b610c9c8185610c6a565b9350610cac818560208601610c7a565b610cb5816108c6565b840191505092915050565b5f61010082019050610cd45f83018b610885565b610ce1602083018a610b99565b8181036040830152610cf38189610c88565b9050610d026060830188610885565b610d0f6080830187610885565b610d1c60a0830186610885565b610d2960c0830185610ad1565b610d3660e0830184610ad1565b9998505050505050505050565b5f610d4d82610beb565b9050919050565b610d5d81610d43565b82525050565b5f602082019050610d765f830184610d54565b92915050565b5f81519050610d8a81610b07565b92915050565b5f5f5f5f60808587031215610da857610da76108b6565b5b5f610db587828801610d7c565b9450506020610dc687828801610d7c565b9350506040610dd787828801610d7c565b9250506060610de887828801610d7c565b91505092959194509250565b7f4861727573207374616b652064756c7520756e74756b206269736120626572705f8201527f6172746973697061736900000000000000000000000000000000000000000000602082015250565b5f610e4e602a83610c6a565b9150610e5982610df4565b604082019050919050565b5f6020820190508181035f830152610e7b81610e42565b9050919050565b5f6020820190508181035f830152610e9a8184610c88565b905092915050565b5f60208284031215610eb757610eb66108b6565b5b5f610ec484828501610d7c565b91505092915050565b5f604082019050610ee05f830185610885565b610eed6020830184610885565b9392505050565b5f604082019050610f075f830185610885565b610f146020830184610ad1565b9392505050565b5f606082019050610f2e5f830186610885565b610f3b6020830185610ad1565b610f486040830184610885565b949350505050565b5f81519050610f5e81610a71565b92915050565b5f610f76610f718461094e565b610934565b905082815260208101848484011115610f9257610f916108c2565b5b610f9d848285610c7a565b509392505050565b5f82601f830112610fb957610fb86108be565b5b8151610fc9848260208601610f64565b91505092915050565b5f81519050610fe081610b31565b92915050565b5f5f5f5f5f5f5f5f610100898b031215611003576110026108b6565b5b5f6110108b828c01610d7c565b98505060206110218b828c01610f50565b975050604089015167ffffffffffffffff811115611042576110416108ba565b5b61104e8b828c01610fa5565b965050606061105f8b828c01610d7c565b95505060806110708b828c01610d7c565b94505060a06110818b828c01610d7c565b93505060c06110928b828c01610fd2565b92505060e06110a38b828c01610fd2565b915050929598509295989093965056fea26469706673582212202fa27fb710a7e2b53d27060e49bba8ff47cd09c1d742b0fdbffb33619b5673f364736f6c63430008220033",
					"opcodes": "PUSH1 0x80 PUSH1 0x40 MSTORE PUSH7 0x38D7EA4C68000 PUSH1 0x3 SSTORE CALLVALUE DUP1 ISZERO PUSH2 0x1A JUMPI PUSH0 PUSH0 REVERT JUMPDEST POP PUSH1 0x40 MLOAD PUSH2 0x1294 CODESIZE SUB DUP1 PUSH2 0x1294 DUP4 CODECOPY DUP2 DUP2 ADD PUSH1 0x40 MSTORE DUP2 ADD SWAP1 PUSH2 0x3C SWAP2 SWAP1 PUSH2 0x160 JUMP JUMPDEST CALLER PUSH0 PUSH0 PUSH2 0x100 EXP DUP2 SLOAD DUP2 PUSH20 0xFFFFFFFFFFFFFFFFFFFFFFFFFFFFFFFFFFFFFFFF MUL NOT AND SWAP1 DUP4 PUSH20 0xFFFFFFFFFFFFFFFFFFFFFFFFFFFFFFFFFFFFFFFF AND MUL OR SWAP1 SSTORE POP DUP2 PUSH1 0x1 PUSH0 PUSH2 0x100 EXP DUP2 SLOAD DUP2 PUSH20 0xFFFFFFFFFFFFFFFFFFFFFFFFFFFFFFFFFFFFFFFF MUL NOT AND SWAP1 DUP4 PUSH20 0xFFFFFFFFFFFFFFFFFFFFFFFFFFFFFFFFFFFFFFFF AND MUL OR SWAP1 SSTORE POP DUP1 PUSH1 0x2 PUSH0 PUSH2 0x100 EXP DUP2 SLOAD DUP2 PUSH20 0xFFFFFFFFFFFFFFFFFFFFFFFFFFFFFFFFFFFFFFFF MUL NOT AND SWAP1 DUP4 PUSH20 0xFFFFFFFFFFFFFFFFFFFFFFFFFFFFFFFFFFFFFFFF AND MUL OR SWAP1 SSTORE POP POP POP PUSH2 0x19E JUMP JUMPDEST PUSH0 PUSH0 REVERT JUMPDEST PUSH0 PUSH20 0xFFFFFFFFFFFFFFFFFFFFFFFFFFFFFFFFFFFFFFFF DUP3 AND SWAP1 POP SWAP2 SWAP1 POP JUMP JUMPDEST PUSH0 PUSH2 0x12F DUP3 PUSH2 0x106 JUMP JUMPDEST SWAP1 POP SWAP2 SWAP1 POP JUMP JUMPDEST PUSH2 0x13F DUP2 PUSH2 0x125 JUMP JUMPDEST DUP2 EQ PUSH2 0x149 JUMPI PUSH0 PUSH0 REVERT JUMPDEST POP JUMP JUMPDEST PUSH0 DUP2 MLOAD SWAP1 POP PUSH2 0x15A DUP2 PUSH2 0x136 JUMP JUMPDEST SWAP3 SWAP2 POP POP JUMP JUMPDEST PUSH0 PUSH0 PUSH1 0x40 DUP4 DUP6 SUB SLT ISZERO PUSH2 0x176 JUMPI PUSH2 0x175 PUSH2 0x102 JUMP JUMPDEST JUMPDEST PUSH0 PUSH2 0x183 DUP6 DUP3 DUP7 ADD PUSH2 0x14C JUMP JUMPDEST SWAP3 POP POP PUSH1 0x20 PUSH2 0x194 DUP6 DUP3 DUP7 ADD PUSH2 0x14C JUMP JUMPDEST SWAP2 POP POP SWAP3 POP SWAP3 SWAP1 POP JUMP JUMPDEST PUSH2 0x10E9 DUP1 PUSH2 0x1AB PUSH0 CODECOPY PUSH0 RETURN INVALID PUSH1 0x80 PUSH1 0x40 MSTORE CALLVALUE DUP1 ISZERO PUSH2 0xF JUMPI PUSH0 PUSH0 REVERT JUMPDEST POP PUSH1 0x4 CALLDATASIZE LT PUSH2 0x86 JUMPI PUSH0 CALLDATALOAD PUSH1 0xE0 SHR DUP1 PUSH4 0x8DA5CB5B GT PUSH2 0x59 JUMPI DUP1 PUSH4 0x8DA5CB5B EQ PUSH2 0x125 JUMPI DUP1 PUSH4 0xB172B222 EQ PUSH2 0x143 JUMPI DUP1 PUSH4 0xBC903CB8 EQ PUSH2 0x161 JUMPI DUP1 PUSH4 0xEE99205C EQ PUSH2 0x198 JUMPI PUSH2 0x86 JUMP JUMPDEST DUP1 PUSH4 0x4608BF6B EQ PUSH2 0x8A JUMPI DUP1 PUSH4 0x69A9005B EQ PUSH2 0xA8 JUMPI DUP1 PUSH4 0x7723BAFB EQ PUSH2 0xD8 JUMPI DUP1 PUSH4 0x7E4D22D0 EQ PUSH2 0x109 JUMPI JUMPDEST PUSH0 PUSH0 REVERT JUMPDEST PUSH2 0x92 PUSH2 0x1B6 JUMP JUMPDEST PUSH1 0x40 MLOAD PUSH2 0x9F SWAP2 SWAP1 PUSH2 0x894 JUMP JUMPDEST PUSH1 0x40 MLOAD DUP1 SWAP2 SUB SWAP1 RETURN JUMPDEST PUSH2 0xC2 PUSH1 0x4 DUP1 CALLDATASIZE SUB DUP2 ADD SWAP1 PUSH2 0xBD SWAP2 SWAP1 PUSH2 0x9FA JUMP JUMPDEST PUSH2 0x1BC JUMP JUMPDEST PUSH1 0x40 MLOAD PUSH2 0xCF SWAP2 SWAP1 PUSH2 0x894 JUMP JUMPDEST PUSH1 0x40 MLOAD DUP1 SWAP2 SUB SWAP1 RETURN JUMPDEST PUSH2 0xF2 PUSH1 0x4 DUP1 CALLDATASIZE SUB DUP2 ADD SWAP1 PUSH2 0xED SWAP2 SWAP1 PUSH2 0xA9B JUMP JUMPDEST PUSH2 0x438 JUMP JUMPDEST PUSH1 0x40 MLOAD PUSH2 0x100 SWAP3 SWAP2 SWAP1 PUSH2 0xAE0 JUMP JUMPDEST PUSH1 0x40 MLOAD DUP1 SWAP2 SUB SWAP1 RETURN JUMPDEST PUSH2 0x123 PUSH1 0x4 DUP1 CALLDATASIZE SUB DUP2 ADD SWAP1 PUSH2 0x11E SWAP2 SWAP1 PUSH2 0xB5B JUMP JUMPDEST PUSH2 0x4EA JUMP JUMPDEST STOP JUMPDEST PUSH2 0x12D PUSH2 0x74E JUMP JUMPDEST PUSH1 0x40 MLOAD PUSH2 0x13A SWAP2 SWAP1 PUSH2 0xBA8 JUMP JUMPDEST PUSH1 0x40 MLOAD DUP1 SWAP2 SUB SWAP1 RETURN JUMPDEST PUSH2 0x14B PUSH2 0x772 JUMP JUMPDEST PUSH1 0x40 MLOAD PUSH2 0x158 SWAP2 SWAP1 PUSH2 0xC1C JUMP JUMPDEST PUSH1 0x40 MLOAD DUP1 SWAP2 SUB SWAP1 RETURN JUMPDEST PUSH2 0x17B PUSH1 0x4 DUP1 CALLDATASIZE SUB DUP2 ADD SWAP1 PUSH2 0x176 SWAP2 SWAP1 PUSH2 0xC35 JUMP JUMPDEST PUSH2 0x797 JUMP JUMPDEST PUSH1 0x40 MLOAD PUSH2 0x18F SWAP9 SWAP8 SWAP7 SWAP6 SWAP5 SWAP4 SWAP3 SWAP2 SWAP1 PUSH2 0xCC0 JUMP JUMPDEST PUSH1 0x40 MLOAD DUP1 SWAP2 SUB SWAP1 RETURN JUMPDEST PUSH2 0x1A0 PUSH2 0x857 JUMP JUMPDEST PUSH1 0x40 MLOAD PUSH2 0x1AD SWAP2 SWAP1 PUSH2 0xD63 JUMP JUMPDEST PUSH1 0x40 MLOAD DUP1 SWAP2 SUB SWAP1 RETURN JUMPDEST PUSH1 0x3 SLOAD DUP2 JUMP JUMPDEST PUSH0 PUSH0 PUSH1 0x1 PUSH0 SWAP1 SLOAD SWAP1 PUSH2 0x100 EXP SWAP1 DIV PUSH20 0xFFFFFFFFFFFFFFFFFFFFFFFFFFFFFFFFFFFFFFFF AND PUSH20 0xFFFFFFFFFFFFFFFFFFFFFFFFFFFFFFFFFFFFFFFF AND PUSH4 0xC3453153 CALLER PUSH1 0x40 MLOAD DUP3 PUSH4 0xFFFFFFFF AND PUSH1 0xE0 SHL DUP2 MSTORE PUSH1 0x4 ADD PUSH2 0x218 SWAP2 SWAP1 PUSH2 0xBA8 JUMP JUMPDEST PUSH1 0x80 PUSH1 0x40 MLOAD DUP1 DUP4 SUB DUP2 DUP7 GAS STATICCALL ISZERO DUP1 ISZERO PUSH2 0x233 JUMPI RETURNDATASIZE PUSH0 PUSH0 RETURNDATACOPY RETURNDATASIZE PUSH0 REVERT JUMPDEST POP POP POP POP PUSH1 0x40 MLOAD RETURNDATASIZE PUSH1 0x1F NOT PUSH1 0x1F DUP3 ADD AND DUP3 ADD DUP1 PUSH1 0x40 MSTORE POP DUP2 ADD SWAP1 PUSH2 0x257 SWAP2 SWAP1 PUSH2 0xD90 JUMP JUMPDEST POP POP POP SWAP1 POP PUSH1 0x3 SLOAD DUP2 LT ISZERO PUSH2 0x2A1 JUMPI PUSH1 0x40 MLOAD PUSH32 0x8C379A000000000000000000000000000000000000000000000000000000000 DUP2 MSTORE PUSH1 0x4 ADD PUSH2 0x298 SWAP1 PUSH2 0xE64 JUMP JUMPDEST PUSH1 0x40 MLOAD DUP1 SWAP2 SUB SWAP1 REVERT JUMPDEST PUSH0 PUSH1 0x1 PUSH0 SWAP1 SLOAD SWAP1 PUSH2 0x100 EXP SWAP1 DIV PUSH20 0xFFFFFFFFFFFFFFFFFFFFFFFFFFFFFFFFFFFFFFFF AND PUSH20 0xFFFFFFFFFFFFFFFFFFFFFFFFFFFFFFFFFFFFFFFF AND PUSH4 0xC3453153 CALLER PUSH1 0x40 MLOAD DUP3 PUSH4 0xFFFFFFFF AND PUSH1 0xE0 SHL DUP2 MSTORE PUSH1 0x4 ADD PUSH2 0x2FC SWAP2 SWAP1 PUSH2 0xBA8 JUMP JUMPDEST PUSH1 0x80 PUSH1 0x40 MLOAD DUP1 DUP4 SUB DUP2 DUP7 GAS STATICCALL ISZERO DUP1 ISZERO PUSH2 0x317 JUMPI RETURNDATASIZE PUSH0 PUSH0 RETURNDATACOPY RETURNDATASIZE PUSH0 REVERT JUMPDEST POP POP POP POP PUSH1 0x40 MLOAD RETURNDATASIZE PUSH1 0x1F NOT PUSH1 0x1F DUP3 ADD AND DUP3 ADD DUP1 PUSH1 0x40 MSTORE POP DUP2 ADD SWAP1 PUSH2 0x33B SWAP2 SWAP1 PUSH2 0xD90 JUMP JUMPDEST POP POP POP SWAP1 POP PUSH0 PUSH1 0x2 PUSH0 SWAP1 SLOAD SWAP1 PUSH2 0x100 EXP SWAP1 DIV PUSH20 0xFFFFFFFFFFFFFFFFFFFFFFFFFFFFFFFFFFFFFFFF AND PUSH20 0xFFFFFFFFFFFFFFFFFFFFFFFFFFFFFFFFFFFFFFFF AND PUSH4 0x49C2A1A6 DUP7 PUSH1 0x40 MLOAD DUP3 PUSH4 0xFFFFFFFF AND PUSH1 0xE0 SHL DUP2 MSTORE PUSH1 0x4 ADD PUSH2 0x39B SWAP2 SWAP1 PUSH2 0xE82 JUMP JUMPDEST PUSH1 0x20 PUSH1 0x40 MLOAD DUP1 DUP4 SUB DUP2 PUSH0 DUP8 GAS CALL ISZERO DUP1 ISZERO PUSH2 0x3B7 JUMPI RETURNDATASIZE PUSH0 PUSH0 RETURNDATACOPY RETURNDATASIZE PUSH0 REVERT JUMPDEST POP POP POP POP PUSH1 0x40 MLOAD RETURNDATASIZE PUSH1 0x1F NOT PUSH1 0x1F DUP3 ADD AND DUP3 ADD DUP1 PUSH1 0x40 MSTORE POP DUP2 ADD SWAP1 PUSH2 0x3DB SWAP2 SWAP1 PUSH2 0xEA2 JUMP JUMPDEST SWAP1 POP CALLER PUSH20 0xFFFFFFFFFFFFFFFFFFFFFFFFFFFFFFFFFFFFFFFF AND PUSH32 0xFDE49285FA3871F76119233050DB2F657DB5071CFE29FB1805EA017D787FB811 DUP3 DUP5 PUSH1 0x40 MLOAD PUSH2 0x425 SWAP3 SWAP2 SWAP1 PUSH2 0xECD JUMP JUMPDEST PUSH1 0x40 MLOAD DUP1 SWAP2 SUB SWAP1 LOG2 DUP1 SWAP4 POP POP POP POP SWAP2 SWAP1 POP JUMP JUMPDEST PUSH0 PUSH0 PUSH0 PUSH1 0x1 PUSH0 SWAP1 SLOAD SWAP1 PUSH2 0x100 EXP SWAP1 DIV PUSH20 0xFFFFFFFFFFFFFFFFFFFFFFFFFFFFFFFFFFFFFFFF AND PUSH20 0xFFFFFFFFFFFFFFFFFFFFFFFFFFFFFFFFFFFFFFFF AND PUSH4 0xC3453153 DUP6 PUSH1 0x40 MLOAD DUP3 PUSH4 0xFFFFFFFF AND PUSH1 0xE0 SHL DUP2 MSTORE PUSH1 0x4 ADD PUSH2 0x495 SWAP2 SWAP1 PUSH2 0xBA8 JUMP JUMPDEST PUSH1 0x80 PUSH1 0x40 MLOAD DUP1 DUP4 SUB DUP2 DUP7 GAS STATICCALL ISZERO DUP1 ISZERO PUSH2 0x4B0 JUMPI RETURNDATASIZE PUSH0 PUSH0 RETURNDATACOPY RETURNDATASIZE PUSH0 REVERT JUMPDEST POP POP POP POP PUSH1 0x40 MLOAD RETURNDATASIZE PUSH1 0x1F NOT PUSH1 0x1F DUP3 ADD AND DUP3 ADD DUP1 PUSH1 0x40 MSTORE POP DUP2 ADD SWAP1 PUSH2 0x4D4 SWAP2 SWAP1 PUSH2 0xD90 JUMP JUMPDEST POP POP POP SWAP1 POP PUSH1 0x3 SLOAD DUP2 LT ISZERO SWAP3 POP DUP1 SWAP2 POP POP SWAP2 POP SWAP2 JUMP JUMPDEST PUSH0 PUSH1 0x1 PUSH0 SWAP1 SLOAD SWAP1 PUSH2 0x100 EXP SWAP1 DIV PUSH20 0xFFFFFFFFFFFFFFFFFFFFFFFFFFFFFFFFFFFFFFFF AND PUSH20 0xFFFFFFFFFFFFFFFFFFFFFFFFFFFFFFFFFFFFFFFF AND PUSH4 0xC3453153 CALLER PUSH1 0x40 MLOAD DUP3 PUSH4 0xFFFFFFFF AND PUSH1 0xE0 SHL DUP2 MSTORE PUSH1 0x4 ADD PUSH2 0x545 SWAP2 SWAP1 PUSH2 0xBA8 JUMP JUMPDEST PUSH1 0x80 PUSH1 0x40 MLOAD DUP1 DUP4 SUB DUP2 DUP7 GAS STATICCALL ISZERO DUP1 ISZERO PUSH2 0x560 JUMPI RETURNDATASIZE PUSH0 PUSH0 RETURNDATACOPY RETURNDATASIZE PUSH0 REVERT JUMPDEST POP POP POP POP PUSH1 0x40 MLOAD RETURNDATASIZE PUSH1 0x1F NOT PUSH1 0x1F DUP3 ADD AND DUP3 ADD DUP1 PUSH1 0x40 MSTORE POP DUP2 ADD SWAP1 PUSH2 0x584 SWAP2 SWAP1 PUSH2 0xD90 JUMP JUMPDEST POP POP POP SWAP1 POP PUSH1 0x3 SLOAD DUP2 LT ISZERO PUSH2 0x5CE JUMPI PUSH1 0x40 MLOAD PUSH32 0x8C379A000000000000000000000000000000000000000000000000000000000 DUP2 MSTORE PUSH1 0x4 ADD PUSH2 0x5C5 SWAP1 PUSH2 0xE64 JUMP JUMPDEST PUSH1 0x40 MLOAD DUP1 SWAP2 SUB SWAP1 REVERT JUMPDEST PUSH0 PUSH1 0x1 PUSH0 SWAP1 SLOAD SWAP1 PUSH2 0x100 EXP SWAP1 DIV PUSH20 0xFFFFFFFFFFFFFFFFFFFFFFFFFFFFFFFFFFFFFFFF AND PUSH20 0xFFFFFFFFFFFFFFFFFFFFFFFFFFFFFFFFFFFFFFFF AND PUSH4 0xC3453153 CALLER PUSH1 0x40 MLOAD DUP3 PUSH4 0xFFFFFFFF AND PUSH1 0xE0 SHL DUP2 MSTORE PUSH1 0x4 ADD PUSH2 0x629 SWAP2 SWAP1 PUSH2 0xBA8 JUMP JUMPDEST PUSH1 0x80 PUSH1 0x40 MLOAD DUP1 DUP4 SUB DUP2 DUP7 GAS STATICCALL ISZERO DUP1 ISZERO PUSH2 0x644 JUMPI RETURNDATASIZE PUSH0 PUSH0 RETURNDATACOPY RETURNDATASIZE PUSH0 REVERT JUMPDEST POP POP POP POP PUSH1 0x40 MLOAD RETURNDATASIZE PUSH1 0x1F NOT PUSH1 0x1F DUP3 ADD AND DUP3 ADD DUP1 PUSH1 0x40 MSTORE POP DUP2 ADD SWAP1 PUSH2 0x668 SWAP2 SWAP1 PUSH2 0xD90 JUMP JUMPDEST POP POP POP SWAP1 POP PUSH1 0x2 PUSH0 SWAP1 SLOAD SWAP1 PUSH2 0x100 EXP SWAP1 DIV PUSH20 0xFFFFFFFFFFFFFFFFFFFFFFFFFFFFFFFFFFFFFFFF AND PUSH20 0xFFFFFFFFFFFFFFFFFFFFFFFFFFFFFFFFFFFFFFFF AND PUSH4 0xC9D27AFE DUP6 DUP6 PUSH1 0x40 MLOAD DUP4 PUSH4 0xFFFFFFFF AND PUSH1 0xE0 SHL DUP2 MSTORE PUSH1 0x4 ADD PUSH2 0x6C9 SWAP3 SWAP2 SWAP1 PUSH2 0xEF4 JUMP JUMPDEST PUSH0 PUSH1 0x40 MLOAD DUP1 DUP4 SUB DUP2 PUSH0 DUP8 DUP1 EXTCODESIZE ISZERO DUP1 ISZERO PUSH2 0x6E0 JUMPI PUSH0 PUSH0 REVERT JUMPDEST POP GAS CALL ISZERO DUP1 ISZERO PUSH2 0x6F2 JUMPI RETURNDATASIZE PUSH0 PUSH0 RETURNDATACOPY RETURNDATASIZE PUSH0 REVERT JUMPDEST POP POP POP POP CALLER PUSH20 0xFFFFFFFFFFFFFFFFFFFFFFFFFFFFFFFFFFFFFFFF AND PUSH32 0x877856338E13F63D0C36822FF0EF736B80934CD90574A3A5BC9262C39D217C46 DUP6 DUP6 DUP5 PUSH1 0x40 MLOAD PUSH2 0x740 SWAP4 SWAP3 SWAP2 SWAP1 PUSH2 0xF1B JUMP JUMPDEST PUSH1 0x40 MLOAD DUP1 SWAP2 SUB SWAP1 LOG2 POP POP POP POP JUMP JUMPDEST PUSH0 PUSH0 SWAP1 SLOAD SWAP1 PUSH2 0x100 EXP SWAP1 DIV PUSH20 0xFFFFFFFFFFFFFFFFFFFFFFFFFFFFFFFFFFFFFFFF AND DUP2 JUMP JUMPDEST PUSH1 0x2 PUSH0 SWAP1 SLOAD SWAP1 PUSH2 0x100 EXP SWAP1 DIV PUSH20 0xFFFFFFFFFFFFFFFFFFFFFFFFFFFFFFFFFFFFFFFF AND DUP2 JUMP JUMPDEST PUSH0 PUSH0 PUSH1 0x60 PUSH0 PUSH0 PUSH0 PUSH0 PUSH0 PUSH1 0x2 PUSH0 SWAP1 SLOAD SWAP1 PUSH2 0x100 EXP SWAP1 DIV PUSH20 0xFFFFFFFFFFFFFFFFFFFFFFFFFFFFFFFFFFFFFFFF AND PUSH20 0xFFFFFFFFFFFFFFFFFFFFFFFFFFFFFFFFFFFFFFFF AND PUSH4 0xC7F758A8 DUP11 PUSH1 0x40 MLOAD DUP3 PUSH4 0xFFFFFFFF AND PUSH1 0xE0 SHL DUP2 MSTORE PUSH1 0x4 ADD PUSH2 0x7FA SWAP2 SWAP1 PUSH2 0x894 JUMP JUMPDEST PUSH0 PUSH1 0x40 MLOAD DUP1 DUP4 SUB DUP2 DUP7 GAS STATICCALL ISZERO DUP1 ISZERO PUSH2 0x814 JUMPI RETURNDATASIZE PUSH0 PUSH0 RETURNDATACOPY RETURNDATASIZE PUSH0 REVERT JUMPDEST POP POP POP POP PUSH1 0x40 MLOAD RETURNDATASIZE PUSH0 DUP3 RETURNDATACOPY RETURNDATASIZE PUSH1 0x1F NOT PUSH1 0x1F DUP3 ADD AND DUP3 ADD DUP1 PUSH1 0x40 MSTORE POP DUP2 ADD SWAP1 PUSH2 0x83C SWAP2 SWAP1 PUSH2 0xFE6 JUMP JUMPDEST SWAP8 POP SWAP8 POP SWAP8 POP SWAP8 POP SWAP8 POP SWAP8 POP SWAP8 POP SWAP8 POP SWAP2 SWAP4 SWAP6 SWAP8 POP SWAP2 SWAP4 SWAP6 SWAP8 JUMP JUMPDEST PUSH1 0x1 PUSH0 SWAP1 SLOAD SWAP1 PUSH2 0x100 EXP SWAP1 DIV PUSH20 0xFFFFFFFFFFFFFFFFFFFFFFFFFFFFFFFFFFFFFFFF AND DUP2 JUMP JUMPDEST PUSH0 DUP2 SWAP1 POP SWAP2 SWAP1 POP JUMP JUMPDEST PUSH2 0x88E DUP2 PUSH2 0x87C JUMP JUMPDEST DUP3 MSTORE POP POP JUMP JUMPDEST PUSH0 PUSH1 0x20 DUP3 ADD SWAP1 POP PUSH2 0x8A7 PUSH0 DUP4 ADD DUP5 PUSH2 0x885 JUMP JUMPDEST SWAP3 SWAP2 POP POP JUMP JUMPDEST PUSH0 PUSH1 0x40 MLOAD SWAP1 POP SWAP1 JUMP JUMPDEST PUSH0 PUSH0 REVERT JUMPDEST PUSH0 PUSH0 REVERT JUMPDEST PUSH0 PUSH0 REVERT JUMPDEST PUSH0 PUSH0 REVERT JUMPDEST PUSH0 PUSH1 0x1F NOT PUSH1 0x1F DUP4 ADD AND SWAP1 POP SWAP2 SWAP1 POP JUMP JUMPDEST PUSH32 0x4E487B7100000000000000000000000000000000000000000000000000000000 PUSH0 MSTORE PUSH1 0x41 PUSH1 0x4 MSTORE PUSH1 0x24 PUSH0 REVERT JUMPDEST PUSH2 0x90C DUP3 PUSH2 0x8C6 JUMP JUMPDEST DUP2 ADD DUP2 DUP2 LT PUSH8 0xFFFFFFFFFFFFFFFF DUP3 GT OR ISZERO PUSH2 0x92B JUMPI PUSH2 0x92A PUSH2 0x8D6 JUMP JUMPDEST JUMPDEST DUP1 PUSH1 0x40 MSTORE POP POP POP JUMP JUMPDEST PUSH0 PUSH2 0x93D PUSH2 0x8AD JUMP JUMPDEST SWAP1 POP PUSH2 0x949 DUP3 DUP3 PUSH2 0x903 JUMP JUMPDEST SWAP2 SWAP1 POP JUMP JUMPDEST PUSH0 PUSH8 0xFFFFFFFFFFFFFFFF DUP3 GT ISZERO PUSH2 0x968 JUMPI PUSH2 0x967 PUSH2 0x8D6 JUMP JUMPDEST JUMPDEST PUSH2 0x971 DUP3 PUSH2 0x8C6 JUMP JUMPDEST SWAP1 POP PUSH1 0x20 DUP2 ADD SWAP1 POP SWAP2 SWAP1 POP JUMP JUMPDEST DUP3 DUP2 DUP4 CALLDATACOPY PUSH0 DUP4 DUP4 ADD MSTORE POP POP POP JUMP JUMPDEST PUSH0 PUSH2 0x99E PUSH2 0x999 DUP5 PUSH2 0x94E JUMP JUMPDEST PUSH2 0x934 JUMP JUMPDEST SWAP1 POP DUP3 DUP2 MSTORE PUSH1 0x20 DUP2 ADD DUP5 DUP5 DUP5 ADD GT ISZERO PUSH2 0x9BA JUMPI PUSH2 0x9B9 PUSH2 0x8C2 JUMP JUMPDEST JUMPDEST PUSH2 0x9C5 DUP5 DUP3 DUP6 PUSH2 0x97E JUMP JUMPDEST POP SWAP4 SWAP3 POP POP POP JUMP JUMPDEST PUSH0 DUP3 PUSH1 0x1F DUP4 ADD SLT PUSH2 0x9E1 JUMPI PUSH2 0x9E0 PUSH2 0x8BE JUMP JUMPDEST JUMPDEST DUP2 CALLDATALOAD PUSH2 0x9F1 DUP5 DUP3 PUSH1 0x20 DUP7 ADD PUSH2 0x98C JUMP JUMPDEST SWAP2 POP POP SWAP3 SWAP2 POP POP JUMP JUMPDEST PUSH0 PUSH1 0x20 DUP3 DUP5 SUB SLT ISZERO PUSH2 0xA0F JUMPI PUSH2 0xA0E PUSH2 0x8B6 JUMP JUMPDEST JUMPDEST PUSH0 DUP3 ADD CALLDATALOAD PUSH8 0xFFFFFFFFFFFFFFFF DUP2 GT ISZERO PUSH2 0xA2C JUMPI PUSH2 0xA2B PUSH2 0x8BA JUMP JUMPDEST JUMPDEST PUSH2 0xA38 DUP5 DUP3 DUP6 ADD PUSH2 0x9CD JUMP JUMPDEST SWAP2 POP POP SWAP3 SWAP2 POP POP JUMP JUMPDEST PUSH0 PUSH20 0xFFFFFFFFFFFFFFFFFFFFFFFFFFFFFFFFFFFFFFFF DUP3 AND SWAP1 POP SWAP2 SWAP1 POP JUMP JUMPDEST PUSH0 PUSH2 0xA6A DUP3 PUSH2 0xA41 JUMP JUMPDEST SWAP1 POP SWAP2 SWAP1 POP JUMP JUMPDEST PUSH2 0xA7A DUP2 PUSH2 0xA60 JUMP JUMPDEST DUP2 EQ PUSH2 0xA84 JUMPI PUSH0 PUSH0 REVERT JUMPDEST POP JUMP JUMPDEST PUSH0 DUP2 CALLDATALOAD SWAP1 POP PUSH2 0xA95 DUP2 PUSH2 0xA71 JUMP JUMPDEST SWAP3 SWAP2 POP POP JUMP JUMPDEST PUSH0 PUSH1 0x20 DUP3 DUP5 SUB SLT ISZERO PUSH2 0xAB0 JUMPI PUSH2 0xAAF PUSH2 0x8B6 JUMP JUMPDEST JUMPDEST PUSH0 PUSH2 0xABD DUP5 DUP3 DUP6 ADD PUSH2 0xA87 JUMP JUMPDEST SWAP2 POP POP SWAP3 SWAP2 POP POP JUMP JUMPDEST PUSH0 DUP2 ISZERO ISZERO SWAP1 POP SWAP2 SWAP1 POP JUMP JUMPDEST PUSH2 0xADA DUP2 PUSH2 0xAC6 JUMP JUMPDEST DUP3 MSTORE POP POP JUMP JUMPDEST PUSH0 PUSH1 0x40 DUP3 ADD SWAP1 POP PUSH2 0xAF3 PUSH0 DUP4 ADD DUP6 PUSH2 0xAD1 JUMP JUMPDEST PUSH2 0xB00 PUSH1 0x20 DUP4 ADD DUP5 PUSH2 0x885 JUMP JUMPDEST SWAP4 SWAP3 POP POP POP JUMP JUMPDEST PUSH2 0xB10 DUP2 PUSH2 0x87C JUMP JUMPDEST DUP2 EQ PUSH2 0xB1A JUMPI PUSH0 PUSH0 REVERT JUMPDEST POP JUMP JUMPDEST PUSH0 DUP2 CALLDATALOAD SWAP1 POP PUSH2 0xB2B DUP2 PUSH2 0xB07 JUMP JUMPDEST SWAP3 SWAP2 POP POP JUMP JUMPDEST PUSH2 0xB3A DUP2 PUSH2 0xAC6 JUMP JUMPDEST DUP2 EQ PUSH2 0xB44 JUMPI PUSH0 PUSH0 REVERT JUMPDEST POP JUMP JUMPDEST PUSH0 DUP2 CALLDATALOAD SWAP1 POP PUSH2 0xB55 DUP2 PUSH2 0xB31 JUMP JUMPDEST SWAP3 SWAP2 POP POP JUMP JUMPDEST PUSH0 PUSH0 PUSH1 0x40 DUP4 DUP6 SUB SLT ISZERO PUSH2 0xB71 JUMPI PUSH2 0xB70 PUSH2 0x8B6 JUMP JUMPDEST JUMPDEST PUSH0 PUSH2 0xB7E DUP6 DUP3 DUP7 ADD PUSH2 0xB1D JUMP JUMPDEST SWAP3 POP POP PUSH1 0x20 PUSH2 0xB8F DUP6 DUP3 DUP7 ADD PUSH2 0xB47 JUMP JUMPDEST SWAP2 POP POP SWAP3 POP SWAP3 SWAP1 POP JUMP JUMPDEST PUSH2 0xBA2 DUP2 PUSH2 0xA60 JUMP JUMPDEST DUP3 MSTORE POP POP JUMP JUMPDEST PUSH0 PUSH1 0x20 DUP3 ADD SWAP1 POP PUSH2 0xBBB PUSH0 DUP4 ADD DUP5 PUSH2 0xB99 JUMP JUMPDEST SWAP3 SWAP2 POP POP JUMP JUMPDEST PUSH0 DUP2 SWAP1 POP SWAP2 SWAP1 POP JUMP JUMPDEST PUSH0 PUSH2 0xBE4 PUSH2 0xBDF PUSH2 0xBDA DUP5 PUSH2 0xA41 JUMP JUMPDEST PUSH2 0xBC1 JUMP JUMPDEST PUSH2 0xA41 JUMP JUMPDEST SWAP1 POP SWAP2 SWAP1 POP JUMP JUMPDEST PUSH0 PUSH2 0xBF5 DUP3 PUSH2 0xBCA JUMP JUMPDEST SWAP1 POP SWAP2 SWAP1 POP JUMP JUMPDEST PUSH0 PUSH2 0xC06 DUP3 PUSH2 0xBEB JUMP JUMPDEST SWAP1 POP SWAP2 SWAP1 POP JUMP JUMPDEST PUSH2 0xC16 DUP2 PUSH2 0xBFC JUMP JUMPDEST DUP3 MSTORE POP POP JUMP JUMPDEST PUSH0 PUSH1 0x20 DUP3 ADD SWAP1 POP PUSH2 0xC2F PUSH0 DUP4 ADD DUP5 PUSH2 0xC0D JUMP JUMPDEST SWAP3 SWAP2 POP POP JUMP JUMPDEST PUSH0 PUSH1 0x20 DUP3 DUP5 SUB SLT ISZERO PUSH2 0xC4A JUMPI PUSH2 0xC49 PUSH2 0x8B6 JUMP JUMPDEST JUMPDEST PUSH0 PUSH2 0xC57 DUP5 DUP3 DUP6 ADD PUSH2 0xB1D JUMP JUMPDEST SWAP2 POP POP SWAP3 SWAP2 POP POP JUMP JUMPDEST PUSH0 DUP2 MLOAD SWAP1 POP SWAP2 SWAP1 POP JUMP JUMPDEST PUSH0 DUP3 DUP3 MSTORE PUSH1 0x20 DUP3 ADD SWAP1 POP SWAP3 SWAP2 POP POP JUMP JUMPDEST DUP3 DUP2 DUP4 MCOPY PUSH0 DUP4 DUP4 ADD MSTORE POP POP POP JUMP JUMPDEST PUSH0 PUSH2 0xC92 DUP3 PUSH2 0xC60 JUMP JUMPDEST PUSH2 0xC9C DUP2 DUP6 PUSH2 0xC6A JUMP JUMPDEST SWAP4 POP PUSH2 0xCAC DUP2 DUP6 PUSH1 0x20 DUP7 ADD PUSH2 0xC7A JUMP JUMPDEST PUSH2 0xCB5 DUP2 PUSH2 0x8C6 JUMP JUMPDEST DUP5 ADD SWAP2 POP POP SWAP3 SWAP2 POP POP JUMP JUMPDEST PUSH0 PUSH2 0x100 DUP3 ADD SWAP1 POP PUSH2 0xCD4 PUSH0 DUP4 ADD DUP12 PUSH2 0x885 JUMP JUMPDEST PUSH2 0xCE1 PUSH1 0x20 DUP4 ADD DUP11 PUSH2 0xB99 JUMP JUMPDEST DUP2 DUP2 SUB PUSH1 0x40 DUP4 ADD MSTORE PUSH2 0xCF3 DUP2 DUP10 PUSH2 0xC88 JUMP JUMPDEST SWAP1 POP PUSH2 0xD02 PUSH1 0x60 DUP4 ADD DUP9 PUSH2 0x885 JUMP JUMPDEST PUSH2 0xD0F PUSH1 0x80 DUP4 ADD DUP8 PUSH2 0x885 JUMP JUMPDEST PUSH2 0xD1C PUSH1 0xA0 DUP4 ADD DUP7 PUSH2 0x885 JUMP JUMPDEST PUSH2 0xD29 PUSH1 0xC0 DUP4 ADD DUP6 PUSH2 0xAD1 JUMP JUMPDEST PUSH2 0xD36 PUSH1 0xE0 DUP4 ADD DUP5 PUSH2 0xAD1 JUMP JUMPDEST SWAP10 SWAP9 POP POP POP POP POP POP POP POP POP JUMP JUMPDEST PUSH0 PUSH2 0xD4D DUP3 PUSH2 0xBEB JUMP JUMPDEST SWAP1 POP SWAP2 SWAP1 POP JUMP JUMPDEST PUSH2 0xD5D DUP2 PUSH2 0xD43 JUMP JUMPDEST DUP3 MSTORE POP POP JUMP JUMPDEST PUSH0 PUSH1 0x20 DUP3 ADD SWAP1 POP PUSH2 0xD76 PUSH0 DUP4 ADD DUP5 PUSH2 0xD54 JUMP JUMPDEST SWAP3 SWAP2 POP POP JUMP JUMPDEST PUSH0 DUP2 MLOAD SWAP1 POP PUSH2 0xD8A DUP2 PUSH2 0xB07 JUMP JUMPDEST SWAP3 SWAP2 POP POP JUMP JUMPDEST PUSH0 PUSH0 PUSH0 PUSH0 PUSH1 0x80 DUP6 DUP8 SUB SLT ISZERO PUSH2 0xDA8 JUMPI PUSH2 0xDA7 PUSH2 0x8B6 JUMP JUMPDEST JUMPDEST PUSH0 PUSH2 0xDB5 DUP8 DUP3 DUP9 ADD PUSH2 0xD7C JUMP JUMPDEST SWAP5 POP POP PUSH1 0x20 PUSH2 0xDC6 DUP8 DUP3 DUP9 ADD PUSH2 0xD7C JUMP JUMPDEST SWAP4 POP POP PUSH1 0x40 PUSH2 0xDD7 DUP8 DUP3 DUP9 ADD PUSH2 0xD7C JUMP JUMPDEST SWAP3 POP POP PUSH1 0x60 PUSH2 0xDE8 DUP8 DUP3 DUP9 ADD PUSH2 0xD7C JUMP JUMPDEST SWAP2 POP POP SWAP3 SWAP6 SWAP2 SWAP5 POP SWAP3 POP JUMP JUMPDEST PUSH32 0x4861727573207374616B652064756C7520756E74756B20626973612062657270 PUSH0 DUP3 ADD MSTORE PUSH32 0x6172746973697061736900000000000000000000000000000000000000000000 PUSH1 0x20 DUP3 ADD MSTORE POP JUMP JUMPDEST PUSH0 PUSH2 0xE4E PUSH1 0x2A DUP4 PUSH2 0xC6A JUMP JUMPDEST SWAP2 POP PUSH2 0xE59 DUP3 PUSH2 0xDF4 JUMP JUMPDEST PUSH1 0x40 DUP3 ADD SWAP1 POP SWAP2 SWAP1 POP JUMP JUMPDEST PUSH0 PUSH1 0x20 DUP3 ADD SWAP1 POP DUP2 DUP2 SUB PUSH0 DUP4 ADD MSTORE PUSH2 0xE7B DUP2 PUSH2 0xE42 JUMP JUMPDEST SWAP1 POP SWAP2 SWAP1 POP JUMP JUMPDEST PUSH0 PUSH1 0x20 DUP3 ADD SWAP1 POP DUP2 DUP2 SUB PUSH0 DUP4 ADD MSTORE PUSH2 0xE9A DUP2 DUP5 PUSH2 0xC88 JUMP JUMPDEST SWAP1 POP SWAP3 SWAP2 POP POP JUMP JUMPDEST PUSH0 PUSH1 0x20 DUP3 DUP5 SUB SLT ISZERO PUSH2 0xEB7 JUMPI PUSH2 0xEB6 PUSH2 0x8B6 JUMP JUMPDEST JUMPDEST PUSH0 PUSH2 0xEC4 DUP5 DUP3 DUP6 ADD PUSH2 0xD7C JUMP JUMPDEST SWAP2 POP POP SWAP3 SWAP2 POP POP JUMP JUMPDEST PUSH0 PUSH1 0x40 DUP3 ADD SWAP1 POP PUSH2 0xEE0 PUSH0 DUP4 ADD DUP6 PUSH2 0x885 JUMP JUMPDEST PUSH2 0xEED PUSH1 0x20 DUP4 ADD DUP5 PUSH2 0x885 JUMP JUMPDEST SWAP4 SWAP3 POP POP POP JUMP JUMPDEST PUSH0 PUSH1 0x40 DUP3 ADD SWAP1 POP PUSH2 0xF07 PUSH0 DUP4 ADD DUP6 PUSH2 0x885 JUMP JUMPDEST PUSH2 0xF14 PUSH1 0x20 DUP4 ADD DUP5 PUSH2 0xAD1 JUMP JUMPDEST SWAP4 SWAP3 POP POP POP JUMP JUMPDEST PUSH0 PUSH1 0x60 DUP3 ADD SWAP1 POP PUSH2 0xF2E PUSH0 DUP4 ADD DUP7 PUSH2 0x885 JUMP JUMPDEST PUSH2 0xF3B PUSH1 0x20 DUP4 ADD DUP6 PUSH2 0xAD1 JUMP JUMPDEST PUSH2 0xF48 PUSH1 0x40 DUP4 ADD DUP5 PUSH2 0x885 JUMP JUMPDEST SWAP5 SWAP4 POP POP POP POP JUMP JUMPDEST PUSH0 DUP2 MLOAD SWAP1 POP PUSH2 0xF5E DUP2 PUSH2 0xA71 JUMP JUMPDEST SWAP3 SWAP2 POP POP JUMP JUMPDEST PUSH0 PUSH2 0xF76 PUSH2 0xF71 DUP5 PUSH2 0x94E JUMP JUMPDEST PUSH2 0x934 JUMP JUMPDEST SWAP1 POP DUP3 DUP2 MSTORE PUSH1 0x20 DUP2 ADD DUP5 DUP5 DUP5 ADD GT ISZERO PUSH2 0xF92 JUMPI PUSH2 0xF91 PUSH2 0x8C2 JUMP JUMPDEST JUMPDEST PUSH2 0xF9D DUP5 DUP3 DUP6 PUSH2 0xC7A JUMP JUMPDEST POP SWAP4 SWAP3 POP POP POP JUMP JUMPDEST PUSH0 DUP3 PUSH1 0x1F DUP4 ADD SLT PUSH2 0xFB9 JUMPI PUSH2 0xFB8 PUSH2 0x8BE JUMP JUMPDEST JUMPDEST DUP2 MLOAD PUSH2 0xFC9 DUP5 DUP3 PUSH1 0x20 DUP7 ADD PUSH2 0xF64 JUMP JUMPDEST SWAP2 POP POP SWAP3 SWAP2 POP POP JUMP JUMPDEST PUSH0 DUP2 MLOAD SWAP1 POP PUSH2 0xFE0 DUP2 PUSH2 0xB31 JUMP JUMPDEST SWAP3 SWAP2 POP POP JUMP JUMPDEST PUSH0 PUSH0 PUSH0 PUSH0 PUSH0 PUSH0 PUSH0 PUSH0 PUSH2 0x100 DUP10 DUP12 SUB SLT ISZERO PUSH2 0x1003 JUMPI PUSH2 0x1002 PUSH2 0x8B6 JUMP JUMPDEST JUMPDEST PUSH0 PUSH2 0x1010 DUP12 DUP3 DUP13 ADD PUSH2 0xD7C JUMP JUMPDEST SWAP9 POP POP PUSH1 0x20 PUSH2 0x1021 DUP12 DUP3 DUP13 ADD PUSH2 0xF50 JUMP JUMPDEST SWAP8 POP POP PUSH1 0x40 DUP10 ADD MLOAD PUSH8 0xFFFFFFFFFFFFFFFF DUP2 GT ISZERO PUSH2 0x1042 JUMPI PUSH2 0x1041 PUSH2 0x8BA JUMP JUMPDEST JUMPDEST PUSH2 0x104E DUP12 DUP3 DUP13 ADD PUSH2 0xFA5 JUMP JUMPDEST SWAP7 POP POP PUSH1 0x60 PUSH2 0x105F DUP12 DUP3 DUP13 ADD PUSH2 0xD7C JUMP JUMPDEST SWAP6 POP POP PUSH1 0x80 PUSH2 0x1070 DUP12 DUP3 DUP13 ADD PUSH2 0xD7C JUMP JUMPDEST SWAP5 POP POP PUSH1 0xA0 PUSH2 0x1081 DUP12 DUP3 DUP13 ADD PUSH2 0xD7C JUMP JUMPDEST SWAP4 POP POP PUSH1 0xC0 PUSH2 0x1092 DUP12 DUP3 DUP13 ADD PUSH2 0xFD2 JUMP JUMPDEST SWAP3 POP POP PUSH1 0xE0 PUSH2 0x10A3 DUP12 DUP3 DUP13 ADD PUSH2 0xFD2 JUMP JUMPDEST SWAP2 POP POP SWAP3 SWAP6 SWAP9 POP SWAP3 SWAP6 SWAP9 SWAP1 SWAP4 SWAP7 POP JUMP INVALID LOG2 PUSH5 0x6970667358 0x22 SLT KECCAK256 0x2F LOG2 PUSH32 0xB710A7E2B53D27060E49BBA8FF47CD09C1D742B0FDBFFB33619B5673F364736F PUSH13 0x63430008220033000000000000 "
				},
				"gasEstimates": {
					"creation": {
						"codeDepositCost": "865800",
						"executionCost": "infinite",
						"totalCost": "infinite"
					},
					"external": {
						"checkEligibility(address)": "infinite",
						"createProposalAsStaker(string)": "infinite",
						"getProposalInfo(uint256)": "infinite",
						"governanceContract()": "infinite",
						"minimumStakeToVote()": "2426",
						"owner()": "2507",
						"stakingContract()": "infinite",
						"voteAsStaker(uint256,bool)": "infinite"
					}
				},
				"methodIdentifiers": {
					"checkEligibility(address)": "7723bafb",
					"createProposalAsStaker(string)": "69a9005b",
					"getProposalInfo(uint256)": "bc903cb8",
					"governanceContract()": "b172b222",
					"minimumStakeToVote()": "4608bf6b",
					"owner()": "8da5cb5b",
					"stakingContract()": "ee99205c",
					"voteAsStaker(uint256,bool)": "7e4d22d0"
				}
			},
			"storageLayout": {
				"storage": [
					{
						"astId": 53,
						"contract": "contracts/StakingGovernance.sol:StakingGovernance",
						"label": "owner",
						"offset": 0,
						"slot": "0",
						"type": "t_address"
					},
					{
						"astId": 56,
						"contract": "contracts/StakingGovernance.sol:StakingGovernance",
						"label": "stakingContract",
						"offset": 0,
						"slot": "1",
						"type": "t_contract(IStaking)15"
					},
					{
						"astId": 59,
						"contract": "contracts/StakingGovernance.sol:StakingGovernance",
						"label": "governanceContract",
						"offset": 0,
						"slot": "2",
						"type": "t_contract(IGovernance)51"
					},
					{
						"astId": 62,
						"contract": "contracts/StakingGovernance.sol:StakingGovernance",
						"label": "minimumStakeToVote",
						"offset": 0,
						"slot": "3",
						"type": "t_uint256"
					}
				],
				"types": {
					"t_address": {
						"encoding": "inplace",
						"label": "address",
						"numberOfBytes": "20"
					},
					"t_contract(IGovernance)51": {
						"encoding": "inplace",
						"label": "contract IGovernance",
						"numberOfBytes": "20"
					},
					"t_contract(IStaking)15": {
						"encoding": "inplace",
						"label": "contract IStaking",
						"numberOfBytes": "20"
					},
					"t_uint256": {
						"encoding": "inplace",
						"label": "uint256",
						"numberOfBytes": "32"
					}
				}
			},
			"userdoc": {
				"kind": "user",
				"methods": {},
				"version": 1
			}
		}
	}
}