{
	"contracts/StackingContract.sol": {
		"StakingContract": {
			"abi": [
				{
					"inputs": [],
					"stateMutability": "nonpayable",
					"type": "constructor"
				},
				{
					"anonymous": false,
					"inputs": [
						{
							"indexed": true,
							"internalType": "address",
							"name": "user",
							"type": "address"
						},
						{
							"indexed": false,
							"internalType": "uint256",
							"name": "amount",
							"type": "uint256"
						}
					],
					"name": "Staked",
					"type": "event"
				},
				{
					"anonymous": false,
					"inputs": [
						{
							"indexed": true,
							"internalType": "address",
							"name": "user",
							"type": "address"
						},
						{
							"indexed": false,
							"internalType": "uint256",
							"name": "amount",
							"type": "uint256"
						},
						{
							"indexed": false,
							"internalType": "uint256",
							"name": "reward",
							"type": "uint256"
						}
					],
					"name": "Unstaked",
					"type": "event"
				},
				{
					"inputs": [
						{
							"internalType": "address",
							"name": "user",
							"type": "address"
						}
					],
					"name": "calculateReward",
					"outputs": [
						{
							"internalType": "uint256",
							"name": "",
							"type": "uint256"
						}
					],
					"stateMutability": "view",
					"type": "function"
				},
				{
					"inputs": [
						{
							"internalType": "address",
							"name": "user",
							"type": "address"
						}
					],
					"name": "getStakeInfo",
					"outputs": [
						{
							"internalType": "uint256",
							"name": "amount",
							"type": "uint256"
						},
						{
							"internalType": "uint256",
							"name": "timestamp",
							"type": "uint256"
						},
						{
							"internalType": "uint256",
							"name": "duration",
							"type": "uint256"
						},
						{
							"internalType": "uint256",
							"name": "reward",
							"type": "uint256"
						}
					],
					"stateMutability": "view",
					"type": "function"
				},
				{
					"inputs": [],
					"name": "minimumStakePeriod",
					"outputs": [
						{
							"internalType": "uint256",
							"name": "",
							"type": "uint256"
						}
					],
					"stateMutability": "view",
					"type": "function"
				},
				{
					"inputs": [],
					"name": "owner",
					"outputs": [
						{
							"internalType": "address",
							"name": "",
							"type": "address"
						}
					],
					"stateMutability": "view",
					"type": "function"
				},
				{
					"inputs": [],
					"name": "rewardRatePerSecond",
					"outputs": [
						{
							"internalType": "uint256",
							"name": "",
							"type": "uint256"
						}
					],
					"stateMutability": "view",
					"type": "function"
				},
				{
					"inputs": [],
					"name": "stake",
					"outputs": [],
					"stateMutability": "payable",
					"type": "function"
				},
				{
					"inputs": [
						{
							"internalType": "address",
							"name": "",
							"type": "address"
						}
					],
					"name": "stakeTimestamp",
					"outputs": [
						{
							"internalType": "uint256",
							"name": "",
							"type": "uint256"
						}
					],
					"stateMutability": "view",
					"type": "function"
				},
				{
					"inputs": [
						{
							"internalType": "address",
							"name": "",
							"type": "address"
						}
					],
					"name": "stakedAmount",
					"outputs": [
						{
							"internalType": "uint256",
							"name": "",
							"type": "uint256"
						}
					],
					"stateMutability": "view",
					"type": "function"
				},
				{
					"inputs": [],
					"name": "unstake",
					"outputs": [],
					"stateMutability": "nonpayable",
					"type": "function"
				},
				{
					"stateMutability": "payable",
					"type": "receive"
				}
			],
			"devdoc": {
				"kind": "dev",
				"methods": {},
				"version": 1
			},
			"evm": {
				"assembly": "    /* \"contracts/StackingContract.sol\":60:2269  contract StakingContract {... */\n  mstore(0x40, 0x80)\n    /* \"contracts/StackingContract.sol\":408:409  1 */\n  0x01\n    /* \"contracts/StackingContract.sol\":371:409  uint256 public rewardRatePerSecond = 1 */\n  0x03\n  sstore\n    /* \"contracts/StackingContract.sol\":496:498  60 */\n  0x3c\n    /* \"contracts/StackingContract.sol\":460:498  uint256 public minimumStakePeriod = 60 */\n  0x04\n  sstore\n    /* \"contracts/StackingContract.sol\":2182:2233  constructor() {... */\n  callvalue\n  dup1\n  iszero\n  tag_1\n  jumpi\n  revert(0x00, 0x00)\ntag_1:\n  pop\n    /* \"contracts/StackingContract.sol\":2215:2225  msg.sender */\n  caller\n    /* \"contracts/StackingContract.sol\":2207:2212  owner */\n  0x00\n  0x00\n    /* \"contracts/StackingContract.sol\":2207:2225  owner = msg.sender */\n  0x0100\n  exp\n  dup2\n  sload\n  dup2\n  0xffffffffffffffffffffffffffffffffffffffff\n  mul\n  not\n  and\n  swap1\n  dup4\n  0xffffffffffffffffffffffffffffffffffffffff\n  and\n  mul\n  or\n  swap1\n  sstore\n  pop\n    /* \"contracts/StackingContract.sol\":60:2269  contract StakingContract {... */\n  dataSize(sub_0)\n  dup1\n  dataOffset(sub_0)\n  0x00\n  codecopy\n  0x00\n  return\nstop\n\nsub_0: assembly {\n        /* \"contracts/StackingContract.sol\":60:2269  contract StakingContract {... */\n      mstore(0x40, 0x80)\n      jumpi(tag_1, lt(calldatasize, 0x04))\n      shr(0xe0, calldataload(0x00))\n      dup1\n      0x70259077\n      gt\n      tag_12\n      jumpi\n      dup1\n      0x70259077\n      eq\n      tag_7\n      jumpi\n      dup1\n      0x8da5cb5b\n      eq\n      tag_8\n      jumpi\n      dup1\n      0xc3453153\n      eq\n      tag_9\n      jumpi\n      dup1\n      0xd82e3962\n      eq\n      tag_10\n      jumpi\n      dup1\n      0xf9931855\n      eq\n      tag_11\n      jumpi\n      jump(tag_2)\n    tag_12:\n      dup1\n      0x046dfb20\n      eq\n      tag_3\n      jumpi\n      dup1\n      0x2def6620\n      eq\n      tag_4\n      jumpi\n      dup1\n      0x3a4b66f1\n      eq\n      tag_5\n      jumpi\n      dup1\n      0x5d773b2c\n      eq\n      tag_6\n      jumpi\n      jump(tag_2)\n    tag_1:\n      jumpi(tag_2, calldatasize)\n      stop\n    tag_2:\n      revert(0x00, 0x00)\n        /* \"contracts/StackingContract.sol\":460:498  uint256 public minimumStakePeriod = 60 */\n    tag_3:\n      callvalue\n      dup1\n      iszero\n      tag_15\n      jumpi\n      revert(0x00, 0x00)\n    tag_15:\n      pop\n      tag_16\n      tag_17\n      jump\t// in\n    tag_16:\n      mload(0x40)\n      tag_18\n      swap2\n      swap1\n      tag_19\n      jump\t// in\n    tag_18:\n      mload(0x40)\n      dup1\n      swap2\n      sub\n      swap1\n      return\n        /* \"contracts/StackingContract.sol\":1243:1838  function unstake() public {... */\n    tag_4:\n      callvalue\n      dup1\n      iszero\n      tag_20\n      jumpi\n      revert(0x00, 0x00)\n    tag_20:\n      pop\n      tag_21\n      tag_22\n      jump\t// in\n    tag_21:\n      stop\n        /* \"contracts/StackingContract.sol\":690:1004  function stake() public payable {... */\n    tag_5:\n      tag_23\n      tag_24\n      jump\t// in\n    tag_23:\n      stop\n        /* \"contracts/StackingContract.sol\":371:409  uint256 public rewardRatePerSecond = 1 */\n    tag_6:\n      callvalue\n      dup1\n      iszero\n      tag_25\n      jumpi\n      revert(0x00, 0x00)\n    tag_25:\n      pop\n      tag_26\n      tag_27\n      jump\t// in\n    tag_26:\n      mload(0x40)\n      tag_28\n      swap2\n      swap1\n      tag_19\n      jump\t// in\n    tag_28:\n      mload(0x40)\n      dup1\n      swap2\n      sub\n      swap1\n      return\n        /* \"contracts/StackingContract.sol\":288:337  mapping(address => uint256) public stakeTimestamp */\n    tag_7:\n      callvalue\n      dup1\n      iszero\n      tag_29\n      jumpi\n      revert(0x00, 0x00)\n    tag_29:\n      pop\n      tag_30\n      0x04\n      dup1\n      calldatasize\n      sub\n      dup2\n      add\n      swap1\n      tag_31\n      swap2\n      swap1\n      tag_32\n      jump\t// in\n    tag_31:\n      tag_33\n      jump\t// in\n    tag_30:\n      mload(0x40)\n      tag_34\n      swap2\n      swap1\n      tag_19\n      jump\t// in\n    tag_34:\n      mload(0x40)\n      dup1\n      swap2\n      sub\n      swap1\n      return\n        /* \"contracts/StackingContract.sol\":92:112  address public owner */\n    tag_8:\n      callvalue\n      dup1\n      iszero\n      tag_35\n      jumpi\n      revert(0x00, 0x00)\n    tag_35:\n      pop\n      tag_36\n      tag_37\n      jump\t// in\n    tag_36:\n      mload(0x40)\n      tag_38\n      swap2\n      swap1\n      tag_39\n      jump\t// in\n    tag_38:\n      mload(0x40)\n      dup1\n      swap2\n      sub\n      swap1\n      return\n        /* \"contracts/StackingContract.sol\":1842:2170  function getStakeInfo(address user) public view returns (... */\n    tag_9:\n      callvalue\n      dup1\n      iszero\n      tag_40\n      jumpi\n      revert(0x00, 0x00)\n    tag_40:\n      pop\n      tag_41\n      0x04\n      dup1\n      calldatasize\n      sub\n      dup2\n      add\n      swap1\n      tag_42\n      swap2\n      swap1\n      tag_32\n      jump\t// in\n    tag_42:\n      tag_43\n      jump\t// in\n    tag_41:\n      mload(0x40)\n      tag_44\n      swap5\n      swap4\n      swap3\n      swap2\n      swap1\n      tag_45\n      jump\t// in\n    tag_44:\n      mload(0x40)\n      dup1\n      swap2\n      sub\n      swap1\n      return\n        /* \"contracts/StackingContract.sol\":1008:1239  function calculateReward(address user) public view returns (uint256) {... */\n    tag_10:\n      callvalue\n      dup1\n      iszero\n      tag_46\n      jumpi\n      revert(0x00, 0x00)\n    tag_46:\n      pop\n      tag_47\n      0x04\n      dup1\n      calldatasize\n      sub\n      dup2\n      add\n      swap1\n      tag_48\n      swap2\n      swap1\n      tag_32\n      jump\t// in\n    tag_48:\n      tag_49\n      jump\t// in\n    tag_47:\n      mload(0x40)\n      tag_50\n      swap2\n      swap1\n      tag_19\n      jump\t// in\n    tag_50:\n      mload(0x40)\n      dup1\n      swap2\n      sub\n      swap1\n      return\n        /* \"contracts/StackingContract.sol\":193:240  mapping(address => uint256) public stakedAmount */\n    tag_11:\n      callvalue\n      dup1\n      iszero\n      tag_51\n      jumpi\n      revert(0x00, 0x00)\n    tag_51:\n      pop\n      tag_52\n      0x04\n      dup1\n      calldatasize\n      sub\n      dup2\n      add\n      swap1\n      tag_53\n      swap2\n      swap1\n      tag_32\n      jump\t// in\n    tag_53:\n      tag_54\n      jump\t// in\n    tag_52:\n      mload(0x40)\n      tag_55\n      swap2\n      swap1\n      tag_19\n      jump\t// in\n    tag_55:\n      mload(0x40)\n      dup1\n      swap2\n      sub\n      swap1\n      return\n        /* \"contracts/StackingContract.sol\":460:498  uint256 public minimumStakePeriod = 60 */\n    tag_17:\n      sload(0x04)\n      dup2\n      jump\t// out\n        /* \"contracts/StackingContract.sol\":1243:1838  function unstake() public {... */\n    tag_22:\n        /* \"contracts/StackingContract.sol\":1311:1312  0 */\n      0x00\n        /* \"contracts/StackingContract.sol\":1284:1296  stakedAmount */\n      0x01\n        /* \"contracts/StackingContract.sol\":1284:1308  stakedAmount[msg.sender] */\n      0x00\n        /* \"contracts/StackingContract.sol\":1297:1307  msg.sender */\n      caller\n        /* \"contracts/StackingContract.sol\":1284:1308  stakedAmount[msg.sender] */\n      0xffffffffffffffffffffffffffffffffffffffff\n      and\n      0xffffffffffffffffffffffffffffffffffffffff\n      and\n      dup2\n      mstore\n      0x20\n      add\n      swap1\n      dup2\n      mstore\n      0x20\n      add\n      0x00\n      keccak256\n      sload\n        /* \"contracts/StackingContract.sol\":1284:1312  stakedAmount[msg.sender] > 0 */\n      gt\n        /* \"contracts/StackingContract.sol\":1276:1338  require(stakedAmount[msg.sender] > 0, \"tidak ada stake aktif\") */\n      tag_57\n      jumpi\n      mload(0x40)\n      0x08c379a000000000000000000000000000000000000000000000000000000000\n      dup2\n      mstore\n      0x04\n      add\n      tag_58\n      swap1\n      tag_59\n      jump\t// in\n    tag_58:\n      mload(0x40)\n      dup1\n      swap2\n      sub\n      swap1\n      revert\n    tag_57:\n        /* \"contracts/StackingContract.sol\":1411:1429  minimumStakePeriod */\n      sload(0x04)\n        /* \"contracts/StackingContract.sol\":1382:1396  stakeTimestamp */\n      0x02\n        /* \"contracts/StackingContract.sol\":1382:1408  stakeTimestamp[msg.sender] */\n      0x00\n        /* \"contracts/StackingContract.sol\":1397:1407  msg.sender */\n      caller\n        /* \"contracts/StackingContract.sol\":1382:1408  stakeTimestamp[msg.sender] */\n      0xffffffffffffffffffffffffffffffffffffffff\n      and\n      0xffffffffffffffffffffffffffffffffffffffff\n      and\n      dup2\n      mstore\n      0x20\n      add\n      swap1\n      dup2\n      mstore\n      0x20\n      add\n      0x00\n      keccak256\n      sload\n        /* \"contracts/StackingContract.sol\":1382:1429  stakeTimestamp[msg.sender] + minimumStakePeriod */\n      tag_60\n      swap2\n      swap1\n      tag_61\n      jump\t// in\n    tag_60:\n        /* \"contracts/StackingContract.sol\":1363:1378  block.timestamp */\n      timestamp\n        /* \"contracts/StackingContract.sol\":1363:1429  block.timestamp >= stakeTimestamp[msg.sender] + minimumStakePeriod */\n      lt\n      iszero\n        /* \"contracts/StackingContract.sol\":1345:1484  require(... */\n      tag_62\n      jumpi\n      mload(0x40)\n      0x08c379a000000000000000000000000000000000000000000000000000000000\n      dup2\n      mstore\n      0x04\n      add\n      tag_63\n      swap1\n      tag_64\n      jump\t// in\n    tag_63:\n      mload(0x40)\n      dup1\n      swap2\n      sub\n      swap1\n      revert\n    tag_62:\n        /* \"contracts/StackingContract.sol\":1493:1507  uint256 amount */\n      0x00\n        /* \"contracts/StackingContract.sol\":1510:1522  stakedAmount */\n      0x01\n        /* \"contracts/StackingContract.sol\":1510:1534  stakedAmount[msg.sender] */\n      0x00\n        /* \"contracts/StackingContract.sol\":1523:1533  msg.sender */\n      caller\n        /* \"contracts/StackingContract.sol\":1510:1534  stakedAmount[msg.sender] */\n      0xffffffffffffffffffffffffffffffffffffffff\n      and\n      0xffffffffffffffffffffffffffffffffffffffff\n      and\n      dup2\n      mstore\n      0x20\n      add\n      swap1\n      dup2\n      mstore\n      0x20\n      add\n      0x00\n      keccak256\n      sload\n        /* \"contracts/StackingContract.sol\":1493:1534  uint256 amount = stakedAmount[msg.sender] */\n      swap1\n      pop\n        /* \"contracts/StackingContract.sol\":1541:1555  uint256 reward */\n      0x00\n        /* \"contracts/StackingContract.sol\":1558:1585  calculateReward(msg.sender) */\n      tag_65\n        /* \"contracts/StackingContract.sol\":1574:1584  msg.sender */\n      caller\n        /* \"contracts/StackingContract.sol\":1558:1573  calculateReward */\n      tag_49\n        /* \"contracts/StackingContract.sol\":1558:1585  calculateReward(msg.sender) */\n      jump\t// in\n    tag_65:\n        /* \"contracts/StackingContract.sol\":1541:1585  uint256 reward = calculateReward(msg.sender) */\n      swap1\n      pop\n        /* \"contracts/StackingContract.sol\":1621:1622  0 */\n      0x00\n        /* \"contracts/StackingContract.sol\":1594:1606  stakedAmount */\n      0x01\n        /* \"contracts/StackingContract.sol\":1594:1618  stakedAmount[msg.sender] */\n      0x00\n        /* \"contracts/StackingContract.sol\":1607:1617  msg.sender */\n      caller\n        /* \"contracts/StackingContract.sol\":1594:1618  stakedAmount[msg.sender] */\n      0xffffffffffffffffffffffffffffffffffffffff\n      and\n      0xffffffffffffffffffffffffffffffffffffffff\n      and\n      dup2\n      mstore\n      0x20\n      add\n      swap1\n      dup2\n      mstore\n      0x20\n      add\n      0x00\n      keccak256\n        /* \"contracts/StackingContract.sol\":1594:1622  stakedAmount[msg.sender] = 0 */\n      dup2\n      swap1\n      sstore\n      pop\n        /* \"contracts/StackingContract.sol\":1658:1659  0 */\n      0x00\n        /* \"contracts/StackingContract.sol\":1629:1643  stakeTimestamp */\n      0x02\n        /* \"contracts/StackingContract.sol\":1629:1655  stakeTimestamp[msg.sender] */\n      0x00\n        /* \"contracts/StackingContract.sol\":1644:1654  msg.sender */\n      caller\n        /* \"contracts/StackingContract.sol\":1629:1655  stakeTimestamp[msg.sender] */\n      0xffffffffffffffffffffffffffffffffffffffff\n      and\n      0xffffffffffffffffffffffffffffffffffffffff\n      and\n      dup2\n      mstore\n      0x20\n      add\n      swap1\n      dup2\n      mstore\n      0x20\n      add\n      0x00\n      keccak256\n        /* \"contracts/StackingContract.sol\":1629:1659  stakeTimestamp[msg.sender] = 0 */\n      dup2\n      swap1\n      sstore\n      pop\n        /* \"contracts/StackingContract.sol\":1669:1681  bool success */\n      0x00\n        /* \"contracts/StackingContract.sol\":1695:1705  msg.sender */\n      caller\n        /* \"contracts/StackingContract.sol\":1687:1711  payable(msg.sender).call */\n      0xffffffffffffffffffffffffffffffffffffffff\n      and\n        /* \"contracts/StackingContract.sol\":1728:1734  reward */\n      dup3\n        /* \"contracts/StackingContract.sol\":1719:1725  amount */\n      dup5\n        /* \"contracts/StackingContract.sol\":1719:1734  amount + reward */\n      tag_66\n      swap2\n      swap1\n      tag_61\n      jump\t// in\n    tag_66:\n        /* \"contracts/StackingContract.sol\":1687:1739  payable(msg.sender).call{value: amount + reward}(\"\") */\n      mload(0x40)\n      tag_67\n      swap1\n      tag_68\n      jump\t// in\n    tag_67:\n      0x00\n      mload(0x40)\n      dup1\n      dup4\n      sub\n      dup2\n      dup6\n      dup8\n      gas\n      call\n      swap3\n      pop\n      pop\n      pop\n      returndatasize\n      dup1\n      0x00\n      dup2\n      eq\n      tag_71\n      jumpi\n      mload(0x40)\n      swap2\n      pop\n      and(add(returndatasize, 0x3f), not(0x1f))\n      dup3\n      add\n      0x40\n      mstore\n      returndatasize\n      dup3\n      mstore\n      returndatasize\n      0x00\n      0x20\n      dup5\n      add\n      returndatacopy\n      jump(tag_70)\n    tag_71:\n      0x60\n      swap2\n      pop\n    tag_70:\n      pop\n        /* \"contracts/StackingContract.sol\":1668:1739  (bool success, ) = payable(msg.sender).call{value: amount + reward}(\"\") */\n      pop\n      swap1\n      pop\n        /* \"contracts/StackingContract.sol\":1754:1761  success */\n      dup1\n        /* \"contracts/StackingContract.sol\":1746:1780  require(success, \"Transfer gagal\") */\n      tag_72\n      jumpi\n      mload(0x40)\n      0x08c379a000000000000000000000000000000000000000000000000000000000\n      dup2\n      mstore\n      0x04\n      add\n      tag_73\n      swap1\n      tag_74\n      jump\t// in\n    tag_73:\n      mload(0x40)\n      dup1\n      swap2\n      sub\n      swap1\n      revert\n    tag_72:\n        /* \"contracts/StackingContract.sol\":1807:1817  msg.sender */\n      caller\n        /* \"contracts/StackingContract.sol\":1798:1834  Unstaked(msg.sender, amount, reward) */\n      0xffffffffffffffffffffffffffffffffffffffff\n      and\n      0x7fc4727e062e336010f2c282598ef5f14facb3de68cf8195c2f23e1454b2b74e\n        /* \"contracts/StackingContract.sol\":1819:1825  amount */\n      dup5\n        /* \"contracts/StackingContract.sol\":1827:1833  reward */\n      dup5\n        /* \"contracts/StackingContract.sol\":1798:1834  Unstaked(msg.sender, amount, reward) */\n      mload(0x40)\n      tag_75\n      swap3\n      swap2\n      swap1\n      tag_76\n      jump\t// in\n    tag_75:\n      mload(0x40)\n      dup1\n      swap2\n      sub\n      swap1\n      log2\n        /* \"contracts/StackingContract.sol\":1269:1838  {... */\n      pop\n      pop\n      pop\n        /* \"contracts/StackingContract.sol\":1243:1838  function unstake() public {... */\n      jump\t// out\n        /* \"contracts/StackingContract.sol\":690:1004  function stake() public payable {... */\n    tag_24:\n        /* \"contracts/StackingContract.sol\":749:750  0 */\n      0x00\n        /* \"contracts/StackingContract.sol\":737:746  msg.value */\n      callvalue\n        /* \"contracts/StackingContract.sol\":737:750  msg.value > 0 */\n      gt\n        /* \"contracts/StackingContract.sol\":729:783  require(msg.value > 0, \"Harus stake lebih dari 0 ETH\") */\n      tag_78\n      jumpi\n      mload(0x40)\n      0x08c379a000000000000000000000000000000000000000000000000000000000\n      dup2\n      mstore\n      0x04\n      add\n      tag_79\n      swap1\n      tag_80\n      jump\t// in\n    tag_79:\n      mload(0x40)\n      dup1\n      swap2\n      sub\n      swap1\n      revert\n    tag_78:\n        /* \"contracts/StackingContract.sol\":826:827  0 */\n      0x00\n        /* \"contracts/StackingContract.sol\":798:810  stakedAmount */\n      0x01\n        /* \"contracts/StackingContract.sol\":798:822  stakedAmount[msg.sender] */\n      0x00\n        /* \"contracts/StackingContract.sol\":811:821  msg.sender */\n      caller\n        /* \"contracts/StackingContract.sol\":798:822  stakedAmount[msg.sender] */\n      0xffffffffffffffffffffffffffffffffffffffff\n      and\n      0xffffffffffffffffffffffffffffffffffffffff\n      and\n      dup2\n      mstore\n      0x20\n      add\n      swap1\n      dup2\n      mstore\n      0x20\n      add\n      0x00\n      keccak256\n      sload\n        /* \"contracts/StackingContract.sol\":798:827  stakedAmount[msg.sender] == 0 */\n      eq\n        /* \"contracts/StackingContract.sol\":790:853  require(stakedAmount[msg.sender] == 0, \"Sudah ada stake aktif\") */\n      tag_81\n      jumpi\n      mload(0x40)\n      0x08c379a000000000000000000000000000000000000000000000000000000000\n      dup2\n      mstore\n      0x04\n      add\n      tag_82\n      swap1\n      tag_83\n      jump\t// in\n    tag_82:\n      mload(0x40)\n      dup1\n      swap2\n      sub\n      swap1\n      revert\n    tag_81:\n        /* \"contracts/StackingContract.sol\":893:902  msg.value */\n      callvalue\n        /* \"contracts/StackingContract.sol\":866:878  stakedAmount */\n      0x01\n        /* \"contracts/StackingContract.sol\":866:890  stakedAmount[msg.sender] */\n      0x00\n        /* \"contracts/StackingContract.sol\":879:889  msg.sender */\n      caller\n        /* \"contracts/StackingContract.sol\":866:890  stakedAmount[msg.sender] */\n      0xffffffffffffffffffffffffffffffffffffffff\n      and\n      0xffffffffffffffffffffffffffffffffffffffff\n      and\n      dup2\n      mstore\n      0x20\n      add\n      swap1\n      dup2\n      mstore\n      0x20\n      add\n      0x00\n      keccak256\n        /* \"contracts/StackingContract.sol\":866:902  stakedAmount[msg.sender] = msg.value */\n      dup2\n      swap1\n      sstore\n      pop\n        /* \"contracts/StackingContract.sol\":938:953  block.timestamp */\n      timestamp\n        /* \"contracts/StackingContract.sol\":909:923  stakeTimestamp */\n      0x02\n        /* \"contracts/StackingContract.sol\":909:935  stakeTimestamp[msg.sender] */\n      0x00\n        /* \"contracts/StackingContract.sol\":924:934  msg.sender */\n      caller\n        /* \"contracts/StackingContract.sol\":909:935  stakeTimestamp[msg.sender] */\n      0xffffffffffffffffffffffffffffffffffffffff\n      and\n      0xffffffffffffffffffffffffffffffffffffffff\n      and\n      dup2\n      mstore\n      0x20\n      add\n      swap1\n      dup2\n      mstore\n      0x20\n      add\n      0x00\n      keccak256\n        /* \"contracts/StackingContract.sol\":909:953  stakeTimestamp[msg.sender] = block.timestamp */\n      dup2\n      swap1\n      sstore\n      pop\n        /* \"contracts/StackingContract.sol\":978:988  msg.sender */\n      caller\n        /* \"contracts/StackingContract.sol\":971:1000  Staked(msg.sender, msg.value) */\n      0xffffffffffffffffffffffffffffffffffffffff\n      and\n      0x9e71bc8eea02a63969f509818f2dafb9254532904319f9dbda79b67bd34a5f3d\n        /* \"contracts/StackingContract.sol\":990:999  msg.value */\n      callvalue\n        /* \"contracts/StackingContract.sol\":971:1000  Staked(msg.sender, msg.value) */\n      mload(0x40)\n      tag_84\n      swap2\n      swap1\n      tag_19\n      jump\t// in\n    tag_84:\n      mload(0x40)\n      dup1\n      swap2\n      sub\n      swap1\n      log2\n        /* \"contracts/StackingContract.sol\":690:1004  function stake() public payable {... */\n      jump\t// out\n        /* \"contracts/StackingContract.sol\":371:409  uint256 public rewardRatePerSecond = 1 */\n    tag_27:\n      sload(0x03)\n      dup2\n      jump\t// out\n        /* \"contracts/StackingContract.sol\":288:337  mapping(address => uint256) public stakeTimestamp */\n    tag_33:\n      mstore(0x20, 0x02)\n      dup1\n      0x00\n      mstore\n      keccak256(0x00, 0x40)\n      0x00\n      swap2\n      pop\n      swap1\n      pop\n      sload\n      dup2\n      jump\t// out\n        /* \"contracts/StackingContract.sol\":92:112  address public owner */\n    tag_37:\n      0x00\n      0x00\n      swap1\n      sload\n      swap1\n      0x0100\n      exp\n      swap1\n      div\n      0xffffffffffffffffffffffffffffffffffffffff\n      and\n      dup2\n      jump\t// out\n        /* \"contracts/StackingContract.sol\":1842:2170  function getStakeInfo(address user) public view returns (... */\n    tag_43:\n        /* \"contracts/StackingContract.sol\":1905:1919  uint256 amount */\n      0x00\n        /* \"contracts/StackingContract.sol\":1926:1943  uint256 timestamp */\n      0x00\n        /* \"contracts/StackingContract.sol\":1950:1966  uint256 duration */\n      0x00\n        /* \"contracts/StackingContract.sol\":1973:1987  uint256 reward */\n      0x00\n        /* \"contracts/StackingContract.sol\":2007:2019  stakedAmount */\n      0x01\n        /* \"contracts/StackingContract.sol\":2007:2025  stakedAmount[user] */\n      0x00\n        /* \"contracts/StackingContract.sol\":2020:2024  user */\n      dup7\n        /* \"contracts/StackingContract.sol\":2007:2025  stakedAmount[user] */\n      0xffffffffffffffffffffffffffffffffffffffff\n      and\n      0xffffffffffffffffffffffffffffffffffffffff\n      and\n      dup2\n      mstore\n      0x20\n      add\n      swap1\n      dup2\n      mstore\n      0x20\n      add\n      0x00\n      keccak256\n      sload\n        /* \"contracts/StackingContract.sol\":1998:2025  amount = stakedAmount[user] */\n      swap4\n      pop\n        /* \"contracts/StackingContract.sol\":2044:2058  stakeTimestamp */\n      0x02\n        /* \"contracts/StackingContract.sol\":2044:2064  stakeTimestamp[user] */\n      0x00\n        /* \"contracts/StackingContract.sol\":2059:2063  user */\n      dup7\n        /* \"contracts/StackingContract.sol\":2044:2064  stakeTimestamp[user] */\n      0xffffffffffffffffffffffffffffffffffffffff\n      and\n      0xffffffffffffffffffffffffffffffffffffffff\n      and\n      dup2\n      mstore\n      0x20\n      add\n      swap1\n      dup2\n      mstore\n      0x20\n      add\n      0x00\n      keccak256\n      sload\n        /* \"contracts/StackingContract.sol\":2032:2064  timestamp = stakeTimestamp[user] */\n      swap3\n      pop\n        /* \"contracts/StackingContract.sol\":2094:2095  0 */\n      0x00\n        /* \"contracts/StackingContract.sol\":2082:2091  timestamp */\n      dup4\n        /* \"contracts/StackingContract.sol\":2082:2095  timestamp > 0 */\n      gt\n        /* \"contracts/StackingContract.sol\":2082:2129  timestamp > 0 ? block.timestamp - timestamp : 0 */\n      tag_86\n      jumpi\n        /* \"contracts/StackingContract.sol\":2128:2129  0 */\n      0x00\n        /* \"contracts/StackingContract.sol\":2082:2129  timestamp > 0 ? block.timestamp - timestamp : 0 */\n      jump(tag_87)\n    tag_86:\n        /* \"contracts/StackingContract.sol\":2116:2125  timestamp */\n      dup3\n        /* \"contracts/StackingContract.sol\":2098:2113  block.timestamp */\n      timestamp\n        /* \"contracts/StackingContract.sol\":2098:2125  block.timestamp - timestamp */\n      tag_88\n      swap2\n      swap1\n      tag_89\n      jump\t// in\n    tag_88:\n        /* \"contracts/StackingContract.sol\":2082:2129  timestamp > 0 ? block.timestamp - timestamp : 0 */\n    tag_87:\n        /* \"contracts/StackingContract.sol\":2071:2129  duration = timestamp > 0 ? block.timestamp - timestamp : 0 */\n      swap2\n      pop\n        /* \"contracts/StackingContract.sol\":2145:2166  calculateReward(user) */\n      tag_90\n        /* \"contracts/StackingContract.sol\":2161:2165  user */\n      dup6\n        /* \"contracts/StackingContract.sol\":2145:2160  calculateReward */\n      tag_49\n        /* \"contracts/StackingContract.sol\":2145:2166  calculateReward(user) */\n      jump\t// in\n    tag_90:\n        /* \"contracts/StackingContract.sol\":2136:2166  reward = calculateReward(user) */\n      swap1\n      pop\n        /* \"contracts/StackingContract.sol\":1842:2170  function getStakeInfo(address user) public view returns (... */\n      swap2\n      swap4\n      pop\n      swap2\n      swap4\n      jump\t// out\n        /* \"contracts/StackingContract.sol\":1008:1239  function calculateReward(address user) public view returns (uint256) {... */\n    tag_49:\n        /* \"contracts/StackingContract.sol\":1068:1075  uint256 */\n      0x00\n        /* \"contracts/StackingContract.sol\":1110:1111  0 */\n      0x00\n        /* \"contracts/StackingContract.sol\":1088:1100  stakedAmount */\n      0x01\n        /* \"contracts/StackingContract.sol\":1088:1106  stakedAmount[user] */\n      0x00\n        /* \"contracts/StackingContract.sol\":1101:1105  user */\n      dup5\n        /* \"contracts/StackingContract.sol\":1088:1106  stakedAmount[user] */\n      0xffffffffffffffffffffffffffffffffffffffff\n      and\n      0xffffffffffffffffffffffffffffffffffffffff\n      and\n      dup2\n      mstore\n      0x20\n      add\n      swap1\n      dup2\n      mstore\n      0x20\n      add\n      0x00\n      keccak256\n      sload\n        /* \"contracts/StackingContract.sol\":1088:1111  stakedAmount[user] == 0 */\n      sub\n        /* \"contracts/StackingContract.sol\":1084:1121  if (stakedAmount[user] == 0) return 0 */\n      tag_92\n      jumpi\n        /* \"contracts/StackingContract.sol\":1120:1121  0 */\n      0x00\n        /* \"contracts/StackingContract.sol\":1113:1121  return 0 */\n      swap1\n      pop\n      jump(tag_91)\n        /* \"contracts/StackingContract.sol\":1084:1121  if (stakedAmount[user] == 0) return 0 */\n    tag_92:\n        /* \"contracts/StackingContract.sol\":1134:1150  uint256 duration */\n      0x00\n        /* \"contracts/StackingContract.sol\":1171:1185  stakeTimestamp */\n      0x02\n        /* \"contracts/StackingContract.sol\":1171:1191  stakeTimestamp[user] */\n      0x00\n        /* \"contracts/StackingContract.sol\":1186:1190  user */\n      dup5\n        /* \"contracts/StackingContract.sol\":1171:1191  stakeTimestamp[user] */\n      0xffffffffffffffffffffffffffffffffffffffff\n      and\n      0xffffffffffffffffffffffffffffffffffffffff\n      and\n      dup2\n      mstore\n      0x20\n      add\n      swap1\n      dup2\n      mstore\n      0x20\n      add\n      0x00\n      keccak256\n      sload\n        /* \"contracts/StackingContract.sol\":1153:1168  block.timestamp */\n      timestamp\n        /* \"contracts/StackingContract.sol\":1153:1191  block.timestamp - stakeTimestamp[user] */\n      tag_93\n      swap2\n      swap1\n      tag_89\n      jump\t// in\n    tag_93:\n        /* \"contracts/StackingContract.sol\":1134:1191  uint256 duration = block.timestamp - stakeTimestamp[user] */\n      swap1\n      pop\n        /* \"contracts/StackingContract.sol\":1216:1235  rewardRatePerSecond */\n      sload(0x03)\n        /* \"contracts/StackingContract.sol\":1205:1213  duration */\n      dup2\n        /* \"contracts/StackingContract.sol\":1205:1235  duration * rewardRatePerSecond */\n      tag_94\n      swap2\n      swap1\n      tag_95\n      jump\t// in\n    tag_94:\n        /* \"contracts/StackingContract.sol\":1198:1235  return duration * rewardRatePerSecond */\n      swap2\n      pop\n      pop\n        /* \"contracts/StackingContract.sol\":1008:1239  function calculateReward(address user) public view returns (uint256) {... */\n    tag_91:\n      swap2\n      swap1\n      pop\n      jump\t// out\n        /* \"contracts/StackingContract.sol\":193:240  mapping(address => uint256) public stakedAmount */\n    tag_54:\n      mstore(0x20, 0x01)\n      dup1\n      0x00\n      mstore\n      keccak256(0x00, 0x40)\n      0x00\n      swap2\n      pop\n      swap1\n      pop\n      sload\n      dup2\n      jump\t// out\n        /* \"#utility.yul\":7:84   */\n    tag_96:\n        /* \"#utility.yul\":44:51   */\n      0x00\n        /* \"#utility.yul\":73:78   */\n      dup2\n        /* \"#utility.yul\":62:78   */\n      swap1\n      pop\n        /* \"#utility.yul\":7:84   */\n      swap2\n      swap1\n      pop\n      jump\t// out\n        /* \"#utility.yul\":90:208   */\n    tag_97:\n        /* \"#utility.yul\":177:201   */\n      tag_124\n        /* \"#utility.yul\":195:200   */\n      dup2\n        /* \"#utility.yul\":177:201   */\n      tag_96\n      jump\t// in\n    tag_124:\n        /* \"#utility.yul\":172:175   */\n      dup3\n        /* \"#utility.yul\":165:202   */\n      mstore\n        /* \"#utility.yul\":90:208   */\n      pop\n      pop\n      jump\t// out\n        /* \"#utility.yul\":214:436   */\n    tag_19:\n        /* \"#utility.yul\":307:311   */\n      0x00\n        /* \"#utility.yul\":345:347   */\n      0x20\n        /* \"#utility.yul\":334:343   */\n      dup3\n        /* \"#utility.yul\":330:348   */\n      add\n        /* \"#utility.yul\":322:348   */\n      swap1\n      pop\n        /* \"#utility.yul\":358:429   */\n      tag_126\n        /* \"#utility.yul\":426:427   */\n      0x00\n        /* \"#utility.yul\":415:424   */\n      dup4\n        /* \"#utility.yul\":411:428   */\n      add\n        /* \"#utility.yul\":402:408   */\n      dup5\n        /* \"#utility.yul\":358:429   */\n      tag_97\n      jump\t// in\n    tag_126:\n        /* \"#utility.yul\":214:436   */\n      swap3\n      swap2\n      pop\n      pop\n      jump\t// out\n        /* \"#utility.yul\":523:640   */\n    tag_99:\n        /* \"#utility.yul\":632:633   */\n      0x00\n        /* \"#utility.yul\":629:630   */\n      0x00\n        /* \"#utility.yul\":622:634   */\n      revert\n        /* \"#utility.yul\":769:895   */\n    tag_101:\n        /* \"#utility.yul\":806:813   */\n      0x00\n        /* \"#utility.yul\":846:888   */\n      0xffffffffffffffffffffffffffffffffffffffff\n        /* \"#utility.yul\":839:844   */\n      dup3\n        /* \"#utility.yul\":835:889   */\n      and\n        /* \"#utility.yul\":824:889   */\n      swap1\n      pop\n        /* \"#utility.yul\":769:895   */\n      swap2\n      swap1\n      pop\n      jump\t// out\n        /* \"#utility.yul\":901:997   */\n    tag_102:\n        /* \"#utility.yul\":938:945   */\n      0x00\n        /* \"#utility.yul\":967:991   */\n      tag_132\n        /* \"#utility.yul\":985:990   */\n      dup3\n        /* \"#utility.yul\":967:991   */\n      tag_101\n      jump\t// in\n    tag_132:\n        /* \"#utility.yul\":956:991   */\n      swap1\n      pop\n        /* \"#utility.yul\":901:997   */\n      swap2\n      swap1\n      pop\n      jump\t// out\n        /* \"#utility.yul\":1003:1125   */\n    tag_103:\n        /* \"#utility.yul\":1076:1100   */\n      tag_134\n        /* \"#utility.yul\":1094:1099   */\n      dup2\n        /* \"#utility.yul\":1076:1100   */\n      tag_102\n      jump\t// in\n    tag_134:\n        /* \"#utility.yul\":1069:1074   */\n      dup2\n        /* \"#utility.yul\":1066:1101   */\n      eq\n        /* \"#utility.yul\":1056:1119   */\n      tag_135\n      jumpi\n        /* \"#utility.yul\":1115:1116   */\n      0x00\n        /* \"#utility.yul\":1112:1113   */\n      0x00\n        /* \"#utility.yul\":1105:1117   */\n      revert\n        /* \"#utility.yul\":1056:1119   */\n    tag_135:\n        /* \"#utility.yul\":1003:1125   */\n      pop\n      jump\t// out\n        /* \"#utility.yul\":1131:1270   */\n    tag_104:\n        /* \"#utility.yul\":1177:1182   */\n      0x00\n        /* \"#utility.yul\":1215:1221   */\n      dup2\n        /* \"#utility.yul\":1202:1222   */\n      calldataload\n        /* \"#utility.yul\":1193:1222   */\n      swap1\n      pop\n        /* \"#utility.yul\":1231:1264   */\n      tag_137\n        /* \"#utility.yul\":1258:1263   */\n      dup2\n        /* \"#utility.yul\":1231:1264   */\n      tag_103\n      jump\t// in\n    tag_137:\n        /* \"#utility.yul\":1131:1270   */\n      swap3\n      swap2\n      pop\n      pop\n      jump\t// out\n        /* \"#utility.yul\":1276:1605   */\n    tag_32:\n        /* \"#utility.yul\":1335:1341   */\n      0x00\n        /* \"#utility.yul\":1384:1386   */\n      0x20\n        /* \"#utility.yul\":1372:1381   */\n      dup3\n        /* \"#utility.yul\":1363:1370   */\n      dup5\n        /* \"#utility.yul\":1359:1382   */\n      sub\n        /* \"#utility.yul\":1355:1387   */\n      slt\n        /* \"#utility.yul\":1352:1471   */\n      iszero\n      tag_139\n      jumpi\n        /* \"#utility.yul\":1390:1469   */\n      tag_140\n      tag_99\n      jump\t// in\n    tag_140:\n        /* \"#utility.yul\":1352:1471   */\n    tag_139:\n        /* \"#utility.yul\":1510:1511   */\n      0x00\n        /* \"#utility.yul\":1535:1588   */\n      tag_141\n        /* \"#utility.yul\":1580:1587   */\n      dup5\n        /* \"#utility.yul\":1571:1577   */\n      dup3\n        /* \"#utility.yul\":1560:1569   */\n      dup6\n        /* \"#utility.yul\":1556:1578   */\n      add\n        /* \"#utility.yul\":1535:1588   */\n      tag_104\n      jump\t// in\n    tag_141:\n        /* \"#utility.yul\":1525:1588   */\n      swap2\n      pop\n        /* \"#utility.yul\":1481:1598   */\n      pop\n        /* \"#utility.yul\":1276:1605   */\n      swap3\n      swap2\n      pop\n      pop\n      jump\t// out\n        /* \"#utility.yul\":1611:1729   */\n    tag_105:\n        /* \"#utility.yul\":1698:1722   */\n      tag_143\n        /* \"#utility.yul\":1716:1721   */\n      dup2\n        /* \"#utility.yul\":1698:1722   */\n      tag_102\n      jump\t// in\n    tag_143:\n        /* \"#utility.yul\":1693:1696   */\n      dup3\n        /* \"#utility.yul\":1686:1723   */\n      mstore\n        /* \"#utility.yul\":1611:1729   */\n      pop\n      pop\n      jump\t// out\n        /* \"#utility.yul\":1735:1957   */\n    tag_39:\n        /* \"#utility.yul\":1828:1832   */\n      0x00\n        /* \"#utility.yul\":1866:1868   */\n      0x20\n        /* \"#utility.yul\":1855:1864   */\n      dup3\n        /* \"#utility.yul\":1851:1869   */\n      add\n        /* \"#utility.yul\":1843:1869   */\n      swap1\n      pop\n        /* \"#utility.yul\":1879:1950   */\n      tag_145\n        /* \"#utility.yul\":1947:1948   */\n      0x00\n        /* \"#utility.yul\":1936:1945   */\n      dup4\n        /* \"#utility.yul\":1932:1949   */\n      add\n        /* \"#utility.yul\":1923:1929   */\n      dup5\n        /* \"#utility.yul\":1879:1950   */\n      tag_105\n      jump\t// in\n    tag_145:\n        /* \"#utility.yul\":1735:1957   */\n      swap3\n      swap2\n      pop\n      pop\n      jump\t// out\n        /* \"#utility.yul\":1963:2516   */\n    tag_45:\n        /* \"#utility.yul\":2140:2144   */\n      0x00\n        /* \"#utility.yul\":2178:2181   */\n      0x80\n        /* \"#utility.yul\":2167:2176   */\n      dup3\n        /* \"#utility.yul\":2163:2182   */\n      add\n        /* \"#utility.yul\":2155:2182   */\n      swap1\n      pop\n        /* \"#utility.yul\":2192:2263   */\n      tag_147\n        /* \"#utility.yul\":2260:2261   */\n      0x00\n        /* \"#utility.yul\":2249:2258   */\n      dup4\n        /* \"#utility.yul\":2245:2262   */\n      add\n        /* \"#utility.yul\":2236:2242   */\n      dup8\n        /* \"#utility.yul\":2192:2263   */\n      tag_97\n      jump\t// in\n    tag_147:\n        /* \"#utility.yul\":2273:2345   */\n      tag_148\n        /* \"#utility.yul\":2341:2343   */\n      0x20\n        /* \"#utility.yul\":2330:2339   */\n      dup4\n        /* \"#utility.yul\":2326:2344   */\n      add\n        /* \"#utility.yul\":2317:2323   */\n      dup7\n        /* \"#utility.yul\":2273:2345   */\n      tag_97\n      jump\t// in\n    tag_148:\n        /* \"#utility.yul\":2355:2427   */\n      tag_149\n        /* \"#utility.yul\":2423:2425   */\n      0x40\n        /* \"#utility.yul\":2412:2421   */\n      dup4\n        /* \"#utility.yul\":2408:2426   */\n      add\n        /* \"#utility.yul\":2399:2405   */\n      dup6\n        /* \"#utility.yul\":2355:2427   */\n      tag_97\n      jump\t// in\n    tag_149:\n        /* \"#utility.yul\":2437:2509   */\n      tag_150\n        /* \"#utility.yul\":2505:2507   */\n      0x60\n        /* \"#utility.yul\":2494:2503   */\n      dup4\n        /* \"#utility.yul\":2490:2508   */\n      add\n        /* \"#utility.yul\":2481:2487   */\n      dup5\n        /* \"#utility.yul\":2437:2509   */\n      tag_97\n      jump\t// in\n    tag_150:\n        /* \"#utility.yul\":1963:2516   */\n      swap6\n      swap5\n      pop\n      pop\n      pop\n      pop\n      pop\n      jump\t// out\n        /* \"#utility.yul\":2522:2691   */\n    tag_106:\n        /* \"#utility.yul\":2606:2617   */\n      0x00\n        /* \"#utility.yul\":2640:2646   */\n      dup3\n        /* \"#utility.yul\":2635:2638   */\n      dup3\n        /* \"#utility.yul\":2628:2647   */\n      mstore\n        /* \"#utility.yul\":2680:2684   */\n      0x20\n        /* \"#utility.yul\":2675:2678   */\n      dup3\n        /* \"#utility.yul\":2671:2685   */\n      add\n        /* \"#utility.yul\":2656:2685   */\n      swap1\n      pop\n        /* \"#utility.yul\":2522:2691   */\n      swap3\n      swap2\n      pop\n      pop\n      jump\t// out\n        /* \"#utility.yul\":2697:2868   */\n    tag_107:\n        /* \"#utility.yul\":2837:2860   */\n      0x746964616b20616461207374616b6520616b7469660000000000000000000000\n        /* \"#utility.yul\":2833:2834   */\n      0x00\n        /* \"#utility.yul\":2825:2831   */\n      dup3\n        /* \"#utility.yul\":2821:2835   */\n      add\n        /* \"#utility.yul\":2814:2861   */\n      mstore\n        /* \"#utility.yul\":2697:2868   */\n      pop\n      jump\t// out\n        /* \"#utility.yul\":2874:3240   */\n    tag_108:\n        /* \"#utility.yul\":3016:3019   */\n      0x00\n        /* \"#utility.yul\":3037:3104   */\n      tag_154\n        /* \"#utility.yul\":3101:3103   */\n      0x15\n        /* \"#utility.yul\":3096:3099   */\n      dup4\n        /* \"#utility.yul\":3037:3104   */\n      tag_106\n      jump\t// in\n    tag_154:\n        /* \"#utility.yul\":3030:3104   */\n      swap2\n      pop\n        /* \"#utility.yul\":3113:3206   */\n      tag_155\n        /* \"#utility.yul\":3202:3205   */\n      dup3\n        /* \"#utility.yul\":3113:3206   */\n      tag_107\n      jump\t// in\n    tag_155:\n        /* \"#utility.yul\":3231:3233   */\n      0x20\n        /* \"#utility.yul\":3226:3229   */\n      dup3\n        /* \"#utility.yul\":3222:3234   */\n      add\n        /* \"#utility.yul\":3215:3234   */\n      swap1\n      pop\n        /* \"#utility.yul\":2874:3240   */\n      swap2\n      swap1\n      pop\n      jump\t// out\n        /* \"#utility.yul\":3246:3665   */\n    tag_59:\n        /* \"#utility.yul\":3412:3416   */\n      0x00\n        /* \"#utility.yul\":3450:3452   */\n      0x20\n        /* \"#utility.yul\":3439:3448   */\n      dup3\n        /* \"#utility.yul\":3435:3453   */\n      add\n        /* \"#utility.yul\":3427:3453   */\n      swap1\n      pop\n        /* \"#utility.yul\":3499:3508   */\n      dup2\n        /* \"#utility.yul\":3493:3497   */\n      dup2\n        /* \"#utility.yul\":3489:3509   */\n      sub\n        /* \"#utility.yul\":3485:3486   */\n      0x00\n        /* \"#utility.yul\":3474:3483   */\n      dup4\n        /* \"#utility.yul\":3470:3487   */\n      add\n        /* \"#utility.yul\":3463:3510   */\n      mstore\n        /* \"#utility.yul\":3527:3658   */\n      tag_157\n        /* \"#utility.yul\":3653:3657   */\n      dup2\n        /* \"#utility.yul\":3527:3658   */\n      tag_108\n      jump\t// in\n    tag_157:\n        /* \"#utility.yul\":3519:3658   */\n      swap1\n      pop\n        /* \"#utility.yul\":3246:3665   */\n      swap2\n      swap1\n      pop\n      jump\t// out\n        /* \"#utility.yul\":3671:3851   */\n    tag_109:\n        /* \"#utility.yul\":3719:3796   */\n      0x4e487b7100000000000000000000000000000000000000000000000000000000\n        /* \"#utility.yul\":3716:3717   */\n      0x00\n        /* \"#utility.yul\":3709:3797   */\n      mstore\n        /* \"#utility.yul\":3816:3820   */\n      0x11\n        /* \"#utility.yul\":3813:3814   */\n      0x04\n        /* \"#utility.yul\":3806:3821   */\n      mstore\n        /* \"#utility.yul\":3840:3844   */\n      0x24\n        /* \"#utility.yul\":3837:3838   */\n      0x00\n        /* \"#utility.yul\":3830:3845   */\n      revert\n        /* \"#utility.yul\":3857:4048   */\n    tag_61:\n        /* \"#utility.yul\":3897:3900   */\n      0x00\n        /* \"#utility.yul\":3916:3936   */\n      tag_160\n        /* \"#utility.yul\":3934:3935   */\n      dup3\n        /* \"#utility.yul\":3916:3936   */\n      tag_96\n      jump\t// in\n    tag_160:\n        /* \"#utility.yul\":3911:3936   */\n      swap2\n      pop\n        /* \"#utility.yul\":3950:3970   */\n      tag_161\n        /* \"#utility.yul\":3968:3969   */\n      dup4\n        /* \"#utility.yul\":3950:3970   */\n      tag_96\n      jump\t// in\n    tag_161:\n        /* \"#utility.yul\":3945:3970   */\n      swap3\n      pop\n        /* \"#utility.yul\":3993:3994   */\n      dup3\n        /* \"#utility.yul\":3990:3991   */\n      dup3\n        /* \"#utility.yul\":3986:3995   */\n      add\n        /* \"#utility.yul\":3979:3995   */\n      swap1\n      pop\n        /* \"#utility.yul\":4014:4017   */\n      dup1\n        /* \"#utility.yul\":4011:4012   */\n      dup3\n        /* \"#utility.yul\":4008:4018   */\n      gt\n        /* \"#utility.yul\":4005:4041   */\n      iszero\n      tag_162\n      jumpi\n        /* \"#utility.yul\":4021:4039   */\n      tag_163\n      tag_109\n      jump\t// in\n    tag_163:\n        /* \"#utility.yul\":4005:4041   */\n    tag_162:\n        /* \"#utility.yul\":3857:4048   */\n      swap3\n      swap2\n      pop\n      pop\n      jump\t// out\n        /* \"#utility.yul\":4054:4276   */\n    tag_110:\n        /* \"#utility.yul\":4194:4228   */\n      0x6d696e696d756d207374616b6520706572696f642062656c756d207465726361\n        /* \"#utility.yul\":4190:4191   */\n      0x00\n        /* \"#utility.yul\":4182:4188   */\n      dup3\n        /* \"#utility.yul\":4178:4192   */\n      add\n        /* \"#utility.yul\":4171:4229   */\n      mstore\n        /* \"#utility.yul\":4263:4268   */\n      0x7061690000000000000000000000000000000000000000000000000000000000\n        /* \"#utility.yul\":4258:4260   */\n      0x20\n        /* \"#utility.yul\":4250:4256   */\n      dup3\n        /* \"#utility.yul\":4246:4261   */\n      add\n        /* \"#utility.yul\":4239:4269   */\n      mstore\n        /* \"#utility.yul\":4054:4276   */\n      pop\n      jump\t// out\n        /* \"#utility.yul\":4282:4648   */\n    tag_111:\n        /* \"#utility.yul\":4424:4427   */\n      0x00\n        /* \"#utility.yul\":4445:4512   */\n      tag_166\n        /* \"#utility.yul\":4509:4511   */\n      0x23\n        /* \"#utility.yul\":4504:4507   */\n      dup4\n        /* \"#utility.yul\":4445:4512   */\n      tag_106\n      jump\t// in\n    tag_166:\n        /* \"#utility.yul\":4438:4512   */\n      swap2\n      pop\n        /* \"#utility.yul\":4521:4614   */\n      tag_167\n        /* \"#utility.yul\":4610:4613   */\n      dup3\n        /* \"#utility.yul\":4521:4614   */\n      tag_110\n      jump\t// in\n    tag_167:\n        /* \"#utility.yul\":4639:4641   */\n      0x40\n        /* \"#utility.yul\":4634:4637   */\n      dup3\n        /* \"#utility.yul\":4630:4642   */\n      add\n        /* \"#utility.yul\":4623:4642   */\n      swap1\n      pop\n        /* \"#utility.yul\":4282:4648   */\n      swap2\n      swap1\n      pop\n      jump\t// out\n        /* \"#utility.yul\":4654:5073   */\n    tag_64:\n        /* \"#utility.yul\":4820:4824   */\n      0x00\n        /* \"#utility.yul\":4858:4860   */\n      0x20\n        /* \"#utility.yul\":4847:4856   */\n      dup3\n        /* \"#utility.yul\":4843:4861   */\n      add\n        /* \"#utility.yul\":4835:4861   */\n      swap1\n      pop\n        /* \"#utility.yul\":4907:4916   */\n      dup2\n        /* \"#utility.yul\":4901:4905   */\n      dup2\n        /* \"#utility.yul\":4897:4917   */\n      sub\n        /* \"#utility.yul\":4893:4894   */\n      0x00\n        /* \"#utility.yul\":4882:4891   */\n      dup4\n        /* \"#utility.yul\":4878:4895   */\n      add\n        /* \"#utility.yul\":4871:4918   */\n      mstore\n        /* \"#utility.yul\":4935:5066   */\n      tag_169\n        /* \"#utility.yul\":5061:5065   */\n      dup2\n        /* \"#utility.yul\":4935:5066   */\n      tag_111\n      jump\t// in\n    tag_169:\n        /* \"#utility.yul\":4927:5066   */\n      swap1\n      pop\n        /* \"#utility.yul\":4654:5073   */\n      swap2\n      swap1\n      pop\n      jump\t// out\n        /* \"#utility.yul\":5079:5226   */\n    tag_112:\n        /* \"#utility.yul\":5180:5191   */\n      0x00\n        /* \"#utility.yul\":5217:5220   */\n      dup2\n        /* \"#utility.yul\":5202:5220   */\n      swap1\n      pop\n        /* \"#utility.yul\":5079:5226   */\n      swap3\n      swap2\n      pop\n      pop\n      jump\t// out\n        /* \"#utility.yul\":5232:5346   */\n    tag_113:\n      pop\n      jump\t// out\n        /* \"#utility.yul\":5352:5750   */\n    tag_114:\n        /* \"#utility.yul\":5511:5514   */\n      0x00\n        /* \"#utility.yul\":5532:5615   */\n      tag_173\n        /* \"#utility.yul\":5613:5614   */\n      0x00\n        /* \"#utility.yul\":5608:5611   */\n      dup4\n        /* \"#utility.yul\":5532:5615   */\n      tag_112\n      jump\t// in\n    tag_173:\n        /* \"#utility.yul\":5525:5615   */\n      swap2\n      pop\n        /* \"#utility.yul\":5624:5717   */\n      tag_174\n        /* \"#utility.yul\":5713:5716   */\n      dup3\n        /* \"#utility.yul\":5624:5717   */\n      tag_113\n      jump\t// in\n    tag_174:\n        /* \"#utility.yul\":5742:5743   */\n      0x00\n        /* \"#utility.yul\":5737:5740   */\n      dup3\n        /* \"#utility.yul\":5733:5744   */\n      add\n        /* \"#utility.yul\":5726:5744   */\n      swap1\n      pop\n        /* \"#utility.yul\":5352:5750   */\n      swap2\n      swap1\n      pop\n      jump\t// out\n        /* \"#utility.yul\":5756:6135   */\n    tag_68:\n        /* \"#utility.yul\":5940:5943   */\n      0x00\n        /* \"#utility.yul\":5962:6109   */\n      tag_176\n        /* \"#utility.yul\":6105:6108   */\n      dup3\n        /* \"#utility.yul\":5962:6109   */\n      tag_114\n      jump\t// in\n    tag_176:\n        /* \"#utility.yul\":5955:6109   */\n      swap2\n      pop\n        /* \"#utility.yul\":6126:6129   */\n      dup2\n        /* \"#utility.yul\":6119:6129   */\n      swap1\n      pop\n        /* \"#utility.yul\":5756:6135   */\n      swap2\n      swap1\n      pop\n      jump\t// out\n        /* \"#utility.yul\":6141:6305   */\n    tag_115:\n        /* \"#utility.yul\":6281:6297   */\n      0x5472616e7366657220676167616c000000000000000000000000000000000000\n        /* \"#utility.yul\":6277:6278   */\n      0x00\n        /* \"#utility.yul\":6269:6275   */\n      dup3\n        /* \"#utility.yul\":6265:6279   */\n      add\n        /* \"#utility.yul\":6258:6298   */\n      mstore\n        /* \"#utility.yul\":6141:6305   */\n      pop\n      jump\t// out\n        /* \"#utility.yul\":6311:6677   */\n    tag_116:\n        /* \"#utility.yul\":6453:6456   */\n      0x00\n        /* \"#utility.yul\":6474:6541   */\n      tag_179\n        /* \"#utility.yul\":6538:6540   */\n      0x0e\n        /* \"#utility.yul\":6533:6536   */\n      dup4\n        /* \"#utility.yul\":6474:6541   */\n      tag_106\n      jump\t// in\n    tag_179:\n        /* \"#utility.yul\":6467:6541   */\n      swap2\n      pop\n        /* \"#utility.yul\":6550:6643   */\n      tag_180\n        /* \"#utility.yul\":6639:6642   */\n      dup3\n        /* \"#utility.yul\":6550:6643   */\n      tag_115\n      jump\t// in\n    tag_180:\n        /* \"#utility.yul\":6668:6670   */\n      0x20\n        /* \"#utility.yul\":6663:6666   */\n      dup3\n        /* \"#utility.yul\":6659:6671   */\n      add\n        /* \"#utility.yul\":6652:6671   */\n      swap1\n      pop\n        /* \"#utility.yul\":6311:6677   */\n      swap2\n      swap1\n      pop\n      jump\t// out\n        /* \"#utility.yul\":6683:7102   */\n    tag_74:\n        /* \"#utility.yul\":6849:6853   */\n      0x00\n        /* \"#utility.yul\":6887:6889   */\n      0x20\n        /* \"#utility.yul\":6876:6885   */\n      dup3\n        /* \"#utility.yul\":6872:6890   */\n      add\n        /* \"#utility.yul\":6864:6890   */\n      swap1\n      pop\n        /* \"#utility.yul\":6936:6945   */\n      dup2\n        /* \"#utility.yul\":6930:6934   */\n      dup2\n        /* \"#utility.yul\":6926:6946   */\n      sub\n        /* \"#utility.yul\":6922:6923   */\n      0x00\n        /* \"#utility.yul\":6911:6920   */\n      dup4\n        /* \"#utility.yul\":6907:6924   */\n      add\n        /* \"#utility.yul\":6900:6947   */\n      mstore\n        /* \"#utility.yul\":6964:7095   */\n      tag_182\n        /* \"#utility.yul\":7090:7094   */\n      dup2\n        /* \"#utility.yul\":6964:7095   */\n      tag_116\n      jump\t// in\n    tag_182:\n        /* \"#utility.yul\":6956:7095   */\n      swap1\n      pop\n        /* \"#utility.yul\":6683:7102   */\n      swap2\n      swap1\n      pop\n      jump\t// out\n        /* \"#utility.yul\":7108:7440   */\n    tag_76:\n        /* \"#utility.yul\":7229:7233   */\n      0x00\n        /* \"#utility.yul\":7267:7269   */\n      0x40\n        /* \"#utility.yul\":7256:7265   */\n      dup3\n        /* \"#utility.yul\":7252:7270   */\n      add\n        /* \"#utility.yul\":7244:7270   */\n      swap1\n      pop\n        /* \"#utility.yul\":7280:7351   */\n      tag_184\n        /* \"#utility.yul\":7348:7349   */\n      0x00\n        /* \"#utility.yul\":7337:7346   */\n      dup4\n        /* \"#utility.yul\":7333:7350   */\n      add\n        /* \"#utility.yul\":7324:7330   */\n      dup6\n        /* \"#utility.yul\":7280:7351   */\n      tag_97\n      jump\t// in\n    tag_184:\n        /* \"#utility.yul\":7361:7433   */\n      tag_185\n        /* \"#utility.yul\":7429:7431   */\n      0x20\n        /* \"#utility.yul\":7418:7427   */\n      dup4\n        /* \"#utility.yul\":7414:7432   */\n      add\n        /* \"#utility.yul\":7405:7411   */\n      dup5\n        /* \"#utility.yul\":7361:7433   */\n      tag_97\n      jump\t// in\n    tag_185:\n        /* \"#utility.yul\":7108:7440   */\n      swap4\n      swap3\n      pop\n      pop\n      pop\n      jump\t// out\n        /* \"#utility.yul\":7446:7624   */\n    tag_117:\n        /* \"#utility.yul\":7586:7616   */\n      0x4861727573207374616b65206c65626968206461726920302045544800000000\n        /* \"#utility.yul\":7582:7583   */\n      0x00\n        /* \"#utility.yul\":7574:7580   */\n      dup3\n        /* \"#utility.yul\":7570:7584   */\n      add\n        /* \"#utility.yul\":7563:7617   */\n      mstore\n        /* \"#utility.yul\":7446:7624   */\n      pop\n      jump\t// out\n        /* \"#utility.yul\":7630:7996   */\n    tag_118:\n        /* \"#utility.yul\":7772:7775   */\n      0x00\n        /* \"#utility.yul\":7793:7860   */\n      tag_188\n        /* \"#utility.yul\":7857:7859   */\n      0x1c\n        /* \"#utility.yul\":7852:7855   */\n      dup4\n        /* \"#utility.yul\":7793:7860   */\n      tag_106\n      jump\t// in\n    tag_188:\n        /* \"#utility.yul\":7786:7860   */\n      swap2\n      pop\n        /* \"#utility.yul\":7869:7962   */\n      tag_189\n        /* \"#utility.yul\":7958:7961   */\n      dup3\n        /* \"#utility.yul\":7869:7962   */\n      tag_117\n      jump\t// in\n    tag_189:\n        /* \"#utility.yul\":7987:7989   */\n      0x20\n        /* \"#utility.yul\":7982:7985   */\n      dup3\n        /* \"#utility.yul\":7978:7990   */\n      add\n        /* \"#utility.yul\":7971:7990   */\n      swap1\n      pop\n        /* \"#utility.yul\":7630:7996   */\n      swap2\n      swap1\n      pop\n      jump\t// out\n        /* \"#utility.yul\":8002:8421   */\n    tag_80:\n        /* \"#utility.yul\":8168:8172   */\n      0x00\n        /* \"#utility.yul\":8206:8208   */\n      0x20\n        /* \"#utility.yul\":8195:8204   */\n      dup3\n        /* \"#utility.yul\":8191:8209   */\n      add\n        /* \"#utility.yul\":8183:8209   */\n      swap1\n      pop\n        /* \"#utility.yul\":8255:8264   */\n      dup2\n        /* \"#utility.yul\":8249:8253   */\n      dup2\n        /* \"#utility.yul\":8245:8265   */\n      sub\n        /* \"#utility.yul\":8241:8242   */\n      0x00\n        /* \"#utility.yul\":8230:8239   */\n      dup4\n        /* \"#utility.yul\":8226:8243   */\n      add\n        /* \"#utility.yul\":8219:8266   */\n      mstore\n        /* \"#utility.yul\":8283:8414   */\n      tag_191\n        /* \"#utility.yul\":8409:8413   */\n      dup2\n        /* \"#utility.yul\":8283:8414   */\n      tag_118\n      jump\t// in\n    tag_191:\n        /* \"#utility.yul\":8275:8414   */\n      swap1\n      pop\n        /* \"#utility.yul\":8002:8421   */\n      swap2\n      swap1\n      pop\n      jump\t// out\n        /* \"#utility.yul\":8427:8598   */\n    tag_119:\n        /* \"#utility.yul\":8567:8590   */\n      0x537564616820616461207374616b6520616b7469660000000000000000000000\n        /* \"#utility.yul\":8563:8564   */\n      0x00\n        /* \"#utility.yul\":8555:8561   */\n      dup3\n        /* \"#utility.yul\":8551:8565   */\n      add\n        /* \"#utility.yul\":8544:8591   */\n      mstore\n        /* \"#utility.yul\":8427:8598   */\n      pop\n      jump\t// out\n        /* \"#utility.yul\":8604:8970   */\n    tag_120:\n        /* \"#utility.yul\":8746:8749   */\n      0x00\n        /* \"#utility.yul\":8767:8834   */\n      tag_194\n        /* \"#utility.yul\":8831:8833   */\n      0x15\n        /* \"#utility.yul\":8826:8829   */\n      dup4\n        /* \"#utility.yul\":8767:8834   */\n      tag_106\n      jump\t// in\n    tag_194:\n        /* \"#utility.yul\":8760:8834   */\n      swap2\n      pop\n        /* \"#utility.yul\":8843:8936   */\n      tag_195\n        /* \"#utility.yul\":8932:8935   */\n      dup3\n        /* \"#utility.yul\":8843:8936   */\n      tag_119\n      jump\t// in\n    tag_195:\n        /* \"#utility.yul\":8961:8963   */\n      0x20\n        /* \"#utility.yul\":8956:8959   */\n      dup3\n        /* \"#utility.yul\":8952:8964   */\n      add\n        /* \"#utility.yul\":8945:8964   */\n      swap1\n      pop\n        /* \"#utility.yul\":8604:8970   */\n      swap2\n      swap1\n      pop\n      jump\t// out\n        /* \"#utility.yul\":8976:9395   */\n    tag_83:\n        /* \"#utility.yul\":9142:9146   */\n      0x00\n        /* \"#utility.yul\":9180:9182   */\n      0x20\n        /* \"#utility.yul\":9169:9178   */\n      dup3\n        /* \"#utility.yul\":9165:9183   */\n      add\n        /* \"#utility.yul\":9157:9183   */\n      swap1\n      pop\n        /* \"#utility.yul\":9229:9238   */\n      dup2\n        /* \"#utility.yul\":9223:9227   */\n      dup2\n        /* \"#utility.yul\":9219:9239   */\n      sub\n        /* \"#utility.yul\":9215:9216   */\n      0x00\n        /* \"#utility.yul\":9204:9213   */\n      dup4\n        /* \"#utility.yul\":9200:9217   */\n      add\n        /* \"#utility.yul\":9193:9240   */\n      mstore\n        /* \"#utility.yul\":9257:9388   */\n      tag_197\n        /* \"#utility.yul\":9383:9387   */\n      dup2\n        /* \"#utility.yul\":9257:9388   */\n      tag_120\n      jump\t// in\n    tag_197:\n        /* \"#utility.yul\":9249:9388   */\n      swap1\n      pop\n        /* \"#utility.yul\":8976:9395   */\n      swap2\n      swap1\n      pop\n      jump\t// out\n        /* \"#utility.yul\":9401:9595   */\n    tag_89:\n        /* \"#utility.yul\":9441:9445   */\n      0x00\n        /* \"#utility.yul\":9461:9481   */\n      tag_199\n        /* \"#utility.yul\":9479:9480   */\n      dup3\n        /* \"#utility.yul\":9461:9481   */\n      tag_96\n      jump\t// in\n    tag_199:\n        /* \"#utility.yul\":9456:9481   */\n      swap2\n      pop\n        /* \"#utility.yul\":9495:9515   */\n      tag_200\n        /* \"#utility.yul\":9513:9514   */\n      dup4\n        /* \"#utility.yul\":9495:9515   */\n      tag_96\n      jump\t// in\n    tag_200:\n        /* \"#utility.yul\":9490:9515   */\n      swap3\n      pop\n        /* \"#utility.yul\":9539:9540   */\n      dup3\n        /* \"#utility.yul\":9536:9537   */\n      dup3\n        /* \"#utility.yul\":9532:9541   */\n      sub\n        /* \"#utility.yul\":9524:9541   */\n      swap1\n      pop\n        /* \"#utility.yul\":9563:9564   */\n      dup2\n        /* \"#utility.yul\":9557:9561   */\n      dup2\n        /* \"#utility.yul\":9554:9565   */\n      gt\n        /* \"#utility.yul\":9551:9588   */\n      iszero\n      tag_201\n      jumpi\n        /* \"#utility.yul\":9568:9586   */\n      tag_202\n      tag_109\n      jump\t// in\n    tag_202:\n        /* \"#utility.yul\":9551:9588   */\n    tag_201:\n        /* \"#utility.yul\":9401:9595   */\n      swap3\n      swap2\n      pop\n      pop\n      jump\t// out\n        /* \"#utility.yul\":9601:10011   */\n    tag_95:\n        /* \"#utility.yul\":9641:9648   */\n      0x00\n        /* \"#utility.yul\":9664:9684   */\n      tag_204\n        /* \"#utility.yul\":9682:9683   */\n      dup3\n        /* \"#utility.yul\":9664:9684   */\n      tag_96\n      jump\t// in\n    tag_204:\n        /* \"#utility.yul\":9659:9684   */\n      swap2\n      pop\n        /* \"#utility.yul\":9698:9718   */\n      tag_205\n        /* \"#utility.yul\":9716:9717   */\n      dup4\n        /* \"#utility.yul\":9698:9718   */\n      tag_96\n      jump\t// in\n    tag_205:\n        /* \"#utility.yul\":9693:9718   */\n      swap3\n      pop\n        /* \"#utility.yul\":9753:9754   */\n      dup3\n        /* \"#utility.yul\":9750:9751   */\n      dup3\n        /* \"#utility.yul\":9746:9755   */\n      mul\n        /* \"#utility.yul\":9775:9805   */\n      tag_206\n        /* \"#utility.yul\":9793:9804   */\n      dup2\n        /* \"#utility.yul\":9775:9805   */\n      tag_96\n      jump\t// in\n    tag_206:\n        /* \"#utility.yul\":9764:9805   */\n      swap2\n      pop\n        /* \"#utility.yul\":9954:9955   */\n      dup3\n        /* \"#utility.yul\":9945:9952   */\n      dup3\n        /* \"#utility.yul\":9941:9956   */\n      div\n        /* \"#utility.yul\":9938:9939   */\n      dup5\n        /* \"#utility.yul\":9935:9957   */\n      eq\n        /* \"#utility.yul\":9915:9916   */\n      dup4\n        /* \"#utility.yul\":9908:9917   */\n      iszero\n        /* \"#utility.yul\":9888:9971   */\n      or\n        /* \"#utility.yul\":9865:10004   */\n      tag_207\n      jumpi\n        /* \"#utility.yul\":9984:10002   */\n      tag_208\n      tag_109\n      jump\t// in\n    tag_208:\n        /* \"#utility.yul\":9865:10004   */\n    tag_207:\n        /* \"#utility.yul\":9649:10011   */\n      pop\n        /* \"#utility.yul\":9601:10011   */\n      swap3\n      swap2\n      pop\n      pop\n      jump\t// out\n\n    auxdata: 0xa26469706673582212206c54d4b91ac6208e67182849bf3a74c83436641d376ee85540f2ff8ec81eaf6164736f6c63430008220033\n}\n",
				"bytecode": {
					"linkReferences": {},
					"object": "60806040526001600355603c6004553480156018575f5ffd5b50335f5f6101000a81548173ffffffffffffffffffffffffffffffffffffffff021916908373ffffffffffffffffffffffffffffffffffffffff160217905550610d30806100655f395ff3fe608060405260043610610089575f3560e01c8063702590771161005857806370259077146101085780638da5cb5b14610144578063c34531531461016e578063d82e3962146101ad578063f9931855146101e957610090565b8063046dfb20146100945780632def6620146100be5780633a4b66f1146100d45780635d773b2c146100de57610090565b3661009057005b5f5ffd5b34801561009f575f5ffd5b506100a8610225565b6040516100b59190610873565b60405180910390f35b3480156100c9575f5ffd5b506100d261022b565b005b6100dc610510565b005b3480156100e9575f5ffd5b506100f26106a5565b6040516100ff9190610873565b60405180910390f35b348015610113575f5ffd5b5061012e600480360381019061012991906108ea565b6106ab565b60405161013b9190610873565b60405180910390f35b34801561014f575f5ffd5b506101586106c0565b6040516101659190610924565b60405180910390f35b348015610179575f5ffd5b50610194600480360381019061018f91906108ea565b6106e4565b6040516101a4949392919061093d565b60405180910390f35b3480156101b8575f5ffd5b506101d360048036038101906101ce91906108ea565b610796565b6040516101e09190610873565b60405180910390f35b3480156101f4575f5ffd5b5061020f600480360381019061020a91906108ea565b610846565b60405161021c9190610873565b60405180910390f35b60045481565b5f60015f3373ffffffffffffffffffffffffffffffffffffffff1673ffffffffffffffffffffffffffffffffffffffff1681526020019081526020015f2054116102aa576040517f08c379a00000000000000000000000000000000000000000000000000000000081526004016102a1906109da565b60405180910390fd5b60045460025f3373ffffffffffffffffffffffffffffffffffffffff1673ffffffffffffffffffffffffffffffffffffffff1681526020019081526020015f20546102f59190610a25565b421015610337576040517f08c379a000000000000000000000000000000000000000000000000000000000815260040161032e90610ac8565b60405180910390fd5b5f60015f3373ffffffffffffffffffffffffffffffffffffffff1673ffffffffffffffffffffffffffffffffffffffff1681526020019081526020015f205490505f61038233610796565b90505f60015f3373ffffffffffffffffffffffffffffffffffffffff1673ffffffffffffffffffffffffffffffffffffffff1681526020019081526020015f20819055505f60025f3373ffffffffffffffffffffffffffffffffffffffff1673ffffffffffffffffffffffffffffffffffffffff1681526020019081526020015f20819055505f3373ffffffffffffffffffffffffffffffffffffffff16828461042c9190610a25565b60405161043890610b13565b5f6040518083038185875af1925050503d805f8114610472576040519150601f19603f3d011682016040523d82523d5f602084013e610477565b606091505b50509050806104bb576040517f08c379a00000000000000000000000000000000000000000000000000000000081526004016104b290610b71565b60405180910390fd5b3373ffffffffffffffffffffffffffffffffffffffff167f7fc4727e062e336010f2c282598ef5f14facb3de68cf8195c2f23e1454b2b74e8484604051610503929190610b8f565b60405180910390a2505050565b5f3411610552576040517f08c379a000000000000000000000000000000000000000000000000000000000815260040161054990610c00565b60405180910390fd5b5f60015f3373ffffffffffffffffffffffffffffffffffffffff1673ffffffffffffffffffffffffffffffffffffffff1681526020019081526020015f2054146105d1576040517f08c379a00000000000000000000000000000000000000000000000000000000081526004016105c890610c68565b60405180910390fd5b3460015f3373ffffffffffffffffffffffffffffffffffffffff1673ffffffffffffffffffffffffffffffffffffffff1681526020019081526020015f20819055504260025f3373ffffffffffffffffffffffffffffffffffffffff1673ffffffffffffffffffffffffffffffffffffffff1681526020019081526020015f20819055503373ffffffffffffffffffffffffffffffffffffffff167f9e71bc8eea02a63969f509818f2dafb9254532904319f9dbda79b67bd34a5f3d3460405161069b9190610873565b60405180910390a2565b60035481565b6002602052805f5260405f205f915090505481565b5f5f9054906101000a900473ffffffffffffffffffffffffffffffffffffffff1681565b5f5f5f5f60015f8673ffffffffffffffffffffffffffffffffffffffff1673ffffffffffffffffffffffffffffffffffffffff1681526020019081526020015f2054935060025f8673ffffffffffffffffffffffffffffffffffffffff1673ffffffffffffffffffffffffffffffffffffffff1681526020019081526020015f205492505f8311610775575f610782565b82426107819190610c86565b5b915061078d85610796565b90509193509193565b5f5f60015f8473ffffffffffffffffffffffffffffffffffffffff1673ffffffffffffffffffffffffffffffffffffffff1681526020019081526020015f2054036107e3575f9050610841565b5f60025f8473ffffffffffffffffffffffffffffffffffffffff1673ffffffffffffffffffffffffffffffffffffffff1681526020019081526020015f20544261082d9190610c86565b90506003548161083d9190610cb9565b9150505b919050565b6001602052805f5260405f205f915090505481565b5f819050919050565b61086d8161085b565b82525050565b5f6020820190506108865f830184610864565b92915050565b5f5ffd5b5f73ffffffffffffffffffffffffffffffffffffffff82169050919050565b5f6108b982610890565b9050919050565b6108c9816108af565b81146108d3575f5ffd5b50565b5f813590506108e4816108c0565b92915050565b5f602082840312156108ff576108fe61088c565b5b5f61090c848285016108d6565b91505092915050565b61091e816108af565b82525050565b5f6020820190506109375f830184610915565b92915050565b5f6080820190506109505f830187610864565b61095d6020830186610864565b61096a6040830185610864565b6109776060830184610864565b95945050505050565b5f82825260208201905092915050565b7f746964616b20616461207374616b6520616b74696600000000000000000000005f82015250565b5f6109c4601583610980565b91506109cf82610990565b602082019050919050565b5f6020820190508181035f8301526109f1816109b8565b9050919050565b7f4e487b71000000000000000000000000000000000000000000000000000000005f52601160045260245ffd5b5f610a2f8261085b565b9150610a3a8361085b565b9250828201905080821115610a5257610a516109f8565b5b92915050565b7f6d696e696d756d207374616b6520706572696f642062656c756d2074657263615f8201527f7061690000000000000000000000000000000000000000000000000000000000602082015250565b5f610ab2602383610980565b9150610abd82610a58565b604082019050919050565b5f6020820190508181035f830152610adf81610aa6565b9050919050565b5f81905092915050565b50565b5f610afe5f83610ae6565b9150610b0982610af0565b5f82019050919050565b5f610b1d82610af3565b9150819050919050565b7f5472616e7366657220676167616c0000000000000000000000000000000000005f82015250565b5f610b5b600e83610980565b9150610b6682610b27565b602082019050919050565b5f6020820190508181035f830152610b8881610b4f565b9050919050565b5f604082019050610ba25f830185610864565b610baf6020830184610864565b9392505050565b7f4861727573207374616b65206c656269682064617269203020455448000000005f82015250565b5f610bea601c83610980565b9150610bf582610bb6565b602082019050919050565b5f6020820190508181035f830152610c1781610bde565b9050919050565b7f537564616820616461207374616b6520616b74696600000000000000000000005f82015250565b5f610c52601583610980565b9150610c5d82610c1e565b602082019050919050565b5f6020820190508181035f830152610c7f81610c46565b9050919050565b5f610c908261085b565b9150610c9b8361085b565b9250828203905081811115610cb357610cb26109f8565b5b92915050565b5f610cc38261085b565b9150610cce8361085b565b9250828202610cdc8161085b565b91508282048414831517610cf357610cf26109f8565b5b509291505056fea26469706673582212206c54d4b91ac6208e67182849bf3a74c83436641d376ee85540f2ff8ec81eaf6164736f6c63430008220033",
					"opcodes": "PUSH1 0x80 PUSH1 0x40 MSTORE PUSH1 0x1 PUSH1 0x3 SSTORE PUSH1 0x3C PUSH1 0x4 SSTORE CALLVALUE DUP1 ISZERO PUSH1 0x18 JUMPI PUSH0 PUSH0 REVERT JUMPDEST POP CALLER PUSH0 PUSH0 PUSH2 0x100 EXP DUP2 SLOAD DUP2 PUSH20 0xFFFFFFFFFFFFFFFFFFFFFFFFFFFFFFFFFFFFFFFF MUL NOT AND SWAP1 DUP4 PUSH20 0xFFFFFFFFFFFFFFFFFFFFFFFFFFFFFFFFFFFFFFFF AND MUL OR SWAP1 SSTORE POP PUSH2 0xD30 DUP1 PUSH2 0x65 PUSH0 CODECOPY PUSH0 RETURN INVALID PUSH1 0x80 PUSH1 0x40 MSTORE PUSH1 0x4 CALLDATASIZE LT PUSH2 0x89 JUMPI PUSH0 CALLDATALOAD PUSH1 0xE0 SHR DUP1 PUSH4 0x70259077 GT PUSH2 0x58 JUMPI DUP1 PUSH4 0x70259077 EQ PUSH2 0x108 JUMPI DUP1 PUSH4 0x8DA5CB5B EQ PUSH2 0x144 JUMPI DUP1 PUSH4 0xC3453153 EQ PUSH2 0x16E JUMPI DUP1 PUSH4 0xD82E3962 EQ PUSH2 0x1AD JUMPI DUP1 PUSH4 0xF9931855 EQ PUSH2 0x1E9 JUMPI PUSH2 0x90 JUMP JUMPDEST DUP1 PUSH4 0x46DFB20 EQ PUSH2 0x94 JUMPI DUP1 PUSH4 0x2DEF6620 EQ PUSH2 0xBE JUMPI DUP1 PUSH4 0x3A4B66F1 EQ PUSH2 0xD4 JUMPI DUP1 PUSH4 0x5D773B2C EQ PUSH2 0xDE JUMPI PUSH2 0x90 JUMP JUMPDEST CALLDATASIZE PUSH2 0x90 JUMPI STOP JUMPDEST PUSH0 PUSH0 REVERT JUMPDEST CALLVALUE DUP1 ISZERO PUSH2 0x9F JUMPI PUSH0 PUSH0 REVERT JUMPDEST POP PUSH2 0xA8 PUSH2 0x225 JUMP JUMPDEST PUSH1 0x40 MLOAD PUSH2 0xB5 SWAP2 SWAP1 PUSH2 0x873 JUMP JUMPDEST PUSH1 0x40 MLOAD DUP1 SWAP2 SUB SWAP1 RETURN JUMPDEST CALLVALUE DUP1 ISZERO PUSH2 0xC9 JUMPI PUSH0 PUSH0 REVERT JUMPDEST POP PUSH2 0xD2 PUSH2 0x22B JUMP JUMPDEST STOP JUMPDEST PUSH2 0xDC PUSH2 0x510 JUMP JUMPDEST STOP JUMPDEST CALLVALUE DUP1 ISZERO PUSH2 0xE9 JUMPI PUSH0 PUSH0 REVERT JUMPDEST POP PUSH2 0xF2 PUSH2 0x6A5 JUMP JUMPDEST PUSH1 0x40 MLOAD PUSH2 0xFF SWAP2 SWAP1 PUSH2 0x873 JUMP JUMPDEST PUSH1 0x40 MLOAD DUP1 SWAP2 SUB SWAP1 RETURN JUMPDEST CALLVALUE DUP1 ISZERO PUSH2 0x113 JUMPI PUSH0 PUSH0 REVERT JUMPDEST POP PUSH2 0x12E PUSH1 0x4 DUP1 CALLDATASIZE SUB DUP2 ADD SWAP1 PUSH2 0x129 SWAP2 SWAP1 PUSH2 0x8EA JUMP JUMPDEST PUSH2 0x6AB JUMP JUMPDEST PUSH1 0x40 MLOAD PUSH2 0x13B SWAP2 SWAP1 PUSH2 0x873 JUMP JUMPDEST PUSH1 0x40 MLOAD DUP1 SWAP2 SUB SWAP1 RETURN JUMPDEST CALLVALUE DUP1 ISZERO PUSH2 0x14F JUMPI PUSH0 PUSH0 REVERT JUMPDEST POP PUSH2 0x158 PUSH2 0x6C0 JUMP JUMPDEST PUSH1 0x40 MLOAD PUSH2 0x165 SWAP2 SWAP1 PUSH2 0x924 JUMP JUMPDEST PUSH1 0x40 MLOAD DUP1 SWAP2 SUB SWAP1 RETURN JUMPDEST CALLVALUE DUP1 ISZERO PUSH2 0x179 JUMPI PUSH0 PUSH0 REVERT JUMPDEST POP PUSH2 0x194 PUSH1 0x4 DUP1 CALLDATASIZE SUB DUP2 ADD SWAP1 PUSH2 0x18F SWAP2 SWAP1 PUSH2 0x8EA JUMP JUMPDEST PUSH2 0x6E4 JUMP JUMPDEST PUSH1 0x40 MLOAD PUSH2 0x1A4 SWAP5 SWAP4 SWAP3 SWAP2 SWAP1 PUSH2 0x93D JUMP JUMPDEST PUSH1 0x40 MLOAD DUP1 SWAP2 SUB SWAP1 RETURN JUMPDEST CALLVALUE DUP1 ISZERO PUSH2 0x1B8 JUMPI PUSH0 PUSH0 REVERT JUMPDEST POP PUSH2 0x1D3 PUSH1 0x4 DUP1 CALLDATASIZE SUB DUP2 ADD SWAP1 PUSH2 0x1CE SWAP2 SWAP1 PUSH2 0x8EA JUMP JUMPDEST PUSH2 0x796 JUMP JUMPDEST PUSH1 0x40 MLOAD PUSH2 0x1E0 SWAP2 SWAP1 PUSH2 0x873 JUMP JUMPDEST PUSH1 0x40 MLOAD DUP1 SWAP2 SUB SWAP1 RETURN JUMPDEST CALLVALUE DUP1 ISZERO PUSH2 0x1F4 JUMPI PUSH0 PUSH0 REVERT JUMPDEST POP PUSH2 0x20F PUSH1 0x4 DUP1 CALLDATASIZE SUB DUP2 ADD SWAP1 PUSH2 0x20A SWAP2 SWAP1 PUSH2 0x8EA JUMP JUMPDEST PUSH2 0x846 JUMP JUMPDEST PUSH1 0x40 MLOAD PUSH2 0x21C SWAP2 SWAP1 PUSH2 0x873 JUMP JUMPDEST PUSH1 0x40 MLOAD DUP1 SWAP2 SUB SWAP1 RETURN JUMPDEST PUSH1 0x4 SLOAD DUP2 JUMP JUMPDEST PUSH0 PUSH1 0x1 PUSH0 CALLER PUSH20 0xFFFFFFFFFFFFFFFFFFFFFFFFFFFFFFFFFFFFFFFF AND PUSH20 0xFFFFFFFFFFFFFFFFFFFFFFFFFFFFFFFFFFFFFFFF AND DUP2 MSTORE PUSH1 0x20 ADD SWAP1 DUP2 MSTORE PUSH1 0x20 ADD PUSH0 KECCAK256 SLOAD GT PUSH2 0x2AA JUMPI PUSH1 0x40 MLOAD PUSH32 0x8C379A000000000000000000000000000000000000000000000000000000000 DUP2 MSTORE PUSH1 0x4 ADD PUSH2 0x2A1 SWAP1 PUSH2 0x9DA JUMP JUMPDEST PUSH1 0x40 MLOAD DUP1 SWAP2 SUB SWAP1 REVERT JUMPDEST PUSH1 0x4 SLOAD PUSH1 0x2 PUSH0 CALLER PUSH20 0xFFFFFFFFFFFFFFFFFFFFFFFFFFFFFFFFFFFFFFFF AND PUSH20 0xFFFFFFFFFFFFFFFFFFFFFFFFFFFFFFFFFFFFFFFF AND DUP2 MSTORE PUSH1 0x20 ADD SWAP1 DUP2 MSTORE PUSH1 0x20 ADD PUSH0 KECCAK256 SLOAD PUSH2 0x2F5 SWAP2 SWAP1 PUSH2 0xA25 JUMP JUMPDEST TIMESTAMP LT ISZERO PUSH2 0x337 JUMPI PUSH1 0x40 MLOAD PUSH32 0x8C379A000000000000000000000000000000000000000000000000000000000 DUP2 MSTORE PUSH1 0x4 ADD PUSH2 0x32E SWAP1 PUSH2 0xAC8 JUMP JUMPDEST PUSH1 0x40 MLOAD DUP1 SWAP2 SUB SWAP1 REVERT JUMPDEST PUSH0 PUSH1 0x1 PUSH0 CALLER PUSH20 0xFFFFFFFFFFFFFFFFFFFFFFFFFFFFFFFFFFFFFFFF AND PUSH20 0xFFFFFFFFFFFFFFFFFFFFFFFFFFFFFFFFFFFFFFFF AND DUP2 MSTORE PUSH1 0x20 ADD SWAP1 DUP2 MSTORE PUSH1 0x20 ADD PUSH0 KECCAK256 SLOAD SWAP1 POP PUSH0 PUSH2 0x382 CALLER PUSH2 0x796 JUMP JUMPDEST SWAP1 POP PUSH0 PUSH1 0x1 PUSH0 CALLER PUSH20 0xFFFFFFFFFFFFFFFFFFFFFFFFFFFFFFFFFFFFFFFF AND PUSH20 0xFFFFFFFFFFFFFFFFFFFFFFFFFFFFFFFFFFFFFFFF AND DUP2 MSTORE PUSH1 0x20 ADD SWAP1 DUP2 MSTORE PUSH1 0x20 ADD PUSH0 KECCAK256 DUP2 SWAP1 SSTORE POP PUSH0 PUSH1 0x2 PUSH0 CALLER PUSH20 0xFFFFFFFFFFFFFFFFFFFFFFFFFFFFFFFFFFFFFFFF AND PUSH20 0xFFFFFFFFFFFFFFFFFFFFFFFFFFFFFFFFFFFFFFFF AND DUP2 MSTORE PUSH1 0x20 ADD SWAP1 DUP2 MSTORE PUSH1 0x20 ADD PUSH0 KECCAK256 DUP2 SWAP1 SSTORE POP PUSH0 CALLER PUSH20 0xFFFFFFFFFFFFFFFFFFFFFFFFFFFFFFFFFFFFFFFF AND DUP3 DUP5 PUSH2 0x42C SWAP2 SWAP1 PUSH2 0xA25 JUMP JUMPDEST PUSH1 0x40 MLOAD PUSH2 0x438 SWAP1 PUSH2 0xB13 JUMP JUMPDEST PUSH0 PUSH1 0x40 MLOAD DUP1 DUP4 SUB DUP2 DUP6 DUP8 GAS CALL SWAP3 POP POP POP RETURNDATASIZE DUP1 PUSH0 DUP2 EQ PUSH2 0x472 JUMPI PUSH1 0x40 MLOAD SWAP2 POP PUSH1 0x1F NOT PUSH1 0x3F RETURNDATASIZE ADD AND DUP3 ADD PUSH1 0x40 MSTORE RETURNDATASIZE DUP3 MSTORE RETURNDATASIZE PUSH0 PUSH1 0x20 DUP5 ADD RETURNDATACOPY PUSH2 0x477 JUMP JUMPDEST PUSH1 0x60 SWAP2 POP JUMPDEST POP POP SWAP1 POP DUP1 PUSH2 0x4BB JUMPI PUSH1 0x40 MLOAD PUSH32 0x8C379A000000000000000000000000000000000000000000000000000000000 DUP2 MSTORE PUSH1 0x4 ADD PUSH2 0x4B2 SWAP1 PUSH2 0xB71 JUMP JUMPDEST PUSH1 0x40 MLOAD DUP1 SWAP2 SUB SWAP1 REVERT JUMPDEST CALLER PUSH20 0xFFFFFFFFFFFFFFFFFFFFFFFFFFFFFFFFFFFFFFFF AND PUSH32 0x7FC4727E062E336010F2C282598EF5F14FACB3DE68CF8195C2F23E1454B2B74E DUP5 DUP5 PUSH1 0x40 MLOAD PUSH2 0x503 SWAP3 SWAP2 SWAP1 PUSH2 0xB8F JUMP JUMPDEST PUSH1 0x40 MLOAD DUP1 SWAP2 SUB SWAP1 LOG2 POP POP POP JUMP JUMPDEST PUSH0 CALLVALUE GT PUSH2 0x552 JUMPI PUSH1 0x40 MLOAD PUSH32 0x8C379A000000000000000000000000000000000000000000000000000000000 DUP2 MSTORE PUSH1 0x4 ADD PUSH2 0x549 SWAP1 PUSH2 0xC00 JUMP JUMPDEST PUSH1 0x40 MLOAD DUP1 SWAP2 SUB SWAP1 REVERT JUMPDEST PUSH0 PUSH1 0x1 PUSH0 CALLER PUSH20 0xFFFFFFFFFFFFFFFFFFFFFFFFFFFFFFFFFFFFFFFF AND PUSH20 0xFFFFFFFFFFFFFFFFFFFFFFFFFFFFFFFFFFFFFFFF AND DUP2 MSTORE PUSH1 0x20 ADD SWAP1 DUP2 MSTORE PUSH1 0x20 ADD PUSH0 KECCAK256 SLOAD EQ PUSH2 0x5D1 JUMPI PUSH1 0x40 MLOAD PUSH32 0x8C379A000000000000000000000000000000000000000000000000000000000 DUP2 MSTORE PUSH1 0x4 ADD PUSH2 0x5C8 SWAP1 PUSH2 0xC68 JUMP JUMPDEST PUSH1 0x40 MLOAD DUP1 SWAP2 SUB SWAP1 REVERT JUMPDEST CALLVALUE PUSH1 0x1 PUSH0 CALLER PUSH20 0xFFFFFFFFFFFFFFFFFFFFFFFFFFFFFFFFFFFFFFFF AND PUSH20 0xFFFFFFFFFFFFFFFFFFFFFFFFFFFFFFFFFFFFFFFF AND DUP2 MSTORE PUSH1 0x20 ADD SWAP1 DUP2 MSTORE PUSH1 0x20 ADD PUSH0 KECCAK256 DUP2 SWAP1 SSTORE POP TIMESTAMP PUSH1 0x2 PUSH0 CALLER PUSH20 0xFFFFFFFFFFFFFFFFFFFFFFFFFFFFFFFFFFFFFFFF AND PUSH20 0xFFFFFFFFFFFFFFFFFFFFFFFFFFFFFFFFFFFFFFFF AND DUP2 MSTORE PUSH1 0x20 ADD SWAP1 DUP2 MSTORE PUSH1 0x20 ADD PUSH0 KECCAK256 DUP2 SWAP1 SSTORE POP CALLER PUSH20 0xFFFFFFFFFFFFFFFFFFFFFFFFFFFFFFFFFFFFFFFF AND PUSH32 0x9E71BC8EEA02A63969F509818F2DAFB9254532904319F9DBDA79B67BD34A5F3D CALLVALUE PUSH1 0x40 MLOAD PUSH2 0x69B SWAP2 SWAP1 PUSH2 0x873 JUMP JUMPDEST PUSH1 0x40 MLOAD DUP1 SWAP2 SUB SWAP1 LOG2 JUMP JUMPDEST PUSH1 0x3 SLOAD DUP2 JUMP JUMPDEST PUSH1 0x2 PUSH1 0x20 MSTORE DUP1 PUSH0 MSTORE PUSH1 0x40 PUSH0 KECCAK256 PUSH0 SWAP2 POP SWAP1 POP SLOAD DUP2 JUMP JUMPDEST PUSH0 PUSH0 SWAP1 SLOAD SWAP1 PUSH2 0x100 EXP SWAP1 DIV PUSH20 0xFFFFFFFFFFFFFFFFFFFFFFFFFFFFFFFFFFFFFFFF AND DUP2 JUMP JUMPDEST PUSH0 PUSH0 PUSH0 PUSH0 PUSH1 0x1 PUSH0 DUP7 PUSH20 0xFFFFFFFFFFFFFFFFFFFFFFFFFFFFFFFFFFFFFFFF AND PUSH20 0xFFFFFFFFFFFFFFFFFFFFFFFFFFFFFFFFFFFFFFFF AND DUP2 MSTORE PUSH1 0x20 ADD SWAP1 DUP2 MSTORE PUSH1 0x20 ADD PUSH0 KECCAK256 SLOAD SWAP4 POP PUSH1 0x2 PUSH0 DUP7 PUSH20 0xFFFFFFFFFFFFFFFFFFFFFFFFFFFFFFFFFFFFFFFF AND PUSH20 0xFFFFFFFFFFFFFFFFFFFFFFFFFFFFFFFFFFFFFFFF AND DUP2 MSTORE PUSH1 0x20 ADD SWAP1 DUP2 MSTORE PUSH1 0x20 ADD PUSH0 KECCAK256 SLOAD SWAP3 POP PUSH0 DUP4 GT PUSH2 0x775 JUMPI PUSH0 PUSH2 0x782 JUMP JUMPDEST DUP3 TIMESTAMP PUSH2 0x781 SWAP2 SWAP1 PUSH2 0xC86 JUMP JUMPDEST JUMPDEST SWAP2 POP PUSH2 0x78D DUP6 PUSH2 0x796 JUMP JUMPDEST SWAP1 POP SWAP2 SWAP4 POP SWAP2 SWAP4 JUMP JUMPDEST PUSH0 PUSH0 PUSH1 0x1 PUSH0 DUP5 PUSH20 0xFFFFFFFFFFFFFFFFFFFFFFFFFFFFFFFFFFFFFFFF AND PUSH20 0xFFFFFFFFFFFFFFFFFFFFFFFFFFFFFFFFFFFFFFFF AND DUP2 MSTORE PUSH1 0x20 ADD SWAP1 DUP2 MSTORE PUSH1 0x20 ADD PUSH0 KECCAK256 SLOAD SUB PUSH2 0x7E3 JUMPI PUSH0 SWAP1 POP PUSH2 0x841 JUMP JUMPDEST PUSH0 PUSH1 0x2 PUSH0 DUP5 PUSH20 0xFFFFFFFFFFFFFFFFFFFFFFFFFFFFFFFFFFFFFFFF AND PUSH20 0xFFFFFFFFFFFFFFFFFFFFFFFFFFFFFFFFFFFFFFFF AND DUP2 MSTORE PUSH1 0x20 ADD SWAP1 DUP2 MSTORE PUSH1 0x20 ADD PUSH0 KECCAK256 SLOAD TIMESTAMP PUSH2 0x82D SWAP2 SWAP1 PUSH2 0xC86 JUMP JUMPDEST SWAP1 POP PUSH1 0x3 SLOAD DUP2 PUSH2 0x83D SWAP2 SWAP1 PUSH2 0xCB9 JUMP JUMPDEST SWAP2 POP POP JUMPDEST SWAP2 SWAP1 POP JUMP JUMPDEST PUSH1 0x1 PUSH1 0x20 MSTORE DUP1 PUSH0 MSTORE PUSH1 0x40 PUSH0 KECCAK256 PUSH0 SWAP2 POP SWAP1 POP SLOAD DUP2 JUMP JUMPDEST PUSH0 DUP2 SWAP1 POP SWAP2 SWAP1 POP JUMP JUMPDEST PUSH2 0x86D DUP2 PUSH2 0x85B JUMP JUMPDEST DUP3 MSTORE POP POP JUMP JUMPDEST PUSH0 PUSH1 0x20 DUP3 ADD SWAP1 POP PUSH2 0x886 PUSH0 DUP4 ADD DUP5 PUSH2 0x864 JUMP JUMPDEST SWAP3 SWAP2 POP POP JUMP JUMPDEST PUSH0 PUSH0 REVERT JUMPDEST PUSH0 PUSH20 0xFFFFFFFFFFFFFFFFFFFFFFFFFFFFFFFFFFFFFFFF DUP3 AND SWAP1 POP SWAP2 SWAP1 POP JUMP JUMPDEST PUSH0 PUSH2 0x8B9 DUP3 PUSH2 0x890 JUMP JUMPDEST SWAP1 POP SWAP2 SWAP1 POP JUMP JUMPDEST PUSH2 0x8C9 DUP2 PUSH2 0x8AF JUMP JUMPDEST DUP2 EQ PUSH2 0x8D3 JUMPI PUSH0 PUSH0 REVERT JUMPDEST POP JUMP JUMPDEST PUSH0 DUP2 CALLDATALOAD SWAP1 POP PUSH2 0x8E4 DUP2 PUSH2 0x8C0 JUMP JUMPDEST SWAP3 SWAP2 POP POP JUMP JUMPDEST PUSH0 PUSH1 0x20 DUP3 DUP5 SUB SLT ISZERO PUSH2 0x8FF JUMPI PUSH2 0x8FE PUSH2 0x88C JUMP JUMPDEST JUMPDEST PUSH0 PUSH2 0x90C DUP5 DUP3 DUP6 ADD PUSH2 0x8D6 JUMP JUMPDEST SWAP2 POP POP SWAP3 SWAP2 POP POP JUMP JUMPDEST PUSH2 0x91E DUP2 PUSH2 0x8AF JUMP JUMPDEST DUP3 MSTORE POP POP JUMP JUMPDEST PUSH0 PUSH1 0x20 DUP3 ADD SWAP1 POP PUSH2 0x937 PUSH0 DUP4 ADD DUP5 PUSH2 0x915 JUMP JUMPDEST SWAP3 SWAP2 POP POP JUMP JUMPDEST PUSH0 PUSH1 0x80 DUP3 ADD SWAP1 POP PUSH2 0x950 PUSH0 DUP4 ADD DUP8 PUSH2 0x864 JUMP JUMPDEST PUSH2 0x95D PUSH1 0x20 DUP4 ADD DUP7 PUSH2 0x864 JUMP JUMPDEST PUSH2 0x96A PUSH1 0x40 DUP4 ADD DUP6 PUSH2 0x864 JUMP JUMPDEST PUSH2 0x977 PUSH1 0x60 DUP4 ADD DUP5 PUSH2 0x864 JUMP JUMPDEST SWAP6 SWAP5 POP POP POP POP POP JUMP JUMPDEST PUSH0 DUP3 DUP3 MSTORE PUSH1 0x20 DUP3 ADD SWAP1 POP SWAP3 SWAP2 POP POP JUMP JUMPDEST PUSH32 0x746964616B20616461207374616B6520616B7469660000000000000000000000 PUSH0 DUP3 ADD MSTORE POP JUMP JUMPDEST PUSH0 PUSH2 0x9C4 PUSH1 0x15 DUP4 PUSH2 0x980 JUMP JUMPDEST SWAP2 POP PUSH2 0x9CF DUP3 PUSH2 0x990 JUMP JUMPDEST PUSH1 0x20 DUP3 ADD SWAP1 POP SWAP2 SWAP1 POP JUMP JUMPDEST PUSH0 PUSH1 0x20 DUP3 ADD SWAP1 POP DUP2 DUP2 SUB PUSH0 DUP4 ADD MSTORE PUSH2 0x9F1 DUP2 PUSH2 0x9B8 JUMP JUMPDEST SWAP1 POP SWAP2 SWAP1 POP JUMP JUMPDEST PUSH32 0x4E487B7100000000000000000000000000000000000000000000000000000000 PUSH0 MSTORE PUSH1 0x11 PUSH1 0x4 MSTORE PUSH1 0x24 PUSH0 REVERT JUMPDEST PUSH0 PUSH2 0xA2F DUP3 PUSH2 0x85B JUMP JUMPDEST SWAP2 POP PUSH2 0xA3A DUP4 PUSH2 0x85B JUMP JUMPDEST SWAP3 POP DUP3 DUP3 ADD SWAP1 POP DUP1 DUP3 GT ISZERO PUSH2 0xA52 JUMPI PUSH2 0xA51 PUSH2 0x9F8 JUMP JUMPDEST JUMPDEST SWAP3 SWAP2 POP POP JUMP JUMPDEST PUSH32 0x6D696E696D756D207374616B6520706572696F642062656C756D207465726361 PUSH0 DUP3 ADD MSTORE PUSH32 0x7061690000000000000000000000000000000000000000000000000000000000 PUSH1 0x20 DUP3 ADD MSTORE POP JUMP JUMPDEST PUSH0 PUSH2 0xAB2 PUSH1 0x23 DUP4 PUSH2 0x980 JUMP JUMPDEST SWAP2 POP PUSH2 0xABD DUP3 PUSH2 0xA58 JUMP JUMPDEST PUSH1 0x40 DUP3 ADD SWAP1 POP SWAP2 SWAP1 POP JUMP JUMPDEST PUSH0 PUSH1 0x20 DUP3 ADD SWAP1 POP DUP2 DUP2 SUB PUSH0 DUP4 ADD MSTORE PUSH2 0xADF DUP2 PUSH2 0xAA6 JUMP JUMPDEST SWAP1 POP SWAP2 SWAP1 POP JUMP JUMPDEST PUSH0 DUP2 SWAP1 POP SWAP3 SWAP2 POP POP JUMP JUMPDEST POP JUMP JUMPDEST PUSH0 PUSH2 0xAFE PUSH0 DUP4 PUSH2 0xAE6 JUMP JUMPDEST SWAP2 POP PUSH2 0xB09 DUP3 PUSH2 0xAF0 JUMP JUMPDEST PUSH0 DUP3 ADD SWAP1 POP SWAP2 SWAP1 POP JUMP JUMPDEST PUSH0 PUSH2 0xB1D DUP3 PUSH2 0xAF3 JUMP JUMPDEST SWAP2 POP DUP2 SWAP1 POP SWAP2 SWAP1 POP JUMP JUMPDEST PUSH32 0x5472616E7366657220676167616C000000000000000000000000000000000000 PUSH0 DUP3 ADD MSTORE POP JUMP JUMPDEST PUSH0 PUSH2 0xB5B PUSH1 0xE DUP4 PUSH2 0x980 JUMP JUMPDEST SWAP2 POP PUSH2 0xB66 DUP3 PUSH2 0xB27 JUMP JUMPDEST PUSH1 0x20 DUP3 ADD SWAP1 POP SWAP2 SWAP1 POP JUMP JUMPDEST PUSH0 PUSH1 0x20 DUP3 ADD SWAP1 POP DUP2 DUP2 SUB PUSH0 DUP4 ADD MSTORE PUSH2 0xB88 DUP2 PUSH2 0xB4F JUMP JUMPDEST SWAP1 POP SWAP2 SWAP1 POP JUMP JUMPDEST PUSH0 PUSH1 0x40 DUP3 ADD SWAP1 POP PUSH2 0xBA2 PUSH0 DUP4 ADD DUP6 PUSH2 0x864 JUMP JUMPDEST PUSH2 0xBAF PUSH1 0x20 DUP4 ADD DUP5 PUSH2 0x864 JUMP JUMPDEST SWAP4 SWAP3 POP POP POP JUMP JUMPDEST PUSH32 0x4861727573207374616B65206C65626968206461726920302045544800000000 PUSH0 DUP3 ADD MSTORE POP JUMP JUMPDEST PUSH0 PUSH2 0xBEA PUSH1 0x1C DUP4 PUSH2 0x980 JUMP JUMPDEST SWAP2 POP PUSH2 0xBF5 DUP3 PUSH2 0xBB6 JUMP JUMPDEST PUSH1 0x20 DUP3 ADD SWAP1 POP SWAP2 SWAP1 POP JUMP JUMPDEST PUSH0 PUSH1 0x20 DUP3 ADD SWAP1 POP DUP2 DUP2 SUB PUSH0 DUP4 ADD MSTORE PUSH2 0xC17 DUP2 PUSH2 0xBDE JUMP JUMPDEST SWAP1 POP SWAP2 SWAP1 POP JUMP JUMPDEST PUSH32 0x537564616820616461207374616B6520616B7469660000000000000000000000 PUSH0 DUP3 ADD MSTORE POP JUMP JUMPDEST PUSH0 PUSH2 0xC52 PUSH1 0x15 DUP4 PUSH2 0x980 JUMP JUMPDEST SWAP2 POP PUSH2 0xC5D DUP3 PUSH2 0xC1E JUMP JUMPDEST PUSH1 0x20 DUP3 ADD SWAP1 POP SWAP2 SWAP1 POP JUMP JUMPDEST PUSH0 PUSH1 0x20 DUP3 ADD SWAP1 POP DUP2 DUP2 SUB PUSH0 DUP4 ADD MSTORE PUSH2 0xC7F DUP2 PUSH2 0xC46 JUMP JUMPDEST SWAP1 POP SWAP2 SWAP1 POP JUMP JUMPDEST PUSH0 PUSH2 0xC90 DUP3 PUSH2 0x85B JUMP JUMPDEST SWAP2 POP PUSH2 0xC9B DUP4 PUSH2 0x85B JUMP JUMPDEST SWAP3 POP DUP3 DUP3 SUB SWAP1 POP DUP2 DUP2 GT ISZERO PUSH2 0xCB3 JUMPI PUSH2 0xCB2 PUSH2 0x9F8 JUMP JUMPDEST JUMPDEST SWAP3 SWAP2 POP POP JUMP JUMPDEST PUSH0 PUSH2 0xCC3 DUP3 PUSH2 0x85B JUMP JUMPDEST SWAP2 POP PUSH2 0xCCE DUP4 PUSH2 0x85B JUMP JUMPDEST SWAP3 POP DUP3 DUP3 MUL PUSH2 0xCDC DUP2 PUSH2 0x85B JUMP JUMPDEST SWAP2 POP DUP3 DUP3 DIV DUP5 EQ DUP4 ISZERO OR PUSH2 0xCF3 JUMPI PUSH2 0xCF2 PUSH2 0x9F8 JUMP JUMPDEST JUMPDEST POP SWAP3 SWAP2 POP POP JUMP INVALID LOG2 PUSH5 0x6970667358 0x22 SLT KECCAK256 PUSH13 0x54D4B91AC6208E67182849BF3A PUSH21 0xC83436641D376EE85540F2FF8EC81EAF6164736F6C PUSH4 0x43000822 STOP CALLER "
				},
				"gasEstimates": {
					"creation": {
						"codeDepositCost": "675200",
						"executionCost": "69182",
						"totalCost": "744382"
					},
					"external": {
						"calculateReward(address)": "infinite",
						"getStakeInfo(address)": "infinite",
						"minimumStakePeriod()": "2426",
						"owner()": "2529",
						"rewardRatePerSecond()": "2492",
						"stake()": "48364",
						"stakeTimestamp(address)": "2802",
						"stakedAmount(address)": "2890",
						"unstake()": "infinite"
					}
				},
				"methodIdentifiers": {
					"calculateReward(address)": "d82e3962",
					"getStakeInfo(address)": "c3453153",
					"minimumStakePeriod()": "046dfb20",
					"owner()": "8da5cb5b",
					"rewardRatePerSecond()": "5d773b2c",
					"stake()": "3a4b66f1",
					"stakeTimestamp(address)": "70259077",
					"stakedAmount(address)": "f9931855",
					"unstake()": "2def6620"
				}
			},
			"storageLayout": {
				"storage": [
					{
						"astId": 3,
						"contract": "contracts/StackingContract.sol:StakingContract",
						"label": "owner",
						"offset": 0,
						"slot": "0",
						"type": "t_address"
					},
					{
						"astId": 7,
						"contract": "contracts/StackingContract.sol:StakingContract",
						"label": "stakedAmount",
						"offset": 0,
						"slot": "1",
						"type": "t_mapping(t_address,t_uint256)"
					},
					{
						"astId": 11,
						"contract": "contracts/StackingContract.sol:StakingContract",
						"label": "stakeTimestamp",
						"offset": 0,
						"slot": "2",
						"type": "t_mapping(t_address,t_uint256)"
					},
					{
						"astId": 14,
						"contract": "contracts/StackingContract.sol:StakingContract",
						"label": "rewardRatePerSecond",
						"offset": 0,
						"slot": "3",
						"type": "t_uint256"
					},
					{
						"astId": 17,
						"contract": "contracts/StackingContract.sol:StakingContract",
						"label": "minimumStakePeriod",
						"offset": 0,
						"slot": "4",
						"type": "t_uint256"
					}
				],
				"types": {
					"t_address": {
						"encoding": "inplace",
						"label": "address",
						"numberOfBytes": "20"
					},
					"t_mapping(t_address,t_uint256)": {
						"encoding": "mapping",
						"key": "t_address",
						"label": "mapping(address => uint256)",
						"numberOfBytes": "32",
						"value": "t_uint256"
					},
					"t_uint256": {
						"encoding": "inplace",
						"label": "uint256",
						"numberOfBytes": "32"
					}
				}
			},
			"userdoc": {
				"kind": "user",
				"methods": {},
				"version": 1
			}
		}
	}
}