{
	"contracts/SimpleBank.sol": {
		"SimpleBank": {
			"abi": [
				{
					"inputs": [],
					"stateMutability": "nonpayable",
					"type": "constructor"
				},
				{
					"anonymous": false,
					"inputs": [
						{
							"indexed": true,
							"internalType": "address",
							"name": "user",
							"type": "address"
						},
						{
							"indexed": false,
							"internalType": "uint256",
							"name": "amount",
							"type": "uint256"
						}
					],
					"name": "Deposit",
					"type": "event"
				},
				{
					"anonymous": false,
					"inputs": [
						{
							"indexed": true,
							"internalType": "address",
							"name": "user",
							"type": "address"
						},
						{
							"indexed": false,
							"internalType": "uint256",
							"name": "amount",
							"type": "uint256"
						}
					],
					"name": "Withdraw",
					"type": "event"
				},
				{
					"inputs": [],
					"name": "deposit",
					"outputs": [],
					"stateMutability": "payable",
					"type": "function"
				},
				{
					"inputs": [],
					"name": "getBalance",
					"outputs": [
						{
							"internalType": "uint256",
							"name": "",
							"type": "uint256"
						}
					],
					"stateMutability": "view",
					"type": "function"
				},
				{
					"inputs": [],
					"name": "getContractBalance",
					"outputs": [
						{
							"internalType": "uint256",
							"name": "",
							"type": "uint256"
						}
					],
					"stateMutability": "view",
					"type": "function"
				},
				{
					"inputs": [],
					"name": "owner",
					"outputs": [
						{
							"internalType": "address",
							"name": "",
							"type": "address"
						}
					],
					"stateMutability": "view",
					"type": "function"
				},
				{
					"inputs": [
						{
							"internalType": "uint256",
							"name": "amount",
							"type": "uint256"
						}
					],
					"name": "withdraw",
					"outputs": [],
					"stateMutability": "nonpayable",
					"type": "function"
				}
			],
			"devdoc": {
				"kind": "dev",
				"methods": {},
				"version": 1
			},
			"evm": {
				"assembly": "    /* \"contracts/SimpleBank.sol\":60:1474  contract SimpleBank {... */\n  mstore(0x40, 0x80)\n    /* \"contracts/SimpleBank.sol\":394:445  constructor() {... */\n  callvalue\n  dup1\n  iszero\n  tag_1\n  jumpi\n  revert(0x00, 0x00)\ntag_1:\n  pop\n    /* \"contracts/SimpleBank.sol\":427:437  msg.sender */\n  caller\n    /* \"contracts/SimpleBank.sol\":419:424  owner */\n  0x01\n  0x00\n    /* \"contracts/SimpleBank.sol\":419:437  owner = msg.sender */\n  0x0100\n  exp\n  dup2\n  sload\n  dup2\n  0xffffffffffffffffffffffffffffffffffffffff\n  mul\n  not\n  and\n  swap1\n  dup4\n  0xffffffffffffffffffffffffffffffffffffffff\n  and\n  mul\n  or\n  swap1\n  sstore\n  pop\n    /* \"contracts/SimpleBank.sol\":60:1474  contract SimpleBank {... */\n  dataSize(sub_0)\n  dup1\n  dataOffset(sub_0)\n  0x00\n  codecopy\n  0x00\n  return\nstop\n\nsub_0: assembly {\n        /* \"contracts/SimpleBank.sol\":60:1474  contract SimpleBank {... */\n      mstore(0x40, 0x80)\n      jumpi(tag_1, lt(calldatasize, 0x04))\n      shr(0xe0, calldataload(0x00))\n      dup1\n      0x12065fe0\n      eq\n      tag_2\n      jumpi\n      dup1\n      0x2e1a7d4d\n      eq\n      tag_3\n      jumpi\n      dup1\n      0x6f9fb98a\n      eq\n      tag_4\n      jumpi\n      dup1\n      0x8da5cb5b\n      eq\n      tag_5\n      jumpi\n      dup1\n      0xd0e30db0\n      eq\n      tag_6\n      jumpi\n    tag_1:\n      revert(0x00, 0x00)\n        /* \"contracts/SimpleBank.sol\":1021:1119  function getBalance() public view returns (uint256) {... */\n    tag_2:\n      callvalue\n      dup1\n      iszero\n      tag_7\n      jumpi\n      revert(0x00, 0x00)\n    tag_7:\n      pop\n      tag_8\n      tag_9\n      jump\t// in\n    tag_8:\n      mload(0x40)\n      tag_10\n      swap2\n      swap1\n      tag_11\n      jump\t// in\n    tag_10:\n      mload(0x40)\n      dup1\n      swap2\n      sub\n      swap1\n      return\n        /* \"contracts/SimpleBank.sol\":1148:1471  function withdraw(uint256 amount) public {... */\n    tag_3:\n      callvalue\n      dup1\n      iszero\n      tag_12\n      jumpi\n      revert(0x00, 0x00)\n    tag_12:\n      pop\n      tag_13\n      0x04\n      dup1\n      calldatasize\n      sub\n      dup2\n      add\n      swap1\n      tag_14\n      swap2\n      swap1\n      tag_15\n      jump\t// in\n    tag_14:\n      tag_16\n      jump\t// in\n    tag_13:\n      stop\n        /* \"contracts/SimpleBank.sol\":633:750  function getContractBalance() public view onlyOwner returns (uint256) {... */\n    tag_4:\n      callvalue\n      dup1\n      iszero\n      tag_17\n      jumpi\n      revert(0x00, 0x00)\n    tag_17:\n      pop\n      tag_18\n      tag_19\n      jump\t// in\n    tag_18:\n      mload(0x40)\n      tag_20\n      swap2\n      swap1\n      tag_11\n      jump\t// in\n    tag_20:\n      mload(0x40)\n      dup1\n      swap2\n      sub\n      swap1\n      return\n        /* \"contracts/SimpleBank.sol\":212:232  address public owner */\n    tag_5:\n      callvalue\n      dup1\n      iszero\n      tag_21\n      jumpi\n      revert(0x00, 0x00)\n    tag_21:\n      pop\n      tag_22\n      tag_23\n      jump\t// in\n    tag_22:\n      mload(0x40)\n      tag_24\n      swap2\n      swap1\n      tag_25\n      jump\t// in\n    tag_24:\n      mload(0x40)\n      dup1\n      swap2\n      sub\n      swap1\n      return\n        /* \"contracts/SimpleBank.sol\":790:985  function deposit() public payable {... */\n    tag_6:\n      tag_26\n      tag_27\n      jump\t// in\n    tag_26:\n      stop\n        /* \"contracts/SimpleBank.sol\":1021:1119  function getBalance() public view returns (uint256) {... */\n    tag_9:\n        /* \"contracts/SimpleBank.sol\":1064:1071  uint256 */\n      0x00\n        /* \"contracts/SimpleBank.sol\":1091:1099  balances */\n      0x00\n        /* \"contracts/SimpleBank.sol\":1091:1111  balances[msg.sender] */\n      0x00\n        /* \"contracts/SimpleBank.sol\":1100:1110  msg.sender */\n      caller\n        /* \"contracts/SimpleBank.sol\":1091:1111  balances[msg.sender] */\n      0xffffffffffffffffffffffffffffffffffffffff\n      and\n      0xffffffffffffffffffffffffffffffffffffffff\n      and\n      dup2\n      mstore\n      0x20\n      add\n      swap1\n      dup2\n      mstore\n      0x20\n      add\n      0x00\n      keccak256\n      sload\n        /* \"contracts/SimpleBank.sol\":1084:1111  return balances[msg.sender] */\n      swap1\n      pop\n        /* \"contracts/SimpleBank.sol\":1021:1119  function getBalance() public view returns (uint256) {... */\n      swap1\n      jump\t// out\n        /* \"contracts/SimpleBank.sol\":1148:1471  function withdraw(uint256 amount) public {... */\n    tag_16:\n        /* \"contracts/SimpleBank.sol\":1232:1238  amount */\n      dup1\n        /* \"contracts/SimpleBank.sol\":1208:1216  balances */\n      0x00\n        /* \"contracts/SimpleBank.sol\":1208:1228  balances[msg.sender] */\n      0x00\n        /* \"contracts/SimpleBank.sol\":1217:1227  msg.sender */\n      caller\n        /* \"contracts/SimpleBank.sol\":1208:1228  balances[msg.sender] */\n      0xffffffffffffffffffffffffffffffffffffffff\n      and\n      0xffffffffffffffffffffffffffffffffffffffff\n      and\n      dup2\n      mstore\n      0x20\n      add\n      swap1\n      dup2\n      mstore\n      0x20\n      add\n      0x00\n      keccak256\n      sload\n        /* \"contracts/SimpleBank.sol\":1208:1238  balances[msg.sender] >= amount */\n      lt\n      iszero\n        /* \"contracts/SimpleBank.sol\":1200:1260  require(balances[msg.sender] >= amount, \"Saldo tidak cukup\") */\n      tag_30\n      jumpi\n      mload(0x40)\n      0x08c379a000000000000000000000000000000000000000000000000000000000\n      dup2\n      mstore\n      0x04\n      add\n      tag_31\n      swap1\n      tag_32\n      jump\t// in\n    tag_31:\n      mload(0x40)\n      dup1\n      swap2\n      sub\n      swap1\n      revert\n    tag_30:\n        /* \"contracts/SimpleBank.sol\":1295:1301  amount */\n      dup1\n        /* \"contracts/SimpleBank.sol\":1271:1279  balances */\n      0x00\n        /* \"contracts/SimpleBank.sol\":1271:1291  balances[msg.sender] */\n      0x00\n        /* \"contracts/SimpleBank.sol\":1280:1290  msg.sender */\n      caller\n        /* \"contracts/SimpleBank.sol\":1271:1291  balances[msg.sender] */\n      0xffffffffffffffffffffffffffffffffffffffff\n      and\n      0xffffffffffffffffffffffffffffffffffffffff\n      and\n      dup2\n      mstore\n      0x20\n      add\n      swap1\n      dup2\n      mstore\n      0x20\n      add\n      0x00\n      keccak256\n      0x00\n        /* \"contracts/SimpleBank.sol\":1271:1301  balances[msg.sender] -= amount */\n      dup3\n      dup3\n      sload\n      tag_33\n      swap2\n      swap1\n      tag_34\n      jump\t// in\n    tag_33:\n      swap3\n      pop\n      pop\n      dup2\n      swap1\n      sstore\n      pop\n        /* \"contracts/SimpleBank.sol\":1313:1325  bool success */\n      0x00\n        /* \"contracts/SimpleBank.sol\":1339:1349  msg.sender */\n      caller\n        /* \"contracts/SimpleBank.sol\":1331:1355  payable(msg.sender).call */\n      0xffffffffffffffffffffffffffffffffffffffff\n      and\n        /* \"contracts/SimpleBank.sol\":1363:1369  amount */\n      dup3\n        /* \"contracts/SimpleBank.sol\":1331:1374  payable(msg.sender).call{value: amount}(\"\") */\n      mload(0x40)\n      tag_35\n      swap1\n      tag_36\n      jump\t// in\n    tag_35:\n      0x00\n      mload(0x40)\n      dup1\n      dup4\n      sub\n      dup2\n      dup6\n      dup8\n      gas\n      call\n      swap3\n      pop\n      pop\n      pop\n      returndatasize\n      dup1\n      0x00\n      dup2\n      eq\n      tag_39\n      jumpi\n      mload(0x40)\n      swap2\n      pop\n      and(add(returndatasize, 0x3f), not(0x1f))\n      dup3\n      add\n      0x40\n      mstore\n      returndatasize\n      dup3\n      mstore\n      returndatasize\n      0x00\n      0x20\n      dup5\n      add\n      returndatacopy\n      jump(tag_38)\n    tag_39:\n      0x60\n      swap2\n      pop\n    tag_38:\n      pop\n        /* \"contracts/SimpleBank.sol\":1312:1374  (bool success, ) = payable(msg.sender).call{value: amount}(\"\") */\n      pop\n      swap1\n      pop\n        /* \"contracts/SimpleBank.sol\":1393:1400  success */\n      dup1\n        /* \"contracts/SimpleBank.sol\":1385:1419  require(success, \"Transfer gagal\") */\n      tag_40\n      jumpi\n      mload(0x40)\n      0x08c379a000000000000000000000000000000000000000000000000000000000\n      dup2\n      mstore\n      0x04\n      add\n      tag_41\n      swap1\n      tag_42\n      jump\t// in\n    tag_41:\n      mload(0x40)\n      dup1\n      swap2\n      sub\n      swap1\n      revert\n    tag_40:\n        /* \"contracts/SimpleBank.sol\":1444:1454  msg.sender */\n      caller\n        /* \"contracts/SimpleBank.sol\":1435:1463  Withdraw(msg.sender, amount) */\n      0xffffffffffffffffffffffffffffffffffffffff\n      and\n      0x884edad9ce6fa2440d8a54cc123490eb96d2768479d49ff9c7366125a9424364\n        /* \"contracts/SimpleBank.sol\":1456:1462  amount */\n      dup4\n        /* \"contracts/SimpleBank.sol\":1435:1463  Withdraw(msg.sender, amount) */\n      mload(0x40)\n      tag_43\n      swap2\n      swap1\n      tag_11\n      jump\t// in\n    tag_43:\n      mload(0x40)\n      dup1\n      swap2\n      sub\n      swap1\n      log2\n        /* \"contracts/SimpleBank.sol\":1189:1471  {... */\n      pop\n        /* \"contracts/SimpleBank.sol\":1148:1471  function withdraw(uint256 amount) public {... */\n      pop\n      jump\t// out\n        /* \"contracts/SimpleBank.sol\":633:750  function getContractBalance() public view onlyOwner returns (uint256) {... */\n    tag_19:\n        /* \"contracts/SimpleBank.sol\":694:701  uint256 */\n      0x00\n        /* \"contracts/SimpleBank.sol\":524:529  owner */\n      0x01\n      0x00\n      swap1\n      sload\n      swap1\n      0x0100\n      exp\n      swap1\n      div\n      0xffffffffffffffffffffffffffffffffffffffff\n      and\n        /* \"contracts/SimpleBank.sol\":510:529  msg.sender == owner */\n      0xffffffffffffffffffffffffffffffffffffffff\n      and\n        /* \"contracts/SimpleBank.sol\":510:520  msg.sender */\n      caller\n        /* \"contracts/SimpleBank.sol\":510:529  msg.sender == owner */\n      0xffffffffffffffffffffffffffffffffffffffff\n      and\n      eq\n        /* \"contracts/SimpleBank.sol\":502:546  require(msg.sender == owner, \"Bukan owner!\") */\n      tag_45\n      jumpi\n      mload(0x40)\n      0x08c379a000000000000000000000000000000000000000000000000000000000\n      dup2\n      mstore\n      0x04\n      add\n      tag_46\n      swap1\n      tag_47\n      jump\t// in\n    tag_46:\n      mload(0x40)\n      dup1\n      swap2\n      sub\n      swap1\n      revert\n    tag_45:\n        /* \"contracts/SimpleBank.sol\":721:742  address(this).balance */\n      selfbalance\n        /* \"contracts/SimpleBank.sol\":714:742  return address(this).balance */\n      swap1\n      pop\n        /* \"contracts/SimpleBank.sol\":633:750  function getContractBalance() public view onlyOwner returns (uint256) {... */\n      swap1\n      jump\t// out\n        /* \"contracts/SimpleBank.sol\":212:232  address public owner */\n    tag_23:\n      0x01\n      0x00\n      swap1\n      sload\n      swap1\n      0x0100\n      exp\n      swap1\n      div\n      0xffffffffffffffffffffffffffffffffffffffff\n      and\n      dup2\n      jump\t// out\n        /* \"contracts/SimpleBank.sol\":790:985  function deposit() public payable {... */\n    tag_27:\n        /* \"contracts/SimpleBank.sol\":855:856  0 */\n      0x00\n        /* \"contracts/SimpleBank.sol\":843:852  msg.value */\n      callvalue\n        /* \"contracts/SimpleBank.sol\":843:856  msg.value > 0 */\n      gt\n        /* \"contracts/SimpleBank.sol\":835:887  require(msg.value > 0, \"Harus deposit lebih dari 0\") */\n      tag_50\n      jumpi\n      mload(0x40)\n      0x08c379a000000000000000000000000000000000000000000000000000000000\n      dup2\n      mstore\n      0x04\n      add\n      tag_51\n      swap1\n      tag_52\n      jump\t// in\n    tag_51:\n      mload(0x40)\n      dup1\n      swap2\n      sub\n      swap1\n      revert\n    tag_50:\n        /* \"contracts/SimpleBank.sol\":922:931  msg.value */\n      callvalue\n        /* \"contracts/SimpleBank.sol\":898:906  balances */\n      0x00\n        /* \"contracts/SimpleBank.sol\":898:918  balances[msg.sender] */\n      0x00\n        /* \"contracts/SimpleBank.sol\":907:917  msg.sender */\n      caller\n        /* \"contracts/SimpleBank.sol\":898:918  balances[msg.sender] */\n      0xffffffffffffffffffffffffffffffffffffffff\n      and\n      0xffffffffffffffffffffffffffffffffffffffff\n      and\n      dup2\n      mstore\n      0x20\n      add\n      swap1\n      dup2\n      mstore\n      0x20\n      add\n      0x00\n      keccak256\n      0x00\n        /* \"contracts/SimpleBank.sol\":898:931  balances[msg.sender] += msg.value */\n      dup3\n      dup3\n      sload\n      tag_53\n      swap2\n      swap1\n      tag_54\n      jump\t// in\n    tag_53:\n      swap3\n      pop\n      pop\n      dup2\n      swap1\n      sstore\n      pop\n        /* \"contracts/SimpleBank.sol\":955:965  msg.sender */\n      caller\n        /* \"contracts/SimpleBank.sol\":947:977  Deposit(msg.sender, msg.value) */\n      0xffffffffffffffffffffffffffffffffffffffff\n      and\n      0xe1fffcc4923d04b559f4d29a8bfc6cda04eb5b0d3c460751c2402c5c5cc9109c\n        /* \"contracts/SimpleBank.sol\":967:976  msg.value */\n      callvalue\n        /* \"contracts/SimpleBank.sol\":947:977  Deposit(msg.sender, msg.value) */\n      mload(0x40)\n      tag_55\n      swap2\n      swap1\n      tag_11\n      jump\t// in\n    tag_55:\n      mload(0x40)\n      dup1\n      swap2\n      sub\n      swap1\n      log2\n        /* \"contracts/SimpleBank.sol\":790:985  function deposit() public payable {... */\n      jump\t// out\n        /* \"#utility.yul\":7:84   */\n    tag_56:\n        /* \"#utility.yul\":44:51   */\n      0x00\n        /* \"#utility.yul\":73:78   */\n      dup2\n        /* \"#utility.yul\":62:78   */\n      swap1\n      pop\n        /* \"#utility.yul\":7:84   */\n      swap2\n      swap1\n      pop\n      jump\t// out\n        /* \"#utility.yul\":90:208   */\n    tag_57:\n        /* \"#utility.yul\":177:201   */\n      tag_82\n        /* \"#utility.yul\":195:200   */\n      dup2\n        /* \"#utility.yul\":177:201   */\n      tag_56\n      jump\t// in\n    tag_82:\n        /* \"#utility.yul\":172:175   */\n      dup3\n        /* \"#utility.yul\":165:202   */\n      mstore\n        /* \"#utility.yul\":90:208   */\n      pop\n      pop\n      jump\t// out\n        /* \"#utility.yul\":214:436   */\n    tag_11:\n        /* \"#utility.yul\":307:311   */\n      0x00\n        /* \"#utility.yul\":345:347   */\n      0x20\n        /* \"#utility.yul\":334:343   */\n      dup3\n        /* \"#utility.yul\":330:348   */\n      add\n        /* \"#utility.yul\":322:348   */\n      swap1\n      pop\n        /* \"#utility.yul\":358:429   */\n      tag_84\n        /* \"#utility.yul\":426:427   */\n      0x00\n        /* \"#utility.yul\":415:424   */\n      dup4\n        /* \"#utility.yul\":411:428   */\n      add\n        /* \"#utility.yul\":402:408   */\n      dup5\n        /* \"#utility.yul\":358:429   */\n      tag_57\n      jump\t// in\n    tag_84:\n        /* \"#utility.yul\":214:436   */\n      swap3\n      swap2\n      pop\n      pop\n      jump\t// out\n        /* \"#utility.yul\":523:640   */\n    tag_59:\n        /* \"#utility.yul\":632:633   */\n      0x00\n        /* \"#utility.yul\":629:630   */\n      0x00\n        /* \"#utility.yul\":622:634   */\n      revert\n        /* \"#utility.yul\":769:891   */\n    tag_61:\n        /* \"#utility.yul\":842:866   */\n      tag_89\n        /* \"#utility.yul\":860:865   */\n      dup2\n        /* \"#utility.yul\":842:866   */\n      tag_56\n      jump\t// in\n    tag_89:\n        /* \"#utility.yul\":835:840   */\n      dup2\n        /* \"#utility.yul\":832:867   */\n      eq\n        /* \"#utility.yul\":822:885   */\n      tag_90\n      jumpi\n        /* \"#utility.yul\":881:882   */\n      0x00\n        /* \"#utility.yul\":878:879   */\n      0x00\n        /* \"#utility.yul\":871:883   */\n      revert\n        /* \"#utility.yul\":822:885   */\n    tag_90:\n        /* \"#utility.yul\":769:891   */\n      pop\n      jump\t// out\n        /* \"#utility.yul\":897:1036   */\n    tag_62:\n        /* \"#utility.yul\":943:948   */\n      0x00\n        /* \"#utility.yul\":981:987   */\n      dup2\n        /* \"#utility.yul\":968:988   */\n      calldataload\n        /* \"#utility.yul\":959:988   */\n      swap1\n      pop\n        /* \"#utility.yul\":997:1030   */\n      tag_92\n        /* \"#utility.yul\":1024:1029   */\n      dup2\n        /* \"#utility.yul\":997:1030   */\n      tag_61\n      jump\t// in\n    tag_92:\n        /* \"#utility.yul\":897:1036   */\n      swap3\n      swap2\n      pop\n      pop\n      jump\t// out\n        /* \"#utility.yul\":1042:1371   */\n    tag_15:\n        /* \"#utility.yul\":1101:1107   */\n      0x00\n        /* \"#utility.yul\":1150:1152   */\n      0x20\n        /* \"#utility.yul\":1138:1147   */\n      dup3\n        /* \"#utility.yul\":1129:1136   */\n      dup5\n        /* \"#utility.yul\":1125:1148   */\n      sub\n        /* \"#utility.yul\":1121:1153   */\n      slt\n        /* \"#utility.yul\":1118:1237   */\n      iszero\n      tag_94\n      jumpi\n        /* \"#utility.yul\":1156:1235   */\n      tag_95\n      tag_59\n      jump\t// in\n    tag_95:\n        /* \"#utility.yul\":1118:1237   */\n    tag_94:\n        /* \"#utility.yul\":1276:1277   */\n      0x00\n        /* \"#utility.yul\":1301:1354   */\n      tag_96\n        /* \"#utility.yul\":1346:1353   */\n      dup5\n        /* \"#utility.yul\":1337:1343   */\n      dup3\n        /* \"#utility.yul\":1326:1335   */\n      dup6\n        /* \"#utility.yul\":1322:1344   */\n      add\n        /* \"#utility.yul\":1301:1354   */\n      tag_62\n      jump\t// in\n    tag_96:\n        /* \"#utility.yul\":1291:1354   */\n      swap2\n      pop\n        /* \"#utility.yul\":1247:1364   */\n      pop\n        /* \"#utility.yul\":1042:1371   */\n      swap3\n      swap2\n      pop\n      pop\n      jump\t// out\n        /* \"#utility.yul\":1377:1503   */\n    tag_63:\n        /* \"#utility.yul\":1414:1421   */\n      0x00\n        /* \"#utility.yul\":1454:1496   */\n      0xffffffffffffffffffffffffffffffffffffffff\n        /* \"#utility.yul\":1447:1452   */\n      dup3\n        /* \"#utility.yul\":1443:1497   */\n      and\n        /* \"#utility.yul\":1432:1497   */\n      swap1\n      pop\n        /* \"#utility.yul\":1377:1503   */\n      swap2\n      swap1\n      pop\n      jump\t// out\n        /* \"#utility.yul\":1509:1605   */\n    tag_64:\n        /* \"#utility.yul\":1546:1553   */\n      0x00\n        /* \"#utility.yul\":1575:1599   */\n      tag_99\n        /* \"#utility.yul\":1593:1598   */\n      dup3\n        /* \"#utility.yul\":1575:1599   */\n      tag_63\n      jump\t// in\n    tag_99:\n        /* \"#utility.yul\":1564:1599   */\n      swap1\n      pop\n        /* \"#utility.yul\":1509:1605   */\n      swap2\n      swap1\n      pop\n      jump\t// out\n        /* \"#utility.yul\":1611:1729   */\n    tag_65:\n        /* \"#utility.yul\":1698:1722   */\n      tag_101\n        /* \"#utility.yul\":1716:1721   */\n      dup2\n        /* \"#utility.yul\":1698:1722   */\n      tag_64\n      jump\t// in\n    tag_101:\n        /* \"#utility.yul\":1693:1696   */\n      dup3\n        /* \"#utility.yul\":1686:1723   */\n      mstore\n        /* \"#utility.yul\":1611:1729   */\n      pop\n      pop\n      jump\t// out\n        /* \"#utility.yul\":1735:1957   */\n    tag_25:\n        /* \"#utility.yul\":1828:1832   */\n      0x00\n        /* \"#utility.yul\":1866:1868   */\n      0x20\n        /* \"#utility.yul\":1855:1864   */\n      dup3\n        /* \"#utility.yul\":1851:1869   */\n      add\n        /* \"#utility.yul\":1843:1869   */\n      swap1\n      pop\n        /* \"#utility.yul\":1879:1950   */\n      tag_103\n        /* \"#utility.yul\":1947:1948   */\n      0x00\n        /* \"#utility.yul\":1936:1945   */\n      dup4\n        /* \"#utility.yul\":1932:1949   */\n      add\n        /* \"#utility.yul\":1923:1929   */\n      dup5\n        /* \"#utility.yul\":1879:1950   */\n      tag_65\n      jump\t// in\n    tag_103:\n        /* \"#utility.yul\":1735:1957   */\n      swap3\n      swap2\n      pop\n      pop\n      jump\t// out\n        /* \"#utility.yul\":1963:2132   */\n    tag_66:\n        /* \"#utility.yul\":2047:2058   */\n      0x00\n        /* \"#utility.yul\":2081:2087   */\n      dup3\n        /* \"#utility.yul\":2076:2079   */\n      dup3\n        /* \"#utility.yul\":2069:2088   */\n      mstore\n        /* \"#utility.yul\":2121:2125   */\n      0x20\n        /* \"#utility.yul\":2116:2119   */\n      dup3\n        /* \"#utility.yul\":2112:2126   */\n      add\n        /* \"#utility.yul\":2097:2126   */\n      swap1\n      pop\n        /* \"#utility.yul\":1963:2132   */\n      swap3\n      swap2\n      pop\n      pop\n      jump\t// out\n        /* \"#utility.yul\":2138:2305   */\n    tag_67:\n        /* \"#utility.yul\":2278:2297   */\n      0x53616c646f20746964616b2063756b7570000000000000000000000000000000\n        /* \"#utility.yul\":2274:2275   */\n      0x00\n        /* \"#utility.yul\":2266:2272   */\n      dup3\n        /* \"#utility.yul\":2262:2276   */\n      add\n        /* \"#utility.yul\":2255:2298   */\n      mstore\n        /* \"#utility.yul\":2138:2305   */\n      pop\n      jump\t// out\n        /* \"#utility.yul\":2311:2677   */\n    tag_68:\n        /* \"#utility.yul\":2453:2456   */\n      0x00\n        /* \"#utility.yul\":2474:2541   */\n      tag_107\n        /* \"#utility.yul\":2538:2540   */\n      0x11\n        /* \"#utility.yul\":2533:2536   */\n      dup4\n        /* \"#utility.yul\":2474:2541   */\n      tag_66\n      jump\t// in\n    tag_107:\n        /* \"#utility.yul\":2467:2541   */\n      swap2\n      pop\n        /* \"#utility.yul\":2550:2643   */\n      tag_108\n        /* \"#utility.yul\":2639:2642   */\n      dup3\n        /* \"#utility.yul\":2550:2643   */\n      tag_67\n      jump\t// in\n    tag_108:\n        /* \"#utility.yul\":2668:2670   */\n      0x20\n        /* \"#utility.yul\":2663:2666   */\n      dup3\n        /* \"#utility.yul\":2659:2671   */\n      add\n        /* \"#utility.yul\":2652:2671   */\n      swap1\n      pop\n        /* \"#utility.yul\":2311:2677   */\n      swap2\n      swap1\n      pop\n      jump\t// out\n        /* \"#utility.yul\":2683:3102   */\n    tag_32:\n        /* \"#utility.yul\":2849:2853   */\n      0x00\n        /* \"#utility.yul\":2887:2889   */\n      0x20\n        /* \"#utility.yul\":2876:2885   */\n      dup3\n        /* \"#utility.yul\":2872:2890   */\n      add\n        /* \"#utility.yul\":2864:2890   */\n      swap1\n      pop\n        /* \"#utility.yul\":2936:2945   */\n      dup2\n        /* \"#utility.yul\":2930:2934   */\n      dup2\n        /* \"#utility.yul\":2926:2946   */\n      sub\n        /* \"#utility.yul\":2922:2923   */\n      0x00\n        /* \"#utility.yul\":2911:2920   */\n      dup4\n        /* \"#utility.yul\":2907:2924   */\n      add\n        /* \"#utility.yul\":2900:2947   */\n      mstore\n        /* \"#utility.yul\":2964:3095   */\n      tag_110\n        /* \"#utility.yul\":3090:3094   */\n      dup2\n        /* \"#utility.yul\":2964:3095   */\n      tag_68\n      jump\t// in\n    tag_110:\n        /* \"#utility.yul\":2956:3095   */\n      swap1\n      pop\n        /* \"#utility.yul\":2683:3102   */\n      swap2\n      swap1\n      pop\n      jump\t// out\n        /* \"#utility.yul\":3108:3288   */\n    tag_69:\n        /* \"#utility.yul\":3156:3233   */\n      0x4e487b7100000000000000000000000000000000000000000000000000000000\n        /* \"#utility.yul\":3153:3154   */\n      0x00\n        /* \"#utility.yul\":3146:3234   */\n      mstore\n        /* \"#utility.yul\":3253:3257   */\n      0x11\n        /* \"#utility.yul\":3250:3251   */\n      0x04\n        /* \"#utility.yul\":3243:3258   */\n      mstore\n        /* \"#utility.yul\":3277:3281   */\n      0x24\n        /* \"#utility.yul\":3274:3275   */\n      0x00\n        /* \"#utility.yul\":3267:3282   */\n      revert\n        /* \"#utility.yul\":3294:3488   */\n    tag_34:\n        /* \"#utility.yul\":3334:3338   */\n      0x00\n        /* \"#utility.yul\":3354:3374   */\n      tag_113\n        /* \"#utility.yul\":3372:3373   */\n      dup3\n        /* \"#utility.yul\":3354:3374   */\n      tag_56\n      jump\t// in\n    tag_113:\n        /* \"#utility.yul\":3349:3374   */\n      swap2\n      pop\n        /* \"#utility.yul\":3388:3408   */\n      tag_114\n        /* \"#utility.yul\":3406:3407   */\n      dup4\n        /* \"#utility.yul\":3388:3408   */\n      tag_56\n      jump\t// in\n    tag_114:\n        /* \"#utility.yul\":3383:3408   */\n      swap3\n      pop\n        /* \"#utility.yul\":3432:3433   */\n      dup3\n        /* \"#utility.yul\":3429:3430   */\n      dup3\n        /* \"#utility.yul\":3425:3434   */\n      sub\n        /* \"#utility.yul\":3417:3434   */\n      swap1\n      pop\n        /* \"#utility.yul\":3456:3457   */\n      dup2\n        /* \"#utility.yul\":3450:3454   */\n      dup2\n        /* \"#utility.yul\":3447:3458   */\n      gt\n        /* \"#utility.yul\":3444:3481   */\n      iszero\n      tag_115\n      jumpi\n        /* \"#utility.yul\":3461:3479   */\n      tag_116\n      tag_69\n      jump\t// in\n    tag_116:\n        /* \"#utility.yul\":3444:3481   */\n    tag_115:\n        /* \"#utility.yul\":3294:3488   */\n      swap3\n      swap2\n      pop\n      pop\n      jump\t// out\n        /* \"#utility.yul\":3494:3641   */\n    tag_70:\n        /* \"#utility.yul\":3595:3606   */\n      0x00\n        /* \"#utility.yul\":3632:3635   */\n      dup2\n        /* \"#utility.yul\":3617:3635   */\n      swap1\n      pop\n        /* \"#utility.yul\":3494:3641   */\n      swap3\n      swap2\n      pop\n      pop\n      jump\t// out\n        /* \"#utility.yul\":3647:3761   */\n    tag_71:\n      pop\n      jump\t// out\n        /* \"#utility.yul\":3767:4165   */\n    tag_72:\n        /* \"#utility.yul\":3926:3929   */\n      0x00\n        /* \"#utility.yul\":3947:4030   */\n      tag_120\n        /* \"#utility.yul\":4028:4029   */\n      0x00\n        /* \"#utility.yul\":4023:4026   */\n      dup4\n        /* \"#utility.yul\":3947:4030   */\n      tag_70\n      jump\t// in\n    tag_120:\n        /* \"#utility.yul\":3940:4030   */\n      swap2\n      pop\n        /* \"#utility.yul\":4039:4132   */\n      tag_121\n        /* \"#utility.yul\":4128:4131   */\n      dup3\n        /* \"#utility.yul\":4039:4132   */\n      tag_71\n      jump\t// in\n    tag_121:\n        /* \"#utility.yul\":4157:4158   */\n      0x00\n        /* \"#utility.yul\":4152:4155   */\n      dup3\n        /* \"#utility.yul\":4148:4159   */\n      add\n        /* \"#utility.yul\":4141:4159   */\n      swap1\n      pop\n        /* \"#utility.yul\":3767:4165   */\n      swap2\n      swap1\n      pop\n      jump\t// out\n        /* \"#utility.yul\":4171:4550   */\n    tag_36:\n        /* \"#utility.yul\":4355:4358   */\n      0x00\n        /* \"#utility.yul\":4377:4524   */\n      tag_123\n        /* \"#utility.yul\":4520:4523   */\n      dup3\n        /* \"#utility.yul\":4377:4524   */\n      tag_72\n      jump\t// in\n    tag_123:\n        /* \"#utility.yul\":4370:4524   */\n      swap2\n      pop\n        /* \"#utility.yul\":4541:4544   */\n      dup2\n        /* \"#utility.yul\":4534:4544   */\n      swap1\n      pop\n        /* \"#utility.yul\":4171:4550   */\n      swap2\n      swap1\n      pop\n      jump\t// out\n        /* \"#utility.yul\":4556:4720   */\n    tag_73:\n        /* \"#utility.yul\":4696:4712   */\n      0x5472616e7366657220676167616c000000000000000000000000000000000000\n        /* \"#utility.yul\":4692:4693   */\n      0x00\n        /* \"#utility.yul\":4684:4690   */\n      dup3\n        /* \"#utility.yul\":4680:4694   */\n      add\n        /* \"#utility.yul\":4673:4713   */\n      mstore\n        /* \"#utility.yul\":4556:4720   */\n      pop\n      jump\t// out\n        /* \"#utility.yul\":4726:5092   */\n    tag_74:\n        /* \"#utility.yul\":4868:4871   */\n      0x00\n        /* \"#utility.yul\":4889:4956   */\n      tag_126\n        /* \"#utility.yul\":4953:4955   */\n      0x0e\n        /* \"#utility.yul\":4948:4951   */\n      dup4\n        /* \"#utility.yul\":4889:4956   */\n      tag_66\n      jump\t// in\n    tag_126:\n        /* \"#utility.yul\":4882:4956   */\n      swap2\n      pop\n        /* \"#utility.yul\":4965:5058   */\n      tag_127\n        /* \"#utility.yul\":5054:5057   */\n      dup3\n        /* \"#utility.yul\":4965:5058   */\n      tag_73\n      jump\t// in\n    tag_127:\n        /* \"#utility.yul\":5083:5085   */\n      0x20\n        /* \"#utility.yul\":5078:5081   */\n      dup3\n        /* \"#utility.yul\":5074:5086   */\n      add\n        /* \"#utility.yul\":5067:5086   */\n      swap1\n      pop\n        /* \"#utility.yul\":4726:5092   */\n      swap2\n      swap1\n      pop\n      jump\t// out\n        /* \"#utility.yul\":5098:5517   */\n    tag_42:\n        /* \"#utility.yul\":5264:5268   */\n      0x00\n        /* \"#utility.yul\":5302:5304   */\n      0x20\n        /* \"#utility.yul\":5291:5300   */\n      dup3\n        /* \"#utility.yul\":5287:5305   */\n      add\n        /* \"#utility.yul\":5279:5305   */\n      swap1\n      pop\n        /* \"#utility.yul\":5351:5360   */\n      dup2\n        /* \"#utility.yul\":5345:5349   */\n      dup2\n        /* \"#utility.yul\":5341:5361   */\n      sub\n        /* \"#utility.yul\":5337:5338   */\n      0x00\n        /* \"#utility.yul\":5326:5335   */\n      dup4\n        /* \"#utility.yul\":5322:5339   */\n      add\n        /* \"#utility.yul\":5315:5362   */\n      mstore\n        /* \"#utility.yul\":5379:5510   */\n      tag_129\n        /* \"#utility.yul\":5505:5509   */\n      dup2\n        /* \"#utility.yul\":5379:5510   */\n      tag_74\n      jump\t// in\n    tag_129:\n        /* \"#utility.yul\":5371:5510   */\n      swap1\n      pop\n        /* \"#utility.yul\":5098:5517   */\n      swap2\n      swap1\n      pop\n      jump\t// out\n        /* \"#utility.yul\":5523:5685   */\n    tag_75:\n        /* \"#utility.yul\":5663:5677   */\n      0x42756b616e206f776e6572210000000000000000000000000000000000000000\n        /* \"#utility.yul\":5659:5660   */\n      0x00\n        /* \"#utility.yul\":5651:5657   */\n      dup3\n        /* \"#utility.yul\":5647:5661   */\n      add\n        /* \"#utility.yul\":5640:5678   */\n      mstore\n        /* \"#utility.yul\":5523:5685   */\n      pop\n      jump\t// out\n        /* \"#utility.yul\":5691:6057   */\n    tag_76:\n        /* \"#utility.yul\":5833:5836   */\n      0x00\n        /* \"#utility.yul\":5854:5921   */\n      tag_132\n        /* \"#utility.yul\":5918:5920   */\n      0x0c\n        /* \"#utility.yul\":5913:5916   */\n      dup4\n        /* \"#utility.yul\":5854:5921   */\n      tag_66\n      jump\t// in\n    tag_132:\n        /* \"#utility.yul\":5847:5921   */\n      swap2\n      pop\n        /* \"#utility.yul\":5930:6023   */\n      tag_133\n        /* \"#utility.yul\":6019:6022   */\n      dup3\n        /* \"#utility.yul\":5930:6023   */\n      tag_75\n      jump\t// in\n    tag_133:\n        /* \"#utility.yul\":6048:6050   */\n      0x20\n        /* \"#utility.yul\":6043:6046   */\n      dup3\n        /* \"#utility.yul\":6039:6051   */\n      add\n        /* \"#utility.yul\":6032:6051   */\n      swap1\n      pop\n        /* \"#utility.yul\":5691:6057   */\n      swap2\n      swap1\n      pop\n      jump\t// out\n        /* \"#utility.yul\":6063:6482   */\n    tag_47:\n        /* \"#utility.yul\":6229:6233   */\n      0x00\n        /* \"#utility.yul\":6267:6269   */\n      0x20\n        /* \"#utility.yul\":6256:6265   */\n      dup3\n        /* \"#utility.yul\":6252:6270   */\n      add\n        /* \"#utility.yul\":6244:6270   */\n      swap1\n      pop\n        /* \"#utility.yul\":6316:6325   */\n      dup2\n        /* \"#utility.yul\":6310:6314   */\n      dup2\n        /* \"#utility.yul\":6306:6326   */\n      sub\n        /* \"#utility.yul\":6302:6303   */\n      0x00\n        /* \"#utility.yul\":6291:6300   */\n      dup4\n        /* \"#utility.yul\":6287:6304   */\n      add\n        /* \"#utility.yul\":6280:6327   */\n      mstore\n        /* \"#utility.yul\":6344:6475   */\n      tag_135\n        /* \"#utility.yul\":6470:6474   */\n      dup2\n        /* \"#utility.yul\":6344:6475   */\n      tag_76\n      jump\t// in\n    tag_135:\n        /* \"#utility.yul\":6336:6475   */\n      swap1\n      pop\n        /* \"#utility.yul\":6063:6482   */\n      swap2\n      swap1\n      pop\n      jump\t// out\n        /* \"#utility.yul\":6488:6664   */\n    tag_77:\n        /* \"#utility.yul\":6628:6656   */\n      0x4861727573206465706f736974206c6562696820646172692030000000000000\n        /* \"#utility.yul\":6624:6625   */\n      0x00\n        /* \"#utility.yul\":6616:6622   */\n      dup3\n        /* \"#utility.yul\":6612:6626   */\n      add\n        /* \"#utility.yul\":6605:6657   */\n      mstore\n        /* \"#utility.yul\":6488:6664   */\n      pop\n      jump\t// out\n        /* \"#utility.yul\":6670:7036   */\n    tag_78:\n        /* \"#utility.yul\":6812:6815   */\n      0x00\n        /* \"#utility.yul\":6833:6900   */\n      tag_138\n        /* \"#utility.yul\":6897:6899   */\n      0x1a\n        /* \"#utility.yul\":6892:6895   */\n      dup4\n        /* \"#utility.yul\":6833:6900   */\n      tag_66\n      jump\t// in\n    tag_138:\n        /* \"#utility.yul\":6826:6900   */\n      swap2\n      pop\n        /* \"#utility.yul\":6909:7002   */\n      tag_139\n        /* \"#utility.yul\":6998:7001   */\n      dup3\n        /* \"#utility.yul\":6909:7002   */\n      tag_77\n      jump\t// in\n    tag_139:\n        /* \"#utility.yul\":7027:7029   */\n      0x20\n        /* \"#utility.yul\":7022:7025   */\n      dup3\n        /* \"#utility.yul\":7018:7030   */\n      add\n        /* \"#utility.yul\":7011:7030   */\n      swap1\n      pop\n        /* \"#utility.yul\":6670:7036   */\n      swap2\n      swap1\n      pop\n      jump\t// out\n        /* \"#utility.yul\":7042:7461   */\n    tag_52:\n        /* \"#utility.yul\":7208:7212   */\n      0x00\n        /* \"#utility.yul\":7246:7248   */\n      0x20\n        /* \"#utility.yul\":7235:7244   */\n      dup3\n        /* \"#utility.yul\":7231:7249   */\n      add\n        /* \"#utility.yul\":7223:7249   */\n      swap1\n      pop\n        /* \"#utility.yul\":7295:7304   */\n      dup2\n        /* \"#utility.yul\":7289:7293   */\n      dup2\n        /* \"#utility.yul\":7285:7305   */\n      sub\n        /* \"#utility.yul\":7281:7282   */\n      0x00\n        /* \"#utility.yul\":7270:7279   */\n      dup4\n        /* \"#utility.yul\":7266:7283   */\n      add\n        /* \"#utility.yul\":7259:7306   */\n      mstore\n        /* \"#utility.yul\":7323:7454   */\n      tag_141\n        /* \"#utility.yul\":7449:7453   */\n      dup2\n        /* \"#utility.yul\":7323:7454   */\n      tag_78\n      jump\t// in\n    tag_141:\n        /* \"#utility.yul\":7315:7454   */\n      swap1\n      pop\n        /* \"#utility.yul\":7042:7461   */\n      swap2\n      swap1\n      pop\n      jump\t// out\n        /* \"#utility.yul\":7467:7658   */\n    tag_54:\n        /* \"#utility.yul\":7507:7510   */\n      0x00\n        /* \"#utility.yul\":7526:7546   */\n      tag_143\n        /* \"#utility.yul\":7544:7545   */\n      dup3\n        /* \"#utility.yul\":7526:7546   */\n      tag_56\n      jump\t// in\n    tag_143:\n        /* \"#utility.yul\":7521:7546   */\n      swap2\n      pop\n        /* \"#utility.yul\":7560:7580   */\n      tag_144\n        /* \"#utility.yul\":7578:7579   */\n      dup4\n        /* \"#utility.yul\":7560:7580   */\n      tag_56\n      jump\t// in\n    tag_144:\n        /* \"#utility.yul\":7555:7580   */\n      swap3\n      pop\n        /* \"#utility.yul\":7603:7604   */\n      dup3\n        /* \"#utility.yul\":7600:7601   */\n      dup3\n        /* \"#utility.yul\":7596:7605   */\n      add\n        /* \"#utility.yul\":7589:7605   */\n      swap1\n      pop\n        /* \"#utility.yul\":7624:7627   */\n      dup1\n        /* \"#utility.yul\":7621:7622   */\n      dup3\n        /* \"#utility.yul\":7618:7628   */\n      gt\n        /* \"#utility.yul\":7615:7651   */\n      iszero\n      tag_145\n      jumpi\n        /* \"#utility.yul\":7631:7649   */\n      tag_146\n      tag_69\n      jump\t// in\n    tag_146:\n        /* \"#utility.yul\":7615:7651   */\n    tag_145:\n        /* \"#utility.yul\":7467:7658   */\n      swap3\n      swap2\n      pop\n      pop\n      jump\t// out\n\n    auxdata: 0xa26469706673582212201cb364d52aa2edd9351505a389c05039a014d0c6c472d62775a6a8ecbff3482c64736f6c63430008220033\n}\n",
				"bytecode": {
					"linkReferences": {},
					"object": "6080604052348015600e575f5ffd5b503360015f6101000a81548173ffffffffffffffffffffffffffffffffffffffff021916908373ffffffffffffffffffffffffffffffffffffffff1602179055506108468061005c5f395ff3fe608060405260043610610049575f3560e01c806312065fe01461004d5780632e1a7d4d146100775780636f9fb98a1461009f5780638da5cb5b146100c9578063d0e30db0146100f3575b5f5ffd5b348015610058575f5ffd5b506100616100fd565b60405161006e91906104c2565b60405180910390f35b348015610082575f5ffd5b5061009d60048036038101906100989190610509565b610140565b005b3480156100aa575f5ffd5b506100b361030b565b6040516100c091906104c2565b60405180910390f35b3480156100d4575f5ffd5b506100dd6103a1565b6040516100ea9190610573565b60405180910390f35b6100fb6103c6565b005b5f5f5f3373ffffffffffffffffffffffffffffffffffffffff1673ffffffffffffffffffffffffffffffffffffffff1681526020019081526020015f2054905090565b805f5f3373ffffffffffffffffffffffffffffffffffffffff1673ffffffffffffffffffffffffffffffffffffffff1681526020019081526020015f205410156101bf576040517f08c379a00000000000000000000000000000000000000000000000000000000081526004016101b6906105e6565b60405180910390fd5b805f5f3373ffffffffffffffffffffffffffffffffffffffff1673ffffffffffffffffffffffffffffffffffffffff1681526020019081526020015f205f82825461020a9190610631565b925050819055505f3373ffffffffffffffffffffffffffffffffffffffff168260405161023690610691565b5f6040518083038185875af1925050503d805f8114610270576040519150601f19603f3d011682016040523d82523d5f602084013e610275565b606091505b50509050806102b9576040517f08c379a00000000000000000000000000000000000000000000000000000000081526004016102b0906106ef565b60405180910390fd5b3373ffffffffffffffffffffffffffffffffffffffff167f884edad9ce6fa2440d8a54cc123490eb96d2768479d49ff9c7366125a9424364836040516102ff91906104c2565b60405180910390a25050565b5f60015f9054906101000a900473ffffffffffffffffffffffffffffffffffffffff1673ffffffffffffffffffffffffffffffffffffffff163373ffffffffffffffffffffffffffffffffffffffff161461039b576040517f08c379a000000000000000000000000000000000000000000000000000000000815260040161039290610757565b60405180910390fd5b47905090565b60015f9054906101000a900473ffffffffffffffffffffffffffffffffffffffff1681565b5f3411610408576040517f08c379a00000000000000000000000000000000000000000000000000000000081526004016103ff906107bf565b60405180910390fd5b345f5f3373ffffffffffffffffffffffffffffffffffffffff1673ffffffffffffffffffffffffffffffffffffffff1681526020019081526020015f205f82825461045391906107dd565b925050819055503373ffffffffffffffffffffffffffffffffffffffff167fe1fffcc4923d04b559f4d29a8bfc6cda04eb5b0d3c460751c2402c5c5cc9109c346040516104a091906104c2565b60405180910390a2565b5f819050919050565b6104bc816104aa565b82525050565b5f6020820190506104d55f8301846104b3565b92915050565b5f5ffd5b6104e8816104aa565b81146104f2575f5ffd5b50565b5f81359050610503816104df565b92915050565b5f6020828403121561051e5761051d6104db565b5b5f61052b848285016104f5565b91505092915050565b5f73ffffffffffffffffffffffffffffffffffffffff82169050919050565b5f61055d82610534565b9050919050565b61056d81610553565b82525050565b5f6020820190506105865f830184610564565b92915050565b5f82825260208201905092915050565b7f53616c646f20746964616b2063756b75700000000000000000000000000000005f82015250565b5f6105d060118361058c565b91506105db8261059c565b602082019050919050565b5f6020820190508181035f8301526105fd816105c4565b9050919050565b7f4e487b71000000000000000000000000000000000000000000000000000000005f52601160045260245ffd5b5f61063b826104aa565b9150610646836104aa565b925082820390508181111561065e5761065d610604565b5b92915050565b5f81905092915050565b50565b5f61067c5f83610664565b91506106878261066e565b5f82019050919050565b5f61069b82610671565b9150819050919050565b7f5472616e7366657220676167616c0000000000000000000000000000000000005f82015250565b5f6106d9600e8361058c565b91506106e4826106a5565b602082019050919050565b5f6020820190508181035f830152610706816106cd565b9050919050565b7f42756b616e206f776e65722100000000000000000000000000000000000000005f82015250565b5f610741600c8361058c565b915061074c8261070d565b602082019050919050565b5f6020820190508181035f83015261076e81610735565b9050919050565b7f4861727573206465706f736974206c65626968206461726920300000000000005f82015250565b5f6107a9601a8361058c565b91506107b482610775565b602082019050919050565b5f6020820190508181035f8301526107d68161079d565b9050919050565b5f6107e7826104aa565b91506107f2836104aa565b925082820190508082111561080a57610809610604565b5b9291505056fea26469706673582212201cb364d52aa2edd9351505a389c05039a014d0c6c472d62775a6a8ecbff3482c64736f6c63430008220033",
					"opcodes": "PUSH1 0x80 PUSH1 0x40 MSTORE CALLVALUE DUP1 ISZERO PUSH1 0xE JUMPI PUSH0 PUSH0 REVERT JUMPDEST POP CALLER PUSH1 0x1 PUSH0 PUSH2 0x100 EXP DUP2 SLOAD DUP2 PUSH20 0xFFFFFFFFFFFFFFFFFFFFFFFFFFFFFFFFFFFFFFFF MUL NOT AND SWAP1 DUP4 PUSH20 0xFFFFFFFFFFFFFFFFFFFFFFFFFFFFFFFFFFFFFFFF AND MUL OR SWAP1 SSTORE POP PUSH2 0x846 DUP1 PUSH2 0x5C PUSH0 CODECOPY PUSH0 RETURN INVALID PUSH1 0x80 PUSH1 0x40 MSTORE PUSH1 0x4 CALLDATASIZE LT PUSH2 0x49 JUMPI PUSH0 CALLDATALOAD PUSH1 0xE0 SHR DUP1 PUSH4 0x12065FE0 EQ PUSH2 0x4D JUMPI DUP1 PUSH4 0x2E1A7D4D EQ PUSH2 0x77 JUMPI DUP1 PUSH4 0x6F9FB98A EQ PUSH2 0x9F JUMPI DUP1 PUSH4 0x8DA5CB5B EQ PUSH2 0xC9 JUMPI DUP1 PUSH4 0xD0E30DB0 EQ PUSH2 0xF3 JUMPI JUMPDEST PUSH0 PUSH0 REVERT JUMPDEST CALLVALUE DUP1 ISZERO PUSH2 0x58 JUMPI PUSH0 PUSH0 REVERT JUMPDEST POP PUSH2 0x61 PUSH2 0xFD JUMP JUMPDEST PUSH1 0x40 MLOAD PUSH2 0x6E SWAP2 SWAP1 PUSH2 0x4C2 JUMP JUMPDEST PUSH1 0x40 MLOAD DUP1 SWAP2 SUB SWAP1 RETURN JUMPDEST CALLVALUE DUP1 ISZERO PUSH2 0x82 JUMPI PUSH0 PUSH0 REVERT JUMPDEST POP PUSH2 0x9D PUSH1 0x4 DUP1 CALLDATASIZE SUB DUP2 ADD SWAP1 PUSH2 0x98 SWAP2 SWAP1 PUSH2 0x509 JUMP JUMPDEST PUSH2 0x140 JUMP JUMPDEST STOP JUMPDEST CALLVALUE DUP1 ISZERO PUSH2 0xAA JUMPI PUSH0 PUSH0 REVERT JUMPDEST POP PUSH2 0xB3 PUSH2 0x30B JUMP JUMPDEST PUSH1 0x40 MLOAD PUSH2 0xC0 SWAP2 SWAP1 PUSH2 0x4C2 JUMP JUMPDEST PUSH1 0x40 MLOAD DUP1 SWAP2 SUB SWAP1 RETURN JUMPDEST CALLVALUE DUP1 ISZERO PUSH2 0xD4 JUMPI PUSH0 PUSH0 REVERT JUMPDEST POP PUSH2 0xDD PUSH2 0x3A1 JUMP JUMPDEST PUSH1 0x40 MLOAD PUSH2 0xEA SWAP2 SWAP1 PUSH2 0x573 JUMP JUMPDEST PUSH1 0x40 MLOAD DUP1 SWAP2 SUB SWAP1 RETURN JUMPDEST PUSH2 0xFB PUSH2 0x3C6 JUMP JUMPDEST STOP JUMPDEST PUSH0 PUSH0 PUSH0 CALLER PUSH20 0xFFFFFFFFFFFFFFFFFFFFFFFFFFFFFFFFFFFFFFFF AND PUSH20 0xFFFFFFFFFFFFFFFFFFFFFFFFFFFFFFFFFFFFFFFF AND DUP2 MSTORE PUSH1 0x20 ADD SWAP1 DUP2 MSTORE PUSH1 0x20 ADD PUSH0 KECCAK256 SLOAD SWAP1 POP SWAP1 JUMP JUMPDEST DUP1 PUSH0 PUSH0 CALLER PUSH20 0xFFFFFFFFFFFFFFFFFFFFFFFFFFFFFFFFFFFFFFFF AND PUSH20 0xFFFFFFFFFFFFFFFFFFFFFFFFFFFFFFFFFFFFFFFF AND DUP2 MSTORE PUSH1 0x20 ADD SWAP1 DUP2 MSTORE PUSH1 0x20 ADD PUSH0 KECCAK256 SLOAD LT ISZERO PUSH2 0x1BF JUMPI PUSH1 0x40 MLOAD PUSH32 0x8C379A000000000000000000000000000000000000000000000000000000000 DUP2 MSTORE PUSH1 0x4 ADD PUSH2 0x1B6 SWAP1 PUSH2 0x5E6 JUMP JUMPDEST PUSH1 0x40 MLOAD DUP1 SWAP2 SUB SWAP1 REVERT JUMPDEST DUP1 PUSH0 PUSH0 CALLER PUSH20 0xFFFFFFFFFFFFFFFFFFFFFFFFFFFFFFFFFFFFFFFF AND PUSH20 0xFFFFFFFFFFFFFFFFFFFFFFFFFFFFFFFFFFFFFFFF AND DUP2 MSTORE PUSH1 0x20 ADD SWAP1 DUP2 MSTORE PUSH1 0x20 ADD PUSH0 KECCAK256 PUSH0 DUP3 DUP3 SLOAD PUSH2 0x20A SWAP2 SWAP1 PUSH2 0x631 JUMP JUMPDEST SWAP3 POP POP DUP2 SWAP1 SSTORE POP PUSH0 CALLER PUSH20 0xFFFFFFFFFFFFFFFFFFFFFFFFFFFFFFFFFFFFFFFF AND DUP3 PUSH1 0x40 MLOAD PUSH2 0x236 SWAP1 PUSH2 0x691 JUMP JUMPDEST PUSH0 PUSH1 0x40 MLOAD DUP1 DUP4 SUB DUP2 DUP6 DUP8 GAS CALL SWAP3 POP POP POP RETURNDATASIZE DUP1 PUSH0 DUP2 EQ PUSH2 0x270 JUMPI PUSH1 0x40 MLOAD SWAP2 POP PUSH1 0x1F NOT PUSH1 0x3F RETURNDATASIZE ADD AND DUP3 ADD PUSH1 0x40 MSTORE RETURNDATASIZE DUP3 MSTORE RETURNDATASIZE PUSH0 PUSH1 0x20 DUP5 ADD RETURNDATACOPY PUSH2 0x275 JUMP JUMPDEST PUSH1 0x60 SWAP2 POP JUMPDEST POP POP SWAP1 POP DUP1 PUSH2 0x2B9 JUMPI PUSH1 0x40 MLOAD PUSH32 0x8C379A000000000000000000000000000000000000000000000000000000000 DUP2 MSTORE PUSH1 0x4 ADD PUSH2 0x2B0 SWAP1 PUSH2 0x6EF JUMP JUMPDEST PUSH1 0x40 MLOAD DUP1 SWAP2 SUB SWAP1 REVERT JUMPDEST CALLER PUSH20 0xFFFFFFFFFFFFFFFFFFFFFFFFFFFFFFFFFFFFFFFF AND PUSH32 0x884EDAD9CE6FA2440D8A54CC123490EB96D2768479D49FF9C7366125A9424364 DUP4 PUSH1 0x40 MLOAD PUSH2 0x2FF SWAP2 SWAP1 PUSH2 0x4C2 JUMP JUMPDEST PUSH1 0x40 MLOAD DUP1 SWAP2 SUB SWAP1 LOG2 POP POP JUMP JUMPDEST PUSH0 PUSH1 0x1 PUSH0 SWAP1 SLOAD SWAP1 PUSH2 0x100 EXP SWAP1 DIV PUSH20 0xFFFFFFFFFFFFFFFFFFFFFFFFFFFFFFFFFFFFFFFF AND PUSH20 0xFFFFFFFFFFFFFFFFFFFFFFFFFFFFFFFFFFFFFFFF AND CALLER PUSH20 0xFFFFFFFFFFFFFFFFFFFFFFFFFFFFFFFFFFFFFFFF AND EQ PUSH2 0x39B JUMPI PUSH1 0x40 MLOAD PUSH32 0x8C379A000000000000000000000000000000000000000000000000000000000 DUP2 MSTORE PUSH1 0x4 ADD PUSH2 0x392 SWAP1 PUSH2 0x757 JUMP JUMPDEST PUSH1 0x40 MLOAD DUP1 SWAP2 SUB SWAP1 REVERT JUMPDEST SELFBALANCE SWAP1 POP SWAP1 JUMP JUMPDEST PUSH1 0x1 PUSH0 SWAP1 SLOAD SWAP1 PUSH2 0x100 EXP SWAP1 DIV PUSH20 0xFFFFFFFFFFFFFFFFFFFFFFFFFFFFFFFFFFFFFFFF AND DUP2 JUMP JUMPDEST PUSH0 CALLVALUE GT PUSH2 0x408 JUMPI PUSH1 0x40 MLOAD PUSH32 0x8C379A000000000000000000000000000000000000000000000000000000000 DUP2 MSTORE PUSH1 0x4 ADD PUSH2 0x3FF SWAP1 PUSH2 0x7BF JUMP JUMPDEST PUSH1 0x40 MLOAD DUP1 SWAP2 SUB SWAP1 REVERT JUMPDEST CALLVALUE PUSH0 PUSH0 CALLER PUSH20 0xFFFFFFFFFFFFFFFFFFFFFFFFFFFFFFFFFFFFFFFF AND PUSH20 0xFFFFFFFFFFFFFFFFFFFFFFFFFFFFFFFFFFFFFFFF AND DUP2 MSTORE PUSH1 0x20 ADD SWAP1 DUP2 MSTORE PUSH1 0x20 ADD PUSH0 KECCAK256 PUSH0 DUP3 DUP3 SLOAD PUSH2 0x453 SWAP2 SWAP1 PUSH2 0x7DD JUMP JUMPDEST SWAP3 POP POP DUP2 SWAP1 SSTORE POP CALLER PUSH20 0xFFFFFFFFFFFFFFFFFFFFFFFFFFFFFFFFFFFFFFFF AND PUSH32 0xE1FFFCC4923D04B559F4D29A8BFC6CDA04EB5B0D3C460751C2402C5C5CC9109C CALLVALUE PUSH1 0x40 MLOAD PUSH2 0x4A0 SWAP2 SWAP1 PUSH2 0x4C2 JUMP JUMPDEST PUSH1 0x40 MLOAD DUP1 SWAP2 SUB SWAP1 LOG2 JUMP JUMPDEST PUSH0 DUP2 SWAP1 POP SWAP2 SWAP1 POP JUMP JUMPDEST PUSH2 0x4BC DUP2 PUSH2 0x4AA JUMP JUMPDEST DUP3 MSTORE POP POP JUMP JUMPDEST PUSH0 PUSH1 0x20 DUP3 ADD SWAP1 POP PUSH2 0x4D5 PUSH0 DUP4 ADD DUP5 PUSH2 0x4B3 JUMP JUMPDEST SWAP3 SWAP2 POP POP JUMP JUMPDEST PUSH0 PUSH0 REVERT JUMPDEST PUSH2 0x4E8 DUP2 PUSH2 0x4AA JUMP JUMPDEST DUP2 EQ PUSH2 0x4F2 JUMPI PUSH0 PUSH0 REVERT JUMPDEST POP JUMP JUMPDEST PUSH0 DUP2 CALLDATALOAD SWAP1 POP PUSH2 0x503 DUP2 PUSH2 0x4DF JUMP JUMPDEST SWAP3 SWAP2 POP POP JUMP JUMPDEST PUSH0 PUSH1 0x20 DUP3 DUP5 SUB SLT ISZERO PUSH2 0x51E JUMPI PUSH2 0x51D PUSH2 0x4DB JUMP JUMPDEST JUMPDEST PUSH0 PUSH2 0x52B DUP5 DUP3 DUP6 ADD PUSH2 0x4F5 JUMP JUMPDEST SWAP2 POP POP SWAP3 SWAP2 POP POP JUMP JUMPDEST PUSH0 PUSH20 0xFFFFFFFFFFFFFFFFFFFFFFFFFFFFFFFFFFFFFFFF DUP3 AND SWAP1 POP SWAP2 SWAP1 POP JUMP JUMPDEST PUSH0 PUSH2 0x55D DUP3 PUSH2 0x534 JUMP JUMPDEST SWAP1 POP SWAP2 SWAP1 POP JUMP JUMPDEST PUSH2 0x56D DUP2 PUSH2 0x553 JUMP JUMPDEST DUP3 MSTORE POP POP JUMP JUMPDEST PUSH0 PUSH1 0x20 DUP3 ADD SWAP1 POP PUSH2 0x586 PUSH0 DUP4 ADD DUP5 PUSH2 0x564 JUMP JUMPDEST SWAP3 SWAP2 POP POP JUMP JUMPDEST PUSH0 DUP3 DUP3 MSTORE PUSH1 0x20 DUP3 ADD SWAP1 POP SWAP3 SWAP2 POP POP JUMP JUMPDEST PUSH32 0x53616C646F20746964616B2063756B7570000000000000000000000000000000 PUSH0 DUP3 ADD MSTORE POP JUMP JUMPDEST PUSH0 PUSH2 0x5D0 PUSH1 0x11 DUP4 PUSH2 0x58C JUMP JUMPDEST SWAP2 POP PUSH2 0x5DB DUP3 PUSH2 0x59C JUMP JUMPDEST PUSH1 0x20 DUP3 ADD SWAP1 POP SWAP2 SWAP1 POP JUMP JUMPDEST PUSH0 PUSH1 0x20 DUP3 ADD SWAP1 POP DUP2 DUP2 SUB PUSH0 DUP4 ADD MSTORE PUSH2 0x5FD DUP2 PUSH2 0x5C4 JUMP JUMPDEST SWAP1 POP SWAP2 SWAP1 POP JUMP JUMPDEST PUSH32 0x4E487B7100000000000000000000000000000000000000000000000000000000 PUSH0 MSTORE PUSH1 0x11 PUSH1 0x4 MSTORE PUSH1 0x24 PUSH0 REVERT JUMPDEST PUSH0 PUSH2 0x63B DUP3 PUSH2 0x4AA JUMP JUMPDEST SWAP2 POP PUSH2 0x646 DUP4 PUSH2 0x4AA JUMP JUMPDEST SWAP3 POP DUP3 DUP3 SUB SWAP1 POP DUP2 DUP2 GT ISZERO PUSH2 0x65E JUMPI PUSH2 0x65D PUSH2 0x604 JUMP JUMPDEST JUMPDEST SWAP3 SWAP2 POP POP JUMP JUMPDEST PUSH0 DUP2 SWAP1 POP SWAP3 SWAP2 POP POP JUMP JUMPDEST POP JUMP JUMPDEST PUSH0 PUSH2 0x67C PUSH0 DUP4 PUSH2 0x664 JUMP JUMPDEST SWAP2 POP PUSH2 0x687 DUP3 PUSH2 0x66E JUMP JUMPDEST PUSH0 DUP3 ADD SWAP1 POP SWAP2 SWAP1 POP JUMP JUMPDEST PUSH0 PUSH2 0x69B DUP3 PUSH2 0x671 JUMP JUMPDEST SWAP2 POP DUP2 SWAP1 POP SWAP2 SWAP1 POP JUMP JUMPDEST PUSH32 0x5472616E7366657220676167616C000000000000000000000000000000000000 PUSH0 DUP3 ADD MSTORE POP JUMP JUMPDEST PUSH0 PUSH2 0x6D9 PUSH1 0xE DUP4 PUSH2 0x58C JUMP JUMPDEST SWAP2 POP PUSH2 0x6E4 DUP3 PUSH2 0x6A5 JUMP JUMPDEST PUSH1 0x20 DUP3 ADD SWAP1 POP SWAP2 SWAP1 POP JUMP JUMPDEST PUSH0 PUSH1 0x20 DUP3 ADD SWAP1 POP DUP2 DUP2 SUB PUSH0 DUP4 ADD MSTORE PUSH2 0x706 DUP2 PUSH2 0x6CD JUMP JUMPDEST SWAP1 POP SWAP2 SWAP1 POP JUMP JUMPDEST PUSH32 0x42756B616E206F776E6572210000000000000000000000000000000000000000 PUSH0 DUP3 ADD MSTORE POP JUMP JUMPDEST PUSH0 PUSH2 0x741 PUSH1 0xC DUP4 PUSH2 0x58C JUMP JUMPDEST SWAP2 POP PUSH2 0x74C DUP3 PUSH2 0x70D JUMP JUMPDEST PUSH1 0x20 DUP3 ADD SWAP1 POP SWAP2 SWAP1 POP JUMP JUMPDEST PUSH0 PUSH1 0x20 DUP3 ADD SWAP1 POP DUP2 DUP2 SUB PUSH0 DUP4 ADD MSTORE PUSH2 0x76E DUP2 PUSH2 0x735 JUMP JUMPDEST SWAP1 POP SWAP2 SWAP1 POP JUMP JUMPDEST PUSH32 0x4861727573206465706F736974206C6562696820646172692030000000000000 PUSH0 DUP3 ADD MSTORE POP JUMP JUMPDEST PUSH0 PUSH2 0x7A9 PUSH1 0x1A DUP4 PUSH2 0x58C JUMP JUMPDEST SWAP2 POP PUSH2 0x7B4 DUP3 PUSH2 0x775 JUMP JUMPDEST PUSH1 0x20 DUP3 ADD SWAP1 POP SWAP2 SWAP1 POP JUMP JUMPDEST PUSH0 PUSH1 0x20 DUP3 ADD SWAP1 POP DUP2 DUP2 SUB PUSH0 DUP4 ADD MSTORE PUSH2 0x7D6 DUP2 PUSH2 0x79D JUMP JUMPDEST SWAP1 POP SWAP2 SWAP1 POP JUMP JUMPDEST PUSH0 PUSH2 0x7E7 DUP3 PUSH2 0x4AA JUMP JUMPDEST SWAP2 POP PUSH2 0x7F2 DUP4 PUSH2 0x4AA JUMP JUMPDEST SWAP3 POP DUP3 DUP3 ADD SWAP1 POP DUP1 DUP3 GT ISZERO PUSH2 0x80A JUMPI PUSH2 0x809 PUSH2 0x604 JUMP JUMPDEST JUMPDEST SWAP3 SWAP2 POP POP JUMP INVALID LOG2 PUSH5 0x6970667358 0x22 SLT KECCAK256 SHR 0xB3 PUSH5 0xD52AA2EDD9 CALLDATALOAD ISZERO SDIV LOG3 DUP10 0xC0 POP CODECOPY LOG0 EQ 0xD0 0xC6 0xC4 PUSH19 0xD62775A6A8ECBFF3482C64736F6C6343000822 STOP CALLER "
				},
				"gasEstimates": {
					"creation": {
						"codeDepositCost": "423600",
						"executionCost": "24724",
						"totalCost": "448324"
					},
					"external": {
						"deposit()": "infinite",
						"getBalance()": "2496",
						"getContractBalance()": "2620",
						"owner()": "2552",
						"withdraw(uint256)": "infinite"
					}
				},
				"methodIdentifiers": {
					"deposit()": "d0e30db0",
					"getBalance()": "12065fe0",
					"getContractBalance()": "6f9fb98a",
					"owner()": "8da5cb5b",
					"withdraw(uint256)": "2e1a7d4d"
				}
			},
			"storageLayout": {
				"storage": [
					{
						"astId": 5,
						"contract": "contracts/SimpleBank.sol:SimpleBank",
						"label": "balances",
						"offset": 0,
						"slot": "0",
						"type": "t_mapping(t_address,t_uint256)"
					},
					{
						"astId": 7,
						"contract": "contracts/SimpleBank.sol:SimpleBank",
						"label": "owner",
						"offset": 0,
						"slot": "1",
						"type": "t_address"
					}
				],
				"types": {
					"t_address": {
						"encoding": "inplace",
						"label": "address",
						"numberOfBytes": "20"
					},
					"t_mapping(t_address,t_uint256)": {
						"encoding": "mapping",
						"key": "t_address",
						"label": "mapping(address => uint256)",
						"numberOfBytes": "32",
						"value": "t_uint256"
					},
					"t_uint256": {
						"encoding": "inplace",
						"label": "uint256",
						"numberOfBytes": "32"
					}
				}
			},
			"userdoc": {
				"kind": "user",
				"methods": {},
				"version": 1
			}
		}
	}
}