{
	"contracts/OverflowDemo.sol": {
		"OverflowDemo": {
			"abi": [
				{
					"inputs": [],
					"name": "increment",
					"outputs": [],
					"stateMutability": "nonpayable",
					"type": "function"
				},
				{
					"inputs": [],
					"name": "myNumber",
					"outputs": [
						{
							"internalType": "uint8",
							"name": "",
							"type": "uint8"
						}
					],
					"stateMutability": "view",
					"type": "function"
				}
			],
			"devdoc": {
				"kind": "dev",
				"methods": {},
				"version": 1
			},
			"evm": {
				"assembly": "    /* \"contracts/OverflowDemo.sol\":60:192  contract OverflowDemo {... */\n  mstore(0x40, 0x80)\n    /* \"contracts/OverflowDemo.sol\":113:116  255 */\n  0xff\n    /* \"contracts/OverflowDemo.sol\":89:116  uint8 public myNumber = 255 */\n  0x00\n  exp(0x0100, 0x00)\n  dup2\n  sload\n  dup2\n  0xff\n  mul\n  not\n  and\n  swap1\n  dup4\n  0xff\n  and\n  mul\n  or\n  swap1\n  sstore\n  pop\n    /* \"contracts/OverflowDemo.sol\":60:192  contract OverflowDemo {... */\n  callvalue\n  dup1\n  iszero\n  tag_1\n  jumpi\n  revert(0x00, 0x00)\ntag_1:\n  pop\n  dataSize(sub_0)\n  dup1\n  dataOffset(sub_0)\n  0x00\n  codecopy\n  0x00\n  return\nstop\n\nsub_0: assembly {\n        /* \"contracts/OverflowDemo.sol\":60:192  contract OverflowDemo {... */\n      mstore(0x40, 0x80)\n      callvalue\n      dup1\n      iszero\n      tag_1\n      jumpi\n      revert(0x00, 0x00)\n    tag_1:\n      pop\n      jumpi(tag_2, lt(calldatasize, 0x04))\n      shr(0xe0, calldataload(0x00))\n      dup1\n      0x23fd0e40\n      eq\n      tag_3\n      jumpi\n      dup1\n      0xd09de08a\n      eq\n      tag_4\n      jumpi\n    tag_2:\n      revert(0x00, 0x00)\n        /* \"contracts/OverflowDemo.sol\":89:116  uint8 public myNumber = 255 */\n    tag_3:\n      tag_5\n      tag_6\n      jump\t// in\n    tag_5:\n      mload(0x40)\n      tag_7\n      swap2\n      swap1\n      tag_8\n      jump\t// in\n    tag_7:\n      mload(0x40)\n      dup1\n      swap2\n      sub\n      swap1\n      return\n        /* \"contracts/OverflowDemo.sol\":129:189  function increment() public {... */\n    tag_4:\n      tag_9\n      tag_10\n      jump\t// in\n    tag_9:\n      stop\n        /* \"contracts/OverflowDemo.sol\":89:116  uint8 public myNumber = 255 */\n    tag_6:\n      0x00\n      0x00\n      swap1\n      sload\n      swap1\n      0x0100\n      exp\n      swap1\n      div\n      0xff\n      and\n      dup2\n      jump\t// out\n        /* \"contracts/OverflowDemo.sol\":129:189  function increment() public {... */\n    tag_10:\n        /* \"contracts/OverflowDemo.sol\":180:181  1 */\n      0x01\n        /* \"contracts/OverflowDemo.sol\":168:176  myNumber */\n      0x00\n      0x00\n        /* \"contracts/OverflowDemo.sol\":168:181  myNumber += 1 */\n      dup3\n      dup3\n      dup3\n      swap1\n      sload\n      swap1\n      0x0100\n      exp\n      swap1\n      div\n      0xff\n      and\n      tag_12\n      swap2\n      swap1\n      tag_13\n      jump\t// in\n    tag_12:\n      swap3\n      pop\n      0x0100\n      exp\n      dup2\n      sload\n      dup2\n      0xff\n      mul\n      not\n      and\n      swap1\n      dup4\n      0xff\n      and\n      mul\n      or\n      swap1\n      sstore\n      pop\n        /* \"contracts/OverflowDemo.sol\":129:189  function increment() public {... */\n      jump\t// out\n        /* \"#utility.yul\":7:93   */\n    tag_14:\n        /* \"#utility.yul\":42:49   */\n      0x00\n        /* \"#utility.yul\":82:86   */\n      0xff\n        /* \"#utility.yul\":75:80   */\n      dup3\n        /* \"#utility.yul\":71:87   */\n      and\n        /* \"#utility.yul\":60:87   */\n      swap1\n      pop\n        /* \"#utility.yul\":7:93   */\n      swap2\n      swap1\n      pop\n      jump\t// out\n        /* \"#utility.yul\":99:211   */\n    tag_15:\n        /* \"#utility.yul\":182:204   */\n      tag_20\n        /* \"#utility.yul\":198:203   */\n      dup2\n        /* \"#utility.yul\":182:204   */\n      tag_14\n      jump\t// in\n    tag_20:\n        /* \"#utility.yul\":177:180   */\n      dup3\n        /* \"#utility.yul\":170:205   */\n      mstore\n        /* \"#utility.yul\":99:211   */\n      pop\n      pop\n      jump\t// out\n        /* \"#utility.yul\":217:431   */\n    tag_8:\n        /* \"#utility.yul\":306:310   */\n      0x00\n        /* \"#utility.yul\":344:346   */\n      0x20\n        /* \"#utility.yul\":333:342   */\n      dup3\n        /* \"#utility.yul\":329:347   */\n      add\n        /* \"#utility.yul\":321:347   */\n      swap1\n      pop\n        /* \"#utility.yul\":357:424   */\n      tag_22\n        /* \"#utility.yul\":421:422   */\n      0x00\n        /* \"#utility.yul\":410:419   */\n      dup4\n        /* \"#utility.yul\":406:423   */\n      add\n        /* \"#utility.yul\":397:403   */\n      dup5\n        /* \"#utility.yul\":357:424   */\n      tag_15\n      jump\t// in\n    tag_22:\n        /* \"#utility.yul\":217:431   */\n      swap3\n      swap2\n      pop\n      pop\n      jump\t// out\n        /* \"#utility.yul\":437:617   */\n    tag_16:\n        /* \"#utility.yul\":485:562   */\n      0x4e487b7100000000000000000000000000000000000000000000000000000000\n        /* \"#utility.yul\":482:483   */\n      0x00\n        /* \"#utility.yul\":475:563   */\n      mstore\n        /* \"#utility.yul\":582:586   */\n      0x11\n        /* \"#utility.yul\":579:580   */\n      0x04\n        /* \"#utility.yul\":572:587   */\n      mstore\n        /* \"#utility.yul\":606:610   */\n      0x24\n        /* \"#utility.yul\":603:604   */\n      0x00\n        /* \"#utility.yul\":596:611   */\n      revert\n        /* \"#utility.yul\":623:811   */\n    tag_13:\n        /* \"#utility.yul\":661:664   */\n      0x00\n        /* \"#utility.yul\":680:698   */\n      tag_25\n        /* \"#utility.yul\":696:697   */\n      dup3\n        /* \"#utility.yul\":680:698   */\n      tag_14\n      jump\t// in\n    tag_25:\n        /* \"#utility.yul\":675:698   */\n      swap2\n      pop\n        /* \"#utility.yul\":712:730   */\n      tag_26\n        /* \"#utility.yul\":728:729   */\n      dup4\n        /* \"#utility.yul\":712:730   */\n      tag_14\n      jump\t// in\n    tag_26:\n        /* \"#utility.yul\":707:730   */\n      swap3\n      pop\n        /* \"#utility.yul\":753:754   */\n      dup3\n        /* \"#utility.yul\":750:751   */\n      dup3\n        /* \"#utility.yul\":746:755   */\n      add\n        /* \"#utility.yul\":739:755   */\n      swap1\n      pop\n        /* \"#utility.yul\":776:780   */\n      0xff\n        /* \"#utility.yul\":771:774   */\n      dup2\n        /* \"#utility.yul\":768:781   */\n      gt\n        /* \"#utility.yul\":765:804   */\n      iszero\n      tag_27\n      jumpi\n        /* \"#utility.yul\":784:802   */\n      tag_28\n      tag_16\n      jump\t// in\n    tag_28:\n        /* \"#utility.yul\":765:804   */\n    tag_27:\n        /* \"#utility.yul\":623:811   */\n      swap3\n      swap2\n      pop\n      pop\n      jump\t// out\n\n    auxdata: 0xa264697066735822122082788b3681529f68cd0b0d0b763a06ba289a9d4f0bcc026c26abd06812703dce64736f6c63430008220033\n}\n",
				"bytecode": {
					"linkReferences": {},
					"object": "608060405260ff5f5f6101000a81548160ff021916908360ff1602179055503480156028575f5ffd5b50610173806100365f395ff3fe608060405234801561000f575f5ffd5b5060043610610034575f3560e01c806323fd0e4014610038578063d09de08a14610056575b5f5ffd5b610040610060565b60405161004d91906100c3565b60405180910390f35b61005e610071565b005b5f5f9054906101000a900460ff1681565b60015f5f8282829054906101000a900460ff1661008e9190610109565b92506101000a81548160ff021916908360ff160217905550565b5f60ff82169050919050565b6100bd816100a8565b82525050565b5f6020820190506100d65f8301846100b4565b92915050565b7f4e487b71000000000000000000000000000000000000000000000000000000005f52601160045260245ffd5b5f610113826100a8565b915061011e836100a8565b9250828201905060ff811115610137576101366100dc565b5b9291505056fea264697066735822122082788b3681529f68cd0b0d0b763a06ba289a9d4f0bcc026c26abd06812703dce64736f6c63430008220033",
					"opcodes": "PUSH1 0x80 PUSH1 0x40 MSTORE PUSH1 0xFF PUSH0 PUSH0 PUSH2 0x100 EXP DUP2 SLOAD DUP2 PUSH1 0xFF MUL NOT AND SWAP1 DUP4 PUSH1 0xFF AND MUL OR SWAP1 SSTORE POP CALLVALUE DUP1 ISZERO PUSH1 0x28 JUMPI PUSH0 PUSH0 REVERT JUMPDEST POP PUSH2 0x173 DUP1 PUSH2 0x36 PUSH0 CODECOPY PUSH0 RETURN INVALID PUSH1 0x80 PUSH1 0x40 MSTORE CALLVALUE DUP1 ISZERO PUSH2 0xF JUMPI PUSH0 PUSH0 REVERT JUMPDEST POP PUSH1 0x4 CALLDATASIZE LT PUSH2 0x34 JUMPI PUSH0 CALLDATALOAD PUSH1 0xE0 SHR DUP1 PUSH4 0x23FD0E40 EQ PUSH2 0x38 JUMPI DUP1 PUSH4 0xD09DE08A EQ PUSH2 0x56 JUMPI JUMPDEST PUSH0 PUSH0 REVERT JUMPDEST PUSH2 0x40 PUSH2 0x60 JUMP JUMPDEST PUSH1 0x40 MLOAD PUSH2 0x4D SWAP2 SWAP1 PUSH2 0xC3 JUMP JUMPDEST PUSH1 0x40 MLOAD DUP1 SWAP2 SUB SWAP1 RETURN JUMPDEST PUSH2 0x5E PUSH2 0x71 JUMP JUMPDEST STOP JUMPDEST PUSH0 PUSH0 SWAP1 SLOAD SWAP1 PUSH2 0x100 EXP SWAP1 DIV PUSH1 0xFF AND DUP2 JUMP JUMPDEST PUSH1 0x1 PUSH0 PUSH0 DUP3 DUP3 DUP3 SWAP1 SLOAD SWAP1 PUSH2 0x100 EXP SWAP1 DIV PUSH1 0xFF AND PUSH2 0x8E SWAP2 SWAP1 PUSH2 0x109 JUMP JUMPDEST SWAP3 POP PUSH2 0x100 EXP DUP2 SLOAD DUP2 PUSH1 0xFF MUL NOT AND SWAP1 DUP4 PUSH1 0xFF AND MUL OR SWAP1 SSTORE POP JUMP JUMPDEST PUSH0 PUSH1 0xFF DUP3 AND SWAP1 POP SWAP2 SWAP1 POP JUMP JUMPDEST PUSH2 0xBD DUP2 PUSH2 0xA8 JUMP JUMPDEST DUP3 MSTORE POP POP JUMP JUMPDEST PUSH0 PUSH1 0x20 DUP3 ADD SWAP1 POP PUSH2 0xD6 PUSH0 DUP4 ADD DUP5 PUSH2 0xB4 JUMP JUMPDEST SWAP3 SWAP2 POP POP JUMP JUMPDEST PUSH32 0x4E487B7100000000000000000000000000000000000000000000000000000000 PUSH0 MSTORE PUSH1 0x11 PUSH1 0x4 MSTORE PUSH1 0x24 PUSH0 REVERT JUMPDEST PUSH0 PUSH2 0x113 DUP3 PUSH2 0xA8 JUMP JUMPDEST SWAP2 POP PUSH2 0x11E DUP4 PUSH2 0xA8 JUMP JUMPDEST SWAP3 POP DUP3 DUP3 ADD SWAP1 POP PUSH1 0xFF DUP2 GT ISZERO PUSH2 0x137 JUMPI PUSH2 0x136 PUSH2 0xDC JUMP JUMPDEST JUMPDEST SWAP3 SWAP2 POP POP JUMP INVALID LOG2 PUSH5 0x6970667358 0x22 SLT KECCAK256 DUP3 PUSH25 0x8B3681529F68CD0B0D0B763A06BA289A9D4F0BCC026C26ABD0 PUSH9 0x12703DCE64736F6C63 NUMBER STOP ADDMOD 0x22 STOP CALLER "
				},
				"gasEstimates": {
					"creation": {
						"codeDepositCost": "74200",
						"executionCost": "24386",
						"totalCost": "98586"
					},
					"external": {
						"increment()": "infinite",
						"myNumber()": "2443"
					}
				},
				"methodIdentifiers": {
					"increment()": "d09de08a",
					"myNumber()": "23fd0e40"
				}
			},
			"storageLayout": {
				"storage": [
					{
						"astId": 4,
						"contract": "contracts/OverflowDemo.sol:OverflowDemo",
						"label": "myNumber",
						"offset": 0,
						"slot": "0",
						"type": "t_uint8"
					}
				],
				"types": {
					"t_uint8": {
						"encoding": "inplace",
						"label": "uint8",
						"numberOfBytes": "1"
					}
				}
			},
			"userdoc": {
				"kind": "user",
				"methods": {},
				"version": 1
			}
		}
	}
}