{
	"data": {
		"bytecode": {
			"linkReferences": {},
			"object": "608060405261012c60025560336003556078600455348015601e575f5ffd5b50335f5f6101000a81548173ffffffffffffffffffffffffffffffffffffffff021916908373ffffffffffffffffffffffffffffffffffffffff1602179055505f600181905550611b0d806100725f395ff3fe608060405234801561000f575f5ffd5b50600436106100cd575f3560e01c80634fa76ec91161008a5780639ac498de116100645780639ac498de14610218578063c7f758a814610248578063c9d27afe1461027f578063da35c6641461029b576100cd565b80634fa76ec9146101c05780638da5cb5b146101de57806394a14a34146101fc576100cd565b8063013cf08b146100d15780630d61b51914610108578063132002fc146101245780632bbca15714610142578063438596321461016057806349c2a1a614610190575b5f5ffd5b6100eb60048036038101906100e69190610dd2565b6102b9565b6040516100ff989796959493929190610ed5565b60405180910390f35b610122600480360381019061011d9190610dd2565b6103bb565b005b61012c6105dc565b6040516101399190610f58565b60405180910390f35b61014a6105e2565b6040516101579190610f58565b60405180910390f35b61017a60048036038101906101759190610f9b565b6105e8565b6040516101879190610fd9565b60405180910390f35b6101aa60048036038101906101a5919061111e565b610612565b6040516101b79190610f58565b60405180910390f35b6101c86107ab565b6040516101d59190610f58565b60405180910390f35b6101e66107b1565b6040516101f39190611165565b60405180910390f35b61021660048036038101906102119190610dd2565b6107d5565b005b610232600480360381019061022d9190610dd2565b610a38565b60405161023f9190610f58565b60405180910390f35b610262600480360381019061025d9190610dd2565b610a4d565b604051610276989796959493929190610ed5565b60405180910390f35b610299600480360381019061029491906111a8565b610b6e565b005b6102a3610d88565b6040516102b09190610f58565b60405180910390f35b6006602052805f5260405f205f91509050805f015490806001015f9054906101000a900473ffffffffffffffffffffffffffffffffffffffff169080600201805461030390611213565b80601f016020809104026020016040519081016040528092919081815260200182805461032f90611213565b801561037a5780601f106103515761010080835404028352916020019161037a565b820191905f5260205f20905b81548152906001019060200180831161035d57829003601f168201915b505050505090806003015490806004015490806005015490806006015f9054906101000a900460ff16908060060160019054906101000a900460ff16905088565b5f60065f8381526020019081526020015f2090505f815f015403610414576040517f08c379a000000000000000000000000000000000000000000000000000000000815260040161040b9061128d565b60405180910390fd5b806006015f9054906101000a900460ff1615610465576040517f08c379a000000000000000000000000000000000000000000000000000000000815260040161045c906112f5565b60405180910390fd5b5f60055f8481526020019081526020015f2054036104b8576040517f08c379a00000000000000000000000000000000000000000000000000000000081526004016104af9061135d565b60405180910390fd5b60045460055f8481526020019081526020015f20546104d791906113a8565b421015610519576040517f08c379a000000000000000000000000000000000000000000000000000000000815260040161051090611425565b60405180910390fd5b5f8160040154826003015461052e91906113a8565b90505f81606484600301546105439190611443565b61054d91906114b1565b90506001836006015f6101000a81548160ff0219169083151502179055506003548110158360060160016101000a81548160ff0219169083151502179055507f948f4a9cd986f1118c3fbd459f7a22b23c0693e1ca3ef06a6a8be5aa7d39cc03848460060160019054906101000a900460ff166040516105ce9291906114e1565b60405180910390a150505050565b60025481565b60045481565b6007602052815f5260405f20602052805f5260405f205f915091509054906101000a900460ff1681565b5f60015f81548092919061062590611508565b919050555060405180610100016040528060015481526020013373ffffffffffffffffffffffffffffffffffffffff1681526020018381526020015f81526020015f81526020016002544261067a91906113a8565b81526020015f151581526020015f151581525060065f60015481526020019081526020015f205f820151815f01556020820151816001015f6101000a81548173ffffffffffffffffffffffffffffffffffffffff021916908373ffffffffffffffffffffffffffffffffffffffff16021790555060408201518160020190816107039190611700565b50606082015181600301556080820151816004015560a0820151816005015560c0820151816006015f6101000a81548160ff02191690831515021790555060e08201518160060160016101000a81548160ff0219169083151502179055509050507f7585f467599d0f008985f231af99293be388626ac16ca59505c2f8f88969cd636001543384604051610799939291906117cf565b60405180910390a16001549050919050565b60035481565b5f5f9054906101000a900473ffffffffffffffffffffffffffffffffffffffff1681565b5f60065f8381526020019081526020015f2090505f815f01540361082e576040517f08c379a00000000000000000000000000000000000000000000000000000000081526004016108259061128d565b60405180910390fd5b8060050154421015610875576040517f08c379a000000000000000000000000000000000000000000000000000000000815260040161086c90611855565b60405180910390fd5b806006015f9054906101000a900460ff16156108c6576040517f08c379a00000000000000000000000000000000000000000000000000000000081526004016108bd906112f5565b60405180910390fd5b5f60055f8481526020019081526020015f205414610919576040517f08c379a0000000000000000000000000000000000000000000000000000000008152600401610910906118bd565b60405180910390fd5b5f8160040154826003015461092e91906113a8565b90505f8111610972576040517f08c379a000000000000000000000000000000000000000000000000000000000815260040161096990611925565b60405180910390fd5b5f81606484600301546109859190611443565b61098f91906114b1565b90506003548110156109d6576040517f08c379a00000000000000000000000000000000000000000000000000000000081526004016109cd9061198d565b60405180910390fd5b4260055f8681526020019081526020015f20819055507f9a2e42fd6722813d69113e7d0079d3d940171428df7373df9c7f7617cfda28928460045442610a1c91906113a8565b604051610a2a9291906119ab565b60405180910390a150505050565b6005602052805f5260405f205f915090505481565b5f5f60605f5f5f5f5f5f60065f8b81526020019081526020015f209050805f0154816001015f9054906101000a900473ffffffffffffffffffffffffffffffffffffffff1682600201836003015484600401548560050154866006015f9054906101000a900460ff168760060160019054906101000a900460ff16858054610ad490611213565b80601f0160208091040260200160405190810160405280929190818152602001828054610b0090611213565b8015610b4b5780601f10610b2257610100808354040283529160200191610b4b565b820191905f5260205f20905b815481529060010190602001808311610b2e57829003601f168201915b505050505095509850985098509850985098509850985050919395975091939597565b5f60065f8481526020019081526020015f20905080600501544210610bc8576040517f08c379a0000000000000000000000000000000000000000000000000000000008152600401610bbf90611a1c565b60405180910390fd5b60075f8481526020019081526020015f205f3373ffffffffffffffffffffffffffffffffffffffff1673ffffffffffffffffffffffffffffffffffffffff1681526020019081526020015f205f9054906101000a900460ff1615610c61576040517f08c379a0000000000000000000000000000000000000000000000000000000008152600401610c5890611a84565b60405180910390fd5b5f815f015403610ca6576040517f08c379a0000000000000000000000000000000000000000000000000000000008152600401610c9d9061128d565b60405180910390fd5b600160075f8581526020019081526020015f205f3373ffffffffffffffffffffffffffffffffffffffff1673ffffffffffffffffffffffffffffffffffffffff1681526020019081526020015f205f6101000a81548160ff0219169083151502179055508115610d2e57806003015f815480929190610d2490611508565b9190505550610d48565b806004015f815480929190610d4290611508565b91905055505b7ff2913dbe661ee2acc4a046d8fbcdc792373bda34c41c6086484b5345e5785e5f833384604051610d7b93929190611aa2565b60405180910390a1505050565b60015481565b5f604051905090565b5f5ffd5b5f5ffd5b5f819050919050565b610db181610d9f565b8114610dbb575f5ffd5b50565b5f81359050610dcc81610da8565b92915050565b5f60208284031215610de757610de6610d97565b5b5f610df484828501610dbe565b91505092915050565b610e0681610d9f565b82525050565b5f73ffffffffffffffffffffffffffffffffffffffff82169050919050565b5f610e3582610e0c565b9050919050565b610e4581610e2b565b82525050565b5f81519050919050565b5f82825260208201905092915050565b8281835e5f83830152505050565b5f601f19601f8301169050919050565b5f610e8d82610e4b565b610e978185610e55565b9350610ea7818560208601610e65565b610eb081610e73565b840191505092915050565b5f8115159050919050565b610ecf81610ebb565b82525050565b5f61010082019050610ee95f83018b610dfd565b610ef6602083018a610e3c565b8181036040830152610f088189610e83565b9050610f176060830188610dfd565b610f246080830187610dfd565b610f3160a0830186610dfd565b610f3e60c0830185610ec6565b610f4b60e0830184610ec6565b9998505050505050505050565b5f602082019050610f6b5f830184610dfd565b92915050565b610f7a81610e2b565b8114610f84575f5ffd5b50565b5f81359050610f9581610f71565b92915050565b5f5f60408385031215610fb157610fb0610d97565b5b5f610fbe85828601610dbe565b9250506020610fcf85828601610f87565b9150509250929050565b5f602082019050610fec5f830184610ec6565b92915050565b5f5ffd5b5f5ffd5b7f4e487b71000000000000000000000000000000000000000000000000000000005f52604160045260245ffd5b61103082610e73565b810181811067ffffffffffffffff8211171561104f5761104e610ffa565b5b80604052505050565b5f611061610d8e565b905061106d8282611027565b919050565b5f67ffffffffffffffff82111561108c5761108b610ffa565b5b61109582610e73565b9050602081019050919050565b828183375f83830152505050565b5f6110c26110bd84611072565b611058565b9050828152602081018484840111156110de576110dd610ff6565b5b6110e98482856110a2565b509392505050565b5f82601f83011261110557611104610ff2565b5b81356111158482602086016110b0565b91505092915050565b5f6020828403121561113357611132610d97565b5b5f82013567ffffffffffffffff8111156111505761114f610d9b565b5b61115c848285016110f1565b91505092915050565b5f6020820190506111785f830184610e3c565b92915050565b61118781610ebb565b8114611191575f5ffd5b50565b5f813590506111a28161117e565b92915050565b5f5f604083850312156111be576111bd610d97565b5b5f6111cb85828601610dbe565b92505060206111dc85828601611194565b9150509250929050565b7f4e487b71000000000000000000000000000000000000000000000000000000005f52602260045260245ffd5b5f600282049050600182168061122a57607f821691505b60208210810361123d5761123c6111e6565b5b50919050565b7f50726f706f73616c20746964616b2061646100000000000000000000000000005f82015250565b5f611277601283610e55565b915061128282611243565b602082019050919050565b5f6020820190508181035f8301526112a48161126b565b9050919050565b7f5375646168206469656b73656b757369000000000000000000000000000000005f82015250565b5f6112df601083610e55565b91506112ea826112ab565b602082019050919050565b5f6020820190508181035f83015261130c816112d3565b9050919050565b7f50726f706f73616c2062656c756d2064692d71756575650000000000000000005f82015250565b5f611347601783610e55565b915061135282611313565b602082019050919050565b5f6020820190508181035f8301526113748161133b565b9050919050565b7f4e487b71000000000000000000000000000000000000000000000000000000005f52601160045260245ffd5b5f6113b282610d9f565b91506113bd83610d9f565b92508282019050808211156113d5576113d461137b565b5b92915050565b7f54696d656c6f636b2062656c756d2073656c65736169000000000000000000005f82015250565b5f61140f601683610e55565b915061141a826113db565b602082019050919050565b5f6020820190508181035f83015261143c81611403565b9050919050565b5f61144d82610d9f565b915061145883610d9f565b925082820261146681610d9f565b9150828204841483151761147d5761147c61137b565b5b5092915050565b7f4e487b71000000000000000000000000000000000000000000000000000000005f52601260045260245ffd5b5f6114bb82610d9f565b91506114c683610d9f565b9250826114d6576114d5611484565b5b828204905092915050565b5f6040820190506114f45f830185610dfd565b6115016020830184610ec6565b9392505050565b5f61151282610d9f565b91507fffffffffffffffffffffffffffffffffffffffffffffffffffffffffffffffff82036115445761154361137b565b5b600182019050919050565b5f819050815f5260205f209050919050565b5f6020601f8301049050919050565b5f82821b905092915050565b5f600883026115ab7fffffffffffffffffffffffffffffffffffffffffffffffffffffffffffffffff82611570565b6115b58683611570565b95508019841693508086168417925050509392505050565b5f819050919050565b5f6115f06115eb6115e684610d9f565b6115cd565b610d9f565b9050919050565b5f819050919050565b611609836115d6565b61161d611615826115f7565b84845461157c565b825550505050565b5f5f905090565b611634611625565b61163f818484611600565b505050565b5f5b828110156116655761165a5f82840161162c565b600181019050611646565b505050565b601f8211156116b857828211156116b7576116848161154f565b61168d83611561565b61169685611561565b60208610156116a3575f90505b8083016116b282840382611644565b505050505b5b505050565b5f82821c905092915050565b5f6116d85f19846008026116bd565b1980831691505092915050565b5f6116f083836116c9565b9150826002028217905092915050565b61170982610e4b565b67ffffffffffffffff81111561172257611721610ffa565b5b61172c8254611213565b61173782828561166a565b5f60209050601f831160018114611768575f8415611756578287015190505b61176085826116e5565b8655506117c7565b601f1984166117768661154f565b5f5b8281101561179d57848901518255600182019150602085019450602081019050611778565b868310156117ba57848901516117b6601f8916826116c9565b8355505b6001600288020188555050505b505050505050565b5f6060820190506117e25f830186610dfd565b6117ef6020830185610e3c565b81810360408301526118018184610e83565b9050949350505050565b7f566f74696e672062656c756d20626572616b68697200000000000000000000005f82015250565b5f61183f601583610e55565b915061184a8261180b565b602082019050919050565b5f6020820190508181035f83015261186c81611833565b9050919050565b7f53756461682064692d71756575650000000000000000000000000000000000005f82015250565b5f6118a7600e83610e55565b91506118b282611873565b602082019050919050565b5f6020820190508181035f8301526118d48161189b565b9050919050565b7f546964616b206164612079616e6720766f7465000000000000000000000000005f82015250565b5f61190f601383610e55565b915061191a826118db565b602082019050919050565b5f6020820190508181035f83015261193c81611903565b9050919050565b7f50726f706f73616c20746964616b206c6f6c6f7320766f7465000000000000005f82015250565b5f611977601983610e55565b915061198282611943565b602082019050919050565b5f6020820190508181035f8301526119a48161196b565b9050919050565b5f6040820190506119be5f830185610dfd565b6119cb6020830184610dfd565b9392505050565b7f566f74696e6720737564616820626572616b68697200000000000000000000005f82015250565b5f611a06601583610e55565b9150611a11826119d2565b602082019050919050565b5f6020820190508181035f830152611a33816119fa565b9050919050565b7f5375646168207065726e616820766f74650000000000000000000000000000005f82015250565b5f611a6e601183610e55565b9150611a7982611a3a565b602082019050919050565b5f6020820190508181035f830152611a9b81611a62565b9050919050565b5f606082019050611ab55f830186610dfd565b611ac26020830185610e3c565b611acf6040830184610ec6565b94935050505056fea26469706673582212203a74ca49a84bf92f2e0661ba21077e6e5d098fcd58c5cc6675a20dad67d34f1d64736f6c63430008220033",
			"opcodes": "PUSH1 0x80 PUSH1 0x40 MSTORE PUSH2 0x12C PUSH1 0x2 SSTORE PUSH1 0x33 PUSH1 0x3 SSTORE PUSH1 0x78 PUSH1 0x4 SSTORE CALLVALUE DUP1 ISZERO PUSH1 0x1E JUMPI PUSH0 PUSH0 REVERT JUMPDEST POP CALLER PUSH0 PUSH0 PUSH2 0x100 EXP DUP2 SLOAD DUP2 PUSH20 0xFFFFFFFFFFFFFFFFFFFFFFFFFFFFFFFFFFFFFFFF MUL NOT AND SWAP1 DUP4 PUSH20 0xFFFFFFFFFFFFFFFFFFFFFFFFFFFFFFFFFFFFFFFF AND MUL OR SWAP1 SSTORE POP PUSH0 PUSH1 0x1 DUP2 SWAP1 SSTORE POP PUSH2 0x1B0D DUP1 PUSH2 0x72 PUSH0 CODECOPY PUSH0 RETURN INVALID PUSH1 0x80 PUSH1 0x40 MSTORE CALLVALUE DUP1 ISZERO PUSH2 0xF JUMPI PUSH0 PUSH0 REVERT JUMPDEST POP PUSH1 0x4 CALLDATASIZE LT PUSH2 0xCD JUMPI PUSH0 CALLDATALOAD PUSH1 0xE0 SHR DUP1 PUSH4 0x4FA76EC9 GT PUSH2 0x8A JUMPI DUP1 PUSH4 0x9AC498DE GT PUSH2 0x64 JUMPI DUP1 PUSH4 0x9AC498DE EQ PUSH2 0x218 JUMPI DUP1 PUSH4 0xC7F758A8 EQ PUSH2 0x248 JUMPI DUP1 PUSH4 0xC9D27AFE EQ PUSH2 0x27F JUMPI DUP1 PUSH4 0xDA35C664 EQ PUSH2 0x29B JUMPI PUSH2 0xCD JUMP JUMPDEST DUP1 PUSH4 0x4FA76EC9 EQ PUSH2 0x1C0 JUMPI DUP1 PUSH4 0x8DA5CB5B EQ PUSH2 0x1DE JUMPI DUP1 PUSH4 0x94A14A34 EQ PUSH2 0x1FC JUMPI PUSH2 0xCD JUMP JUMPDEST DUP1 PUSH4 0x13CF08B EQ PUSH2 0xD1 JUMPI DUP1 PUSH4 0xD61B519 EQ PUSH2 0x108 JUMPI DUP1 PUSH4 0x132002FC EQ PUSH2 0x124 JUMPI DUP1 PUSH4 0x2BBCA157 EQ PUSH2 0x142 JUMPI DUP1 PUSH4 0x43859632 EQ PUSH2 0x160 JUMPI DUP1 PUSH4 0x49C2A1A6 EQ PUSH2 0x190 JUMPI JUMPDEST PUSH0 PUSH0 REVERT JUMPDEST PUSH2 0xEB PUSH1 0x4 DUP1 CALLDATASIZE SUB DUP2 ADD SWAP1 PUSH2 0xE6 SWAP2 SWAP1 PUSH2 0xDD2 JUMP JUMPDEST PUSH2 0x2B9 JUMP JUMPDEST PUSH1 0x40 MLOAD PUSH2 0xFF SWAP9 SWAP8 SWAP7 SWAP6 SWAP5 SWAP4 SWAP3 SWAP2 SWAP1 PUSH2 0xED5 JUMP JUMPDEST PUSH1 0x40 MLOAD DUP1 SWAP2 SUB SWAP1 RETURN JUMPDEST PUSH2 0x122 PUSH1 0x4 DUP1 CALLDATASIZE SUB DUP2 ADD SWAP1 PUSH2 0x11D SWAP2 SWAP1 PUSH2 0xDD2 JUMP JUMPDEST PUSH2 0x3BB JUMP JUMPDEST STOP JUMPDEST PUSH2 0x12C PUSH2 0x5DC JUMP JUMPDEST PUSH1 0x40 MLOAD PUSH2 0x139 SWAP2 SWAP1 PUSH2 0xF58 JUMP JUMPDEST PUSH1 0x40 MLOAD DUP1 SWAP2 SUB SWAP1 RETURN JUMPDEST PUSH2 0x14A PUSH2 0x5E2 JUMP JUMPDEST PUSH1 0x40 MLOAD PUSH2 0x157 SWAP2 SWAP1 PUSH2 0xF58 JUMP JUMPDEST PUSH1 0x40 MLOAD DUP1 SWAP2 SUB SWAP1 RETURN JUMPDEST PUSH2 0x17A PUSH1 0x4 DUP1 CALLDATASIZE SUB DUP2 ADD SWAP1 PUSH2 0x175 SWAP2 SWAP1 PUSH2 0xF9B JUMP JUMPDEST PUSH2 0x5E8 JUMP JUMPDEST PUSH1 0x40 MLOAD PUSH2 0x187 SWAP2 SWAP1 PUSH2 0xFD9 JUMP JUMPDEST PUSH1 0x40 MLOAD DUP1 SWAP2 SUB SWAP1 RETURN JUMPDEST PUSH2 0x1AA PUSH1 0x4 DUP1 CALLDATASIZE SUB DUP2 ADD SWAP1 PUSH2 0x1A5 SWAP2 SWAP1 PUSH2 0x111E JUMP JUMPDEST PUSH2 0x612 JUMP JUMPDEST PUSH1 0x40 MLOAD PUSH2 0x1B7 SWAP2 SWAP1 PUSH2 0xF58 JUMP JUMPDEST PUSH1 0x40 MLOAD DUP1 SWAP2 SUB SWAP1 RETURN JUMPDEST PUSH2 0x1C8 PUSH2 0x7AB JUMP JUMPDEST PUSH1 0x40 MLOAD PUSH2 0x1D5 SWAP2 SWAP1 PUSH2 0xF58 JUMP JUMPDEST PUSH1 0x40 MLOAD DUP1 SWAP2 SUB SWAP1 RETURN JUMPDEST PUSH2 0x1E6 PUSH2 0x7B1 JUMP JUMPDEST PUSH1 0x40 MLOAD PUSH2 0x1F3 SWAP2 SWAP1 PUSH2 0x1165 JUMP JUMPDEST PUSH1 0x40 MLOAD DUP1 SWAP2 SUB SWAP1 RETURN JUMPDEST PUSH2 0x216 PUSH1 0x4 DUP1 CALLDATASIZE SUB DUP2 ADD SWAP1 PUSH2 0x211 SWAP2 SWAP1 PUSH2 0xDD2 JUMP JUMPDEST PUSH2 0x7D5 JUMP JUMPDEST STOP JUMPDEST PUSH2 0x232 PUSH1 0x4 DUP1 CALLDATASIZE SUB DUP2 ADD SWAP1 PUSH2 0x22D SWAP2 SWAP1 PUSH2 0xDD2 JUMP JUMPDEST PUSH2 0xA38 JUMP JUMPDEST PUSH1 0x40 MLOAD PUSH2 0x23F SWAP2 SWAP1 PUSH2 0xF58 JUMP JUMPDEST PUSH1 0x40 MLOAD DUP1 SWAP2 SUB SWAP1 RETURN JUMPDEST PUSH2 0x262 PUSH1 0x4 DUP1 CALLDATASIZE SUB DUP2 ADD SWAP1 PUSH2 0x25D SWAP2 SWAP1 PUSH2 0xDD2 JUMP JUMPDEST PUSH2 0xA4D JUMP JUMPDEST PUSH1 0x40 MLOAD PUSH2 0x276 SWAP9 SWAP8 SWAP7 SWAP6 SWAP5 SWAP4 SWAP3 SWAP2 SWAP1 PUSH2 0xED5 JUMP JUMPDEST PUSH1 0x40 MLOAD DUP1 SWAP2 SUB SWAP1 RETURN JUMPDEST PUSH2 0x299 PUSH1 0x4 DUP1 CALLDATASIZE SUB DUP2 ADD SWAP1 PUSH2 0x294 SWAP2 SWAP1 PUSH2 0x11A8 JUMP JUMPDEST PUSH2 0xB6E JUMP JUMPDEST STOP JUMPDEST PUSH2 0x2A3 PUSH2 0xD88 JUMP JUMPDEST PUSH1 0x40 MLOAD PUSH2 0x2B0 SWAP2 SWAP1 PUSH2 0xF58 JUMP JUMPDEST PUSH1 0x40 MLOAD DUP1 SWAP2 SUB SWAP1 RETURN JUMPDEST PUSH1 0x6 PUSH1 0x20 MSTORE DUP1 PUSH0 MSTORE PUSH1 0x40 PUSH0 KECCAK256 PUSH0 SWAP2 POP SWAP1 POP DUP1 PUSH0 ADD SLOAD SWAP1 DUP1 PUSH1 0x1 ADD PUSH0 SWAP1 SLOAD SWAP1 PUSH2 0x100 EXP SWAP1 DIV PUSH20 0xFFFFFFFFFFFFFFFFFFFFFFFFFFFFFFFFFFFFFFFF AND SWAP1 DUP1 PUSH1 0x2 ADD DUP1 SLOAD PUSH2 0x303 SWAP1 PUSH2 0x1213 JUMP JUMPDEST DUP1 PUSH1 0x1F ADD PUSH1 0x20 DUP1 SWAP2 DIV MUL PUSH1 0x20 ADD PUSH1 0x40 MLOAD SWAP1 DUP2 ADD PUSH1 0x40 MSTORE DUP1 SWAP3 SWAP2 SWAP1 DUP2 DUP2 MSTORE PUSH1 0x20 ADD DUP3 DUP1 SLOAD PUSH2 0x32F SWAP1 PUSH2 0x1213 JUMP JUMPDEST DUP1 ISZERO PUSH2 0x37A JUMPI DUP1 PUSH1 0x1F LT PUSH2 0x351 JUMPI PUSH2 0x100 DUP1 DUP4 SLOAD DIV MUL DUP4 MSTORE SWAP2 PUSH1 0x20 ADD SWAP2 PUSH2 0x37A JUMP JUMPDEST DUP3 ADD SWAP2 SWAP1 PUSH0 MSTORE PUSH1 0x20 PUSH0 KECCAK256 SWAP1 JUMPDEST DUP2 SLOAD DUP2 MSTORE SWAP1 PUSH1 0x1 ADD SWAP1 PUSH1 0x20 ADD DUP1 DUP4 GT PUSH2 0x35D JUMPI DUP3 SWAP1 SUB PUSH1 0x1F AND DUP3 ADD SWAP2 JUMPDEST POP POP POP POP POP SWAP1 DUP1 PUSH1 0x3 ADD SLOAD SWAP1 DUP1 PUSH1 0x4 ADD SLOAD SWAP1 DUP1 PUSH1 0x5 ADD SLOAD SWAP1 DUP1 PUSH1 0x6 ADD PUSH0 SWAP1 SLOAD SWAP1 PUSH2 0x100 EXP SWAP1 DIV PUSH1 0xFF AND SWAP1 DUP1 PUSH1 0x6 ADD PUSH1 0x1 SWAP1 SLOAD SWAP1 PUSH2 0x100 EXP SWAP1 DIV PUSH1 0xFF AND SWAP1 POP DUP9 JUMP JUMPDEST PUSH0 PUSH1 0x6 PUSH0 DUP4 DUP2 MSTORE PUSH1 0x20 ADD SWAP1 DUP2 MSTORE PUSH1 0x20 ADD PUSH0 KECCAK256 SWAP1 POP PUSH0 DUP2 PUSH0 ADD SLOAD SUB PUSH2 0x414 JUMPI PUSH1 0x40 MLOAD PUSH32 0x8C379A000000000000000000000000000000000000000000000000000000000 DUP2 MSTORE PUSH1 0x4 ADD PUSH2 0x40B SWAP1 PUSH2 0x128D JUMP JUMPDEST PUSH1 0x40 MLOAD DUP1 SWAP2 SUB SWAP1 REVERT JUMPDEST DUP1 PUSH1 0x6 ADD PUSH0 SWAP1 SLOAD SWAP1 PUSH2 0x100 EXP SWAP1 DIV PUSH1 0xFF AND ISZERO PUSH2 0x465 JUMPI PUSH1 0x40 MLOAD PUSH32 0x8C379A000000000000000000000000000000000000000000000000000000000 DUP2 MSTORE PUSH1 0x4 ADD PUSH2 0x45C SWAP1 PUSH2 0x12F5 JUMP JUMPDEST PUSH1 0x40 MLOAD DUP1 SWAP2 SUB SWAP1 REVERT JUMPDEST PUSH0 PUSH1 0x5 PUSH0 DUP5 DUP2 MSTORE PUSH1 0x20 ADD SWAP1 DUP2 MSTORE PUSH1 0x20 ADD PUSH0 KECCAK256 SLOAD SUB PUSH2 0x4B8 JUMPI PUSH1 0x40 MLOAD PUSH32 0x8C379A000000000000000000000000000000000000000000000000000000000 DUP2 MSTORE PUSH1 0x4 ADD PUSH2 0x4AF SWAP1 PUSH2 0x135D JUMP JUMPDEST PUSH1 0x40 MLOAD DUP1 SWAP2 SUB SWAP1 REVERT JUMPDEST PUSH1 0x4 SLOAD PUSH1 0x5 PUSH0 DUP5 DUP2 MSTORE PUSH1 0x20 ADD SWAP1 DUP2 MSTORE PUSH1 0x20 ADD PUSH0 KECCAK256 SLOAD PUSH2 0x4D7 SWAP2 SWAP1 PUSH2 0x13A8 JUMP JUMPDEST TIMESTAMP LT ISZERO PUSH2 0x519 JUMPI PUSH1 0x40 MLOAD PUSH32 0x8C379A000000000000000000000000000000000000000000000000000000000 DUP2 MSTORE PUSH1 0x4 ADD PUSH2 0x510 SWAP1 PUSH2 0x1425 JUMP JUMPDEST PUSH1 0x40 MLOAD DUP1 SWAP2 SUB SWAP1 REVERT JUMPDEST PUSH0 DUP2 PUSH1 0x4 ADD SLOAD DUP3 PUSH1 0x3 ADD SLOAD PUSH2 0x52E SWAP2 SWAP1 PUSH2 0x13A8 JUMP JUMPDEST SWAP1 POP PUSH0 DUP2 PUSH1 0x64 DUP5 PUSH1 0x3 ADD SLOAD PUSH2 0x543 SWAP2 SWAP1 PUSH2 0x1443 JUMP JUMPDEST PUSH2 0x54D SWAP2 SWAP1 PUSH2 0x14B1 JUMP JUMPDEST SWAP1 POP PUSH1 0x1 DUP4 PUSH1 0x6 ADD PUSH0 PUSH2 0x100 EXP DUP2 SLOAD DUP2 PUSH1 0xFF MUL NOT AND SWAP1 DUP4 ISZERO ISZERO MUL OR SWAP1 SSTORE POP PUSH1 0x3 SLOAD DUP2 LT ISZERO DUP4 PUSH1 0x6 ADD PUSH1 0x1 PUSH2 0x100 EXP DUP2 SLOAD DUP2 PUSH1 0xFF MUL NOT AND SWAP1 DUP4 ISZERO ISZERO MUL OR SWAP1 SSTORE POP PUSH32 0x948F4A9CD986F1118C3FBD459F7A22B23C0693E1CA3EF06A6A8BE5AA7D39CC03 DUP5 DUP5 PUSH1 0x6 ADD PUSH1 0x1 SWAP1 SLOAD SWAP1 PUSH2 0x100 EXP SWAP1 DIV PUSH1 0xFF AND PUSH1 0x40 MLOAD PUSH2 0x5CE SWAP3 SWAP2 SWAP1 PUSH2 0x14E1 JUMP JUMPDEST PUSH1 0x40 MLOAD DUP1 SWAP2 SUB SWAP1 LOG1 POP POP POP POP JUMP JUMPDEST PUSH1 0x2 SLOAD DUP2 JUMP JUMPDEST PUSH1 0x4 SLOAD DUP2 JUMP JUMPDEST PUSH1 0x7 PUSH1 0x20 MSTORE DUP2 PUSH0 MSTORE PUSH1 0x40 PUSH0 KECCAK256 PUSH1 0x20 MSTORE DUP1 PUSH0 MSTORE PUSH1 0x40 PUSH0 KECCAK256 PUSH0 SWAP2 POP SWAP2 POP SWAP1 SLOAD SWAP1 PUSH2 0x100 EXP SWAP1 DIV PUSH1 0xFF AND DUP2 JUMP JUMPDEST PUSH0 PUSH1 0x1 PUSH0 DUP2 SLOAD DUP1 SWAP3 SWAP2 SWAP1 PUSH2 0x625 SWAP1 PUSH2 0x1508 JUMP JUMPDEST SWAP2 SWAP1 POP SSTORE POP PUSH1 0x40 MLOAD DUP1 PUSH2 0x100 ADD PUSH1 0x40 MSTORE DUP1 PUSH1 0x1 SLOAD DUP2 MSTORE PUSH1 0x20 ADD CALLER PUSH20 0xFFFFFFFFFFFFFFFFFFFFFFFFFFFFFFFFFFFFFFFF AND DUP2 MSTORE PUSH1 0x20 ADD DUP4 DUP2 MSTORE PUSH1 0x20 ADD PUSH0 DUP2 MSTORE PUSH1 0x20 ADD PUSH0 DUP2 MSTORE PUSH1 0x20 ADD PUSH1 0x2 SLOAD TIMESTAMP PUSH2 0x67A SWAP2 SWAP1 PUSH2 0x13A8 JUMP JUMPDEST DUP2 MSTORE PUSH1 0x20 ADD PUSH0 ISZERO ISZERO DUP2 MSTORE PUSH1 0x20 ADD PUSH0 ISZERO ISZERO DUP2 MSTORE POP PUSH1 0x6 PUSH0 PUSH1 0x1 SLOAD DUP2 MSTORE PUSH1 0x20 ADD SWAP1 DUP2 MSTORE PUSH1 0x20 ADD PUSH0 KECCAK256 PUSH0 DUP3 ADD MLOAD DUP2 PUSH0 ADD SSTORE PUSH1 0x20 DUP3 ADD MLOAD DUP2 PUSH1 0x1 ADD PUSH0 PUSH2 0x100 EXP DUP2 SLOAD DUP2 PUSH20 0xFFFFFFFFFFFFFFFFFFFFFFFFFFFFFFFFFFFFFFFF MUL NOT AND SWAP1 DUP4 PUSH20 0xFFFFFFFFFFFFFFFFFFFFFFFFFFFFFFFFFFFFFFFF AND MUL OR SWAP1 SSTORE POP PUSH1 0x40 DUP3 ADD MLOAD DUP2 PUSH1 0x2 ADD SWAP1 DUP2 PUSH2 0x703 SWAP2 SWAP1 PUSH2 0x1700 JUMP JUMPDEST POP PUSH1 0x60 DUP3 ADD MLOAD DUP2 PUSH1 0x3 ADD SSTORE PUSH1 0x80 DUP3 ADD MLOAD DUP2 PUSH1 0x4 ADD SSTORE PUSH1 0xA0 DUP3 ADD MLOAD DUP2 PUSH1 0x5 ADD SSTORE PUSH1 0xC0 DUP3 ADD MLOAD DUP2 PUSH1 0x6 ADD PUSH0 PUSH2 0x100 EXP DUP2 SLOAD DUP2 PUSH1 0xFF MUL NOT AND SWAP1 DUP4 ISZERO ISZERO MUL OR SWAP1 SSTORE POP PUSH1 0xE0 DUP3 ADD MLOAD DUP2 PUSH1 0x6 ADD PUSH1 0x1 PUSH2 0x100 EXP DUP2 SLOAD DUP2 PUSH1 0xFF MUL NOT AND SWAP1 DUP4 ISZERO ISZERO MUL OR SWAP1 SSTORE POP SWAP1 POP POP PUSH32 0x7585F467599D0F008985F231AF99293BE388626AC16CA59505C2F8F88969CD63 PUSH1 0x1 SLOAD CALLER DUP5 PUSH1 0x40 MLOAD PUSH2 0x799 SWAP4 SWAP3 SWAP2 SWAP1 PUSH2 0x17CF JUMP JUMPDEST PUSH1 0x40 MLOAD DUP1 SWAP2 SUB SWAP1 LOG1 PUSH1 0x1 SLOAD SWAP1 POP SWAP2 SWAP1 POP JUMP JUMPDEST PUSH1 0x3 SLOAD DUP2 JUMP JUMPDEST PUSH0 PUSH0 SWAP1 SLOAD SWAP1 PUSH2 0x100 EXP SWAP1 DIV PUSH20 0xFFFFFFFFFFFFFFFFFFFFFFFFFFFFFFFFFFFFFFFF AND DUP2 JUMP JUMPDEST PUSH0 PUSH1 0x6 PUSH0 DUP4 DUP2 MSTORE PUSH1 0x20 ADD SWAP1 DUP2 MSTORE PUSH1 0x20 ADD PUSH0 KECCAK256 SWAP1 POP PUSH0 DUP2 PUSH0 ADD SLOAD SUB PUSH2 0x82E JUMPI PUSH1 0x40 MLOAD PUSH32 0x8C379A000000000000000000000000000000000000000000000000000000000 DUP2 MSTORE PUSH1 0x4 ADD PUSH2 0x825 SWAP1 PUSH2 0x128D JUMP JUMPDEST PUSH1 0x40 MLOAD DUP1 SWAP2 SUB SWAP1 REVERT JUMPDEST DUP1 PUSH1 0x5 ADD SLOAD TIMESTAMP LT ISZERO PUSH2 0x875 JUMPI PUSH1 0x40 MLOAD PUSH32 0x8C379A000000000000000000000000000000000000000000000000000000000 DUP2 MSTORE PUSH1 0x4 ADD PUSH2 0x86C SWAP1 PUSH2 0x1855 JUMP JUMPDEST PUSH1 0x40 MLOAD DUP1 SWAP2 SUB SWAP1 REVERT JUMPDEST DUP1 PUSH1 0x6 ADD PUSH0 SWAP1 SLOAD SWAP1 PUSH2 0x100 EXP SWAP1 DIV PUSH1 0xFF AND ISZERO PUSH2 0x8C6 JUMPI PUSH1 0x40 MLOAD PUSH32 0x8C379A000000000000000000000000000000000000000000000000000000000 DUP2 MSTORE PUSH1 0x4 ADD PUSH2 0x8BD SWAP1 PUSH2 0x12F5 JUMP JUMPDEST PUSH1 0x40 MLOAD DUP1 SWAP2 SUB SWAP1 REVERT JUMPDEST PUSH0 PUSH1 0x5 PUSH0 DUP5 DUP2 MSTORE PUSH1 0x20 ADD SWAP1 DUP2 MSTORE PUSH1 0x20 ADD PUSH0 KECCAK256 SLOAD EQ PUSH2 0x919 JUMPI PUSH1 0x40 MLOAD PUSH32 0x8C379A000000000000000000000000000000000000000000000000000000000 DUP2 MSTORE PUSH1 0x4 ADD PUSH2 0x910 SWAP1 PUSH2 0x18BD JUMP JUMPDEST PUSH1 0x40 MLOAD DUP1 SWAP2 SUB SWAP1 REVERT JUMPDEST PUSH0 DUP2 PUSH1 0x4 ADD SLOAD DUP3 PUSH1 0x3 ADD SLOAD PUSH2 0x92E SWAP2 SWAP1 PUSH2 0x13A8 JUMP JUMPDEST SWAP1 POP PUSH0 DUP2 GT PUSH2 0x972 JUMPI PUSH1 0x40 MLOAD PUSH32 0x8C379A000000000000000000000000000000000000000000000000000000000 DUP2 MSTORE PUSH1 0x4 ADD PUSH2 0x969 SWAP1 PUSH2 0x1925 JUMP JUMPDEST PUSH1 0x40 MLOAD DUP1 SWAP2 SUB SWAP1 REVERT JUMPDEST PUSH0 DUP2 PUSH1 0x64 DUP5 PUSH1 0x3 ADD SLOAD PUSH2 0x985 SWAP2 SWAP1 PUSH2 0x1443 JUMP JUMPDEST PUSH2 0x98F SWAP2 SWAP1 PUSH2 0x14B1 JUMP JUMPDEST SWAP1 POP PUSH1 0x3 SLOAD DUP2 LT ISZERO PUSH2 0x9D6 JUMPI PUSH1 0x40 MLOAD PUSH32 0x8C379A000000000000000000000000000000000000000000000000000000000 DUP2 MSTORE PUSH1 0x4 ADD PUSH2 0x9CD SWAP1 PUSH2 0x198D JUMP JUMPDEST PUSH1 0x40 MLOAD DUP1 SWAP2 SUB SWAP1 REVERT JUMPDEST TIMESTAMP PUSH1 0x5 PUSH0 DUP7 DUP2 MSTORE PUSH1 0x20 ADD SWAP1 DUP2 MSTORE PUSH1 0x20 ADD PUSH0 KECCAK256 DUP2 SWAP1 SSTORE POP PUSH32 0x9A2E42FD6722813D69113E7D0079D3D940171428DF7373DF9C7F7617CFDA2892 DUP5 PUSH1 0x4 SLOAD TIMESTAMP PUSH2 0xA1C SWAP2 SWAP1 PUSH2 0x13A8 JUMP JUMPDEST PUSH1 0x40 MLOAD PUSH2 0xA2A SWAP3 SWAP2 SWAP1 PUSH2 0x19AB JUMP JUMPDEST PUSH1 0x40 MLOAD DUP1 SWAP2 SUB SWAP1 LOG1 POP POP POP POP JUMP JUMPDEST PUSH1 0x5 PUSH1 0x20 MSTORE DUP1 PUSH0 MSTORE PUSH1 0x40 PUSH0 KECCAK256 PUSH0 SWAP2 POP SWAP1 POP SLOAD DUP2 JUMP JUMPDEST PUSH0 PUSH0 PUSH1 0x60 PUSH0 PUSH0 PUSH0 PUSH0 PUSH0 PUSH0 PUSH1 0x6 PUSH0 DUP12 DUP2 MSTORE PUSH1 0x20 ADD SWAP1 DUP2 MSTORE PUSH1 0x20 ADD PUSH0 KECCAK256 SWAP1 POP DUP1 PUSH0 ADD SLOAD DUP2 PUSH1 0x1 ADD PUSH0 SWAP1 SLOAD SWAP1 PUSH2 0x100 EXP SWAP1 DIV PUSH20 0xFFFFFFFFFFFFFFFFFFFFFFFFFFFFFFFFFFFFFFFF AND DUP3 PUSH1 0x2 ADD DUP4 PUSH1 0x3 ADD SLOAD DUP5 PUSH1 0x4 ADD SLOAD DUP6 PUSH1 0x5 ADD SLOAD DUP7 PUSH1 0x6 ADD PUSH0 SWAP1 SLOAD SWAP1 PUSH2 0x100 EXP SWAP1 DIV PUSH1 0xFF AND DUP8 PUSH1 0x6 ADD PUSH1 0x1 SWAP1 SLOAD SWAP1 PUSH2 0x100 EXP SWAP1 DIV PUSH1 0xFF AND DUP6 DUP1 SLOAD PUSH2 0xAD4 SWAP1 PUSH2 0x1213 JUMP JUMPDEST DUP1 PUSH1 0x1F ADD PUSH1 0x20 DUP1 SWAP2 DIV MUL PUSH1 0x20 ADD PUSH1 0x40 MLOAD SWAP1 DUP2 ADD PUSH1 0x40 MSTORE DUP1 SWAP3 SWAP2 SWAP1 DUP2 DUP2 MSTORE PUSH1 0x20 ADD DUP3 DUP1 SLOAD PUSH2 0xB00 SWAP1 PUSH2 0x1213 JUMP JUMPDEST DUP1 ISZERO PUSH2 0xB4B JUMPI DUP1 PUSH1 0x1F LT PUSH2 0xB22 JUMPI PUSH2 0x100 DUP1 DUP4 SLOAD DIV MUL DUP4 MSTORE SWAP2 PUSH1 0x20 ADD SWAP2 PUSH2 0xB4B JUMP JUMPDEST DUP3 ADD SWAP2 SWAP1 PUSH0 MSTORE PUSH1 0x20 PUSH0 KECCAK256 SWAP1 JUMPDEST DUP2 SLOAD DUP2 MSTORE SWAP1 PUSH1 0x1 ADD SWAP1 PUSH1 0x20 ADD DUP1 DUP4 GT PUSH2 0xB2E JUMPI DUP3 SWAP1 SUB PUSH1 0x1F AND DUP3 ADD SWAP2 JUMPDEST POP POP POP POP POP SWAP6 POP SWAP9 POP SWAP9 POP SWAP9 POP SWAP9 POP SWAP9 POP SWAP9 POP SWAP9 POP SWAP9 POP POP SWAP2 SWAP4 SWAP6 SWAP8 POP SWAP2 SWAP4 SWAP6 SWAP8 JUMP JUMPDEST PUSH0 PUSH1 0x6 PUSH0 DUP5 DUP2 MSTORE PUSH1 0x20 ADD SWAP1 DUP2 MSTORE PUSH1 0x20 ADD PUSH0 KECCAK256 SWAP1 POP DUP1 PUSH1 0x5 ADD SLOAD TIMESTAMP LT PUSH2 0xBC8 JUMPI PUSH1 0x40 MLOAD PUSH32 0x8C379A000000000000000000000000000000000000000000000000000000000 DUP2 MSTORE PUSH1 0x4 ADD PUSH2 0xBBF SWAP1 PUSH2 0x1A1C JUMP JUMPDEST PUSH1 0x40 MLOAD DUP1 SWAP2 SUB SWAP1 REVERT JUMPDEST PUSH1 0x7 PUSH0 DUP5 DUP2 MSTORE PUSH1 0x20 ADD SWAP1 DUP2 MSTORE PUSH1 0x20 ADD PUSH0 KECCAK256 PUSH0 CALLER PUSH20 0xFFFFFFFFFFFFFFFFFFFFFFFFFFFFFFFFFFFFFFFF AND PUSH20 0xFFFFFFFFFFFFFFFFFFFFFFFFFFFFFFFFFFFFFFFF AND DUP2 MSTORE PUSH1 0x20 ADD SWAP1 DUP2 MSTORE PUSH1 0x20 ADD PUSH0 KECCAK256 PUSH0 SWAP1 SLOAD SWAP1 PUSH2 0x100 EXP SWAP1 DIV PUSH1 0xFF AND ISZERO PUSH2 0xC61 JUMPI PUSH1 0x40 MLOAD PUSH32 0x8C379A000000000000000000000000000000000000000000000000000000000 DUP2 MSTORE PUSH1 0x4 ADD PUSH2 0xC58 SWAP1 PUSH2 0x1A84 JUMP JUMPDEST PUSH1 0x40 MLOAD DUP1 SWAP2 SUB SWAP1 REVERT JUMPDEST PUSH0 DUP2 PUSH0 ADD SLOAD SUB PUSH2 0xCA6 JUMPI PUSH1 0x40 MLOAD PUSH32 0x8C379A000000000000000000000000000000000000000000000000000000000 DUP2 MSTORE PUSH1 0x4 ADD PUSH2 0xC9D SWAP1 PUSH2 0x128D JUMP JUMPDEST PUSH1 0x40 MLOAD DUP1 SWAP2 SUB SWAP1 REVERT JUMPDEST PUSH1 0x1 PUSH1 0x7 PUSH0 DUP6 DUP2 MSTORE PUSH1 0x20 ADD SWAP1 DUP2 MSTORE PUSH1 0x20 ADD PUSH0 KECCAK256 PUSH0 CALLER PUSH20 0xFFFFFFFFFFFFFFFFFFFFFFFFFFFFFFFFFFFFFFFF AND PUSH20 0xFFFFFFFFFFFFFFFFFFFFFFFFFFFFFFFFFFFFFFFF AND DUP2 MSTORE PUSH1 0x20 ADD SWAP1 DUP2 MSTORE PUSH1 0x20 ADD PUSH0 KECCAK256 PUSH0 PUSH2 0x100 EXP DUP2 SLOAD DUP2 PUSH1 0xFF MUL NOT AND SWAP1 DUP4 ISZERO ISZERO MUL OR SWAP1 SSTORE POP DUP2 ISZERO PUSH2 0xD2E JUMPI DUP1 PUSH1 0x3 ADD PUSH0 DUP2 SLOAD DUP1 SWAP3 SWAP2 SWAP1 PUSH2 0xD24 SWAP1 PUSH2 0x1508 JUMP JUMPDEST SWAP2 SWAP1 POP SSTORE POP PUSH2 0xD48 JUMP JUMPDEST DUP1 PUSH1 0x4 ADD PUSH0 DUP2 SLOAD DUP1 SWAP3 SWAP2 SWAP1 PUSH2 0xD42 SWAP1 PUSH2 0x1508 JUMP JUMPDEST SWAP2 SWAP1 POP SSTORE POP JUMPDEST PUSH32 0xF2913DBE661EE2ACC4A046D8FBCDC792373BDA34C41C6086484B5345E5785E5F DUP4 CALLER DUP5 PUSH1 0x40 MLOAD PUSH2 0xD7B SWAP4 SWAP3 SWAP2 SWAP1 PUSH2 0x1AA2 JUMP JUMPDEST PUSH1 0x40 MLOAD DUP1 SWAP2 SUB SWAP1 LOG1 POP POP POP JUMP JUMPDEST PUSH1 0x1 SLOAD DUP2 JUMP JUMPDEST PUSH0 PUSH1 0x40 MLOAD SWAP1 POP SWAP1 JUMP JUMPDEST PUSH0 PUSH0 REVERT JUMPDEST PUSH0 PUSH0 REVERT JUMPDEST PUSH0 DUP2 SWAP1 POP SWAP2 SWAP1 POP JUMP JUMPDEST PUSH2 0xDB1 DUP2 PUSH2 0xD9F JUMP JUMPDEST DUP2 EQ PUSH2 0xDBB JUMPI PUSH0 PUSH0 REVERT JUMPDEST POP JUMP JUMPDEST PUSH0 DUP2 CALLDATALOAD SWAP1 POP PUSH2 0xDCC DUP2 PUSH2 0xDA8 JUMP JUMPDEST SWAP3 SWAP2 POP POP JUMP JUMPDEST PUSH0 PUSH1 0x20 DUP3 DUP5 SUB SLT ISZERO PUSH2 0xDE7 JUMPI PUSH2 0xDE6 PUSH2 0xD97 JUMP JUMPDEST JUMPDEST PUSH0 PUSH2 0xDF4 DUP5 DUP3 DUP6 ADD PUSH2 0xDBE JUMP JUMPDEST SWAP2 POP POP SWAP3 SWAP2 POP POP JUMP JUMPDEST PUSH2 0xE06 DUP2 PUSH2 0xD9F JUMP JUMPDEST DUP3 MSTORE POP POP JUMP JUMPDEST PUSH0 PUSH20 0xFFFFFFFFFFFFFFFFFFFFFFFFFFFFFFFFFFFFFFFF DUP3 AND SWAP1 POP SWAP2 SWAP1 POP JUMP JUMPDEST PUSH0 PUSH2 0xE35 DUP3 PUSH2 0xE0C JUMP JUMPDEST SWAP1 POP SWAP2 SWAP1 POP JUMP JUMPDEST PUSH2 0xE45 DUP2 PUSH2 0xE2B JUMP JUMPDEST DUP3 MSTORE POP POP JUMP JUMPDEST PUSH0 DUP2 MLOAD SWAP1 POP SWAP2 SWAP1 POP JUMP JUMPDEST PUSH0 DUP3 DUP3 MSTORE PUSH1 0x20 DUP3 ADD SWAP1 POP SWAP3 SWAP2 POP POP JUMP JUMPDEST DUP3 DUP2 DUP4 MCOPY PUSH0 DUP4 DUP4 ADD MSTORE POP POP POP JUMP JUMPDEST PUSH0 PUSH1 0x1F NOT PUSH1 0x1F DUP4 ADD AND SWAP1 POP SWAP2 SWAP1 POP JUMP JUMPDEST PUSH0 PUSH2 0xE8D DUP3 PUSH2 0xE4B JUMP JUMPDEST PUSH2 0xE97 DUP2 DUP6 PUSH2 0xE55 JUMP JUMPDEST SWAP4 POP PUSH2 0xEA7 DUP2 DUP6 PUSH1 0x20 DUP7 ADD PUSH2 0xE65 JUMP JUMPDEST PUSH2 0xEB0 DUP2 PUSH2 0xE73 JUMP JUMPDEST DUP5 ADD SWAP2 POP POP SWAP3 SWAP2 POP POP JUMP JUMPDEST PUSH0 DUP2 ISZERO ISZERO SWAP1 POP SWAP2 SWAP1 POP JUMP JUMPDEST PUSH2 0xECF DUP2 PUSH2 0xEBB JUMP JUMPDEST DUP3 MSTORE POP POP JUMP JUMPDEST PUSH0 PUSH2 0x100 DUP3 ADD SWAP1 POP PUSH2 0xEE9 PUSH0 DUP4 ADD DUP12 PUSH2 0xDFD JUMP JUMPDEST PUSH2 0xEF6 PUSH1 0x20 DUP4 ADD DUP11 PUSH2 0xE3C JUMP JUMPDEST DUP2 DUP2 SUB PUSH1 0x40 DUP4 ADD MSTORE PUSH2 0xF08 DUP2 DUP10 PUSH2 0xE83 JUMP JUMPDEST SWAP1 POP PUSH2 0xF17 PUSH1 0x60 DUP4 ADD DUP9 PUSH2 0xDFD JUMP JUMPDEST PUSH2 0xF24 PUSH1 0x80 DUP4 ADD DUP8 PUSH2 0xDFD JUMP JUMPDEST PUSH2 0xF31 PUSH1 0xA0 DUP4 ADD DUP7 PUSH2 0xDFD JUMP JUMPDEST PUSH2 0xF3E PUSH1 0xC0 DUP4 ADD DUP6 PUSH2 0xEC6 JUMP JUMPDEST PUSH2 0xF4B PUSH1 0xE0 DUP4 ADD DUP5 PUSH2 0xEC6 JUMP JUMPDEST SWAP10 SWAP9 POP POP POP POP POP POP POP POP POP JUMP JUMPDEST PUSH0 PUSH1 0x20 DUP3 ADD SWAP1 POP PUSH2 0xF6B PUSH0 DUP4 ADD DUP5 PUSH2 0xDFD JUMP JUMPDEST SWAP3 SWAP2 POP POP JUMP JUMPDEST PUSH2 0xF7A DUP2 PUSH2 0xE2B JUMP JUMPDEST DUP2 EQ PUSH2 0xF84 JUMPI PUSH0 PUSH0 REVERT JUMPDEST POP JUMP JUMPDEST PUSH0 DUP2 CALLDATALOAD SWAP1 POP PUSH2 0xF95 DUP2 PUSH2 0xF71 JUMP JUMPDEST SWAP3 SWAP2 POP POP JUMP JUMPDEST PUSH0 PUSH0 PUSH1 0x40 DUP4 DUP6 SUB SLT ISZERO PUSH2 0xFB1 JUMPI PUSH2 0xFB0 PUSH2 0xD97 JUMP JUMPDEST JUMPDEST PUSH0 PUSH2 0xFBE DUP6 DUP3 DUP7 ADD PUSH2 0xDBE JUMP JUMPDEST SWAP3 POP POP PUSH1 0x20 PUSH2 0xFCF DUP6 DUP3 DUP7 ADD PUSH2 0xF87 JUMP JUMPDEST SWAP2 POP POP SWAP3 POP SWAP3 SWAP1 POP JUMP JUMPDEST PUSH0 PUSH1 0x20 DUP3 ADD SWAP1 POP PUSH2 0xFEC PUSH0 DUP4 ADD DUP5 PUSH2 0xEC6 JUMP JUMPDEST SWAP3 SWAP2 POP POP JUMP JUMPDEST PUSH0 PUSH0 REVERT JUMPDEST PUSH0 PUSH0 REVERT JUMPDEST PUSH32 0x4E487B7100000000000000000000000000000000000000000000000000000000 PUSH0 MSTORE PUSH1 0x41 PUSH1 0x4 MSTORE PUSH1 0x24 PUSH0 REVERT JUMPDEST PUSH2 0x1030 DUP3 PUSH2 0xE73 JUMP JUMPDEST DUP2 ADD DUP2 DUP2 LT PUSH8 0xFFFFFFFFFFFFFFFF DUP3 GT OR ISZERO PUSH2 0x104F JUMPI PUSH2 0x104E PUSH2 0xFFA JUMP JUMPDEST JUMPDEST DUP1 PUSH1 0x40 MSTORE POP POP POP JUMP JUMPDEST PUSH0 PUSH2 0x1061 PUSH2 0xD8E JUMP JUMPDEST SWAP1 POP PUSH2 0x106D DUP3 DUP3 PUSH2 0x1027 JUMP JUMPDEST SWAP2 SWAP1 POP JUMP JUMPDEST PUSH0 PUSH8 0xFFFFFFFFFFFFFFFF DUP3 GT ISZERO PUSH2 0x108C JUMPI PUSH2 0x108B PUSH2 0xFFA JUMP JUMPDEST JUMPDEST PUSH2 0x1095 DUP3 PUSH2 0xE73 JUMP JUMPDEST SWAP1 POP PUSH1 0x20 DUP2 ADD SWAP1 POP SWAP2 SWAP1 POP JUMP JUMPDEST DUP3 DUP2 DUP4 CALLDATACOPY PUSH0 DUP4 DUP4 ADD MSTORE POP POP POP JUMP JUMPDEST PUSH0 PUSH2 0x10C2 PUSH2 0x10BD DUP5 PUSH2 0x1072 JUMP JUMPDEST PUSH2 0x1058 JUMP JUMPDEST SWAP1 POP DUP3 DUP2 MSTORE PUSH1 0x20 DUP2 ADD DUP5 DUP5 DUP5 ADD GT ISZERO PUSH2 0x10DE JUMPI PUSH2 0x10DD PUSH2 0xFF6 JUMP JUMPDEST JUMPDEST PUSH2 0x10E9 DUP5 DUP3 DUP6 PUSH2 0x10A2 JUMP JUMPDEST POP SWAP4 SWAP3 POP POP POP JUMP JUMPDEST PUSH0 DUP3 PUSH1 0x1F DUP4 ADD SLT PUSH2 0x1105 JUMPI PUSH2 0x1104 PUSH2 0xFF2 JUMP JUMPDEST JUMPDEST DUP2 CALLDATALOAD PUSH2 0x1115 DUP5 DUP3 PUSH1 0x20 DUP7 ADD PUSH2 0x10B0 JUMP JUMPDEST SWAP2 POP POP SWAP3 SWAP2 POP POP JUMP JUMPDEST PUSH0 PUSH1 0x20 DUP3 DUP5 SUB SLT ISZERO PUSH2 0x1133 JUMPI PUSH2 0x1132 PUSH2 0xD97 JUMP JUMPDEST JUMPDEST PUSH0 DUP3 ADD CALLDATALOAD PUSH8 0xFFFFFFFFFFFFFFFF DUP2 GT ISZERO PUSH2 0x1150 JUMPI PUSH2 0x114F PUSH2 0xD9B JUMP JUMPDEST JUMPDEST PUSH2 0x115C DUP5 DUP3 DUP6 ADD PUSH2 0x10F1 JUMP JUMPDEST SWAP2 POP POP SWAP3 SWAP2 POP POP JUMP JUMPDEST PUSH0 PUSH1 0x20 DUP3 ADD SWAP1 POP PUSH2 0x1178 PUSH0 DUP4 ADD DUP5 PUSH2 0xE3C JUMP JUMPDEST SWAP3 SWAP2 POP POP JUMP JUMPDEST PUSH2 0x1187 DUP2 PUSH2 0xEBB JUMP JUMPDEST DUP2 EQ PUSH2 0x1191 JUMPI PUSH0 PUSH0 REVERT JUMPDEST POP JUMP JUMPDEST PUSH0 DUP2 CALLDATALOAD SWAP1 POP PUSH2 0x11A2 DUP2 PUSH2 0x117E JUMP JUMPDEST SWAP3 SWAP2 POP POP JUMP JUMPDEST PUSH0 PUSH0 PUSH1 0x40 DUP4 DUP6 SUB SLT ISZERO PUSH2 0x11BE JUMPI PUSH2 0x11BD PUSH2 0xD97 JUMP JUMPDEST JUMPDEST PUSH0 PUSH2 0x11CB DUP6 DUP3 DUP7 ADD PUSH2 0xDBE JUMP JUMPDEST SWAP3 POP POP PUSH1 0x20 PUSH2 0x11DC DUP6 DUP3 DUP7 ADD PUSH2 0x1194 JUMP JUMPDEST SWAP2 POP POP SWAP3 POP SWAP3 SWAP1 POP JUMP JUMPDEST PUSH32 0x4E487B7100000000000000000000000000000000000000000000000000000000 PUSH0 MSTORE PUSH1 0x22 PUSH1 0x4 MSTORE PUSH1 0x24 PUSH0 REVERT JUMPDEST PUSH0 PUSH1 0x2 DUP3 DIV SWAP1 POP PUSH1 0x1 DUP3 AND DUP1 PUSH2 0x122A JUMPI PUSH1 0x7F DUP3 AND SWAP2 POP JUMPDEST PUSH1 0x20 DUP3 LT DUP2 SUB PUSH2 0x123D JUMPI PUSH2 0x123C PUSH2 0x11E6 JUMP JUMPDEST JUMPDEST POP SWAP2 SWAP1 POP JUMP JUMPDEST PUSH32 0x50726F706F73616C20746964616B206164610000000000000000000000000000 PUSH0 DUP3 ADD MSTORE POP JUMP JUMPDEST PUSH0 PUSH2 0x1277 PUSH1 0x12 DUP4 PUSH2 0xE55 JUMP JUMPDEST SWAP2 POP PUSH2 0x1282 DUP3 PUSH2 0x1243 JUMP JUMPDEST PUSH1 0x20 DUP3 ADD SWAP1 POP SWAP2 SWAP1 POP JUMP JUMPDEST PUSH0 PUSH1 0x20 DUP3 ADD SWAP1 POP DUP2 DUP2 SUB PUSH0 DUP4 ADD MSTORE PUSH2 0x12A4 DUP2 PUSH2 0x126B JUMP JUMPDEST SWAP1 POP SWAP2 SWAP1 POP JUMP JUMPDEST PUSH32 0x5375646168206469656B73656B75736900000000000000000000000000000000 PUSH0 DUP3 ADD MSTORE POP JUMP JUMPDEST PUSH0 PUSH2 0x12DF PUSH1 0x10 DUP4 PUSH2 0xE55 JUMP JUMPDEST SWAP2 POP PUSH2 0x12EA DUP3 PUSH2 0x12AB JUMP JUMPDEST PUSH1 0x20 DUP3 ADD SWAP1 POP SWAP2 SWAP1 POP JUMP JUMPDEST PUSH0 PUSH1 0x20 DUP3 ADD SWAP1 POP DUP2 DUP2 SUB PUSH0 DUP4 ADD MSTORE PUSH2 0x130C DUP2 PUSH2 0x12D3 JUMP JUMPDEST SWAP1 POP SWAP2 SWAP1 POP JUMP JUMPDEST PUSH32 0x50726F706F73616C2062656C756D2064692D7175657565000000000000000000 PUSH0 DUP3 ADD MSTORE POP JUMP JUMPDEST PUSH0 PUSH2 0x1347 PUSH1 0x17 DUP4 PUSH2 0xE55 JUMP JUMPDEST SWAP2 POP PUSH2 0x1352 DUP3 PUSH2 0x1313 JUMP JUMPDEST PUSH1 0x20 DUP3 ADD SWAP1 POP SWAP2 SWAP1 POP JUMP JUMPDEST PUSH0 PUSH1 0x20 DUP3 ADD SWAP1 POP DUP2 DUP2 SUB PUSH0 DUP4 ADD MSTORE PUSH2 0x1374 DUP2 PUSH2 0x133B JUMP JUMPDEST SWAP1 POP SWAP2 SWAP1 POP JUMP JUMPDEST PUSH32 0x4E487B7100000000000000000000000000000000000000000000000000000000 PUSH0 MSTORE PUSH1 0x11 PUSH1 0x4 MSTORE PUSH1 0x24 PUSH0 REVERT JUMPDEST PUSH0 PUSH2 0x13B2 DUP3 PUSH2 0xD9F JUMP JUMPDEST SWAP2 POP PUSH2 0x13BD DUP4 PUSH2 0xD9F JUMP JUMPDEST SWAP3 POP DUP3 DUP3 ADD SWAP1 POP DUP1 DUP3 GT ISZERO PUSH2 0x13D5 JUMPI PUSH2 0x13D4 PUSH2 0x137B JUMP JUMPDEST JUMPDEST SWAP3 SWAP2 POP POP JUMP JUMPDEST PUSH32 0x54696D656C6F636B2062656C756D2073656C6573616900000000000000000000 PUSH0 DUP3 ADD MSTORE POP JUMP JUMPDEST PUSH0 PUSH2 0x140F PUSH1 0x16 DUP4 PUSH2 0xE55 JUMP JUMPDEST SWAP2 POP PUSH2 0x141A DUP3 PUSH2 0x13DB JUMP JUMPDEST PUSH1 0x20 DUP3 ADD SWAP1 POP SWAP2 SWAP1 POP JUMP JUMPDEST PUSH0 PUSH1 0x20 DUP3 ADD SWAP1 POP DUP2 DUP2 SUB PUSH0 DUP4 ADD MSTORE PUSH2 0x143C DUP2 PUSH2 0x1403 JUMP JUMPDEST SWAP1 POP SWAP2 SWAP1 POP JUMP JUMPDEST PUSH0 PUSH2 0x144D DUP3 PUSH2 0xD9F JUMP JUMPDEST SWAP2 POP PUSH2 0x1458 DUP4 PUSH2 0xD9F JUMP JUMPDEST SWAP3 POP DUP3 DUP3 MUL PUSH2 0x1466 DUP2 PUSH2 0xD9F JUMP JUMPDEST SWAP2 POP DUP3 DUP3 DIV DUP5 EQ DUP4 ISZERO OR PUSH2 0x147D JUMPI PUSH2 0x147C PUSH2 0x137B JUMP JUMPDEST JUMPDEST POP SWAP3 SWAP2 POP POP JUMP JUMPDEST PUSH32 0x4E487B7100000000000000000000000000000000000000000000000000000000 PUSH0 MSTORE PUSH1 0x12 PUSH1 0x4 MSTORE PUSH1 0x24 PUSH0 REVERT JUMPDEST PUSH0 PUSH2 0x14BB DUP3 PUSH2 0xD9F JUMP JUMPDEST SWAP2 POP PUSH2 0x14C6 DUP4 PUSH2 0xD9F JUMP JUMPDEST SWAP3 POP DUP3 PUSH2 0x14D6 JUMPI PUSH2 0x14D5 PUSH2 0x1484 JUMP JUMPDEST JUMPDEST DUP3 DUP3 DIV SWAP1 POP SWAP3 SWAP2 POP POP JUMP JUMPDEST PUSH0 PUSH1 0x40 DUP3 ADD SWAP1 POP PUSH2 0x14F4 PUSH0 DUP4 ADD DUP6 PUSH2 0xDFD JUMP JUMPDEST PUSH2 0x1501 PUSH1 0x20 DUP4 ADD DUP5 PUSH2 0xEC6 JUMP JUMPDEST SWAP4 SWAP3 POP POP POP JUMP JUMPDEST PUSH0 PUSH2 0x1512 DUP3 PUSH2 0xD9F JUMP JUMPDEST SWAP2 POP PUSH32 0xFFFFFFFFFFFFFFFFFFFFFFFFFFFFFFFFFFFFFFFFFFFFFFFFFFFFFFFFFFFFFFFF DUP3 SUB PUSH2 0x1544 JUMPI PUSH2 0x1543 PUSH2 0x137B JUMP JUMPDEST JUMPDEST PUSH1 0x1 DUP3 ADD SWAP1 POP SWAP2 SWAP1 POP JUMP JUMPDEST PUSH0 DUP2 SWAP1 POP DUP2 PUSH0 MSTORE PUSH1 0x20 PUSH0 KECCAK256 SWAP1 POP SWAP2 SWAP1 POP JUMP JUMPDEST PUSH0 PUSH1 0x20 PUSH1 0x1F DUP4 ADD DIV SWAP1 POP SWAP2 SWAP1 POP JUMP JUMPDEST PUSH0 DUP3 DUP3 SHL SWAP1 POP SWAP3 SWAP2 POP POP JUMP JUMPDEST PUSH0 PUSH1 0x8 DUP4 MUL PUSH2 0x15AB PUSH32 0xFFFFFFFFFFFFFFFFFFFFFFFFFFFFFFFFFFFFFFFFFFFFFFFFFFFFFFFFFFFFFFFF DUP3 PUSH2 0x1570 JUMP JUMPDEST PUSH2 0x15B5 DUP7 DUP4 PUSH2 0x1570 JUMP JUMPDEST SWAP6 POP DUP1 NOT DUP5 AND SWAP4 POP DUP1 DUP7 AND DUP5 OR SWAP3 POP POP POP SWAP4 SWAP3 POP POP POP JUMP JUMPDEST PUSH0 DUP2 SWAP1 POP SWAP2 SWAP1 POP JUMP JUMPDEST PUSH0 PUSH2 0x15F0 PUSH2 0x15EB PUSH2 0x15E6 DUP5 PUSH2 0xD9F JUMP JUMPDEST PUSH2 0x15CD JUMP JUMPDEST PUSH2 0xD9F JUMP JUMPDEST SWAP1 POP SWAP2 SWAP1 POP JUMP JUMPDEST PUSH0 DUP2 SWAP1 POP SWAP2 SWAP1 POP JUMP JUMPDEST PUSH2 0x1609 DUP4 PUSH2 0x15D6 JUMP JUMPDEST PUSH2 0x161D PUSH2 0x1615 DUP3 PUSH2 0x15F7 JUMP JUMPDEST DUP5 DUP5 SLOAD PUSH2 0x157C JUMP JUMPDEST DUP3 SSTORE POP POP POP POP JUMP JUMPDEST PUSH0 PUSH0 SWAP1 POP SWAP1 JUMP JUMPDEST PUSH2 0x1634 PUSH2 0x1625 JUMP JUMPDEST PUSH2 0x163F DUP2 DUP5 DUP5 PUSH2 0x1600 JUMP JUMPDEST POP POP POP JUMP JUMPDEST PUSH0 JUMPDEST DUP3 DUP2 LT ISZERO PUSH2 0x1665 JUMPI PUSH2 0x165A PUSH0 DUP3 DUP5 ADD PUSH2 0x162C JUMP JUMPDEST PUSH1 0x1 DUP2 ADD SWAP1 POP PUSH2 0x1646 JUMP JUMPDEST POP POP POP JUMP JUMPDEST PUSH1 0x1F DUP3 GT ISZERO PUSH2 0x16B8 JUMPI DUP3 DUP3 GT ISZERO PUSH2 0x16B7 JUMPI PUSH2 0x1684 DUP2 PUSH2 0x154F JUMP JUMPDEST PUSH2 0x168D DUP4 PUSH2 0x1561 JUMP JUMPDEST PUSH2 0x1696 DUP6 PUSH2 0x1561 JUMP JUMPDEST PUSH1 0x20 DUP7 LT ISZERO PUSH2 0x16A3 JUMPI PUSH0 SWAP1 POP JUMPDEST DUP1 DUP4 ADD PUSH2 0x16B2 DUP3 DUP5 SUB DUP3 PUSH2 0x1644 JUMP JUMPDEST POP POP POP POP JUMPDEST JUMPDEST POP POP POP JUMP JUMPDEST PUSH0 DUP3 DUP3 SHR SWAP1 POP SWAP3 SWAP2 POP POP JUMP JUMPDEST PUSH0 PUSH2 0x16D8 PUSH0 NOT DUP5 PUSH1 0x8 MUL PUSH2 0x16BD JUMP JUMPDEST NOT DUP1 DUP4 AND SWAP2 POP POP SWAP3 SWAP2 POP POP JUMP JUMPDEST PUSH0 PUSH2 0x16F0 DUP4 DUP4 PUSH2 0x16C9 JUMP JUMPDEST SWAP2 POP DUP3 PUSH1 0x2 MUL DUP3 OR SWAP1 POP SWAP3 SWAP2 POP POP JUMP JUMPDEST PUSH2 0x1709 DUP3 PUSH2 0xE4B JUMP JUMPDEST PUSH8 0xFFFFFFFFFFFFFFFF DUP2 GT ISZERO PUSH2 0x1722 JUMPI PUSH2 0x1721 PUSH2 0xFFA JUMP JUMPDEST JUMPDEST PUSH2 0x172C DUP3 SLOAD PUSH2 0x1213 JUMP JUMPDEST PUSH2 0x1737 DUP3 DUP3 DUP6 PUSH2 0x166A JUMP JUMPDEST PUSH0 PUSH1 0x20 SWAP1 POP PUSH1 0x1F DUP4 GT PUSH1 0x1 DUP2 EQ PUSH2 0x1768 JUMPI PUSH0 DUP5 ISZERO PUSH2 0x1756 JUMPI DUP3 DUP8 ADD MLOAD SWAP1 POP JUMPDEST PUSH2 0x1760 DUP6 DUP3 PUSH2 0x16E5 JUMP JUMPDEST DUP7 SSTORE POP PUSH2 0x17C7 JUMP JUMPDEST PUSH1 0x1F NOT DUP5 AND PUSH2 0x1776 DUP7 PUSH2 0x154F JUMP JUMPDEST PUSH0 JUMPDEST DUP3 DUP2 LT ISZERO PUSH2 0x179D JUMPI DUP5 DUP10 ADD MLOAD DUP3 SSTORE PUSH1 0x1 DUP3 ADD SWAP2 POP PUSH1 0x20 DUP6 ADD SWAP5 POP PUSH1 0x20 DUP2 ADD SWAP1 POP PUSH2 0x1778 JUMP JUMPDEST DUP7 DUP4 LT ISZERO PUSH2 0x17BA JUMPI DUP5 DUP10 ADD MLOAD PUSH2 0x17B6 PUSH1 0x1F DUP10 AND DUP3 PUSH2 0x16C9 JUMP JUMPDEST DUP4 SSTORE POP JUMPDEST PUSH1 0x1 PUSH1 0x2 DUP9 MUL ADD DUP9 SSTORE POP POP POP JUMPDEST POP POP POP POP POP POP JUMP JUMPDEST PUSH0 PUSH1 0x60 DUP3 ADD SWAP1 POP PUSH2 0x17E2 PUSH0 DUP4 ADD DUP7 PUSH2 0xDFD JUMP JUMPDEST PUSH2 0x17EF PUSH1 0x20 DUP4 ADD DUP6 PUSH2 0xE3C JUMP JUMPDEST DUP2 DUP2 SUB PUSH1 0x40 DUP4 ADD MSTORE PUSH2 0x1801 DUP2 DUP5 PUSH2 0xE83 JUMP JUMPDEST SWAP1 POP SWAP5 SWAP4 POP POP POP POP JUMP JUMPDEST PUSH32 0x566F74696E672062656C756D20626572616B6869720000000000000000000000 PUSH0 DUP3 ADD MSTORE POP JUMP JUMPDEST PUSH0 PUSH2 0x183F PUSH1 0x15 DUP4 PUSH2 0xE55 JUMP JUMPDEST SWAP2 POP PUSH2 0x184A DUP3 PUSH2 0x180B JUMP JUMPDEST PUSH1 0x20 DUP3 ADD SWAP1 POP SWAP2 SWAP1 POP JUMP JUMPDEST PUSH0 PUSH1 0x20 DUP3 ADD SWAP1 POP DUP2 DUP2 SUB PUSH0 DUP4 ADD MSTORE PUSH2 0x186C DUP2 PUSH2 0x1833 JUMP JUMPDEST SWAP1 POP SWAP2 SWAP1 POP JUMP JUMPDEST PUSH32 0x53756461682064692D7175657565000000000000000000000000000000000000 PUSH0 DUP3 ADD MSTORE POP JUMP JUMPDEST PUSH0 PUSH2 0x18A7 PUSH1 0xE DUP4 PUSH2 0xE55 JUMP JUMPDEST SWAP2 POP PUSH2 0x18B2 DUP3 PUSH2 0x1873 JUMP JUMPDEST PUSH1 0x20 DUP3 ADD SWAP1 POP SWAP2 SWAP1 POP JUMP JUMPDEST PUSH0 PUSH1 0x20 DUP3 ADD SWAP1 POP DUP2 DUP2 SUB PUSH0 DUP4 ADD MSTORE PUSH2 0x18D4 DUP2 PUSH2 0x189B JUMP JUMPDEST SWAP1 POP SWAP2 SWAP1 POP JUMP JUMPDEST PUSH32 0x546964616B206164612079616E6720766F746500000000000000000000000000 PUSH0 DUP3 ADD MSTORE POP JUMP JUMPDEST PUSH0 PUSH2 0x190F PUSH1 0x13 DUP4 PUSH2 0xE55 JUMP JUMPDEST SWAP2 POP PUSH2 0x191A DUP3 PUSH2 0x18DB JUMP JUMPDEST PUSH1 0x20 DUP3 ADD SWAP1 POP SWAP2 SWAP1 POP JUMP JUMPDEST PUSH0 PUSH1 0x20 DUP3 ADD SWAP1 POP DUP2 DUP2 SUB PUSH0 DUP4 ADD MSTORE PUSH2 0x193C DUP2 PUSH2 0x1903 JUMP JUMPDEST SWAP1 POP SWAP2 SWAP1 POP JUMP JUMPDEST PUSH32 0x50726F706F73616C20746964616B206C6F6C6F7320766F746500000000000000 PUSH0 DUP3 ADD MSTORE POP JUMP JUMPDEST PUSH0 PUSH2 0x1977 PUSH1 0x19 DUP4 PUSH2 0xE55 JUMP JUMPDEST SWAP2 POP PUSH2 0x1982 DUP3 PUSH2 0x1943 JUMP JUMPDEST PUSH1 0x20 DUP3 ADD SWAP1 POP SWAP2 SWAP1 POP JUMP JUMPDEST PUSH0 PUSH1 0x20 DUP3 ADD SWAP1 POP DUP2 DUP2 SUB PUSH0 DUP4 ADD MSTORE PUSH2 0x19A4 DUP2 PUSH2 0x196B JUMP JUMPDEST SWAP1 POP SWAP2 SWAP1 POP JUMP JUMPDEST PUSH0 PUSH1 0x40 DUP3 ADD SWAP1 POP PUSH2 0x19BE PUSH0 DUP4 ADD DUP6 PUSH2 0xDFD JUMP JUMPDEST PUSH2 0x19CB PUSH1 0x20 DUP4 ADD DUP5 PUSH2 0xDFD JUMP JUMPDEST SWAP4 SWAP3 POP POP POP JUMP JUMPDEST PUSH32 0x566F74696E6720737564616820626572616B6869720000000000000000000000 PUSH0 DUP3 ADD MSTORE POP JUMP JUMPDEST PUSH0 PUSH2 0x1A06 PUSH1 0x15 DUP4 PUSH2 0xE55 JUMP JUMPDEST SWAP2 POP PUSH2 0x1A11 DUP3 PUSH2 0x19D2 JUMP JUMPDEST PUSH1 0x20 DUP3 ADD SWAP1 POP SWAP2 SWAP1 POP JUMP JUMPDEST PUSH0 PUSH1 0x20 DUP3 ADD SWAP1 POP DUP2 DUP2 SUB PUSH0 DUP4 ADD MSTORE PUSH2 0x1A33 DUP2 PUSH2 0x19FA JUMP JUMPDEST SWAP1 POP SWAP2 SWAP1 POP JUMP JUMPDEST PUSH32 0x5375646168207065726E616820766F7465000000000000000000000000000000 PUSH0 DUP3 ADD MSTORE POP JUMP JUMPDEST PUSH0 PUSH2 0x1A6E PUSH1 0x11 DUP4 PUSH2 0xE55 JUMP JUMPDEST SWAP2 POP PUSH2 0x1A79 DUP3 PUSH2 0x1A3A JUMP JUMPDEST PUSH1 0x20 DUP3 ADD SWAP1 POP SWAP2 SWAP1 POP JUMP JUMPDEST PUSH0 PUSH1 0x20 DUP3 ADD SWAP1 POP DUP2 DUP2 SUB PUSH0 DUP4 ADD MSTORE PUSH2 0x1A9B DUP2 PUSH2 0x1A62 JUMP JUMPDEST SWAP1 POP SWAP2 SWAP1 POP JUMP JUMPDEST PUSH0 PUSH1 0x60 DUP3 ADD SWAP1 POP PUSH2 0x1AB5 PUSH0 DUP4 ADD DUP7 PUSH2 0xDFD JUMP JUMPDEST PUSH2 0x1AC2 PUSH1 0x20 DUP4 ADD DUP6 PUSH2 0xE3C JUMP JUMPDEST PUSH2 0x1ACF PUSH1 0x40 DUP4 ADD DUP5 PUSH2 0xEC6 JUMP JUMPDEST SWAP5 SWAP4 POP POP POP POP JUMP INVALID LOG2 PUSH5 0x6970667358 0x22 SLT KECCAK256 GASPRICE PUSH21 0xCA49A84BF92F2E0661BA21077E6E5D098FCD58C5CC PUSH7 0x75A20DAD67D34F SAR PUSH5 0x736F6C6343 STOP ADDMOD 0x22 STOP CALLER "
		},
		"gasEstimates": {
			"creation": {
				"codeDepositCost": "1385000",
				"executionCost": "97037",
				"totalCost": "1482037"
			},
			"external": {
				"createProposal(string)": "infinite",
				"executeProposal(uint256)": "infinite",
				"getProposal(uint256)": "infinite",
				"hasVoted(uint256,address)": "3159",
				"owner()": "2552",
				"proposalCount()": "2513",
				"proposals(uint256)": "infinite",
				"queueProposal(uint256)": "infinite",
				"queuedAt(uint256)": "infinite",
				"quorumPercentage()": "2448",
				"timelockDuration()": "2492",
				"vote(uint256,bool)": "infinite",
				"votingDuration()": "2470"
			}
		},
		"methodIdentifiers": {
			"createProposal(string)": "49c2a1a6",
			"executeProposal(uint256)": "0d61b519",
			"getProposal(uint256)": "c7f758a8",
			"hasVoted(uint256,address)": "43859632",
			"owner()": "8da5cb5b",
			"proposalCount()": "da35c664",
			"proposals(uint256)": "013cf08b",
			"queueProposal(uint256)": "94a14a34",
			"queuedAt(uint256)": "9ac498de",
			"quorumPercentage()": "4fa76ec9",
			"timelockDuration()": "2bbca157",
			"vote(uint256,bool)": "c9d27afe",
			"votingDuration()": "132002fc"
		}
	},
	"abi": [
		{
			"inputs": [],
			"stateMutability": "nonpayable",
			"type": "constructor"
		},
		{
			"anonymous": false,
			"inputs": [
				{
					"indexed": false,
					"internalType": "uint256",
					"name": "id",
					"type": "uint256"
				},
				{
					"indexed": false,
					"internalType": "address",
					"name": "proposer",
					"type": "address"
				},
				{
					"indexed": false,
					"internalType": "string",
					"name": "description",
					"type": "string"
				}
			],
			"name": "ProposalCreated",
			"type": "event"
		},
		{
			"anonymous": false,
			"inputs": [
				{
					"indexed": false,
					"internalType": "uint256",
					"name": "proposalId",
					"type": "uint256"
				},
				{
					"indexed": false,
					"internalType": "bool",
					"name": "passed",
					"type": "bool"
				}
			],
			"name": "ProposalExecuted",
			"type": "event"
		},
		{
			"anonymous": false,
			"inputs": [
				{
					"indexed": false,
					"internalType": "uint256",
					"name": "proposalId",
					"type": "uint256"
				},
				{
					"indexed": false,
					"internalType": "uint256",
					"name": "executeAfter",
					"type": "uint256"
				}
			],
			"name": "ProposalQueued",
			"type": "event"
		},
		{
			"anonymous": false,
			"inputs": [
				{
					"indexed": false,
					"internalType": "uint256",
					"name": "proposalId",
					"type": "uint256"
				},
				{
					"indexed": false,
					"internalType": "address",
					"name": "voter",
					"type": "address"
				},
				{
					"indexed": false,
					"internalType": "bool",
					"name": "support",
					"type": "bool"
				}
			],
			"name": "Voted",
			"type": "event"
		},
		{
			"inputs": [
				{
					"internalType": "string",
					"name": "description",
					"type": "string"
				}
			],
			"name": "createProposal",
			"outputs": [
				{
					"internalType": "uint256",
					"name": "",
					"type": "uint256"
				}
			],
			"stateMutability": "nonpayable",
			"type": "function"
		},
		{
			"inputs": [
				{
					"internalType": "uint256",
					"name": "proposalId",
					"type": "uint256"
				}
			],
			"name": "executeProposal",
			"outputs": [],
			"stateMutability": "nonpayable",
			"type": "function"
		},
		{
			"inputs": [
				{
					"internalType": "uint256",
					"name": "proposalId",
					"type": "uint256"
				}
			],
			"name": "getProposal",
			"outputs": [
				{
					"internalType": "uint256",
					"name": "id",
					"type": "uint256"
				},
				{
					"internalType": "address",
					"name": "proposer",
					"type": "address"
				},
				{
					"internalType": "string",
					"name": "description",
					"type": "string"
				},
				{
					"internalType": "uint256",
					"name": "yesVotes",
					"type": "uint256"
				},
				{
					"internalType": "uint256",
					"name": "noVotes",
					"type": "uint256"
				},
				{
					"internalType": "uint256",
					"name": "deadline",
					"type": "uint256"
				},
				{
					"internalType": "bool",
					"name": "executed",
					"type": "bool"
				},
				{
					"internalType": "bool",
					"name": "passed",
					"type": "bool"
				}
			],
			"stateMutability": "view",
			"type": "function"
		},
		{
			"inputs": [
				{
					"internalType": "uint256",
					"name": "",
					"type": "uint256"
				},
				{
					"internalType": "address",
					"name": "",
					"type": "address"
				}
			],
			"name": "hasVoted",
			"outputs": [
				{
					"internalType": "bool",
					"name": "",
					"type": "bool"
				}
			],
			"stateMutability": "view",
			"type": "function"
		},
		{
			"inputs": [],
			"name": "owner",
			"outputs": [
				{
					"internalType": "address",
					"name": "",
					"type": "address"
				}
			],
			"stateMutability": "view",
			"type": "function"
		},
		{
			"inputs": [],
			"name": "proposalCount",
			"outputs": [
				{
					"internalType": "uint256",
					"name": "",
					"type": "uint256"
				}
			],
			"stateMutability": "view",
			"type": "function"
		},
		{
			"inputs": [
				{
					"internalType": "uint256",
					"name": "",
					"type": "uint256"
				}
			],
			"name": "proposals",
			"outputs": [
				{
					"internalType": "uint256",
					"name": "id",
					"type": "uint256"
				},
				{
					"internalType": "address",
					"name": "proposer",
					"type": "address"
				},
				{
					"internalType": "string",
					"name": "description",
					"type": "string"
				},
				{
					"internalType": "uint256",
					"name": "yesVotes",
					"type": "uint256"
				},
				{
					"internalType": "uint256",
					"name": "noVotes",
					"type": "uint256"
				},
				{
					"internalType": "uint256",
					"name": "deadline",
					"type": "uint256"
				},
				{
					"internalType": "bool",
					"name": "executed",
					"type": "bool"
				},
				{
					"internalType": "bool",
					"name": "passed",
					"type": "bool"
				}
			],
			"stateMutability": "view",
			"type": "function"
		},
		{
			"inputs": [
				{
					"internalType": "uint256",
					"name": "proposalId",
					"type": "uint256"
				}
			],
			"name": "queueProposal",
			"outputs": [],
			"stateMutability": "nonpayable",
			"type": "function"
		},
		{
			"inputs": [
				{
					"internalType": "uint256",
					"name": "",
					"type": "uint256"
				}
			],
			"name": "queuedAt",
			"outputs": [
				{
					"internalType": "uint256",
					"name": "",
					"type": "uint256"
				}
			],
			"stateMutability": "view",
			"type": "function"
		},
		{
			"inputs": [],
			"name": "quorumPercentage",
			"outputs": [
				{
					"internalType": "uint256",
					"name": "",
					"type": "uint256"
				}
			],
			"stateMutability": "view",
			"type": "function"
		},
		{
			"inputs": [],
			"name": "timelockDuration",
			"outputs": [
				{
					"internalType": "uint256",
					"name": "",
					"type": "uint256"
				}
			],
			"stateMutability": "view",
			"type": "function"
		},
		{
			"inputs": [
				{
					"internalType": "uint256",
					"name": "proposalId",
					"type": "uint256"
				},
				{
					"internalType": "bool",
					"name": "support",
					"type": "bool"
				}
			],
			"name": "vote",
			"outputs": [],
			"stateMutability": "nonpayable",
			"type": "function"
		},
		{
			"inputs": [],
			"name": "votingDuration",
			"outputs": [
				{
					"internalType": "uint256",
					"name": "",
					"type": "uint256"
				}
			],
			"stateMutability": "view",
			"type": "function"
		}
	]
}