{
	"data": {
		"bytecode": {
			"linkReferences": {},
			"object": "608060405261012c60025560336003553480156019575f5ffd5b50335f5f6101000a81548173ffffffffffffffffffffffffffffffffffffffff021916908373ffffffffffffffffffffffffffffffffffffffff1602179055505f6001819055506116028061006d5f395ff3fe608060405234801561000f575f5ffd5b506004361061009c575f3560e01c80634fa76ec9116100645780634fa76ec9146101715780638da5cb5b1461018f578063c7f758a8146101ad578063c9d27afe146101e4578063da35c664146102005761009c565b8063013cf08b146100a05780630d61b519146100d7578063132002fc146100f3578063438596321461011157806349c2a1a614610141575b5f5ffd5b6100ba60048036038101906100b59190610a8e565b61021e565b6040516100ce989796959493929190610b91565b60405180910390f35b6100f160048036038101906100ec9190610a8e565b610320565b005b6100fb610516565b6040516101089190610c14565b60405180910390f35b61012b60048036038101906101269190610c57565b61051c565b6040516101389190610c95565b60405180910390f35b61015b60048036038101906101569190610dda565b610546565b6040516101689190610c14565b60405180910390f35b6101796106df565b6040516101869190610c14565b60405180910390f35b6101976106e5565b6040516101a49190610e21565b60405180910390f35b6101c760048036038101906101c29190610a8e565b610709565b6040516101db989796959493929190610b91565b60405180910390f35b6101fe60048036038101906101f99190610e64565b61082a565b005b610208610a44565b6040516102159190610c14565b60405180910390f35b6004602052805f5260405f205f91509050805f015490806001015f9054906101000a900473ffffffffffffffffffffffffffffffffffffffff169080600201805461026890610ecf565b80601f016020809104026020016040519081016040528092919081815260200182805461029490610ecf565b80156102df5780601f106102b6576101008083540402835291602001916102df565b820191905f5260205f20905b8154815290600101906020018083116102c257829003601f168201915b505050505090806003015490806004015490806005015490806006015f9054906101000a900460ff16908060060160019054906101000a900460ff16905088565b5f60045f8381526020019081526020015f209050806005015442101561037b576040517f08c379a000000000000000000000000000000000000000000000000000000000815260040161037290610f49565b60405180910390fd5b806006015f9054906101000a900460ff16156103cc576040517f08c379a00000000000000000000000000000000000000000000000000000000081526004016103c390610fb1565b60405180910390fd5b5f815f015403610411576040517f08c379a000000000000000000000000000000000000000000000000000000000815260040161040890611019565b60405180910390fd5b5f816004015482600301546104269190611064565b90505f811161046a576040517f08c379a0000000000000000000000000000000000000000000000000000000008152600401610461906110e1565b60405180910390fd5b5f816064846003015461047d91906110ff565b610487919061116d565b90506001836006015f6101000a81548160ff0219169083151502179055506003548110158360060160016101000a81548160ff0219169083151502179055507f948f4a9cd986f1118c3fbd459f7a22b23c0693e1ca3ef06a6a8be5aa7d39cc03848460060160019054906101000a900460ff1660405161050892919061119d565b60405180910390a150505050565b60025481565b6005602052815f5260405f20602052805f5260405f205f915091509054906101000a900460ff1681565b5f60015f815480929190610559906111c4565b919050555060405180610100016040528060015481526020013373ffffffffffffffffffffffffffffffffffffffff1681526020018381526020015f81526020015f8152602001600254426105ae9190611064565b81526020015f151581526020015f151581525060045f60015481526020019081526020015f205f820151815f01556020820151816001015f6101000a81548173ffffffffffffffffffffffffffffffffffffffff021916908373ffffffffffffffffffffffffffffffffffffffff160217905550604082015181600201908161063791906113bc565b50606082015181600301556080820151816004015560a0820151816005015560c0820151816006015f6101000a81548160ff02191690831515021790555060e08201518160060160016101000a81548160ff0219169083151502179055509050507f7585f467599d0f008985f231af99293be388626ac16ca59505c2f8f88969cd6360015433846040516106cd9392919061148b565b60405180910390a16001549050919050565b60035481565b5f5f9054906101000a900473ffffffffffffffffffffffffffffffffffffffff1681565b5f5f60605f5f5f5f5f5f60045f8b81526020019081526020015f209050805f0154816001015f9054906101000a900473ffffffffffffffffffffffffffffffffffffffff1682600201836003015484600401548560050154866006015f9054906101000a900460ff168760060160019054906101000a900460ff1685805461079090610ecf565b80601f01602080910402602001604051908101604052809291908181526020018280546107bc90610ecf565b80156108075780601f106107de57610100808354040283529160200191610807565b820191905f5260205f20905b8154815290600101906020018083116107ea57829003601f168201915b505050505095509850985098509850985098509850985050919395975091939597565b5f60045f8481526020019081526020015f20905080600501544210610884576040517f08c379a000000000000000000000000000000000000000000000000000000000815260040161087b90611511565b60405180910390fd5b60055f8481526020019081526020015f205f3373ffffffffffffffffffffffffffffffffffffffff1673ffffffffffffffffffffffffffffffffffffffff1681526020019081526020015f205f9054906101000a900460ff161561091d576040517f08c379a000000000000000000000000000000000000000000000000000000000815260040161091490611579565b60405180910390fd5b5f815f015403610962576040517f08c379a000000000000000000000000000000000000000000000000000000000815260040161095990611019565b60405180910390fd5b600160055f8581526020019081526020015f205f3373ffffffffffffffffffffffffffffffffffffffff1673ffffffffffffffffffffffffffffffffffffffff1681526020019081526020015f205f6101000a81548160ff02191690831515021790555081156109ea57806003015f8154809291906109e0906111c4565b9190505550610a04565b806004015f8154809291906109fe906111c4565b91905055505b7ff2913dbe661ee2acc4a046d8fbcdc792373bda34c41c6086484b5345e5785e5f833384604051610a3793929190611597565b60405180910390a1505050565b60015481565b5f604051905090565b5f5ffd5b5f5ffd5b5f819050919050565b610a6d81610a5b565b8114610a77575f5ffd5b50565b5f81359050610a8881610a64565b92915050565b5f60208284031215610aa357610aa2610a53565b5b5f610ab084828501610a7a565b91505092915050565b610ac281610a5b565b82525050565b5f73ffffffffffffffffffffffffffffffffffffffff82169050919050565b5f610af182610ac8565b9050919050565b610b0181610ae7565b82525050565b5f81519050919050565b5f82825260208201905092915050565b8281835e5f83830152505050565b5f601f19601f8301169050919050565b5f610b4982610b07565b610b538185610b11565b9350610b63818560208601610b21565b610b6c81610b2f565b840191505092915050565b5f8115159050919050565b610b8b81610b77565b82525050565b5f61010082019050610ba55f83018b610ab9565b610bb2602083018a610af8565b8181036040830152610bc48189610b3f565b9050610bd36060830188610ab9565b610be06080830187610ab9565b610bed60a0830186610ab9565b610bfa60c0830185610b82565b610c0760e0830184610b82565b9998505050505050505050565b5f602082019050610c275f830184610ab9565b92915050565b610c3681610ae7565b8114610c40575f5ffd5b50565b5f81359050610c5181610c2d565b92915050565b5f5f60408385031215610c6d57610c6c610a53565b5b5f610c7a85828601610a7a565b9250506020610c8b85828601610c43565b9150509250929050565b5f602082019050610ca85f830184610b82565b92915050565b5f5ffd5b5f5ffd5b7f4e487b71000000000000000000000000000000000000000000000000000000005f52604160045260245ffd5b610cec82610b2f565b810181811067ffffffffffffffff82111715610d0b57610d0a610cb6565b5b80604052505050565b5f610d1d610a4a565b9050610d298282610ce3565b919050565b5f67ffffffffffffffff821115610d4857610d47610cb6565b5b610d5182610b2f565b9050602081019050919050565b828183375f83830152505050565b5f610d7e610d7984610d2e565b610d14565b905082815260208101848484011115610d9a57610d99610cb2565b5b610da5848285610d5e565b509392505050565b5f82601f830112610dc157610dc0610cae565b5b8135610dd1848260208601610d6c565b91505092915050565b5f60208284031215610def57610dee610a53565b5b5f82013567ffffffffffffffff811115610e0c57610e0b610a57565b5b610e1884828501610dad565b91505092915050565b5f602082019050610e345f830184610af8565b92915050565b610e4381610b77565b8114610e4d575f5ffd5b50565b5f81359050610e5e81610e3a565b92915050565b5f5f60408385031215610e7a57610e79610a53565b5b5f610e8785828601610a7a565b9250506020610e9885828601610e50565b9150509250929050565b7f4e487b71000000000000000000000000000000000000000000000000000000005f52602260045260245ffd5b5f6002820490506001821680610ee657607f821691505b602082108103610ef957610ef8610ea2565b5b50919050565b7f566f74696e672062656c756d20626572616b68697200000000000000000000005f82015250565b5f610f33601583610b11565b9150610f3e82610eff565b602082019050919050565b5f6020820190508181035f830152610f6081610f27565b9050919050565b7f5375646168206469656b73656b757369000000000000000000000000000000005f82015250565b5f610f9b601083610b11565b9150610fa682610f67565b602082019050919050565b5f6020820190508181035f830152610fc881610f8f565b9050919050565b7f50726f706f73616c20746964616b2061646100000000000000000000000000005f82015250565b5f611003601283610b11565b915061100e82610fcf565b602082019050919050565b5f6020820190508181035f83015261103081610ff7565b9050919050565b7f4e487b71000000000000000000000000000000000000000000000000000000005f52601160045260245ffd5b5f61106e82610a5b565b915061107983610a5b565b925082820190508082111561109157611090611037565b5b92915050565b7f546964616b206164612079616e6720766f7465000000000000000000000000005f82015250565b5f6110cb601383610b11565b91506110d682611097565b602082019050919050565b5f6020820190508181035f8301526110f8816110bf565b9050919050565b5f61110982610a5b565b915061111483610a5b565b925082820261112281610a5b565b9150828204841483151761113957611138611037565b5b5092915050565b7f4e487b71000000000000000000000000000000000000000000000000000000005f52601260045260245ffd5b5f61117782610a5b565b915061118283610a5b565b92508261119257611191611140565b5b828204905092915050565b5f6040820190506111b05f830185610ab9565b6111bd6020830184610b82565b9392505050565b5f6111ce82610a5b565b91507fffffffffffffffffffffffffffffffffffffffffffffffffffffffffffffffff8203611200576111ff611037565b5b600182019050919050565b5f819050815f5260205f209050919050565b5f6020601f8301049050919050565b5f82821b905092915050565b5f600883026112677fffffffffffffffffffffffffffffffffffffffffffffffffffffffffffffffff8261122c565b611271868361122c565b95508019841693508086168417925050509392505050565b5f819050919050565b5f6112ac6112a76112a284610a5b565b611289565b610a5b565b9050919050565b5f819050919050565b6112c583611292565b6112d96112d1826112b3565b848454611238565b825550505050565b5f5f905090565b6112f06112e1565b6112fb8184846112bc565b505050565b5f5b82811015611321576113165f8284016112e8565b600181019050611302565b505050565b601f8211156113745782821115611373576113408161120b565b6113498361121d565b6113528561121d565b602086101561135f575f90505b80830161136e82840382611300565b505050505b5b505050565b5f82821c905092915050565b5f6113945f1984600802611379565b1980831691505092915050565b5f6113ac8383611385565b9150826002028217905092915050565b6113c582610b07565b67ffffffffffffffff8111156113de576113dd610cb6565b5b6113e88254610ecf565b6113f3828285611326565b5f60209050601f831160018114611424575f8415611412578287015190505b61141c85826113a1565b865550611483565b601f1984166114328661120b565b5f5b8281101561145957848901518255600182019150602085019450602081019050611434565b868310156114765784890151611472601f891682611385565b8355505b6001600288020188555050505b505050505050565b5f60608201905061149e5f830186610ab9565b6114ab6020830185610af8565b81810360408301526114bd8184610b3f565b9050949350505050565b7f566f74696e6720737564616820626572616b68697200000000000000000000005f82015250565b5f6114fb601583610b11565b9150611506826114c7565b602082019050919050565b5f6020820190508181035f830152611528816114ef565b9050919050565b7f5375646168207065726e616820766f74650000000000000000000000000000005f82015250565b5f611563601183610b11565b915061156e8261152f565b602082019050919050565b5f6020820190508181035f83015261159081611557565b9050919050565b5f6060820190506115aa5f830186610ab9565b6115b76020830185610af8565b6115c46040830184610b82565b94935050505056fea26469706673582212207164e7f5c4e1faa3bd8852e246c6da8f97fe2487bd8962049e4e8c025f68d4fb64736f6c63430008220033",
			"opcodes": "PUSH1 0x80 PUSH1 0x40 MSTORE PUSH2 0x12C PUSH1 0x2 SSTORE PUSH1 0x33 PUSH1 0x3 SSTORE CALLVALUE DUP1 ISZERO PUSH1 0x19 JUMPI PUSH0 PUSH0 REVERT JUMPDEST POP CALLER PUSH0 PUSH0 PUSH2 0x100 EXP DUP2 SLOAD DUP2 PUSH20 0xFFFFFFFFFFFFFFFFFFFFFFFFFFFFFFFFFFFFFFFF MUL NOT AND SWAP1 DUP4 PUSH20 0xFFFFFFFFFFFFFFFFFFFFFFFFFFFFFFFFFFFFFFFF AND MUL OR SWAP1 SSTORE POP PUSH0 PUSH1 0x1 DUP2 SWAP1 SSTORE POP PUSH2 0x1602 DUP1 PUSH2 0x6D PUSH0 CODECOPY PUSH0 RETURN INVALID PUSH1 0x80 PUSH1 0x40 MSTORE CALLVALUE DUP1 ISZERO PUSH2 0xF JUMPI PUSH0 PUSH0 REVERT JUMPDEST POP PUSH1 0x4 CALLDATASIZE LT PUSH2 0x9C JUMPI PUSH0 CALLDATALOAD PUSH1 0xE0 SHR DUP1 PUSH4 0x4FA76EC9 GT PUSH2 0x64 JUMPI DUP1 PUSH4 0x4FA76EC9 EQ PUSH2 0x171 JUMPI DUP1 PUSH4 0x8DA5CB5B EQ PUSH2 0x18F JUMPI DUP1 PUSH4 0xC7F758A8 EQ PUSH2 0x1AD JUMPI DUP1 PUSH4 0xC9D27AFE EQ PUSH2 0x1E4 JUMPI DUP1 PUSH4 0xDA35C664 EQ PUSH2 0x200 JUMPI PUSH2 0x9C JUMP JUMPDEST DUP1 PUSH4 0x13CF08B EQ PUSH2 0xA0 JUMPI DUP1 PUSH4 0xD61B519 EQ PUSH2 0xD7 JUMPI DUP1 PUSH4 0x132002FC EQ PUSH2 0xF3 JUMPI DUP1 PUSH4 0x43859632 EQ PUSH2 0x111 JUMPI DUP1 PUSH4 0x49C2A1A6 EQ PUSH2 0x141 JUMPI JUMPDEST PUSH0 PUSH0 REVERT JUMPDEST PUSH2 0xBA PUSH1 0x4 DUP1 CALLDATASIZE SUB DUP2 ADD SWAP1 PUSH2 0xB5 SWAP2 SWAP1 PUSH2 0xA8E JUMP JUMPDEST PUSH2 0x21E JUMP JUMPDEST PUSH1 0x40 MLOAD PUSH2 0xCE SWAP9 SWAP8 SWAP7 SWAP6 SWAP5 SWAP4 SWAP3 SWAP2 SWAP1 PUSH2 0xB91 JUMP JUMPDEST PUSH1 0x40 MLOAD DUP1 SWAP2 SUB SWAP1 RETURN JUMPDEST PUSH2 0xF1 PUSH1 0x4 DUP1 CALLDATASIZE SUB DUP2 ADD SWAP1 PUSH2 0xEC SWAP2 SWAP1 PUSH2 0xA8E JUMP JUMPDEST PUSH2 0x320 JUMP JUMPDEST STOP JUMPDEST PUSH2 0xFB PUSH2 0x516 JUMP JUMPDEST PUSH1 0x40 MLOAD PUSH2 0x108 SWAP2 SWAP1 PUSH2 0xC14 JUMP JUMPDEST PUSH1 0x40 MLOAD DUP1 SWAP2 SUB SWAP1 RETURN JUMPDEST PUSH2 0x12B PUSH1 0x4 DUP1 CALLDATASIZE SUB DUP2 ADD SWAP1 PUSH2 0x126 SWAP2 SWAP1 PUSH2 0xC57 JUMP JUMPDEST PUSH2 0x51C JUMP JUMPDEST PUSH1 0x40 MLOAD PUSH2 0x138 SWAP2 SWAP1 PUSH2 0xC95 JUMP JUMPDEST PUSH1 0x40 MLOAD DUP1 SWAP2 SUB SWAP1 RETURN JUMPDEST PUSH2 0x15B PUSH1 0x4 DUP1 CALLDATASIZE SUB DUP2 ADD SWAP1 PUSH2 0x156 SWAP2 SWAP1 PUSH2 0xDDA JUMP JUMPDEST PUSH2 0x546 JUMP JUMPDEST PUSH1 0x40 MLOAD PUSH2 0x168 SWAP2 SWAP1 PUSH2 0xC14 JUMP JUMPDEST PUSH1 0x40 MLOAD DUP1 SWAP2 SUB SWAP1 RETURN JUMPDEST PUSH2 0x179 PUSH2 0x6DF JUMP JUMPDEST PUSH1 0x40 MLOAD PUSH2 0x186 SWAP2 SWAP1 PUSH2 0xC14 JUMP JUMPDEST PUSH1 0x40 MLOAD DUP1 SWAP2 SUB SWAP1 RETURN JUMPDEST PUSH2 0x197 PUSH2 0x6E5 JUMP JUMPDEST PUSH1 0x40 MLOAD PUSH2 0x1A4 SWAP2 SWAP1 PUSH2 0xE21 JUMP JUMPDEST PUSH1 0x40 MLOAD DUP1 SWAP2 SUB SWAP1 RETURN JUMPDEST PUSH2 0x1C7 PUSH1 0x4 DUP1 CALLDATASIZE SUB DUP2 ADD SWAP1 PUSH2 0x1C2 SWAP2 SWAP1 PUSH2 0xA8E JUMP JUMPDEST PUSH2 0x709 JUMP JUMPDEST PUSH1 0x40 MLOAD PUSH2 0x1DB SWAP9 SWAP8 SWAP7 SWAP6 SWAP5 SWAP4 SWAP3 SWAP2 SWAP1 PUSH2 0xB91 JUMP JUMPDEST PUSH1 0x40 MLOAD DUP1 SWAP2 SUB SWAP1 RETURN JUMPDEST PUSH2 0x1FE PUSH1 0x4 DUP1 CALLDATASIZE SUB DUP2 ADD SWAP1 PUSH2 0x1F9 SWAP2 SWAP1 PUSH2 0xE64 JUMP JUMPDEST PUSH2 0x82A JUMP JUMPDEST STOP JUMPDEST PUSH2 0x208 PUSH2 0xA44 JUMP JUMPDEST PUSH1 0x40 MLOAD PUSH2 0x215 SWAP2 SWAP1 PUSH2 0xC14 JUMP JUMPDEST PUSH1 0x40 MLOAD DUP1 SWAP2 SUB SWAP1 RETURN JUMPDEST PUSH1 0x4 PUSH1 0x20 MSTORE DUP1 PUSH0 MSTORE PUSH1 0x40 PUSH0 KECCAK256 PUSH0 SWAP2 POP SWAP1 POP DUP1 PUSH0 ADD SLOAD SWAP1 DUP1 PUSH1 0x1 ADD PUSH0 SWAP1 SLOAD SWAP1 PUSH2 0x100 EXP SWAP1 DIV PUSH20 0xFFFFFFFFFFFFFFFFFFFFFFFFFFFFFFFFFFFFFFFF AND SWAP1 DUP1 PUSH1 0x2 ADD DUP1 SLOAD PUSH2 0x268 SWAP1 PUSH2 0xECF JUMP JUMPDEST DUP1 PUSH1 0x1F ADD PUSH1 0x20 DUP1 SWAP2 DIV MUL PUSH1 0x20 ADD PUSH1 0x40 MLOAD SWAP1 DUP2 ADD PUSH1 0x40 MSTORE DUP1 SWAP3 SWAP2 SWAP1 DUP2 DUP2 MSTORE PUSH1 0x20 ADD DUP3 DUP1 SLOAD PUSH2 0x294 SWAP1 PUSH2 0xECF JUMP JUMPDEST DUP1 ISZERO PUSH2 0x2DF JUMPI DUP1 PUSH1 0x1F LT PUSH2 0x2B6 JUMPI PUSH2 0x100 DUP1 DUP4 SLOAD DIV MUL DUP4 MSTORE SWAP2 PUSH1 0x20 ADD SWAP2 PUSH2 0x2DF JUMP JUMPDEST DUP3 ADD SWAP2 SWAP1 PUSH0 MSTORE PUSH1 0x20 PUSH0 KECCAK256 SWAP1 JUMPDEST DUP2 SLOAD DUP2 MSTORE SWAP1 PUSH1 0x1 ADD SWAP1 PUSH1 0x20 ADD DUP1 DUP4 GT PUSH2 0x2C2 JUMPI DUP3 SWAP1 SUB PUSH1 0x1F AND DUP3 ADD SWAP2 JUMPDEST POP POP POP POP POP SWAP1 DUP1 PUSH1 0x3 ADD SLOAD SWAP1 DUP1 PUSH1 0x4 ADD SLOAD SWAP1 DUP1 PUSH1 0x5 ADD SLOAD SWAP1 DUP1 PUSH1 0x6 ADD PUSH0 SWAP1 SLOAD SWAP1 PUSH2 0x100 EXP SWAP1 DIV PUSH1 0xFF AND SWAP1 DUP1 PUSH1 0x6 ADD PUSH1 0x1 SWAP1 SLOAD SWAP1 PUSH2 0x100 EXP SWAP1 DIV PUSH1 0xFF AND SWAP1 POP DUP9 JUMP JUMPDEST PUSH0 PUSH1 0x4 PUSH0 DUP4 DUP2 MSTORE PUSH1 0x20 ADD SWAP1 DUP2 MSTORE PUSH1 0x20 ADD PUSH0 KECCAK256 SWAP1 POP DUP1 PUSH1 0x5 ADD SLOAD TIMESTAMP LT ISZERO PUSH2 0x37B JUMPI PUSH1 0x40 MLOAD PUSH32 0x8C379A000000000000000000000000000000000000000000000000000000000 DUP2 MSTORE PUSH1 0x4 ADD PUSH2 0x372 SWAP1 PUSH2 0xF49 JUMP JUMPDEST PUSH1 0x40 MLOAD DUP1 SWAP2 SUB SWAP1 REVERT JUMPDEST DUP1 PUSH1 0x6 ADD PUSH0 SWAP1 SLOAD SWAP1 PUSH2 0x100 EXP SWAP1 DIV PUSH1 0xFF AND ISZERO PUSH2 0x3CC JUMPI PUSH1 0x40 MLOAD PUSH32 0x8C379A000000000000000000000000000000000000000000000000000000000 DUP2 MSTORE PUSH1 0x4 ADD PUSH2 0x3C3 SWAP1 PUSH2 0xFB1 JUMP JUMPDEST PUSH1 0x40 MLOAD DUP1 SWAP2 SUB SWAP1 REVERT JUMPDEST PUSH0 DUP2 PUSH0 ADD SLOAD SUB PUSH2 0x411 JUMPI PUSH1 0x40 MLOAD PUSH32 0x8C379A000000000000000000000000000000000000000000000000000000000 DUP2 MSTORE PUSH1 0x4 ADD PUSH2 0x408 SWAP1 PUSH2 0x1019 JUMP JUMPDEST PUSH1 0x40 MLOAD DUP1 SWAP2 SUB SWAP1 REVERT JUMPDEST PUSH0 DUP2 PUSH1 0x4 ADD SLOAD DUP3 PUSH1 0x3 ADD SLOAD PUSH2 0x426 SWAP2 SWAP1 PUSH2 0x1064 JUMP JUMPDEST SWAP1 POP PUSH0 DUP2 GT PUSH2 0x46A JUMPI PUSH1 0x40 MLOAD PUSH32 0x8C379A000000000000000000000000000000000000000000000000000000000 DUP2 MSTORE PUSH1 0x4 ADD PUSH2 0x461 SWAP1 PUSH2 0x10E1 JUMP JUMPDEST PUSH1 0x40 MLOAD DUP1 SWAP2 SUB SWAP1 REVERT JUMPDEST PUSH0 DUP2 PUSH1 0x64 DUP5 PUSH1 0x3 ADD SLOAD PUSH2 0x47D SWAP2 SWAP1 PUSH2 0x10FF JUMP JUMPDEST PUSH2 0x487 SWAP2 SWAP1 PUSH2 0x116D JUMP JUMPDEST SWAP1 POP PUSH1 0x1 DUP4 PUSH1 0x6 ADD PUSH0 PUSH2 0x100 EXP DUP2 SLOAD DUP2 PUSH1 0xFF MUL NOT AND SWAP1 DUP4 ISZERO ISZERO MUL OR SWAP1 SSTORE POP PUSH1 0x3 SLOAD DUP2 LT ISZERO DUP4 PUSH1 0x6 ADD PUSH1 0x1 PUSH2 0x100 EXP DUP2 SLOAD DUP2 PUSH1 0xFF MUL NOT AND SWAP1 DUP4 ISZERO ISZERO MUL OR SWAP1 SSTORE POP PUSH32 0x948F4A9CD986F1118C3FBD459F7A22B23C0693E1CA3EF06A6A8BE5AA7D39CC03 DUP5 DUP5 PUSH1 0x6 ADD PUSH1 0x1 SWAP1 SLOAD SWAP1 PUSH2 0x100 EXP SWAP1 DIV PUSH1 0xFF AND PUSH1 0x40 MLOAD PUSH2 0x508 SWAP3 SWAP2 SWAP1 PUSH2 0x119D JUMP JUMPDEST PUSH1 0x40 MLOAD DUP1 SWAP2 SUB SWAP1 LOG1 POP POP POP POP JUMP JUMPDEST PUSH1 0x2 SLOAD DUP2 JUMP JUMPDEST PUSH1 0x5 PUSH1 0x20 MSTORE DUP2 PUSH0 MSTORE PUSH1 0x40 PUSH0 KECCAK256 PUSH1 0x20 MSTORE DUP1 PUSH0 MSTORE PUSH1 0x40 PUSH0 KECCAK256 PUSH0 SWAP2 POP SWAP2 POP SWAP1 SLOAD SWAP1 PUSH2 0x100 EXP SWAP1 DIV PUSH1 0xFF AND DUP2 JUMP JUMPDEST PUSH0 PUSH1 0x1 PUSH0 DUP2 SLOAD DUP1 SWAP3 SWAP2 SWAP1 PUSH2 0x559 SWAP1 PUSH2 0x11C4 JUMP JUMPDEST SWAP2 SWAP1 POP SSTORE POP PUSH1 0x40 MLOAD DUP1 PUSH2 0x100 ADD PUSH1 0x40 MSTORE DUP1 PUSH1 0x1 SLOAD DUP2 MSTORE PUSH1 0x20 ADD CALLER PUSH20 0xFFFFFFFFFFFFFFFFFFFFFFFFFFFFFFFFFFFFFFFF AND DUP2 MSTORE PUSH1 0x20 ADD DUP4 DUP2 MSTORE PUSH1 0x20 ADD PUSH0 DUP2 MSTORE PUSH1 0x20 ADD PUSH0 DUP2 MSTORE PUSH1 0x20 ADD PUSH1 0x2 SLOAD TIMESTAMP PUSH2 0x5AE SWAP2 SWAP1 PUSH2 0x1064 JUMP JUMPDEST DUP2 MSTORE PUSH1 0x20 ADD PUSH0 ISZERO ISZERO DUP2 MSTORE PUSH1 0x20 ADD PUSH0 ISZERO ISZERO DUP2 MSTORE POP PUSH1 0x4 PUSH0 PUSH1 0x1 SLOAD DUP2 MSTORE PUSH1 0x20 ADD SWAP1 DUP2 MSTORE PUSH1 0x20 ADD PUSH0 KECCAK256 PUSH0 DUP3 ADD MLOAD DUP2 PUSH0 ADD SSTORE PUSH1 0x20 DUP3 ADD MLOAD DUP2 PUSH1 0x1 ADD PUSH0 PUSH2 0x100 EXP DUP2 SLOAD DUP2 PUSH20 0xFFFFFFFFFFFFFFFFFFFFFFFFFFFFFFFFFFFFFFFF MUL NOT AND SWAP1 DUP4 PUSH20 0xFFFFFFFFFFFFFFFFFFFFFFFFFFFFFFFFFFFFFFFF AND MUL OR SWAP1 SSTORE POP PUSH1 0x40 DUP3 ADD MLOAD DUP2 PUSH1 0x2 ADD SWAP1 DUP2 PUSH2 0x637 SWAP2 SWAP1 PUSH2 0x13BC JUMP JUMPDEST POP PUSH1 0x60 DUP3 ADD MLOAD DUP2 PUSH1 0x3 ADD SSTORE PUSH1 0x80 DUP3 ADD MLOAD DUP2 PUSH1 0x4 ADD SSTORE PUSH1 0xA0 DUP3 ADD MLOAD DUP2 PUSH1 0x5 ADD SSTORE PUSH1 0xC0 DUP3 ADD MLOAD DUP2 PUSH1 0x6 ADD PUSH0 PUSH2 0x100 EXP DUP2 SLOAD DUP2 PUSH1 0xFF MUL NOT AND SWAP1 DUP4 ISZERO ISZERO MUL OR SWAP1 SSTORE POP PUSH1 0xE0 DUP3 ADD MLOAD DUP2 PUSH1 0x6 ADD PUSH1 0x1 PUSH2 0x100 EXP DUP2 SLOAD DUP2 PUSH1 0xFF MUL NOT AND SWAP1 DUP4 ISZERO ISZERO MUL OR SWAP1 SSTORE POP SWAP1 POP POP PUSH32 0x7585F467599D0F008985F231AF99293BE388626AC16CA59505C2F8F88969CD63 PUSH1 0x1 SLOAD CALLER DUP5 PUSH1 0x40 MLOAD PUSH2 0x6CD SWAP4 SWAP3 SWAP2 SWAP1 PUSH2 0x148B JUMP JUMPDEST PUSH1 0x40 MLOAD DUP1 SWAP2 SUB SWAP1 LOG1 PUSH1 0x1 SLOAD SWAP1 POP SWAP2 SWAP1 POP JUMP JUMPDEST PUSH1 0x3 SLOAD DUP2 JUMP JUMPDEST PUSH0 PUSH0 SWAP1 SLOAD SWAP1 PUSH2 0x100 EXP SWAP1 DIV PUSH20 0xFFFFFFFFFFFFFFFFFFFFFFFFFFFFFFFFFFFFFFFF AND DUP2 JUMP JUMPDEST PUSH0 PUSH0 PUSH1 0x60 PUSH0 PUSH0 PUSH0 PUSH0 PUSH0 PUSH0 PUSH1 0x4 PUSH0 DUP12 DUP2 MSTORE PUSH1 0x20 ADD SWAP1 DUP2 MSTORE PUSH1 0x20 ADD PUSH0 KECCAK256 SWAP1 POP DUP1 PUSH0 ADD SLOAD DUP2 PUSH1 0x1 ADD PUSH0 SWAP1 SLOAD SWAP1 PUSH2 0x100 EXP SWAP1 DIV PUSH20 0xFFFFFFFFFFFFFFFFFFFFFFFFFFFFFFFFFFFFFFFF AND DUP3 PUSH1 0x2 ADD DUP4 PUSH1 0x3 ADD SLOAD DUP5 PUSH1 0x4 ADD SLOAD DUP6 PUSH1 0x5 ADD SLOAD DUP7 PUSH1 0x6 ADD PUSH0 SWAP1 SLOAD SWAP1 PUSH2 0x100 EXP SWAP1 DIV PUSH1 0xFF AND DUP8 PUSH1 0x6 ADD PUSH1 0x1 SWAP1 SLOAD SWAP1 PUSH2 0x100 EXP SWAP1 DIV PUSH1 0xFF AND DUP6 DUP1 SLOAD PUSH2 0x790 SWAP1 PUSH2 0xECF JUMP JUMPDEST DUP1 PUSH1 0x1F ADD PUSH1 0x20 DUP1 SWAP2 DIV MUL PUSH1 0x20 ADD PUSH1 0x40 MLOAD SWAP1 DUP2 ADD PUSH1 0x40 MSTORE DUP1 SWAP3 SWAP2 SWAP1 DUP2 DUP2 MSTORE PUSH1 0x20 ADD DUP3 DUP1 SLOAD PUSH2 0x7BC SWAP1 PUSH2 0xECF JUMP JUMPDEST DUP1 ISZERO PUSH2 0x807 JUMPI DUP1 PUSH1 0x1F LT PUSH2 0x7DE JUMPI PUSH2 0x100 DUP1 DUP4 SLOAD DIV MUL DUP4 MSTORE SWAP2 PUSH1 0x20 ADD SWAP2 PUSH2 0x807 JUMP JUMPDEST DUP3 ADD SWAP2 SWAP1 PUSH0 MSTORE PUSH1 0x20 PUSH0 KECCAK256 SWAP1 JUMPDEST DUP2 SLOAD DUP2 MSTORE SWAP1 PUSH1 0x1 ADD SWAP1 PUSH1 0x20 ADD DUP1 DUP4 GT PUSH2 0x7EA JUMPI DUP3 SWAP1 SUB PUSH1 0x1F AND DUP3 ADD SWAP2 JUMPDEST POP POP POP POP POP SWAP6 POP SWAP9 POP SWAP9 POP SWAP9 POP SWAP9 POP SWAP9 POP SWAP9 POP SWAP9 POP SWAP9 POP POP SWAP2 SWAP4 SWAP6 SWAP8 POP SWAP2 SWAP4 SWAP6 SWAP8 JUMP JUMPDEST PUSH0 PUSH1 0x4 PUSH0 DUP5 DUP2 MSTORE PUSH1 0x20 ADD SWAP1 DUP2 MSTORE PUSH1 0x20 ADD PUSH0 KECCAK256 SWAP1 POP DUP1 PUSH1 0x5 ADD SLOAD TIMESTAMP LT PUSH2 0x884 JUMPI PUSH1 0x40 MLOAD PUSH32 0x8C379A000000000000000000000000000000000000000000000000000000000 DUP2 MSTORE PUSH1 0x4 ADD PUSH2 0x87B SWAP1 PUSH2 0x1511 JUMP JUMPDEST PUSH1 0x40 MLOAD DUP1 SWAP2 SUB SWAP1 REVERT JUMPDEST PUSH1 0x5 PUSH0 DUP5 DUP2 MSTORE PUSH1 0x20 ADD SWAP1 DUP2 MSTORE PUSH1 0x20 ADD PUSH0 KECCAK256 PUSH0 CALLER PUSH20 0xFFFFFFFFFFFFFFFFFFFFFFFFFFFFFFFFFFFFFFFF AND PUSH20 0xFFFFFFFFFFFFFFFFFFFFFFFFFFFFFFFFFFFFFFFF AND DUP2 MSTORE PUSH1 0x20 ADD SWAP1 DUP2 MSTORE PUSH1 0x20 ADD PUSH0 KECCAK256 PUSH0 SWAP1 SLOAD SWAP1 PUSH2 0x100 EXP SWAP1 DIV PUSH1 0xFF AND ISZERO PUSH2 0x91D JUMPI PUSH1 0x40 MLOAD PUSH32 0x8C379A000000000000000000000000000000000000000000000000000000000 DUP2 MSTORE PUSH1 0x4 ADD PUSH2 0x914 SWAP1 PUSH2 0x1579 JUMP JUMPDEST PUSH1 0x40 MLOAD DUP1 SWAP2 SUB SWAP1 REVERT JUMPDEST PUSH0 DUP2 PUSH0 ADD SLOAD SUB PUSH2 0x962 JUMPI PUSH1 0x40 MLOAD PUSH32 0x8C379A000000000000000000000000000000000000000000000000000000000 DUP2 MSTORE PUSH1 0x4 ADD PUSH2 0x959 SWAP1 PUSH2 0x1019 JUMP JUMPDEST PUSH1 0x40 MLOAD DUP1 SWAP2 SUB SWAP1 REVERT JUMPDEST PUSH1 0x1 PUSH1 0x5 PUSH0 DUP6 DUP2 MSTORE PUSH1 0x20 ADD SWAP1 DUP2 MSTORE PUSH1 0x20 ADD PUSH0 KECCAK256 PUSH0 CALLER PUSH20 0xFFFFFFFFFFFFFFFFFFFFFFFFFFFFFFFFFFFFFFFF AND PUSH20 0xFFFFFFFFFFFFFFFFFFFFFFFFFFFFFFFFFFFFFFFF AND DUP2 MSTORE PUSH1 0x20 ADD SWAP1 DUP2 MSTORE PUSH1 0x20 ADD PUSH0 KECCAK256 PUSH0 PUSH2 0x100 EXP DUP2 SLOAD DUP2 PUSH1 0xFF MUL NOT AND SWAP1 DUP4 ISZERO ISZERO MUL OR SWAP1 SSTORE POP DUP2 ISZERO PUSH2 0x9EA JUMPI DUP1 PUSH1 0x3 ADD PUSH0 DUP2 SLOAD DUP1 SWAP3 SWAP2 SWAP1 PUSH2 0x9E0 SWAP1 PUSH2 0x11C4 JUMP JUMPDEST SWAP2 SWAP1 POP SSTORE POP PUSH2 0xA04 JUMP JUMPDEST DUP1 PUSH1 0x4 ADD PUSH0 DUP2 SLOAD DUP1 SWAP3 SWAP2 SWAP1 PUSH2 0x9FE SWAP1 PUSH2 0x11C4 JUMP JUMPDEST SWAP2 SWAP1 POP SSTORE POP JUMPDEST PUSH32 0xF2913DBE661EE2ACC4A046D8FBCDC792373BDA34C41C6086484B5345E5785E5F DUP4 CALLER DUP5 PUSH1 0x40 MLOAD PUSH2 0xA37 SWAP4 SWAP3 SWAP2 SWAP1 PUSH2 0x1597 JUMP JUMPDEST PUSH1 0x40 MLOAD DUP1 SWAP2 SUB SWAP1 LOG1 POP POP POP JUMP JUMPDEST PUSH1 0x1 SLOAD DUP2 JUMP JUMPDEST PUSH0 PUSH1 0x40 MLOAD SWAP1 POP SWAP1 JUMP JUMPDEST PUSH0 PUSH0 REVERT JUMPDEST PUSH0 PUSH0 REVERT JUMPDEST PUSH0 DUP2 SWAP1 POP SWAP2 SWAP1 POP JUMP JUMPDEST PUSH2 0xA6D DUP2 PUSH2 0xA5B JUMP JUMPDEST DUP2 EQ PUSH2 0xA77 JUMPI PUSH0 PUSH0 REVERT JUMPDEST POP JUMP JUMPDEST PUSH0 DUP2 CALLDATALOAD SWAP1 POP PUSH2 0xA88 DUP2 PUSH2 0xA64 JUMP JUMPDEST SWAP3 SWAP2 POP POP JUMP JUMPDEST PUSH0 PUSH1 0x20 DUP3 DUP5 SUB SLT ISZERO PUSH2 0xAA3 JUMPI PUSH2 0xAA2 PUSH2 0xA53 JUMP JUMPDEST JUMPDEST PUSH0 PUSH2 0xAB0 DUP5 DUP3 DUP6 ADD PUSH2 0xA7A JUMP JUMPDEST SWAP2 POP POP SWAP3 SWAP2 POP POP JUMP JUMPDEST PUSH2 0xAC2 DUP2 PUSH2 0xA5B JUMP JUMPDEST DUP3 MSTORE POP POP JUMP JUMPDEST PUSH0 PUSH20 0xFFFFFFFFFFFFFFFFFFFFFFFFFFFFFFFFFFFFFFFF DUP3 AND SWAP1 POP SWAP2 SWAP1 POP JUMP JUMPDEST PUSH0 PUSH2 0xAF1 DUP3 PUSH2 0xAC8 JUMP JUMPDEST SWAP1 POP SWAP2 SWAP1 POP JUMP JUMPDEST PUSH2 0xB01 DUP2 PUSH2 0xAE7 JUMP JUMPDEST DUP3 MSTORE POP POP JUMP JUMPDEST PUSH0 DUP2 MLOAD SWAP1 POP SWAP2 SWAP1 POP JUMP JUMPDEST PUSH0 DUP3 DUP3 MSTORE PUSH1 0x20 DUP3 ADD SWAP1 POP SWAP3 SWAP2 POP POP JUMP JUMPDEST DUP3 DUP2 DUP4 MCOPY PUSH0 DUP4 DUP4 ADD MSTORE POP POP POP JUMP JUMPDEST PUSH0 PUSH1 0x1F NOT PUSH1 0x1F DUP4 ADD AND SWAP1 POP SWAP2 SWAP1 POP JUMP JUMPDEST PUSH0 PUSH2 0xB49 DUP3 PUSH2 0xB07 JUMP JUMPDEST PUSH2 0xB53 DUP2 DUP6 PUSH2 0xB11 JUMP JUMPDEST SWAP4 POP PUSH2 0xB63 DUP2 DUP6 PUSH1 0x20 DUP7 ADD PUSH2 0xB21 JUMP JUMPDEST PUSH2 0xB6C DUP2 PUSH2 0xB2F JUMP JUMPDEST DUP5 ADD SWAP2 POP POP SWAP3 SWAP2 POP POP JUMP JUMPDEST PUSH0 DUP2 ISZERO ISZERO SWAP1 POP SWAP2 SWAP1 POP JUMP JUMPDEST PUSH2 0xB8B DUP2 PUSH2 0xB77 JUMP JUMPDEST DUP3 MSTORE POP POP JUMP JUMPDEST PUSH0 PUSH2 0x100 DUP3 ADD SWAP1 POP PUSH2 0xBA5 PUSH0 DUP4 ADD DUP12 PUSH2 0xAB9 JUMP JUMPDEST PUSH2 0xBB2 PUSH1 0x20 DUP4 ADD DUP11 PUSH2 0xAF8 JUMP JUMPDEST DUP2 DUP2 SUB PUSH1 0x40 DUP4 ADD MSTORE PUSH2 0xBC4 DUP2 DUP10 PUSH2 0xB3F JUMP JUMPDEST SWAP1 POP PUSH2 0xBD3 PUSH1 0x60 DUP4 ADD DUP9 PUSH2 0xAB9 JUMP JUMPDEST PUSH2 0xBE0 PUSH1 0x80 DUP4 ADD DUP8 PUSH2 0xAB9 JUMP JUMPDEST PUSH2 0xBED PUSH1 0xA0 DUP4 ADD DUP7 PUSH2 0xAB9 JUMP JUMPDEST PUSH2 0xBFA PUSH1 0xC0 DUP4 ADD DUP6 PUSH2 0xB82 JUMP JUMPDEST PUSH2 0xC07 PUSH1 0xE0 DUP4 ADD DUP5 PUSH2 0xB82 JUMP JUMPDEST SWAP10 SWAP9 POP POP POP POP POP POP POP POP POP JUMP JUMPDEST PUSH0 PUSH1 0x20 DUP3 ADD SWAP1 POP PUSH2 0xC27 PUSH0 DUP4 ADD DUP5 PUSH2 0xAB9 JUMP JUMPDEST SWAP3 SWAP2 POP POP JUMP JUMPDEST PUSH2 0xC36 DUP2 PUSH2 0xAE7 JUMP JUMPDEST DUP2 EQ PUSH2 0xC40 JUMPI PUSH0 PUSH0 REVERT JUMPDEST POP JUMP JUMPDEST PUSH0 DUP2 CALLDATALOAD SWAP1 POP PUSH2 0xC51 DUP2 PUSH2 0xC2D JUMP JUMPDEST SWAP3 SWAP2 POP POP JUMP JUMPDEST PUSH0 PUSH0 PUSH1 0x40 DUP4 DUP6 SUB SLT ISZERO PUSH2 0xC6D JUMPI PUSH2 0xC6C PUSH2 0xA53 JUMP JUMPDEST JUMPDEST PUSH0 PUSH2 0xC7A DUP6 DUP3 DUP7 ADD PUSH2 0xA7A JUMP JUMPDEST SWAP3 POP POP PUSH1 0x20 PUSH2 0xC8B DUP6 DUP3 DUP7 ADD PUSH2 0xC43 JUMP JUMPDEST SWAP2 POP POP SWAP3 POP SWAP3 SWAP1 POP JUMP JUMPDEST PUSH0 PUSH1 0x20 DUP3 ADD SWAP1 POP PUSH2 0xCA8 PUSH0 DUP4 ADD DUP5 PUSH2 0xB82 JUMP JUMPDEST SWAP3 SWAP2 POP POP JUMP JUMPDEST PUSH0 PUSH0 REVERT JUMPDEST PUSH0 PUSH0 REVERT JUMPDEST PUSH32 0x4E487B7100000000000000000000000000000000000000000000000000000000 PUSH0 MSTORE PUSH1 0x41 PUSH1 0x4 MSTORE PUSH1 0x24 PUSH0 REVERT JUMPDEST PUSH2 0xCEC DUP3 PUSH2 0xB2F JUMP JUMPDEST DUP2 ADD DUP2 DUP2 LT PUSH8 0xFFFFFFFFFFFFFFFF DUP3 GT OR ISZERO PUSH2 0xD0B JUMPI PUSH2 0xD0A PUSH2 0xCB6 JUMP JUMPDEST JUMPDEST DUP1 PUSH1 0x40 MSTORE POP POP POP JUMP JUMPDEST PUSH0 PUSH2 0xD1D PUSH2 0xA4A JUMP JUMPDEST SWAP1 POP PUSH2 0xD29 DUP3 DUP3 PUSH2 0xCE3 JUMP JUMPDEST SWAP2 SWAP1 POP JUMP JUMPDEST PUSH0 PUSH8 0xFFFFFFFFFFFFFFFF DUP3 GT ISZERO PUSH2 0xD48 JUMPI PUSH2 0xD47 PUSH2 0xCB6 JUMP JUMPDEST JUMPDEST PUSH2 0xD51 DUP3 PUSH2 0xB2F JUMP JUMPDEST SWAP1 POP PUSH1 0x20 DUP2 ADD SWAP1 POP SWAP2 SWAP1 POP JUMP JUMPDEST DUP3 DUP2 DUP4 CALLDATACOPY PUSH0 DUP4 DUP4 ADD MSTORE POP POP POP JUMP JUMPDEST PUSH0 PUSH2 0xD7E PUSH2 0xD79 DUP5 PUSH2 0xD2E JUMP JUMPDEST PUSH2 0xD14 JUMP JUMPDEST SWAP1 POP DUP3 DUP2 MSTORE PUSH1 0x20 DUP2 ADD DUP5 DUP5 DUP5 ADD GT ISZERO PUSH2 0xD9A JUMPI PUSH2 0xD99 PUSH2 0xCB2 JUMP JUMPDEST JUMPDEST PUSH2 0xDA5 DUP5 DUP3 DUP6 PUSH2 0xD5E JUMP JUMPDEST POP SWAP4 SWAP3 POP POP POP JUMP JUMPDEST PUSH0 DUP3 PUSH1 0x1F DUP4 ADD SLT PUSH2 0xDC1 JUMPI PUSH2 0xDC0 PUSH2 0xCAE JUMP JUMPDEST JUMPDEST DUP2 CALLDATALOAD PUSH2 0xDD1 DUP5 DUP3 PUSH1 0x20 DUP7 ADD PUSH2 0xD6C JUMP JUMPDEST SWAP2 POP POP SWAP3 SWAP2 POP POP JUMP JUMPDEST PUSH0 PUSH1 0x20 DUP3 DUP5 SUB SLT ISZERO PUSH2 0xDEF JUMPI PUSH2 0xDEE PUSH2 0xA53 JUMP JUMPDEST JUMPDEST PUSH0 DUP3 ADD CALLDATALOAD PUSH8 0xFFFFFFFFFFFFFFFF DUP2 GT ISZERO PUSH2 0xE0C JUMPI PUSH2 0xE0B PUSH2 0xA57 JUMP JUMPDEST JUMPDEST PUSH2 0xE18 DUP5 DUP3 DUP6 ADD PUSH2 0xDAD JUMP JUMPDEST SWAP2 POP POP SWAP3 SWAP2 POP POP JUMP JUMPDEST PUSH0 PUSH1 0x20 DUP3 ADD SWAP1 POP PUSH2 0xE34 PUSH0 DUP4 ADD DUP5 PUSH2 0xAF8 JUMP JUMPDEST SWAP3 SWAP2 POP POP JUMP JUMPDEST PUSH2 0xE43 DUP2 PUSH2 0xB77 JUMP JUMPDEST DUP2 EQ PUSH2 0xE4D JUMPI PUSH0 PUSH0 REVERT JUMPDEST POP JUMP JUMPDEST PUSH0 DUP2 CALLDATALOAD SWAP1 POP PUSH2 0xE5E DUP2 PUSH2 0xE3A JUMP JUMPDEST SWAP3 SWAP2 POP POP JUMP JUMPDEST PUSH0 PUSH0 PUSH1 0x40 DUP4 DUP6 SUB SLT ISZERO PUSH2 0xE7A JUMPI PUSH2 0xE79 PUSH2 0xA53 JUMP JUMPDEST JUMPDEST PUSH0 PUSH2 0xE87 DUP6 DUP3 DUP7 ADD PUSH2 0xA7A JUMP JUMPDEST SWAP3 POP POP PUSH1 0x20 PUSH2 0xE98 DUP6 DUP3 DUP7 ADD PUSH2 0xE50 JUMP JUMPDEST SWAP2 POP POP SWAP3 POP SWAP3 SWAP1 POP JUMP JUMPDEST PUSH32 0x4E487B7100000000000000000000000000000000000000000000000000000000 PUSH0 MSTORE PUSH1 0x22 PUSH1 0x4 MSTORE PUSH1 0x24 PUSH0 REVERT JUMPDEST PUSH0 PUSH1 0x2 DUP3 DIV SWAP1 POP PUSH1 0x1 DUP3 AND DUP1 PUSH2 0xEE6 JUMPI PUSH1 0x7F DUP3 AND SWAP2 POP JUMPDEST PUSH1 0x20 DUP3 LT DUP2 SUB PUSH2 0xEF9 JUMPI PUSH2 0xEF8 PUSH2 0xEA2 JUMP JUMPDEST JUMPDEST POP SWAP2 SWAP1 POP JUMP JUMPDEST PUSH32 0x566F74696E672062656C756D20626572616B6869720000000000000000000000 PUSH0 DUP3 ADD MSTORE POP JUMP JUMPDEST PUSH0 PUSH2 0xF33 PUSH1 0x15 DUP4 PUSH2 0xB11 JUMP JUMPDEST SWAP2 POP PUSH2 0xF3E DUP3 PUSH2 0xEFF JUMP JUMPDEST PUSH1 0x20 DUP3 ADD SWAP1 POP SWAP2 SWAP1 POP JUMP JUMPDEST PUSH0 PUSH1 0x20 DUP3 ADD SWAP1 POP DUP2 DUP2 SUB PUSH0 DUP4 ADD MSTORE PUSH2 0xF60 DUP2 PUSH2 0xF27 JUMP JUMPDEST SWAP1 POP SWAP2 SWAP1 POP JUMP JUMPDEST PUSH32 0x5375646168206469656B73656B75736900000000000000000000000000000000 PUSH0 DUP3 ADD MSTORE POP JUMP JUMPDEST PUSH0 PUSH2 0xF9B PUSH1 0x10 DUP4 PUSH2 0xB11 JUMP JUMPDEST SWAP2 POP PUSH2 0xFA6 DUP3 PUSH2 0xF67 JUMP JUMPDEST PUSH1 0x20 DUP3 ADD SWAP1 POP SWAP2 SWAP1 POP JUMP JUMPDEST PUSH0 PUSH1 0x20 DUP3 ADD SWAP1 POP DUP2 DUP2 SUB PUSH0 DUP4 ADD MSTORE PUSH2 0xFC8 DUP2 PUSH2 0xF8F JUMP JUMPDEST SWAP1 POP SWAP2 SWAP1 POP JUMP JUMPDEST PUSH32 0x50726F706F73616C20746964616B206164610000000000000000000000000000 PUSH0 DUP3 ADD MSTORE POP JUMP JUMPDEST PUSH0 PUSH2 0x1003 PUSH1 0x12 DUP4 PUSH2 0xB11 JUMP JUMPDEST SWAP2 POP PUSH2 0x100E DUP3 PUSH2 0xFCF JUMP JUMPDEST PUSH1 0x20 DUP3 ADD SWAP1 POP SWAP2 SWAP1 POP JUMP JUMPDEST PUSH0 PUSH1 0x20 DUP3 ADD SWAP1 POP DUP2 DUP2 SUB PUSH0 DUP4 ADD MSTORE PUSH2 0x1030 DUP2 PUSH2 0xFF7 JUMP JUMPDEST SWAP1 POP SWAP2 SWAP1 POP JUMP JUMPDEST PUSH32 0x4E487B7100000000000000000000000000000000000000000000000000000000 PUSH0 MSTORE PUSH1 0x11 PUSH1 0x4 MSTORE PUSH1 0x24 PUSH0 REVERT JUMPDEST PUSH0 PUSH2 0x106E DUP3 PUSH2 0xA5B JUMP JUMPDEST SWAP2 POP PUSH2 0x1079 DUP4 PUSH2 0xA5B JUMP JUMPDEST SWAP3 POP DUP3 DUP3 ADD SWAP1 POP DUP1 DUP3 GT ISZERO PUSH2 0x1091 JUMPI PUSH2 0x1090 PUSH2 0x1037 JUMP JUMPDEST JUMPDEST SWAP3 SWAP2 POP POP JUMP JUMPDEST PUSH32 0x546964616B206164612079616E6720766F746500000000000000000000000000 PUSH0 DUP3 ADD MSTORE POP JUMP JUMPDEST PUSH0 PUSH2 0x10CB PUSH1 0x13 DUP4 PUSH2 0xB11 JUMP JUMPDEST SWAP2 POP PUSH2 0x10D6 DUP3 PUSH2 0x1097 JUMP JUMPDEST PUSH1 0x20 DUP3 ADD SWAP1 POP SWAP2 SWAP1 POP JUMP JUMPDEST PUSH0 PUSH1 0x20 DUP3 ADD SWAP1 POP DUP2 DUP2 SUB PUSH0 DUP4 ADD MSTORE PUSH2 0x10F8 DUP2 PUSH2 0x10BF JUMP JUMPDEST SWAP1 POP SWAP2 SWAP1 POP JUMP JUMPDEST PUSH0 PUSH2 0x1109 DUP3 PUSH2 0xA5B JUMP JUMPDEST SWAP2 POP PUSH2 0x1114 DUP4 PUSH2 0xA5B JUMP JUMPDEST SWAP3 POP DUP3 DUP3 MUL PUSH2 0x1122 DUP2 PUSH2 0xA5B JUMP JUMPDEST SWAP2 POP DUP3 DUP3 DIV DUP5 EQ DUP4 ISZERO OR PUSH2 0x1139 JUMPI PUSH2 0x1138 PUSH2 0x1037 JUMP JUMPDEST JUMPDEST POP SWAP3 SWAP2 POP POP JUMP JUMPDEST PUSH32 0x4E487B7100000000000000000000000000000000000000000000000000000000 PUSH0 MSTORE PUSH1 0x12 PUSH1 0x4 MSTORE PUSH1 0x24 PUSH0 REVERT JUMPDEST PUSH0 PUSH2 0x1177 DUP3 PUSH2 0xA5B JUMP JUMPDEST SWAP2 POP PUSH2 0x1182 DUP4 PUSH2 0xA5B JUMP JUMPDEST SWAP3 POP DUP3 PUSH2 0x1192 JUMPI PUSH2 0x1191 PUSH2 0x1140 JUMP JUMPDEST JUMPDEST DUP3 DUP3 DIV SWAP1 POP SWAP3 SWAP2 POP POP JUMP JUMPDEST PUSH0 PUSH1 0x40 DUP3 ADD SWAP1 POP PUSH2 0x11B0 PUSH0 DUP4 ADD DUP6 PUSH2 0xAB9 JUMP JUMPDEST PUSH2 0x11BD PUSH1 0x20 DUP4 ADD DUP5 PUSH2 0xB82 JUMP JUMPDEST SWAP4 SWAP3 POP POP POP JUMP JUMPDEST PUSH0 PUSH2 0x11CE DUP3 PUSH2 0xA5B JUMP JUMPDEST SWAP2 POP PUSH32 0xFFFFFFFFFFFFFFFFFFFFFFFFFFFFFFFFFFFFFFFFFFFFFFFFFFFFFFFFFFFFFFFF DUP3 SUB PUSH2 0x1200 JUMPI PUSH2 0x11FF PUSH2 0x1037 JUMP JUMPDEST JUMPDEST PUSH1 0x1 DUP3 ADD SWAP1 POP SWAP2 SWAP1 POP JUMP JUMPDEST PUSH0 DUP2 SWAP1 POP DUP2 PUSH0 MSTORE PUSH1 0x20 PUSH0 KECCAK256 SWAP1 POP SWAP2 SWAP1 POP JUMP JUMPDEST PUSH0 PUSH1 0x20 PUSH1 0x1F DUP4 ADD DIV SWAP1 POP SWAP2 SWAP1 POP JUMP JUMPDEST PUSH0 DUP3 DUP3 SHL SWAP1 POP SWAP3 SWAP2 POP POP JUMP JUMPDEST PUSH0 PUSH1 0x8 DUP4 MUL PUSH2 0x1267 PUSH32 0xFFFFFFFFFFFFFFFFFFFFFFFFFFFFFFFFFFFFFFFFFFFFFFFFFFFFFFFFFFFFFFFF DUP3 PUSH2 0x122C JUMP JUMPDEST PUSH2 0x1271 DUP7 DUP4 PUSH2 0x122C JUMP JUMPDEST SWAP6 POP DUP1 NOT DUP5 AND SWAP4 POP DUP1 DUP7 AND DUP5 OR SWAP3 POP POP POP SWAP4 SWAP3 POP POP POP JUMP JUMPDEST PUSH0 DUP2 SWAP1 POP SWAP2 SWAP1 POP JUMP JUMPDEST PUSH0 PUSH2 0x12AC PUSH2 0x12A7 PUSH2 0x12A2 DUP5 PUSH2 0xA5B JUMP JUMPDEST PUSH2 0x1289 JUMP JUMPDEST PUSH2 0xA5B JUMP JUMPDEST SWAP1 POP SWAP2 SWAP1 POP JUMP JUMPDEST PUSH0 DUP2 SWAP1 POP SWAP2 SWAP1 POP JUMP JUMPDEST PUSH2 0x12C5 DUP4 PUSH2 0x1292 JUMP JUMPDEST PUSH2 0x12D9 PUSH2 0x12D1 DUP3 PUSH2 0x12B3 JUMP JUMPDEST DUP5 DUP5 SLOAD PUSH2 0x1238 JUMP JUMPDEST DUP3 SSTORE POP POP POP POP JUMP JUMPDEST PUSH0 PUSH0 SWAP1 POP SWAP1 JUMP JUMPDEST PUSH2 0x12F0 PUSH2 0x12E1 JUMP JUMPDEST PUSH2 0x12FB DUP2 DUP5 DUP5 PUSH2 0x12BC JUMP JUMPDEST POP POP POP JUMP JUMPDEST PUSH0 JUMPDEST DUP3 DUP2 LT ISZERO PUSH2 0x1321 JUMPI PUSH2 0x1316 PUSH0 DUP3 DUP5 ADD PUSH2 0x12E8 JUMP JUMPDEST PUSH1 0x1 DUP2 ADD SWAP1 POP PUSH2 0x1302 JUMP JUMPDEST POP POP POP JUMP JUMPDEST PUSH1 0x1F DUP3 GT ISZERO PUSH2 0x1374 JUMPI DUP3 DUP3 GT ISZERO PUSH2 0x1373 JUMPI PUSH2 0x1340 DUP2 PUSH2 0x120B JUMP JUMPDEST PUSH2 0x1349 DUP4 PUSH2 0x121D JUMP JUMPDEST PUSH2 0x1352 DUP6 PUSH2 0x121D JUMP JUMPDEST PUSH1 0x20 DUP7 LT ISZERO PUSH2 0x135F JUMPI PUSH0 SWAP1 POP JUMPDEST DUP1 DUP4 ADD PUSH2 0x136E DUP3 DUP5 SUB DUP3 PUSH2 0x1300 JUMP JUMPDEST POP POP POP POP JUMPDEST JUMPDEST POP POP POP JUMP JUMPDEST PUSH0 DUP3 DUP3 SHR SWAP1 POP SWAP3 SWAP2 POP POP JUMP JUMPDEST PUSH0 PUSH2 0x1394 PUSH0 NOT DUP5 PUSH1 0x8 MUL PUSH2 0x1379 JUMP JUMPDEST NOT DUP1 DUP4 AND SWAP2 POP POP SWAP3 SWAP2 POP POP JUMP JUMPDEST PUSH0 PUSH2 0x13AC DUP4 DUP4 PUSH2 0x1385 JUMP JUMPDEST SWAP2 POP DUP3 PUSH1 0x2 MUL DUP3 OR SWAP1 POP SWAP3 SWAP2 POP POP JUMP JUMPDEST PUSH2 0x13C5 DUP3 PUSH2 0xB07 JUMP JUMPDEST PUSH8 0xFFFFFFFFFFFFFFFF DUP2 GT ISZERO PUSH2 0x13DE JUMPI PUSH2 0x13DD PUSH2 0xCB6 JUMP JUMPDEST JUMPDEST PUSH2 0x13E8 DUP3 SLOAD PUSH2 0xECF JUMP JUMPDEST PUSH2 0x13F3 DUP3 DUP3 DUP6 PUSH2 0x1326 JUMP JUMPDEST PUSH0 PUSH1 0x20 SWAP1 POP PUSH1 0x1F DUP4 GT PUSH1 0x1 DUP2 EQ PUSH2 0x1424 JUMPI PUSH0 DUP5 ISZERO PUSH2 0x1412 JUMPI DUP3 DUP8 ADD MLOAD SWAP1 POP JUMPDEST PUSH2 0x141C DUP6 DUP3 PUSH2 0x13A1 JUMP JUMPDEST DUP7 SSTORE POP PUSH2 0x1483 JUMP JUMPDEST PUSH1 0x1F NOT DUP5 AND PUSH2 0x1432 DUP7 PUSH2 0x120B JUMP JUMPDEST PUSH0 JUMPDEST DUP3 DUP2 LT ISZERO PUSH2 0x1459 JUMPI DUP5 DUP10 ADD MLOAD DUP3 SSTORE PUSH1 0x1 DUP3 ADD SWAP2 POP PUSH1 0x20 DUP6 ADD SWAP5 POP PUSH1 0x20 DUP2 ADD SWAP1 POP PUSH2 0x1434 JUMP JUMPDEST DUP7 DUP4 LT ISZERO PUSH2 0x1476 JUMPI DUP5 DUP10 ADD MLOAD PUSH2 0x1472 PUSH1 0x1F DUP10 AND DUP3 PUSH2 0x1385 JUMP JUMPDEST DUP4 SSTORE POP JUMPDEST PUSH1 0x1 PUSH1 0x2 DUP9 MUL ADD DUP9 SSTORE POP POP POP JUMPDEST POP POP POP POP POP POP JUMP JUMPDEST PUSH0 PUSH1 0x60 DUP3 ADD SWAP1 POP PUSH2 0x149E PUSH0 DUP4 ADD DUP7 PUSH2 0xAB9 JUMP JUMPDEST PUSH2 0x14AB PUSH1 0x20 DUP4 ADD DUP6 PUSH2 0xAF8 JUMP JUMPDEST DUP2 DUP2 SUB PUSH1 0x40 DUP4 ADD MSTORE PUSH2 0x14BD DUP2 DUP5 PUSH2 0xB3F JUMP JUMPDEST SWAP1 POP SWAP5 SWAP4 POP POP POP POP JUMP JUMPDEST PUSH32 0x566F74696E6720737564616820626572616B6869720000000000000000000000 PUSH0 DUP3 ADD MSTORE POP JUMP JUMPDEST PUSH0 PUSH2 0x14FB PUSH1 0x15 DUP4 PUSH2 0xB11 JUMP JUMPDEST SWAP2 POP PUSH2 0x1506 DUP3 PUSH2 0x14C7 JUMP JUMPDEST PUSH1 0x20 DUP3 ADD SWAP1 POP SWAP2 SWAP1 POP JUMP JUMPDEST PUSH0 PUSH1 0x20 DUP3 ADD SWAP1 POP DUP2 DUP2 SUB PUSH0 DUP4 ADD MSTORE PUSH2 0x1528 DUP2 PUSH2 0x14EF JUMP JUMPDEST SWAP1 POP SWAP2 SWAP1 POP JUMP JUMPDEST PUSH32 0x5375646168207065726E616820766F7465000000000000000000000000000000 PUSH0 DUP3 ADD MSTORE POP JUMP JUMPDEST PUSH0 PUSH2 0x1563 PUSH1 0x11 DUP4 PUSH2 0xB11 JUMP JUMPDEST SWAP2 POP PUSH2 0x156E DUP3 PUSH2 0x152F JUMP JUMPDEST PUSH1 0x20 DUP3 ADD SWAP1 POP SWAP2 SWAP1 POP JUMP JUMPDEST PUSH0 PUSH1 0x20 DUP3 ADD SWAP1 POP DUP2 DUP2 SUB PUSH0 DUP4 ADD MSTORE PUSH2 0x1590 DUP2 PUSH2 0x1557 JUMP JUMPDEST SWAP1 POP SWAP2 SWAP1 POP JUMP JUMPDEST PUSH0 PUSH1 0x60 DUP3 ADD SWAP1 POP PUSH2 0x15AA PUSH0 DUP4 ADD DUP7 PUSH2 0xAB9 JUMP JUMPDEST PUSH2 0x15B7 PUSH1 0x20 DUP4 ADD DUP6 PUSH2 0xAF8 JUMP JUMPDEST PUSH2 0x15C4 PUSH1 0x40 DUP4 ADD DUP5 PUSH2 0xB82 JUMP JUMPDEST SWAP5 SWAP4 POP POP POP POP JUMP INVALID LOG2 PUSH5 0x6970667358 0x22 SLT KECCAK256 PUSH18 0x64E7F5C4E1FAA3BD8852E246C6DA8F97FE24 DUP8 0xBD DUP10 PUSH3 0x49E4E DUP13 MUL PUSH0 PUSH9 0xD4FB64736F6C634300 ADDMOD 0x22 STOP CALLER "
		},
		"gasEstimates": {
			"creation": {
				"codeDepositCost": "1126800",
				"executionCost": "74661",
				"totalCost": "1201461"
			},
			"external": {
				"createProposal(string)": "infinite",
				"executeProposal(uint256)": "infinite",
				"getProposal(uint256)": "infinite",
				"hasVoted(uint256,address)": "3137",
				"owner()": "2529",
				"proposalCount()": "2513",
				"proposals(uint256)": "infinite",
				"quorumPercentage()": "2425",
				"vote(uint256,bool)": "infinite",
				"votingDuration()": "2470"
			}
		},
		"methodIdentifiers": {
			"createProposal(string)": "49c2a1a6",
			"executeProposal(uint256)": "0d61b519",
			"getProposal(uint256)": "c7f758a8",
			"hasVoted(uint256,address)": "43859632",
			"owner()": "8da5cb5b",
			"proposalCount()": "da35c664",
			"proposals(uint256)": "013cf08b",
			"quorumPercentage()": "4fa76ec9",
			"vote(uint256,bool)": "c9d27afe",
			"votingDuration()": "132002fc"
		}
	},
	"abi": [
		{
			"inputs": [],
			"stateMutability": "nonpayable",
			"type": "constructor"
		},
		{
			"anonymous": false,
			"inputs": [
				{
					"indexed": false,
					"internalType": "uint256",
					"name": "id",
					"type": "uint256"
				},
				{
					"indexed": false,
					"internalType": "address",
					"name": "proposer",
					"type": "address"
				},
				{
					"indexed": false,
					"internalType": "string",
					"name": "description",
					"type": "string"
				}
			],
			"name": "ProposalCreated",
			"type": "event"
		},
		{
			"anonymous": false,
			"inputs": [
				{
					"indexed": false,
					"internalType": "uint256",
					"name": "proposalId",
					"type": "uint256"
				},
				{
					"indexed": false,
					"internalType": "bool",
					"name": "passed",
					"type": "bool"
				}
			],
			"name": "ProposalExecuted",
			"type": "event"
		},
		{
			"anonymous": false,
			"inputs": [
				{
					"indexed": false,
					"internalType": "uint256",
					"name": "proposalId",
					"type": "uint256"
				},
				{
					"indexed": false,
					"internalType": "address",
					"name": "voter",
					"type": "address"
				},
				{
					"indexed": false,
					"internalType": "bool",
					"name": "support",
					"type": "bool"
				}
			],
			"name": "Voted",
			"type": "event"
		},
		{
			"inputs": [
				{
					"internalType": "string",
					"name": "description",
					"type": "string"
				}
			],
			"name": "createProposal",
			"outputs": [
				{
					"internalType": "uint256",
					"name": "",
					"type": "uint256"
				}
			],
			"stateMutability": "nonpayable",
			"type": "function"
		},
		{
			"inputs": [
				{
					"internalType": "uint256",
					"name": "proposalId",
					"type": "uint256"
				}
			],
			"name": "executeProposal",
			"outputs": [],
			"stateMutability": "nonpayable",
			"type": "function"
		},
		{
			"inputs": [
				{
					"internalType": "uint256",
					"name": "proposalId",
					"type": "uint256"
				}
			],
			"name": "getProposal",
			"outputs": [
				{
					"internalType": "uint256",
					"name": "id",
					"type": "uint256"
				},
				{
					"internalType": "address",
					"name": "proposer",
					"type": "address"
				},
				{
					"internalType": "string",
					"name": "description",
					"type": "string"
				},
				{
					"internalType": "uint256",
					"name": "yesVotes",
					"type": "uint256"
				},
				{
					"internalType": "uint256",
					"name": "noVotes",
					"type": "uint256"
				},
				{
					"internalType": "uint256",
					"name": "deadline",
					"type": "uint256"
				},
				{
					"internalType": "bool",
					"name": "executed",
					"type": "bool"
				},
				{
					"internalType": "bool",
					"name": "passed",
					"type": "bool"
				}
			],
			"stateMutability": "view",
			"type": "function"
		},
		{
			"inputs": [
				{
					"internalType": "uint256",
					"name": "",
					"type": "uint256"
				},
				{
					"internalType": "address",
					"name": "",
					"type": "address"
				}
			],
			"name": "hasVoted",
			"outputs": [
				{
					"internalType": "bool",
					"name": "",
					"type": "bool"
				}
			],
			"stateMutability": "view",
			"type": "function"
		},
		{
			"inputs": [],
			"name": "owner",
			"outputs": [
				{
					"internalType": "address",
					"name": "",
					"type": "address"
				}
			],
			"stateMutability": "view",
			"type": "function"
		},
		{
			"inputs": [],
			"name": "proposalCount",
			"outputs": [
				{
					"internalType": "uint256",
					"name": "",
					"type": "uint256"
				}
			],
			"stateMutability": "view",
			"type": "function"
		},
		{
			"inputs": [
				{
					"internalType": "uint256",
					"name": "",
					"type": "uint256"
				}
			],
			"name": "proposals",
			"outputs": [
				{
					"internalType": "uint256",
					"name": "id",
					"type": "uint256"
				},
				{
					"internalType": "address",
					"name": "proposer",
					"type": "address"
				},
				{
					"internalType": "string",
					"name": "description",
					"type": "string"
				},
				{
					"internalType": "uint256",
					"name": "yesVotes",
					"type": "uint256"
				},
				{
					"internalType": "uint256",
					"name": "noVotes",
					"type": "uint256"
				},
				{
					"internalType": "uint256",
					"name": "deadline",
					"type": "uint256"
				},
				{
					"internalType": "bool",
					"name": "executed",
					"type": "bool"
				},
				{
					"internalType": "bool",
					"name": "passed",
					"type": "bool"
				}
			],
			"stateMutability": "view",
			"type": "function"
		},
		{
			"inputs": [],
			"name": "quorumPercentage",
			"outputs": [
				{
					"internalType": "uint256",
					"name": "",
					"type": "uint256"
				}
			],
			"stateMutability": "view",
			"type": "function"
		},
		{
			"inputs": [
				{
					"internalType": "uint256",
					"name": "proposalId",
					"type": "uint256"
				},
				{
					"internalType": "bool",
					"name": "support",
					"type": "bool"
				}
			],
			"name": "vote",
			"outputs": [],
			"stateMutability": "nonpayable",
			"type": "function"
		},
		{
			"inputs": [],
			"name": "votingDuration",
			"outputs": [
				{
					"internalType": "uint256",
					"name": "",
					"type": "uint256"
				}
			],
			"stateMutability": "view",
			"type": "function"
		}
	]
}