{
	"data": {
		"bytecode": {
			"linkReferences": {},
			"object": "60806040526001600355603c6004553480156018575f5ffd5b50335f5f6101000a81548173ffffffffffffffffffffffffffffffffffffffff021916908373ffffffffffffffffffffffffffffffffffffffff160217905550610d25806100655f395ff3fe608060405260043610610085575f3560e01c8063702590771161005857806370259077146100fd5780638da5cb5b14610139578063c345315314610163578063d82e3962146101a2578063f9931855146101de57610085565b8063046dfb20146100895780632def6620146100b35780633a4b66f1146100c95780635d773b2c146100d3575b5f5ffd5b348015610094575f5ffd5b5061009d61021a565b6040516100aa9190610868565b60405180910390f35b3480156100be575f5ffd5b506100c7610220565b005b6100d1610505565b005b3480156100de575f5ffd5b506100e761069a565b6040516100f49190610868565b60405180910390f35b348015610108575f5ffd5b50610123600480360381019061011e91906108df565b6106a0565b6040516101309190610868565b60405180910390f35b348015610144575f5ffd5b5061014d6106b5565b60405161015a9190610919565b60405180910390f35b34801561016e575f5ffd5b50610189600480360381019061018491906108df565b6106d9565b6040516101999493929190610932565b60405180910390f35b3480156101ad575f5ffd5b506101c860048036038101906101c391906108df565b61078b565b6040516101d59190610868565b60405180910390f35b3480156101e9575f5ffd5b5061020460048036038101906101ff91906108df565b61083b565b6040516102119190610868565b60405180910390f35b60045481565b5f60015f3373ffffffffffffffffffffffffffffffffffffffff1673ffffffffffffffffffffffffffffffffffffffff1681526020019081526020015f20541161029f576040517f08c379a0000000000000000000000000000000000000000000000000000000008152600401610296906109cf565b60405180910390fd5b60045460025f3373ffffffffffffffffffffffffffffffffffffffff1673ffffffffffffffffffffffffffffffffffffffff1681526020019081526020015f20546102ea9190610a1a565b42101561032c576040517f08c379a000000000000000000000000000000000000000000000000000000000815260040161032390610abd565b60405180910390fd5b5f60015f3373ffffffffffffffffffffffffffffffffffffffff1673ffffffffffffffffffffffffffffffffffffffff1681526020019081526020015f205490505f6103773361078b565b90505f60015f3373ffffffffffffffffffffffffffffffffffffffff1673ffffffffffffffffffffffffffffffffffffffff1681526020019081526020015f20819055505f60025f3373ffffffffffffffffffffffffffffffffffffffff1673ffffffffffffffffffffffffffffffffffffffff1681526020019081526020015f20819055505f3373ffffffffffffffffffffffffffffffffffffffff1682846104219190610a1a565b60405161042d90610b08565b5f6040518083038185875af1925050503d805f8114610467576040519150601f19603f3d011682016040523d82523d5f602084013e61046c565b606091505b50509050806104b0576040517f08c379a00000000000000000000000000000000000000000000000000000000081526004016104a790610b66565b60405180910390fd5b3373ffffffffffffffffffffffffffffffffffffffff167f7fc4727e062e336010f2c282598ef5f14facb3de68cf8195c2f23e1454b2b74e84846040516104f8929190610b84565b60405180910390a2505050565b5f3411610547576040517f08c379a000000000000000000000000000000000000000000000000000000000815260040161053e90610bf5565b60405180910390fd5b5f60015f3373ffffffffffffffffffffffffffffffffffffffff1673ffffffffffffffffffffffffffffffffffffffff1681526020019081526020015f2054146105c6576040517f08c379a00000000000000000000000000000000000000000000000000000000081526004016105bd90610c5d565b60405180910390fd5b3460015f3373ffffffffffffffffffffffffffffffffffffffff1673ffffffffffffffffffffffffffffffffffffffff1681526020019081526020015f20819055504260025f3373ffffffffffffffffffffffffffffffffffffffff1673ffffffffffffffffffffffffffffffffffffffff1681526020019081526020015f20819055503373ffffffffffffffffffffffffffffffffffffffff167f9e71bc8eea02a63969f509818f2dafb9254532904319f9dbda79b67bd34a5f3d346040516106909190610868565b60405180910390a2565b60035481565b6002602052805f5260405f205f915090505481565b5f5f9054906101000a900473ffffffffffffffffffffffffffffffffffffffff1681565b5f5f5f5f60015f8673ffffffffffffffffffffffffffffffffffffffff1673ffffffffffffffffffffffffffffffffffffffff1681526020019081526020015f2054935060025f8673ffffffffffffffffffffffffffffffffffffffff1673ffffffffffffffffffffffffffffffffffffffff1681526020019081526020015f205492505f831161076a575f610777565b82426107769190610c7b565b5b91506107828561078b565b90509193509193565b5f5f60015f8473ffffffffffffffffffffffffffffffffffffffff1673ffffffffffffffffffffffffffffffffffffffff1681526020019081526020015f2054036107d8575f9050610836565b5f60025f8473ffffffffffffffffffffffffffffffffffffffff1673ffffffffffffffffffffffffffffffffffffffff1681526020019081526020015f2054426108229190610c7b565b9050600354816108329190610cae565b9150505b919050565b6001602052805f5260405f205f915090505481565b5f819050919050565b61086281610850565b82525050565b5f60208201905061087b5f830184610859565b92915050565b5f5ffd5b5f73ffffffffffffffffffffffffffffffffffffffff82169050919050565b5f6108ae82610885565b9050919050565b6108be816108a4565b81146108c8575f5ffd5b50565b5f813590506108d9816108b5565b92915050565b5f602082840312156108f4576108f3610881565b5b5f610901848285016108cb565b91505092915050565b610913816108a4565b82525050565b5f60208201905061092c5f83018461090a565b92915050565b5f6080820190506109455f830187610859565b6109526020830186610859565b61095f6040830185610859565b61096c6060830184610859565b95945050505050565b5f82825260208201905092915050565b7f746964616b20616461207374616b6520616b74696600000000000000000000005f82015250565b5f6109b9601583610975565b91506109c482610985565b602082019050919050565b5f6020820190508181035f8301526109e6816109ad565b9050919050565b7f4e487b71000000000000000000000000000000000000000000000000000000005f52601160045260245ffd5b5f610a2482610850565b9150610a2f83610850565b9250828201905080821115610a4757610a466109ed565b5b92915050565b7f6d696e696d756d207374616b6520706572696f642062656c756d2074657263615f8201527f7061690000000000000000000000000000000000000000000000000000000000602082015250565b5f610aa7602383610975565b9150610ab282610a4d565b604082019050919050565b5f6020820190508181035f830152610ad481610a9b565b9050919050565b5f81905092915050565b50565b5f610af35f83610adb565b9150610afe82610ae5565b5f82019050919050565b5f610b1282610ae8565b9150819050919050565b7f5472616e7366657220676167616c0000000000000000000000000000000000005f82015250565b5f610b50600e83610975565b9150610b5b82610b1c565b602082019050919050565b5f6020820190508181035f830152610b7d81610b44565b9050919050565b5f604082019050610b975f830185610859565b610ba46020830184610859565b9392505050565b7f4861727573207374616b65206c656269682064617269203020455448000000005f82015250565b5f610bdf601c83610975565b9150610bea82610bab565b602082019050919050565b5f6020820190508181035f830152610c0c81610bd3565b9050919050565b7f537564616820616461207374616b6520616b74696600000000000000000000005f82015250565b5f610c47601583610975565b9150610c5282610c13565b602082019050919050565b5f6020820190508181035f830152610c7481610c3b565b9050919050565b5f610c8582610850565b9150610c9083610850565b9250828203905081811115610ca857610ca76109ed565b5b92915050565b5f610cb882610850565b9150610cc383610850565b9250828202610cd181610850565b91508282048414831517610ce857610ce76109ed565b5b509291505056fea2646970667358221220ea2ea7fbcc77a5aad6051c9d6c3cde02e4168139b05fc4d4abc5bc31bfa841d864736f6c63430008220033",
			"opcodes": "PUSH1 0x80 PUSH1 0x40 MSTORE PUSH1 0x1 PUSH1 0x3 SSTORE PUSH1 0x3C PUSH1 0x4 SSTORE CALLVALUE DUP1 ISZERO PUSH1 0x18 JUMPI PUSH0 PUSH0 REVERT JUMPDEST POP CALLER PUSH0 PUSH0 PUSH2 0x100 EXP DUP2 SLOAD DUP2 PUSH20 0xFFFFFFFFFFFFFFFFFFFFFFFFFFFFFFFFFFFFFFFF MUL NOT AND SWAP1 DUP4 PUSH20 0xFFFFFFFFFFFFFFFFFFFFFFFFFFFFFFFFFFFFFFFF AND MUL OR SWAP1 SSTORE POP PUSH2 0xD25 DUP1 PUSH2 0x65 PUSH0 CODECOPY PUSH0 RETURN INVALID PUSH1 0x80 PUSH1 0x40 MSTORE PUSH1 0x4 CALLDATASIZE LT PUSH2 0x85 JUMPI PUSH0 CALLDATALOAD PUSH1 0xE0 SHR DUP1 PUSH4 0x70259077 GT PUSH2 0x58 JUMPI DUP1 PUSH4 0x70259077 EQ PUSH2 0xFD JUMPI DUP1 PUSH4 0x8DA5CB5B EQ PUSH2 0x139 JUMPI DUP1 PUSH4 0xC3453153 EQ PUSH2 0x163 JUMPI DUP1 PUSH4 0xD82E3962 EQ PUSH2 0x1A2 JUMPI DUP1 PUSH4 0xF9931855 EQ PUSH2 0x1DE JUMPI PUSH2 0x85 JUMP JUMPDEST DUP1 PUSH4 0x46DFB20 EQ PUSH2 0x89 JUMPI DUP1 PUSH4 0x2DEF6620 EQ PUSH2 0xB3 JUMPI DUP1 PUSH4 0x3A4B66F1 EQ PUSH2 0xC9 JUMPI DUP1 PUSH4 0x5D773B2C EQ PUSH2 0xD3 JUMPI JUMPDEST PUSH0 PUSH0 REVERT JUMPDEST CALLVALUE DUP1 ISZERO PUSH2 0x94 JUMPI PUSH0 PUSH0 REVERT JUMPDEST POP PUSH2 0x9D PUSH2 0x21A JUMP JUMPDEST PUSH1 0x40 MLOAD PUSH2 0xAA SWAP2 SWAP1 PUSH2 0x868 JUMP JUMPDEST PUSH1 0x40 MLOAD DUP1 SWAP2 SUB SWAP1 RETURN JUMPDEST CALLVALUE DUP1 ISZERO PUSH2 0xBE JUMPI PUSH0 PUSH0 REVERT JUMPDEST POP PUSH2 0xC7 PUSH2 0x220 JUMP JUMPDEST STOP JUMPDEST PUSH2 0xD1 PUSH2 0x505 JUMP JUMPDEST STOP JUMPDEST CALLVALUE DUP1 ISZERO PUSH2 0xDE JUMPI PUSH0 PUSH0 REVERT JUMPDEST POP PUSH2 0xE7 PUSH2 0x69A JUMP JUMPDEST PUSH1 0x40 MLOAD PUSH2 0xF4 SWAP2 SWAP1 PUSH2 0x868 JUMP JUMPDEST PUSH1 0x40 MLOAD DUP1 SWAP2 SUB SWAP1 RETURN JUMPDEST CALLVALUE DUP1 ISZERO PUSH2 0x108 JUMPI PUSH0 PUSH0 REVERT JUMPDEST POP PUSH2 0x123 PUSH1 0x4 DUP1 CALLDATASIZE SUB DUP2 ADD SWAP1 PUSH2 0x11E SWAP2 SWAP1 PUSH2 0x8DF JUMP JUMPDEST PUSH2 0x6A0 JUMP JUMPDEST PUSH1 0x40 MLOAD PUSH2 0x130 SWAP2 SWAP1 PUSH2 0x868 JUMP JUMPDEST PUSH1 0x40 MLOAD DUP1 SWAP2 SUB SWAP1 RETURN JUMPDEST CALLVALUE DUP1 ISZERO PUSH2 0x144 JUMPI PUSH0 PUSH0 REVERT JUMPDEST POP PUSH2 0x14D PUSH2 0x6B5 JUMP JUMPDEST PUSH1 0x40 MLOAD PUSH2 0x15A SWAP2 SWAP1 PUSH2 0x919 JUMP JUMPDEST PUSH1 0x40 MLOAD DUP1 SWAP2 SUB SWAP1 RETURN JUMPDEST CALLVALUE DUP1 ISZERO PUSH2 0x16E JUMPI PUSH0 PUSH0 REVERT JUMPDEST POP PUSH2 0x189 PUSH1 0x4 DUP1 CALLDATASIZE SUB DUP2 ADD SWAP1 PUSH2 0x184 SWAP2 SWAP1 PUSH2 0x8DF JUMP JUMPDEST PUSH2 0x6D9 JUMP JUMPDEST PUSH1 0x40 MLOAD PUSH2 0x199 SWAP5 SWAP4 SWAP3 SWAP2 SWAP1 PUSH2 0x932 JUMP JUMPDEST PUSH1 0x40 MLOAD DUP1 SWAP2 SUB SWAP1 RETURN JUMPDEST CALLVALUE DUP1 ISZERO PUSH2 0x1AD JUMPI PUSH0 PUSH0 REVERT JUMPDEST POP PUSH2 0x1C8 PUSH1 0x4 DUP1 CALLDATASIZE SUB DUP2 ADD SWAP1 PUSH2 0x1C3 SWAP2 SWAP1 PUSH2 0x8DF JUMP JUMPDEST PUSH2 0x78B JUMP JUMPDEST PUSH1 0x40 MLOAD PUSH2 0x1D5 SWAP2 SWAP1 PUSH2 0x868 JUMP JUMPDEST PUSH1 0x40 MLOAD DUP1 SWAP2 SUB SWAP1 RETURN JUMPDEST CALLVALUE DUP1 ISZERO PUSH2 0x1E9 JUMPI PUSH0 PUSH0 REVERT JUMPDEST POP PUSH2 0x204 PUSH1 0x4 DUP1 CALLDATASIZE SUB DUP2 ADD SWAP1 PUSH2 0x1FF SWAP2 SWAP1 PUSH2 0x8DF JUMP JUMPDEST PUSH2 0x83B JUMP JUMPDEST PUSH1 0x40 MLOAD PUSH2 0x211 SWAP2 SWAP1 PUSH2 0x868 JUMP JUMPDEST PUSH1 0x40 MLOAD DUP1 SWAP2 SUB SWAP1 RETURN JUMPDEST PUSH1 0x4 SLOAD DUP2 JUMP JUMPDEST PUSH0 PUSH1 0x1 PUSH0 CALLER PUSH20 0xFFFFFFFFFFFFFFFFFFFFFFFFFFFFFFFFFFFFFFFF AND PUSH20 0xFFFFFFFFFFFFFFFFFFFFFFFFFFFFFFFFFFFFFFFF AND DUP2 MSTORE PUSH1 0x20 ADD SWAP1 DUP2 MSTORE PUSH1 0x20 ADD PUSH0 KECCAK256 SLOAD GT PUSH2 0x29F JUMPI PUSH1 0x40 MLOAD PUSH32 0x8C379A000000000000000000000000000000000000000000000000000000000 DUP2 MSTORE PUSH1 0x4 ADD PUSH2 0x296 SWAP1 PUSH2 0x9CF JUMP JUMPDEST PUSH1 0x40 MLOAD DUP1 SWAP2 SUB SWAP1 REVERT JUMPDEST PUSH1 0x4 SLOAD PUSH1 0x2 PUSH0 CALLER PUSH20 0xFFFFFFFFFFFFFFFFFFFFFFFFFFFFFFFFFFFFFFFF AND PUSH20 0xFFFFFFFFFFFFFFFFFFFFFFFFFFFFFFFFFFFFFFFF AND DUP2 MSTORE PUSH1 0x20 ADD SWAP1 DUP2 MSTORE PUSH1 0x20 ADD PUSH0 KECCAK256 SLOAD PUSH2 0x2EA SWAP2 SWAP1 PUSH2 0xA1A JUMP JUMPDEST TIMESTAMP LT ISZERO PUSH2 0x32C JUMPI PUSH1 0x40 MLOAD PUSH32 0x8C379A000000000000000000000000000000000000000000000000000000000 DUP2 MSTORE PUSH1 0x4 ADD PUSH2 0x323 SWAP1 PUSH2 0xABD JUMP JUMPDEST PUSH1 0x40 MLOAD DUP1 SWAP2 SUB SWAP1 REVERT JUMPDEST PUSH0 PUSH1 0x1 PUSH0 CALLER PUSH20 0xFFFFFFFFFFFFFFFFFFFFFFFFFFFFFFFFFFFFFFFF AND PUSH20 0xFFFFFFFFFFFFFFFFFFFFFFFFFFFFFFFFFFFFFFFF AND DUP2 MSTORE PUSH1 0x20 ADD SWAP1 DUP2 MSTORE PUSH1 0x20 ADD PUSH0 KECCAK256 SLOAD SWAP1 POP PUSH0 PUSH2 0x377 CALLER PUSH2 0x78B JUMP JUMPDEST SWAP1 POP PUSH0 PUSH1 0x1 PUSH0 CALLER PUSH20 0xFFFFFFFFFFFFFFFFFFFFFFFFFFFFFFFFFFFFFFFF AND PUSH20 0xFFFFFFFFFFFFFFFFFFFFFFFFFFFFFFFFFFFFFFFF AND DUP2 MSTORE PUSH1 0x20 ADD SWAP1 DUP2 MSTORE PUSH1 0x20 ADD PUSH0 KECCAK256 DUP2 SWAP1 SSTORE POP PUSH0 PUSH1 0x2 PUSH0 CALLER PUSH20 0xFFFFFFFFFFFFFFFFFFFFFFFFFFFFFFFFFFFFFFFF AND PUSH20 0xFFFFFFFFFFFFFFFFFFFFFFFFFFFFFFFFFFFFFFFF AND DUP2 MSTORE PUSH1 0x20 ADD SWAP1 DUP2 MSTORE PUSH1 0x20 ADD PUSH0 KECCAK256 DUP2 SWAP1 SSTORE POP PUSH0 CALLER PUSH20 0xFFFFFFFFFFFFFFFFFFFFFFFFFFFFFFFFFFFFFFFF AND DUP3 DUP5 PUSH2 0x421 SWAP2 SWAP1 PUSH2 0xA1A JUMP JUMPDEST PUSH1 0x40 MLOAD PUSH2 0x42D SWAP1 PUSH2 0xB08 JUMP JUMPDEST PUSH0 PUSH1 0x40 MLOAD DUP1 DUP4 SUB DUP2 DUP6 DUP8 GAS CALL SWAP3 POP POP POP RETURNDATASIZE DUP1 PUSH0 DUP2 EQ PUSH2 0x467 JUMPI PUSH1 0x40 MLOAD SWAP2 POP PUSH1 0x1F NOT PUSH1 0x3F RETURNDATASIZE ADD AND DUP3 ADD PUSH1 0x40 MSTORE RETURNDATASIZE DUP3 MSTORE RETURNDATASIZE PUSH0 PUSH1 0x20 DUP5 ADD RETURNDATACOPY PUSH2 0x46C JUMP JUMPDEST PUSH1 0x60 SWAP2 POP JUMPDEST POP POP SWAP1 POP DUP1 PUSH2 0x4B0 JUMPI PUSH1 0x40 MLOAD PUSH32 0x8C379A000000000000000000000000000000000000000000000000000000000 DUP2 MSTORE PUSH1 0x4 ADD PUSH2 0x4A7 SWAP1 PUSH2 0xB66 JUMP JUMPDEST PUSH1 0x40 MLOAD DUP1 SWAP2 SUB SWAP1 REVERT JUMPDEST CALLER PUSH20 0xFFFFFFFFFFFFFFFFFFFFFFFFFFFFFFFFFFFFFFFF AND PUSH32 0x7FC4727E062E336010F2C282598EF5F14FACB3DE68CF8195C2F23E1454B2B74E DUP5 DUP5 PUSH1 0x40 MLOAD PUSH2 0x4F8 SWAP3 SWAP2 SWAP1 PUSH2 0xB84 JUMP JUMPDEST PUSH1 0x40 MLOAD DUP1 SWAP2 SUB SWAP1 LOG2 POP POP POP JUMP JUMPDEST PUSH0 CALLVALUE GT PUSH2 0x547 JUMPI PUSH1 0x40 MLOAD PUSH32 0x8C379A000000000000000000000000000000000000000000000000000000000 DUP2 MSTORE PUSH1 0x4 ADD PUSH2 0x53E SWAP1 PUSH2 0xBF5 JUMP JUMPDEST PUSH1 0x40 MLOAD DUP1 SWAP2 SUB SWAP1 REVERT JUMPDEST PUSH0 PUSH1 0x1 PUSH0 CALLER PUSH20 0xFFFFFFFFFFFFFFFFFFFFFFFFFFFFFFFFFFFFFFFF AND PUSH20 0xFFFFFFFFFFFFFFFFFFFFFFFFFFFFFFFFFFFFFFFF AND DUP2 MSTORE PUSH1 0x20 ADD SWAP1 DUP2 MSTORE PUSH1 0x20 ADD PUSH0 KECCAK256 SLOAD EQ PUSH2 0x5C6 JUMPI PUSH1 0x40 MLOAD PUSH32 0x8C379A000000000000000000000000000000000000000000000000000000000 DUP2 MSTORE PUSH1 0x4 ADD PUSH2 0x5BD SWAP1 PUSH2 0xC5D JUMP JUMPDEST PUSH1 0x40 MLOAD DUP1 SWAP2 SUB SWAP1 REVERT JUMPDEST CALLVALUE PUSH1 0x1 PUSH0 CALLER PUSH20 0xFFFFFFFFFFFFFFFFFFFFFFFFFFFFFFFFFFFFFFFF AND PUSH20 0xFFFFFFFFFFFFFFFFFFFFFFFFFFFFFFFFFFFFFFFF AND DUP2 MSTORE PUSH1 0x20 ADD SWAP1 DUP2 MSTORE PUSH1 0x20 ADD PUSH0 KECCAK256 DUP2 SWAP1 SSTORE POP TIMESTAMP PUSH1 0x2 PUSH0 CALLER PUSH20 0xFFFFFFFFFFFFFFFFFFFFFFFFFFFFFFFFFFFFFFFF AND PUSH20 0xFFFFFFFFFFFFFFFFFFFFFFFFFFFFFFFFFFFFFFFF AND DUP2 MSTORE PUSH1 0x20 ADD SWAP1 DUP2 MSTORE PUSH1 0x20 ADD PUSH0 KECCAK256 DUP2 SWAP1 SSTORE POP CALLER PUSH20 0xFFFFFFFFFFFFFFFFFFFFFFFFFFFFFFFFFFFFFFFF AND PUSH32 0x9E71BC8EEA02A63969F509818F2DAFB9254532904319F9DBDA79B67BD34A5F3D CALLVALUE PUSH1 0x40 MLOAD PUSH2 0x690 SWAP2 SWAP1 PUSH2 0x868 JUMP JUMPDEST PUSH1 0x40 MLOAD DUP1 SWAP2 SUB SWAP1 LOG2 JUMP JUMPDEST PUSH1 0x3 SLOAD DUP2 JUMP JUMPDEST PUSH1 0x2 PUSH1 0x20 MSTORE DUP1 PUSH0 MSTORE PUSH1 0x40 PUSH0 KECCAK256 PUSH0 SWAP2 POP SWAP1 POP SLOAD DUP2 JUMP JUMPDEST PUSH0 PUSH0 SWAP1 SLOAD SWAP1 PUSH2 0x100 EXP SWAP1 DIV PUSH20 0xFFFFFFFFFFFFFFFFFFFFFFFFFFFFFFFFFFFFFFFF AND DUP2 JUMP JUMPDEST PUSH0 PUSH0 PUSH0 PUSH0 PUSH1 0x1 PUSH0 DUP7 PUSH20 0xFFFFFFFFFFFFFFFFFFFFFFFFFFFFFFFFFFFFFFFF AND PUSH20 0xFFFFFFFFFFFFFFFFFFFFFFFFFFFFFFFFFFFFFFFF AND DUP2 MSTORE PUSH1 0x20 ADD SWAP1 DUP2 MSTORE PUSH1 0x20 ADD PUSH0 KECCAK256 SLOAD SWAP4 POP PUSH1 0x2 PUSH0 DUP7 PUSH20 0xFFFFFFFFFFFFFFFFFFFFFFFFFFFFFFFFFFFFFFFF AND PUSH20 0xFFFFFFFFFFFFFFFFFFFFFFFFFFFFFFFFFFFFFFFF AND DUP2 MSTORE PUSH1 0x20 ADD SWAP1 DUP2 MSTORE PUSH1 0x20 ADD PUSH0 KECCAK256 SLOAD SWAP3 POP PUSH0 DUP4 GT PUSH2 0x76A JUMPI PUSH0 PUSH2 0x777 JUMP JUMPDEST DUP3 TIMESTAMP PUSH2 0x776 SWAP2 SWAP1 PUSH2 0xC7B JUMP JUMPDEST JUMPDEST SWAP2 POP PUSH2 0x782 DUP6 PUSH2 0x78B JUMP JUMPDEST SWAP1 POP SWAP2 SWAP4 POP SWAP2 SWAP4 JUMP JUMPDEST PUSH0 PUSH0 PUSH1 0x1 PUSH0 DUP5 PUSH20 0xFFFFFFFFFFFFFFFFFFFFFFFFFFFFFFFFFFFFFFFF AND PUSH20 0xFFFFFFFFFFFFFFFFFFFFFFFFFFFFFFFFFFFFFFFF AND DUP2 MSTORE PUSH1 0x20 ADD SWAP1 DUP2 MSTORE PUSH1 0x20 ADD PUSH0 KECCAK256 SLOAD SUB PUSH2 0x7D8 JUMPI PUSH0 SWAP1 POP PUSH2 0x836 JUMP JUMPDEST PUSH0 PUSH1 0x2 PUSH0 DUP5 PUSH20 0xFFFFFFFFFFFFFFFFFFFFFFFFFFFFFFFFFFFFFFFF AND PUSH20 0xFFFFFFFFFFFFFFFFFFFFFFFFFFFFFFFFFFFFFFFF AND DUP2 MSTORE PUSH1 0x20 ADD SWAP1 DUP2 MSTORE PUSH1 0x20 ADD PUSH0 KECCAK256 SLOAD TIMESTAMP PUSH2 0x822 SWAP2 SWAP1 PUSH2 0xC7B JUMP JUMPDEST SWAP1 POP PUSH1 0x3 SLOAD DUP2 PUSH2 0x832 SWAP2 SWAP1 PUSH2 0xCAE JUMP JUMPDEST SWAP2 POP POP JUMPDEST SWAP2 SWAP1 POP JUMP JUMPDEST PUSH1 0x1 PUSH1 0x20 MSTORE DUP1 PUSH0 MSTORE PUSH1 0x40 PUSH0 KECCAK256 PUSH0 SWAP2 POP SWAP1 POP SLOAD DUP2 JUMP JUMPDEST PUSH0 DUP2 SWAP1 POP SWAP2 SWAP1 POP JUMP JUMPDEST PUSH2 0x862 DUP2 PUSH2 0x850 JUMP JUMPDEST DUP3 MSTORE POP POP JUMP JUMPDEST PUSH0 PUSH1 0x20 DUP3 ADD SWAP1 POP PUSH2 0x87B PUSH0 DUP4 ADD DUP5 PUSH2 0x859 JUMP JUMPDEST SWAP3 SWAP2 POP POP JUMP JUMPDEST PUSH0 PUSH0 REVERT JUMPDEST PUSH0 PUSH20 0xFFFFFFFFFFFFFFFFFFFFFFFFFFFFFFFFFFFFFFFF DUP3 AND SWAP1 POP SWAP2 SWAP1 POP JUMP JUMPDEST PUSH0 PUSH2 0x8AE DUP3 PUSH2 0x885 JUMP JUMPDEST SWAP1 POP SWAP2 SWAP1 POP JUMP JUMPDEST PUSH2 0x8BE DUP2 PUSH2 0x8A4 JUMP JUMPDEST DUP2 EQ PUSH2 0x8C8 JUMPI PUSH0 PUSH0 REVERT JUMPDEST POP JUMP JUMPDEST PUSH0 DUP2 CALLDATALOAD SWAP1 POP PUSH2 0x8D9 DUP2 PUSH2 0x8B5 JUMP JUMPDEST SWAP3 SWAP2 POP POP JUMP JUMPDEST PUSH0 PUSH1 0x20 DUP3 DUP5 SUB SLT ISZERO PUSH2 0x8F4 JUMPI PUSH2 0x8F3 PUSH2 0x881 JUMP JUMPDEST JUMPDEST PUSH0 PUSH2 0x901 DUP5 DUP3 DUP6 ADD PUSH2 0x8CB JUMP JUMPDEST SWAP2 POP POP SWAP3 SWAP2 POP POP JUMP JUMPDEST PUSH2 0x913 DUP2 PUSH2 0x8A4 JUMP JUMPDEST DUP3 MSTORE POP POP JUMP JUMPDEST PUSH0 PUSH1 0x20 DUP3 ADD SWAP1 POP PUSH2 0x92C PUSH0 DUP4 ADD DUP5 PUSH2 0x90A JUMP JUMPDEST SWAP3 SWAP2 POP POP JUMP JUMPDEST PUSH0 PUSH1 0x80 DUP3 ADD SWAP1 POP PUSH2 0x945 PUSH0 DUP4 ADD DUP8 PUSH2 0x859 JUMP JUMPDEST PUSH2 0x952 PUSH1 0x20 DUP4 ADD DUP7 PUSH2 0x859 JUMP JUMPDEST PUSH2 0x95F PUSH1 0x40 DUP4 ADD DUP6 PUSH2 0x859 JUMP JUMPDEST PUSH2 0x96C PUSH1 0x60 DUP4 ADD DUP5 PUSH2 0x859 JUMP JUMPDEST SWAP6 SWAP5 POP POP POP POP POP JUMP JUMPDEST PUSH0 DUP3 DUP3 MSTORE PUSH1 0x20 DUP3 ADD SWAP1 POP SWAP3 SWAP2 POP POP JUMP JUMPDEST PUSH32 0x746964616B20616461207374616B6520616B7469660000000000000000000000 PUSH0 DUP3 ADD MSTORE POP JUMP JUMPDEST PUSH0 PUSH2 0x9B9 PUSH1 0x15 DUP4 PUSH2 0x975 JUMP JUMPDEST SWAP2 POP PUSH2 0x9C4 DUP3 PUSH2 0x985 JUMP JUMPDEST PUSH1 0x20 DUP3 ADD SWAP1 POP SWAP2 SWAP1 POP JUMP JUMPDEST PUSH0 PUSH1 0x20 DUP3 ADD SWAP1 POP DUP2 DUP2 SUB PUSH0 DUP4 ADD MSTORE PUSH2 0x9E6 DUP2 PUSH2 0x9AD JUMP JUMPDEST SWAP1 POP SWAP2 SWAP1 POP JUMP JUMPDEST PUSH32 0x4E487B7100000000000000000000000000000000000000000000000000000000 PUSH0 MSTORE PUSH1 0x11 PUSH1 0x4 MSTORE PUSH1 0x24 PUSH0 REVERT JUMPDEST PUSH0 PUSH2 0xA24 DUP3 PUSH2 0x850 JUMP JUMPDEST SWAP2 POP PUSH2 0xA2F DUP4 PUSH2 0x850 JUMP JUMPDEST SWAP3 POP DUP3 DUP3 ADD SWAP1 POP DUP1 DUP3 GT ISZERO PUSH2 0xA47 JUMPI PUSH2 0xA46 PUSH2 0x9ED JUMP JUMPDEST JUMPDEST SWAP3 SWAP2 POP POP JUMP JUMPDEST PUSH32 0x6D696E696D756D207374616B6520706572696F642062656C756D207465726361 PUSH0 DUP3 ADD MSTORE PUSH32 0x7061690000000000000000000000000000000000000000000000000000000000 PUSH1 0x20 DUP3 ADD MSTORE POP JUMP JUMPDEST PUSH0 PUSH2 0xAA7 PUSH1 0x23 DUP4 PUSH2 0x975 JUMP JUMPDEST SWAP2 POP PUSH2 0xAB2 DUP3 PUSH2 0xA4D JUMP JUMPDEST PUSH1 0x40 DUP3 ADD SWAP1 POP SWAP2 SWAP1 POP JUMP JUMPDEST PUSH0 PUSH1 0x20 DUP3 ADD SWAP1 POP DUP2 DUP2 SUB PUSH0 DUP4 ADD MSTORE PUSH2 0xAD4 DUP2 PUSH2 0xA9B JUMP JUMPDEST SWAP1 POP SWAP2 SWAP1 POP JUMP JUMPDEST PUSH0 DUP2 SWAP1 POP SWAP3 SWAP2 POP POP JUMP JUMPDEST POP JUMP JUMPDEST PUSH0 PUSH2 0xAF3 PUSH0 DUP4 PUSH2 0xADB JUMP JUMPDEST SWAP2 POP PUSH2 0xAFE DUP3 PUSH2 0xAE5 JUMP JUMPDEST PUSH0 DUP3 ADD SWAP1 POP SWAP2 SWAP1 POP JUMP JUMPDEST PUSH0 PUSH2 0xB12 DUP3 PUSH2 0xAE8 JUMP JUMPDEST SWAP2 POP DUP2 SWAP1 POP SWAP2 SWAP1 POP JUMP JUMPDEST PUSH32 0x5472616E7366657220676167616C000000000000000000000000000000000000 PUSH0 DUP3 ADD MSTORE POP JUMP JUMPDEST PUSH0 PUSH2 0xB50 PUSH1 0xE DUP4 PUSH2 0x975 JUMP JUMPDEST SWAP2 POP PUSH2 0xB5B DUP3 PUSH2 0xB1C JUMP JUMPDEST PUSH1 0x20 DUP3 ADD SWAP1 POP SWAP2 SWAP1 POP JUMP JUMPDEST PUSH0 PUSH1 0x20 DUP3 ADD SWAP1 POP DUP2 DUP2 SUB PUSH0 DUP4 ADD MSTORE PUSH2 0xB7D DUP2 PUSH2 0xB44 JUMP JUMPDEST SWAP1 POP SWAP2 SWAP1 POP JUMP JUMPDEST PUSH0 PUSH1 0x40 DUP3 ADD SWAP1 POP PUSH2 0xB97 PUSH0 DUP4 ADD DUP6 PUSH2 0x859 JUMP JUMPDEST PUSH2 0xBA4 PUSH1 0x20 DUP4 ADD DUP5 PUSH2 0x859 JUMP JUMPDEST SWAP4 SWAP3 POP POP POP JUMP JUMPDEST PUSH32 0x4861727573207374616B65206C65626968206461726920302045544800000000 PUSH0 DUP3 ADD MSTORE POP JUMP JUMPDEST PUSH0 PUSH2 0xBDF PUSH1 0x1C DUP4 PUSH2 0x975 JUMP JUMPDEST SWAP2 POP PUSH2 0xBEA DUP3 PUSH2 0xBAB JUMP JUMPDEST PUSH1 0x20 DUP3 ADD SWAP1 POP SWAP2 SWAP1 POP JUMP JUMPDEST PUSH0 PUSH1 0x20 DUP3 ADD SWAP1 POP DUP2 DUP2 SUB PUSH0 DUP4 ADD MSTORE PUSH2 0xC0C DUP2 PUSH2 0xBD3 JUMP JUMPDEST SWAP1 POP SWAP2 SWAP1 POP JUMP JUMPDEST PUSH32 0x537564616820616461207374616B6520616B7469660000000000000000000000 PUSH0 DUP3 ADD MSTORE POP JUMP JUMPDEST PUSH0 PUSH2 0xC47 PUSH1 0x15 DUP4 PUSH2 0x975 JUMP JUMPDEST SWAP2 POP PUSH2 0xC52 DUP3 PUSH2 0xC13 JUMP JUMPDEST PUSH1 0x20 DUP3 ADD SWAP1 POP SWAP2 SWAP1 POP JUMP JUMPDEST PUSH0 PUSH1 0x20 DUP3 ADD SWAP1 POP DUP2 DUP2 SUB PUSH0 DUP4 ADD MSTORE PUSH2 0xC74 DUP2 PUSH2 0xC3B JUMP JUMPDEST SWAP1 POP SWAP2 SWAP1 POP JUMP JUMPDEST PUSH0 PUSH2 0xC85 DUP3 PUSH2 0x850 JUMP JUMPDEST SWAP2 POP PUSH2 0xC90 DUP4 PUSH2 0x850 JUMP JUMPDEST SWAP3 POP DUP3 DUP3 SUB SWAP1 POP DUP2 DUP2 GT ISZERO PUSH2 0xCA8 JUMPI PUSH2 0xCA7 PUSH2 0x9ED JUMP JUMPDEST JUMPDEST SWAP3 SWAP2 POP POP JUMP JUMPDEST PUSH0 PUSH2 0xCB8 DUP3 PUSH2 0x850 JUMP JUMPDEST SWAP2 POP PUSH2 0xCC3 DUP4 PUSH2 0x850 JUMP JUMPDEST SWAP3 POP DUP3 DUP3 MUL PUSH2 0xCD1 DUP2 PUSH2 0x850 JUMP JUMPDEST SWAP2 POP DUP3 DUP3 DIV DUP5 EQ DUP4 ISZERO OR PUSH2 0xCE8 JUMPI PUSH2 0xCE7 PUSH2 0x9ED JUMP JUMPDEST JUMPDEST POP SWAP3 SWAP2 POP POP JUMP INVALID LOG2 PUSH5 0x6970667358 0x22 SLT KECCAK256 0xEA 0x2E 0xA7 EXTSTATICCALL 0xCC PUSH24 0xA5AAD6051C9D6C3CDE02E4168139B05FC4D4ABC5BC31BFA8 COINBASE 0xD8 PUSH5 0x736F6C6343 STOP ADDMOD 0x22 STOP CALLER "
		},
		"gasEstimates": {
			"creation": {
				"codeDepositCost": "673000",
				"executionCost": "69182",
				"totalCost": "742182"
			},
			"external": {
				"calculateReward(address)": "infinite",
				"getStakeInfo(address)": "infinite",
				"minimumStakePeriod()": "2426",
				"owner()": "2529",
				"rewardRatePerSecond()": "2492",
				"stake()": "48364",
				"stakeTimestamp(address)": "2802",
				"stakedAmount(address)": "2890",
				"unstake()": "infinite"
			}
		},
		"methodIdentifiers": {
			"calculateReward(address)": "d82e3962",
			"getStakeInfo(address)": "c3453153",
			"minimumStakePeriod()": "046dfb20",
			"owner()": "8da5cb5b",
			"rewardRatePerSecond()": "5d773b2c",
			"stake()": "3a4b66f1",
			"stakeTimestamp(address)": "70259077",
			"stakedAmount(address)": "f9931855",
			"unstake()": "2def6620"
		}
	},
	"abi": [
		{
			"inputs": [],
			"stateMutability": "nonpayable",
			"type": "constructor"
		},
		{
			"anonymous": false,
			"inputs": [
				{
					"indexed": true,
					"internalType": "address",
					"name": "user",
					"type": "address"
				},
				{
					"indexed": false,
					"internalType": "uint256",
					"name": "amount",
					"type": "uint256"
				}
			],
			"name": "Staked",
			"type": "event"
		},
		{
			"anonymous": false,
			"inputs": [
				{
					"indexed": true,
					"internalType": "address",
					"name": "user",
					"type": "address"
				},
				{
					"indexed": false,
					"internalType": "uint256",
					"name": "amount",
					"type": "uint256"
				},
				{
					"indexed": false,
					"internalType": "uint256",
					"name": "reward",
					"type": "uint256"
				}
			],
			"name": "Unstaked",
			"type": "event"
		},
		{
			"inputs": [
				{
					"internalType": "address",
					"name": "user",
					"type": "address"
				}
			],
			"name": "calculateReward",
			"outputs": [
				{
					"internalType": "uint256",
					"name": "",
					"type": "uint256"
				}
			],
			"stateMutability": "view",
			"type": "function"
		},
		{
			"inputs": [
				{
					"internalType": "address",
					"name": "user",
					"type": "address"
				}
			],
			"name": "getStakeInfo",
			"outputs": [
				{
					"internalType": "uint256",
					"name": "amount",
					"type": "uint256"
				},
				{
					"internalType": "uint256",
					"name": "timestamp",
					"type": "uint256"
				},
				{
					"internalType": "uint256",
					"name": "duration",
					"type": "uint256"
				},
				{
					"internalType": "uint256",
					"name": "reward",
					"type": "uint256"
				}
			],
			"stateMutability": "view",
			"type": "function"
		},
		{
			"inputs": [],
			"name": "minimumStakePeriod",
			"outputs": [
				{
					"internalType": "uint256",
					"name": "",
					"type": "uint256"
				}
			],
			"stateMutability": "view",
			"type": "function"
		},
		{
			"inputs": [],
			"name": "owner",
			"outputs": [
				{
					"internalType": "address",
					"name": "",
					"type": "address"
				}
			],
			"stateMutability": "view",
			"type": "function"
		},
		{
			"inputs": [],
			"name": "rewardRatePerSecond",
			"outputs": [
				{
					"internalType": "uint256",
					"name": "",
					"type": "uint256"
				}
			],
			"stateMutability": "view",
			"type": "function"
		},
		{
			"inputs": [],
			"name": "stake",
			"outputs": [],
			"stateMutability": "payable",
			"type": "function"
		},
		{
			"inputs": [
				{
					"internalType": "address",
					"name": "",
					"type": "address"
				}
			],
			"name": "stakeTimestamp",
			"outputs": [
				{
					"internalType": "uint256",
					"name": "",
					"type": "uint256"
				}
			],
			"stateMutability": "view",
			"type": "function"
		},
		{
			"inputs": [
				{
					"internalType": "address",
					"name": "",
					"type": "address"
				}
			],
			"name": "stakedAmount",
			"outputs": [
				{
					"internalType": "uint256",
					"name": "",
					"type": "uint256"
				}
			],
			"stateMutability": "view",
			"type": "function"
		},
		{
			"inputs": [],
			"name": "unstake",
			"outputs": [],
			"stateMutability": "nonpayable",
			"type": "function"
		}
	]
}